{
  "contracts/Planets.sol": {
    "PlanetsContract": {
      "abi": [
        {
          "inputs": [
            {
              "internalType": "string",
              "name": "_tokenName",
              "type": "string"
            },
            {
              "internalType": "string",
              "name": "_tokenSymbol",
              "type": "string"
            },
            {
              "internalType": "uint256",
              "name": "_cost",
              "type": "uint256"
            },
            {
              "internalType": "uint256",
              "name": "_maxSupply",
              "type": "uint256"
            },
            {
              "internalType": "uint256",
              "name": "_maxMintAmountPerTx",
              "type": "uint256"
            },
            {
              "internalType": "string",
              "name": "_hiddenMetadataUri",
              "type": "string"
            }
          ],
          "stateMutability": "nonpayable",
          "type": "constructor"
        },
        {
          "inputs": [],
          "name": "ApprovalCallerNotOwnerNorApproved",
          "type": "error"
        },
        {
          "inputs": [],
          "name": "ApprovalQueryForNonexistentToken",
          "type": "error"
        },
        {
          "inputs": [],
          "name": "ApprovalToCurrentOwner",
          "type": "error"
        },
        {
          "inputs": [],
          "name": "ApproveToCaller",
          "type": "error"
        },
        {
          "inputs": [],
          "name": "BalanceQueryForZeroAddress",
          "type": "error"
        },
        {
          "inputs": [],
          "name": "MintToZeroAddress",
          "type": "error"
        },
        {
          "inputs": [],
          "name": "MintZeroQuantity",
          "type": "error"
        },
        {
          "inputs": [],
          "name": "OwnerQueryForNonexistentToken",
          "type": "error"
        },
        {
          "inputs": [],
          "name": "TransferCallerNotOwnerNorApproved",
          "type": "error"
        },
        {
          "inputs": [],
          "name": "TransferFromIncorrectOwner",
          "type": "error"
        },
        {
          "inputs": [],
          "name": "TransferToNonERC721ReceiverImplementer",
          "type": "error"
        },
        {
          "inputs": [],
          "name": "TransferToZeroAddress",
          "type": "error"
        },
        {
          "anonymous": false,
          "inputs": [
            {
              "indexed": true,
              "internalType": "address",
              "name": "owner",
              "type": "address"
            },
            {
              "indexed": true,
              "internalType": "address",
              "name": "approved",
              "type": "address"
            },
            {
              "indexed": true,
              "internalType": "uint256",
              "name": "tokenId",
              "type": "uint256"
            }
          ],
          "name": "Approval",
          "type": "event"
        },
        {
          "anonymous": false,
          "inputs": [
            {
              "indexed": true,
              "internalType": "address",
              "name": "owner",
              "type": "address"
            },
            {
              "indexed": true,
              "internalType": "address",
              "name": "operator",
              "type": "address"
            },
            {
              "indexed": false,
              "internalType": "bool",
              "name": "approved",
              "type": "bool"
            }
          ],
          "name": "ApprovalForAll",
          "type": "event"
        },
        {
          "anonymous": false,
          "inputs": [
            {
              "indexed": true,
              "internalType": "address",
              "name": "previousOwner",
              "type": "address"
            },
            {
              "indexed": true,
              "internalType": "address",
              "name": "newOwner",
              "type": "address"
            }
          ],
          "name": "OwnershipTransferred",
          "type": "event"
        },
        {
          "anonymous": false,
          "inputs": [
            {
              "indexed": true,
              "internalType": "address",
              "name": "from",
              "type": "address"
            },
            {
              "indexed": true,
              "internalType": "address",
              "name": "to",
              "type": "address"
            },
            {
              "indexed": true,
              "internalType": "uint256",
              "name": "tokenId",
              "type": "uint256"
            }
          ],
          "name": "Transfer",
          "type": "event"
        },
        {
          "inputs": [
            {
              "internalType": "address",
              "name": "to",
              "type": "address"
            },
            {
              "internalType": "uint256",
              "name": "tokenId",
              "type": "uint256"
            }
          ],
          "name": "approve",
          "outputs": [],
          "stateMutability": "nonpayable",
          "type": "function"
        },
        {
          "inputs": [
            {
              "internalType": "address",
              "name": "owner",
              "type": "address"
            }
          ],
          "name": "balanceOf",
          "outputs": [
            {
              "internalType": "uint256",
              "name": "",
              "type": "uint256"
            }
          ],
          "stateMutability": "view",
          "type": "function"
        },
        {
          "inputs": [],
          "name": "cost",
          "outputs": [
            {
              "internalType": "uint256",
              "name": "",
              "type": "uint256"
            }
          ],
          "stateMutability": "view",
          "type": "function"
        },
        {
          "inputs": [
            {
              "internalType": "uint256",
              "name": "tokenId",
              "type": "uint256"
            }
          ],
          "name": "getApproved",
          "outputs": [
            {
              "internalType": "address",
              "name": "",
              "type": "address"
            }
          ],
          "stateMutability": "view",
          "type": "function"
        },
        {
          "inputs": [],
          "name": "hiddenMetadataUri",
          "outputs": [
            {
              "internalType": "string",
              "name": "",
              "type": "string"
            }
          ],
          "stateMutability": "view",
          "type": "function"
        },
        {
          "inputs": [
            {
              "internalType": "address",
              "name": "owner",
              "type": "address"
            },
            {
              "internalType": "address",
              "name": "operator",
              "type": "address"
            }
          ],
          "name": "isApprovedForAll",
          "outputs": [
            {
              "internalType": "bool",
              "name": "",
              "type": "bool"
            }
          ],
          "stateMutability": "view",
          "type": "function"
        },
        {
          "inputs": [],
          "name": "maxMintAmountPerTx",
          "outputs": [
            {
              "internalType": "uint256",
              "name": "",
              "type": "uint256"
            }
          ],
          "stateMutability": "view",
          "type": "function"
        },
        {
          "inputs": [],
          "name": "maxSupply",
          "outputs": [
            {
              "internalType": "uint256",
              "name": "",
              "type": "uint256"
            }
          ],
          "stateMutability": "view",
          "type": "function"
        },
        {
          "inputs": [],
          "name": "merkleRoot",
          "outputs": [
            {
              "internalType": "bytes32",
              "name": "",
              "type": "bytes32"
            }
          ],
          "stateMutability": "view",
          "type": "function"
        },
        {
          "inputs": [
            {
              "internalType": "uint256",
              "name": "_mintAmount",
              "type": "uint256"
            }
          ],
          "name": "mint",
          "outputs": [],
          "stateMutability": "payable",
          "type": "function"
        },
        {
          "inputs": [
            {
              "internalType": "uint256",
              "name": "_mintAmount",
              "type": "uint256"
            },
            {
              "internalType": "address",
              "name": "_receiver",
              "type": "address"
            }
          ],
          "name": "mintForAddress",
          "outputs": [],
          "stateMutability": "nonpayable",
          "type": "function"
        },
        {
          "inputs": [],
          "name": "name",
          "outputs": [
            {
              "internalType": "string",
              "name": "",
              "type": "string"
            }
          ],
          "stateMutability": "view",
          "type": "function"
        },
        {
          "inputs": [],
          "name": "owner",
          "outputs": [
            {
              "internalType": "address",
              "name": "",
              "type": "address"
            }
          ],
          "stateMutability": "view",
          "type": "function"
        },
        {
          "inputs": [
            {
              "internalType": "uint256",
              "name": "tokenId",
              "type": "uint256"
            }
          ],
          "name": "ownerOf",
          "outputs": [
            {
              "internalType": "address",
              "name": "",
              "type": "address"
            }
          ],
          "stateMutability": "view",
          "type": "function"
        },
        {
          "inputs": [],
          "name": "paused",
          "outputs": [
            {
              "internalType": "bool",
              "name": "",
              "type": "bool"
            }
          ],
          "stateMutability": "view",
          "type": "function"
        },
        {
          "inputs": [],
          "name": "renounceOwnership",
          "outputs": [],
          "stateMutability": "nonpayable",
          "type": "function"
        },
        {
          "inputs": [],
          "name": "revealed",
          "outputs": [
            {
              "internalType": "bool",
              "name": "",
              "type": "bool"
            }
          ],
          "stateMutability": "view",
          "type": "function"
        },
        {
          "inputs": [
            {
              "internalType": "address",
              "name": "from",
              "type": "address"
            },
            {
              "internalType": "address",
              "name": "to",
              "type": "address"
            },
            {
              "internalType": "uint256",
              "name": "tokenId",
              "type": "uint256"
            }
          ],
          "name": "safeTransferFrom",
          "outputs": [],
          "stateMutability": "nonpayable",
          "type": "function"
        },
        {
          "inputs": [
            {
              "internalType": "address",
              "name": "from",
              "type": "address"
            },
            {
              "internalType": "address",
              "name": "to",
              "type": "address"
            },
            {
              "internalType": "uint256",
              "name": "tokenId",
              "type": "uint256"
            },
            {
              "internalType": "bytes",
              "name": "_data",
              "type": "bytes"
            }
          ],
          "name": "safeTransferFrom",
          "outputs": [],
          "stateMutability": "nonpayable",
          "type": "function"
        },
        {
          "inputs": [
            {
              "internalType": "address",
              "name": "operator",
              "type": "address"
            },
            {
              "internalType": "bool",
              "name": "approved",
              "type": "bool"
            }
          ],
          "name": "setApprovalForAll",
          "outputs": [],
          "stateMutability": "nonpayable",
          "type": "function"
        },
        {
          "inputs": [
            {
              "internalType": "uint256",
              "name": "_cost",
              "type": "uint256"
            }
          ],
          "name": "setCost",
          "outputs": [],
          "stateMutability": "nonpayable",
          "type": "function"
        },
        {
          "inputs": [
            {
              "internalType": "string",
              "name": "_hiddenMetadataUri",
              "type": "string"
            }
          ],
          "name": "setHiddenMetadataUri",
          "outputs": [],
          "stateMutability": "nonpayable",
          "type": "function"
        },
        {
          "inputs": [
            {
              "internalType": "uint256",
              "name": "_maxMintAmountPerTx",
              "type": "uint256"
            }
          ],
          "name": "setMaxMintAmountPerTx",
          "outputs": [],
          "stateMutability": "nonpayable",
          "type": "function"
        },
        {
          "inputs": [
            {
              "internalType": "bytes32",
              "name": "_merkleRoot",
              "type": "bytes32"
            }
          ],
          "name": "setMerkleRoot",
          "outputs": [],
          "stateMutability": "nonpayable",
          "type": "function"
        },
        {
          "inputs": [
            {
              "internalType": "bool",
              "name": "_state",
              "type": "bool"
            }
          ],
          "name": "setPaused",
          "outputs": [],
          "stateMutability": "nonpayable",
          "type": "function"
        },
        {
          "inputs": [
            {
              "internalType": "bool",
              "name": "_state",
              "type": "bool"
            }
          ],
          "name": "setRevealed",
          "outputs": [],
          "stateMutability": "nonpayable",
          "type": "function"
        },
        {
          "inputs": [
            {
              "internalType": "string",
              "name": "_uriPrefix",
              "type": "string"
            }
          ],
          "name": "setUriPrefix",
          "outputs": [],
          "stateMutability": "nonpayable",
          "type": "function"
        },
        {
          "inputs": [
            {
              "internalType": "string",
              "name": "_uriSuffix",
              "type": "string"
            }
          ],
          "name": "setUriSuffix",
          "outputs": [],
          "stateMutability": "nonpayable",
          "type": "function"
        },
        {
          "inputs": [
            {
              "internalType": "bool",
              "name": "_state",
              "type": "bool"
            }
          ],
          "name": "setWhitelistMintEnabled",
          "outputs": [],
          "stateMutability": "nonpayable",
          "type": "function"
        },
        {
          "inputs": [
            {
              "internalType": "bytes4",
              "name": "interfaceId",
              "type": "bytes4"
            }
          ],
          "name": "supportsInterface",
          "outputs": [
            {
              "internalType": "bool",
              "name": "",
              "type": "bool"
            }
          ],
          "stateMutability": "view",
          "type": "function"
        },
        {
          "inputs": [],
          "name": "symbol",
          "outputs": [
            {
              "internalType": "string",
              "name": "",
              "type": "string"
            }
          ],
          "stateMutability": "view",
          "type": "function"
        },
        {
          "inputs": [
            {
              "internalType": "uint256",
              "name": "_tokenId",
              "type": "uint256"
            }
          ],
          "name": "tokenURI",
          "outputs": [
            {
              "internalType": "string",
              "name": "",
              "type": "string"
            }
          ],
          "stateMutability": "view",
          "type": "function"
        },
        {
          "inputs": [],
          "name": "totalSupply",
          "outputs": [
            {
              "internalType": "uint256",
              "name": "",
              "type": "uint256"
            }
          ],
          "stateMutability": "view",
          "type": "function"
        },
        {
          "inputs": [
            {
              "internalType": "address",
              "name": "from",
              "type": "address"
            },
            {
              "internalType": "address",
              "name": "to",
              "type": "address"
            },
            {
              "internalType": "uint256",
              "name": "tokenId",
              "type": "uint256"
            }
          ],
          "name": "transferFrom",
          "outputs": [],
          "stateMutability": "nonpayable",
          "type": "function"
        },
        {
          "inputs": [
            {
              "internalType": "address",
              "name": "newOwner",
              "type": "address"
            }
          ],
          "name": "transferOwnership",
          "outputs": [],
          "stateMutability": "nonpayable",
          "type": "function"
        },
        {
          "inputs": [],
          "name": "uriPrefix",
          "outputs": [
            {
              "internalType": "string",
              "name": "",
              "type": "string"
            }
          ],
          "stateMutability": "view",
          "type": "function"
        },
        {
          "inputs": [],
          "name": "uriSuffix",
          "outputs": [
            {
              "internalType": "string",
              "name": "",
              "type": "string"
            }
          ],
          "stateMutability": "view",
          "type": "function"
        },
        {
          "inputs": [
            {
              "internalType": "address",
              "name": "_owner",
              "type": "address"
            }
          ],
          "name": "walletOfOwner",
          "outputs": [
            {
              "internalType": "uint256[]",
              "name": "",
              "type": "uint256[]"
            }
          ],
          "stateMutability": "view",
          "type": "function"
        },
        {
          "inputs": [
            {
              "internalType": "address",
              "name": "",
              "type": "address"
            }
          ],
          "name": "whitelistClaimed",
          "outputs": [
            {
              "internalType": "bool",
              "name": "",
              "type": "bool"
            }
          ],
          "stateMutability": "view",
          "type": "function"
        },
        {
          "inputs": [
            {
              "internalType": "uint256",
              "name": "_mintAmount",
              "type": "uint256"
            },
            {
              "internalType": "bytes32[]",
              "name": "_merkleProof",
              "type": "bytes32[]"
            }
          ],
          "name": "whitelistMint",
          "outputs": [],
          "stateMutability": "payable",
          "type": "function"
        },
        {
          "inputs": [],
          "name": "whitelistMintEnabled",
          "outputs": [
            {
              "internalType": "bool",
              "name": "",
              "type": "bool"
            }
          ],
          "stateMutability": "view",
          "type": "function"
        },
        {
          "inputs": [],
          "name": "withdraw",
          "outputs": [],
          "stateMutability": "nonpayable",
          "type": "function"
        }
      ],
      "evm": {
        "bytecode": {
          "linkReferences": {},
          "object": "608060405260405180602001604052806000815250600c90805190602001906200002b92919062000496565b506040518060400160405280600581526020017f2e6a736f6e000000000000000000000000000000000000000000000000000000815250600d90805190602001906200007992919062000496565b506001601260006101000a81548160ff0219169083151502179055506000601260016101000a81548160ff0219169083151502179055506000601260026101000a81548160ff021916908315150217905550348015620000d857600080fd5b506040516200532f3803806200532f8339818101604052810190620000fe9190620005cf565b858581600290805190602001906200011892919062000496565b5080600390805190602001906200013192919062000496565b5062000142620001b860201b60201c565b60008190555050506200016a6200015e620001c160201b60201c565b620001c960201b60201c565b600160098190555062000183846200028f60201b60201c565b826010819055506200019b826200032860201b60201c565b620001ac81620003c160201b60201c565b505050505050620008c7565b60006001905090565b600033905090565b6000600860009054906101000a900473ffffffffffffffffffffffffffffffffffffffff16905081600860006101000a81548173ffffffffffffffffffffffffffffffffffffffff021916908373ffffffffffffffffffffffffffffffffffffffff1602179055508173ffffffffffffffffffffffffffffffffffffffff168173ffffffffffffffffffffffffffffffffffffffff167f8be0079c531659141344cd1fd0a4f28419497f9722a3daafe3b4186f6b6457e060405160405180910390a35050565b6200029f620001c160201b60201c565b73ffffffffffffffffffffffffffffffffffffffff16620002c56200046c60201b60201c565b73ffffffffffffffffffffffffffffffffffffffff16146200031e576040517f08c379a00000000000000000000000000000000000000000000000000000000081526004016200031590620006d7565b60405180910390fd5b80600f8190555050565b62000338620001c160201b60201c565b73ffffffffffffffffffffffffffffffffffffffff166200035e6200046c60201b60201c565b73ffffffffffffffffffffffffffffffffffffffff1614620003b7576040517f08c379a0000000000000000000000000000000000000000000000000000000008152600401620003ae90620006d7565b60405180910390fd5b8060118190555050565b620003d1620001c160201b60201c565b73ffffffffffffffffffffffffffffffffffffffff16620003f76200046c60201b60201c565b73ffffffffffffffffffffffffffffffffffffffff161462000450576040517f08c379a00000000000000000000000000000000000000000000000000000000081526004016200044790620006d7565b60405180910390fd5b80600e90805190602001906200046892919062000496565b5050565b6000600860009054906101000a900473ffffffffffffffffffffffffffffffffffffffff16905090565b828054620004a490620007a9565b90600052602060002090601f016020900481019282620004c8576000855562000514565b82601f10620004e357805160ff191683800117855562000514565b8280016001018555821562000514579182015b8281111562000513578251825591602001919060010190620004f6565b5b50905062000523919062000527565b5090565b5b808211156200054257600081600090555060010162000528565b5090565b60006200055d620005578462000722565b620006f9565b9050828152602081018484840111156200057657600080fd5b6200058384828562000773565b509392505050565b600082601f8301126200059d57600080fd5b8151620005af84826020860162000546565b91505092915050565b600081519050620005c981620008ad565b92915050565b60008060008060008060c08789031215620005e957600080fd5b600087015167ffffffffffffffff8111156200060457600080fd5b6200061289828a016200058b565b965050602087015167ffffffffffffffff8111156200063057600080fd5b6200063e89828a016200058b565b95505060406200065189828a01620005b8565b94505060606200066489828a01620005b8565b93505060806200067789828a01620005b8565b92505060a087015167ffffffffffffffff8111156200069557600080fd5b620006a389828a016200058b565b9150509295509295509295565b6000620006bf60208362000758565b9150620006cc8262000884565b602082019050919050565b60006020820190508181036000830152620006f281620006b0565b9050919050565b60006200070562000718565b9050620007138282620007df565b919050565b6000604051905090565b600067ffffffffffffffff82111562000740576200073f62000844565b5b6200074b8262000873565b9050602081019050919050565b600082825260208201905092915050565b6000819050919050565b60005b838110156200079357808201518184015260208101905062000776565b83811115620007a3576000848401525b50505050565b60006002820490506001821680620007c257607f821691505b60208210811415620007d957620007d862000815565b5b50919050565b620007ea8262000873565b810181811067ffffffffffffffff821117156200080c576200080b62000844565b5b80604052505050565b7f4e487b7100000000000000000000000000000000000000000000000000000000600052602260045260246000fd5b7f4e487b7100000000000000000000000000000000000000000000000000000000600052604160045260246000fd5b6000601f19601f8301169050919050565b7f4f776e61626c653a2063616c6c6572206973206e6f7420746865206f776e6572600082015250565b620008b88162000769565b8114620008c457600080fd5b50565b614a5880620008d76000396000f3fe6080604052600436106102515760003560e01c806370a0823111610139578063b071401b116100b6578063d5abeb011161007a578063d5abeb011461086e578063db4bec4414610899578063e0a80853146108d6578063e985e9c5146108ff578063efbd73f41461093c578063f2fde38b1461096557610251565b8063b071401b1461079a578063b767a098146107c3578063b88d4fde146107ec578063c87b56dd14610815578063d2cab0561461085257610251565b806394354fd0116100fd57806394354fd0146106d457806395d89b41146106ff578063a0712d681461072a578063a22cb46514610746578063a45ba8e71461076f57610251565b806370a0823114610603578063715018a6146106405780637cb64759146106575780637ec4a659146106805780638da5cb5b146106a957610251565b80633ccfd60b116101d2578063518302271161019657806351830227146104ef5780635503a0e81461051a5780635c975abb1461054557806362b99ad4146105705780636352211e1461059b5780636caede3d146105d857610251565b80633ccfd60b1461042057806342842e0e14610437578063438b63001461046057806344a0d68a1461049d5780634fdd43cb146104c657610251565b806316ba10e01161021957806316ba10e01461034f57806316c38b3c1461037857806318160ddd146103a157806323b872dd146103cc5780632eb4a7ab146103f557610251565b806301ffc9a71461025657806306fdde0314610293578063081812fc146102be578063095ea7b3146102fb57806313faede614610324575b600080fd5b34801561026257600080fd5b5061027d60048036038101906102789190613af9565b61098e565b60405161028a91906140d1565b60405180910390f35b34801561029f57600080fd5b506102a8610a70565b6040516102b59190614107565b60405180910390f35b3480156102ca57600080fd5b506102e560048036038101906102e09190613b8c565b610b02565b6040516102f29190614048565b60405180910390f35b34801561030757600080fd5b50610322600480360381019061031d9190613a6b565b610b7e565b005b34801561033057600080fd5b50610339610c89565b6040516103469190614289565b60405180910390f35b34801561035b57600080fd5b5061037660048036038101906103719190613b4b565b610c8f565b005b34801561038457600080fd5b5061039f600480360381019061039a9190613aa7565b610d25565b005b3480156103ad57600080fd5b506103b6610dbe565b6040516103c39190614289565b60405180910390f35b3480156103d857600080fd5b506103f360048036038101906103ee9190613965565b610dd5565b005b34801561040157600080fd5b5061040a610de5565b60405161041791906140ec565b60405180910390f35b34801561042c57600080fd5b50610435610deb565b005b34801561044357600080fd5b5061045e60048036038101906104599190613965565b610f3d565b005b34801561046c57600080fd5b5061048760048036038101906104829190613900565b610f5d565b60405161049491906140af565b60405180910390f35b3480156104a957600080fd5b506104c460048036038101906104bf9190613b8c565b6111bd565b005b3480156104d257600080fd5b506104ed60048036038101906104e89190613b4b565b611243565b005b3480156104fb57600080fd5b506105046112d9565b60405161051191906140d1565b60405180910390f35b34801561052657600080fd5b5061052f6112ec565b60405161053c9190614107565b60405180910390f35b34801561055157600080fd5b5061055a61137a565b60405161056791906140d1565b60405180910390f35b34801561057c57600080fd5b5061058561138d565b6040516105929190614107565b60405180910390f35b3480156105a757600080fd5b506105c260048036038101906105bd9190613b8c565b61141b565b6040516105cf9190614048565b60405180910390f35b3480156105e457600080fd5b506105ed611431565b6040516105fa91906140d1565b60405180910390f35b34801561060f57600080fd5b5061062a60048036038101906106259190613900565b611444565b6040516106379190614289565b60405180910390f35b34801561064c57600080fd5b50610655611514565b005b34801561066357600080fd5b5061067e60048036038101906106799190613ad0565b61159c565b005b34801561068c57600080fd5b506106a760048036038101906106a29190613b4b565b611622565b005b3480156106b557600080fd5b506106be6116b8565b6040516106cb9190614048565b60405180910390f35b3480156106e057600080fd5b506106e96116e2565b6040516106f69190614289565b60405180910390f35b34801561070b57600080fd5b506107146116e8565b6040516107219190614107565b60405180910390f35b610744600480360381019061073f9190613b8c565b61177a565b005b34801561075257600080fd5b5061076d60048036038101906107689190613a2f565b6118da565b005b34801561077b57600080fd5b50610784611a52565b6040516107919190614107565b60405180910390f35b3480156107a657600080fd5b506107c160048036038101906107bc9190613b8c565b611ae0565b005b3480156107cf57600080fd5b506107ea60048036038101906107e59190613aa7565b611b66565b005b3480156107f857600080fd5b50610813600480360381019061080e91906139b4565b611bff565b005b34801561082157600080fd5b5061083c60048036038101906108379190613b8c565b611c7b565b6040516108499190614107565b60405180910390f35b61086c60048036038101906108679190613bf1565b611dd4565b005b34801561087a57600080fd5b506108836120e8565b6040516108909190614289565b60405180910390f35b3480156108a557600080fd5b506108c060048036038101906108bb9190613900565b6120ee565b6040516108cd91906140d1565b60405180910390f35b3480156108e257600080fd5b506108fd60048036038101906108f89190613aa7565b61210e565b005b34801561090b57600080fd5b5061092660048036038101906109219190613929565b6121a7565b60405161093391906140d1565b60405180910390f35b34801561094857600080fd5b50610963600480360381019061095e9190613bb5565b61223b565b005b34801561097157600080fd5b5061098c60048036038101906109879190613900565b61236f565b005b60007f80ac58cd000000000000000000000000000000000000000000000000000000007bffffffffffffffffffffffffffffffffffffffffffffffffffffffff1916827bffffffffffffffffffffffffffffffffffffffffffffffffffffffff19161480610a5957507f5b5e139f000000000000000000000000000000000000000000000000000000007bffffffffffffffffffffffffffffffffffffffffffffffffffffffff1916827bffffffffffffffffffffffffffffffffffffffffffffffffffffffff1916145b80610a695750610a6882612467565b5b9050919050565b606060028054610a7f9061459c565b80601f0160208091040260200160405190810160405280929190818152602001828054610aab9061459c565b8015610af85780601f10610acd57610100808354040283529160200191610af8565b820191906000526020600020905b815481529060010190602001808311610adb57829003601f168201915b5050505050905090565b6000610b0d826124d1565b610b43576040517fcf4700e400000000000000000000000000000000000000000000000000000000815260040160405180910390fd5b6006600083815260200190815260200160002060009054906101000a900473ffffffffffffffffffffffffffffffffffffffff169050919050565b6000610b898261141b565b90508073ffffffffffffffffffffffffffffffffffffffff168373ffffffffffffffffffffffffffffffffffffffff161415610bf1576040517f943f7b8c00000000000000000000000000000000000000000000000000000000815260040160405180910390fd5b8073ffffffffffffffffffffffffffffffffffffffff16610c1061251f565b73ffffffffffffffffffffffffffffffffffffffff1614158015610c425750610c4081610c3b61251f565b6121a7565b155b15610c79576040517fcfb3b94200000000000000000000000000000000000000000000000000000000815260040160405180910390fd5b610c84838383612527565b505050565b600f5481565b610c9761251f565b73ffffffffffffffffffffffffffffffffffffffff16610cb56116b8565b73ffffffffffffffffffffffffffffffffffffffff1614610d0b576040517f08c379a0000000000000000000000000000000000000000000000000000000008152600401610d0290614189565b60405180910390fd5b80600d9080519060200190610d21929190613682565b5050565b610d2d61251f565b73ffffffffffffffffffffffffffffffffffffffff16610d4b6116b8565b73ffffffffffffffffffffffffffffffffffffffff1614610da1576040517f08c379a0000000000000000000000000000000000000000000000000000000008152600401610d9890614189565b60405180910390fd5b80601260006101000a81548160ff02191690831515021790555050565b6000610dc86125d9565b6001546000540303905090565b610de08383836125e2565b505050565b600a5481565b610df361251f565b73ffffffffffffffffffffffffffffffffffffffff16610e116116b8565b73ffffffffffffffffffffffffffffffffffffffff1614610e67576040517f08c379a0000000000000000000000000000000000000000000000000000000008152600401610e5e90614189565b60405180910390fd5b60026009541415610ead576040517f08c379a0000000000000000000000000000000000000000000000000000000008152600401610ea490614249565b60405180910390fd5b60026009819055506000610ebf6116b8565b73ffffffffffffffffffffffffffffffffffffffff1647604051610ee290614033565b60006040518083038185875af1925050503d8060008114610f1f576040519150601f19603f3d011682016040523d82523d6000602084013e610f24565b606091505b5050905080610f3257600080fd5b506001600981905550565b610f5883838360405180602001604052806000815250611bff565b505050565b60606000610f6a83611444565b905060008167ffffffffffffffff811115610fae577f4e487b7100000000000000000000000000000000000000000000000000000000600052604160045260246000fd5b604051908082528060200260200182016040528015610fdc5781602001602082028036833780820191505090505b5090506000610fe96125d9565b90506000805b8482108015610fff575060005483105b156111b0576000600460008581526020019081526020016000206040518060600160405290816000820160009054906101000a900473ffffffffffffffffffffffffffffffffffffffff1673ffffffffffffffffffffffffffffffffffffffff1673ffffffffffffffffffffffffffffffffffffffff1681526020016000820160149054906101000a900467ffffffffffffffff1667ffffffffffffffff1667ffffffffffffffff16815260200160008201601c9054906101000a900460ff1615151515815250509050806040015161119c57600073ffffffffffffffffffffffffffffffffffffffff16816000015173ffffffffffffffffffffffffffffffffffffffff161461111257806000015191505b8773ffffffffffffffffffffffffffffffffffffffff168273ffffffffffffffffffffffffffffffffffffffff16141561119b5783858481518110611180577f4e487b7100000000000000000000000000000000000000000000000000000000600052603260045260246000fd5b6020026020010181815250508280611197906145ff565b9350505b5b83806111a7906145ff565b94505050610fef565b8395505050505050919050565b6111c561251f565b73ffffffffffffffffffffffffffffffffffffffff166111e36116b8565b73ffffffffffffffffffffffffffffffffffffffff1614611239576040517f08c379a000000000000000000000000000000000000000000000000000000000815260040161123090614189565b60405180910390fd5b80600f8190555050565b61124b61251f565b73ffffffffffffffffffffffffffffffffffffffff166112696116b8565b73ffffffffffffffffffffffffffffffffffffffff16146112bf576040517f08c379a00000000000000000000000000000000000000000000000000000000081526004016112b690614189565b60405180910390fd5b80600e90805190602001906112d5929190613682565b5050565b601260029054906101000a900460ff1681565b600d80546112f99061459c565b80601f01602080910402602001604051908101604052809291908181526020018280546113259061459c565b80156113725780601f1061134757610100808354040283529160200191611372565b820191906000526020600020905b81548152906001019060200180831161135557829003601f168201915b505050505081565b601260009054906101000a900460ff1681565b600c805461139a9061459c565b80601f01602080910402602001604051908101604052809291908181526020018280546113c69061459c565b80156114135780601f106113e857610100808354040283529160200191611413565b820191906000526020600020905b8154815290600101906020018083116113f657829003601f168201915b505050505081565b600061142682612a98565b600001519050919050565b601260019054906101000a900460ff1681565b60008073ffffffffffffffffffffffffffffffffffffffff168273ffffffffffffffffffffffffffffffffffffffff1614156114ac576040517f8f4eb60400000000000000000000000000000000000000000000000000000000815260040160405180910390fd5b600560008373ffffffffffffffffffffffffffffffffffffffff1673ffffffffffffffffffffffffffffffffffffffff16815260200190815260200160002060000160009054906101000a900467ffffffffffffffff1667ffffffffffffffff169050919050565b61151c61251f565b73ffffffffffffffffffffffffffffffffffffffff1661153a6116b8565b73ffffffffffffffffffffffffffffffffffffffff1614611590576040517f08c379a000000000000000000000000000000000000000000000000000000000815260040161158790614189565b60405180910390fd5b61159a6000612d27565b565b6115a461251f565b73ffffffffffffffffffffffffffffffffffffffff166115c26116b8565b73ffffffffffffffffffffffffffffffffffffffff1614611618576040517f08c379a000000000000000000000000000000000000000000000000000000000815260040161160f90614189565b60405180910390fd5b80600a8190555050565b61162a61251f565b73ffffffffffffffffffffffffffffffffffffffff166116486116b8565b73ffffffffffffffffffffffffffffffffffffffff161461169e576040517f08c379a000000000000000000000000000000000000000000000000000000000815260040161169590614189565b60405180910390fd5b80600c90805190602001906116b4929190613682565b5050565b6000600860009054906101000a900473ffffffffffffffffffffffffffffffffffffffff16905090565b60115481565b6060600380546116f79061459c565b80601f01602080910402602001604051908101604052809291908181526020018280546117239061459c565b80156117705780601f1061174557610100808354040283529160200191611770565b820191906000526020600020905b81548152906001019060200180831161175357829003601f168201915b5050505050905090565b8060008111801561178d57506011548111155b6117cc576040517f08c379a00000000000000000000000000000000000000000000000000000000081526004016117c390614169565b60405180910390fd5b601054816117d8610dbe565b6117e291906143c7565b1115611823576040517f08c379a000000000000000000000000000000000000000000000000000000000815260040161181a90614209565b60405180910390fd5b8180600f54611832919061444e565b341015611874576040517f08c379a000000000000000000000000000000000000000000000000000000000815260040161186b90614269565b60405180910390fd5b601260009054906101000a900460ff16156118c4576040517f08c379a00000000000000000000000000000000000000000000000000000000081526004016118bb906141a9565b60405180910390fd5b6118d56118cf61251f565b84612ded565b505050565b6118e261251f565b73ffffffffffffffffffffffffffffffffffffffff168273ffffffffffffffffffffffffffffffffffffffff161415611947576040517fb06307db00000000000000000000000000000000000000000000000000000000815260040160405180910390fd5b806007600061195461251f565b73ffffffffffffffffffffffffffffffffffffffff1673ffffffffffffffffffffffffffffffffffffffff16815260200190815260200160002060008473ffffffffffffffffffffffffffffffffffffffff1673ffffffffffffffffffffffffffffffffffffffff16815260200190815260200160002060006101000a81548160ff0219169083151502179055508173ffffffffffffffffffffffffffffffffffffffff16611a0161251f565b73ffffffffffffffffffffffffffffffffffffffff167f17307eab39ab6107e8899845ad3d59bd9653f200f220920489ca2b5937696c3183604051611a4691906140d1565b60405180910390a35050565b600e8054611a5f9061459c565b80601f0160208091040260200160405190810160405280929190818152602001828054611a8b9061459c565b8015611ad85780601f10611aad57610100808354040283529160200191611ad8565b820191906000526020600020905b815481529060010190602001808311611abb57829003601f168201915b505050505081565b611ae861251f565b73ffffffffffffffffffffffffffffffffffffffff16611b066116b8565b73ffffffffffffffffffffffffffffffffffffffff1614611b5c576040517f08c379a0000000000000000000000000000000000000000000000000000000008152600401611b5390614189565b60405180910390fd5b8060118190555050565b611b6e61251f565b73ffffffffffffffffffffffffffffffffffffffff16611b8c6116b8565b73ffffffffffffffffffffffffffffffffffffffff1614611be2576040517f08c379a0000000000000000000000000000000000000000000000000000000008152600401611bd990614189565b60405180910390fd5b80601260016101000a81548160ff02191690831515021790555050565b611c0a8484846125e2565b611c298373ffffffffffffffffffffffffffffffffffffffff16612e0b565b8015611c3e5750611c3c84848484612e2e565b155b15611c75576040517fd1a57ed600000000000000000000000000000000000000000000000000000000815260040160405180910390fd5b50505050565b6060611c86826124d1565b611cc5576040517f08c379a0000000000000000000000000000000000000000000000000000000008152600401611cbc906141e9565b60405180910390fd5b60001515601260029054906101000a900460ff1615151415611d7357600e8054611cee9061459c565b80601f0160208091040260200160405190810160405280929190818152602001828054611d1a9061459c565b8015611d675780601f10611d3c57610100808354040283529160200191611d67565b820191906000526020600020905b815481529060010190602001808311611d4a57829003601f168201915b50505050509050611dcf565b6000611d7d612f8e565b90506000815111611d9d5760405180602001604052806000815250611dcb565b80611da784613020565b600d604051602001611dbb93929190614002565b6040516020818303038152906040525b9150505b919050565b82600081118015611de757506011548111155b611e26576040517f08c379a0000000000000000000000000000000000000000000000000000000008152600401611e1d90614169565b60405180910390fd5b60105481611e32610dbe565b611e3c91906143c7565b1115611e7d576040517f08c379a0000000000000000000000000000000000000000000000000000000008152600401611e7490614209565b60405180910390fd5b8380600f54611e8c919061444e565b341015611ece576040517f08c379a0000000000000000000000000000000000000000000000000000000008152600401611ec590614269565b60405180910390fd5b601260019054906101000a900460ff16611f1d576040517f08c379a0000000000000000000000000000000000000000000000000000000008152600401611f1490614229565b60405180910390fd5b600b6000611f2961251f565b73ffffffffffffffffffffffffffffffffffffffff1673ffffffffffffffffffffffffffffffffffffffff16815260200190815260200160002060009054906101000a900460ff1615611fb1576040517f08c379a0000000000000000000000000000000000000000000000000000000008152600401611fa8906141c9565b60405180910390fd5b6000611fbb61251f565b604051602001611fcb9190613fe7565b604051602081830303815290604052805190602001209050612031858580806020026020016040519081016040528093929190818152602001838360200280828437600081840152601f19601f82011690508083019250505050505050600a54836131cd565b612070576040517f08c379a000000000000000000000000000000000000000000000000000000000815260040161206790614129565b60405180910390fd5b6001600b600061207e61251f565b73ffffffffffffffffffffffffffffffffffffffff1673ffffffffffffffffffffffffffffffffffffffff16815260200190815260200160002060006101000a81548160ff0219169083151502179055506120e06120da61251f565b87612ded565b505050505050565b60105481565b600b6020528060005260406000206000915054906101000a900460ff1681565b61211661251f565b73ffffffffffffffffffffffffffffffffffffffff166121346116b8565b73ffffffffffffffffffffffffffffffffffffffff161461218a576040517f08c379a000000000000000000000000000000000000000000000000000000000815260040161218190614189565b60405180910390fd5b80601260026101000a81548160ff02191690831515021790555050565b6000600760008473ffffffffffffffffffffffffffffffffffffffff1673ffffffffffffffffffffffffffffffffffffffff16815260200190815260200160002060008373ffffffffffffffffffffffffffffffffffffffff1673ffffffffffffffffffffffffffffffffffffffff16815260200190815260200160002060009054906101000a900460ff16905092915050565b8160008111801561224e57506011548111155b61228d576040517f08c379a000000000000000000000000000000000000000000000000000000000815260040161228490614169565b60405180910390fd5b60105481612299610dbe565b6122a391906143c7565b11156122e4576040517f08c379a00000000000000000000000000000000000000000000000000000000081526004016122db90614209565b60405180910390fd5b6122ec61251f565b73ffffffffffffffffffffffffffffffffffffffff1661230a6116b8565b73ffffffffffffffffffffffffffffffffffffffff1614612360576040517f08c379a000000000000000000000000000000000000000000000000000000000815260040161235790614189565b60405180910390fd5b61236a8284612ded565b505050565b61237761251f565b73ffffffffffffffffffffffffffffffffffffffff166123956116b8565b73ffffffffffffffffffffffffffffffffffffffff16146123eb576040517f08c379a00000000000000000000000000000000000000000000000000000000081526004016123e290614189565b60405180910390fd5b600073ffffffffffffffffffffffffffffffffffffffff168173ffffffffffffffffffffffffffffffffffffffff16141561245b576040517f08c379a000000000000000000000000000000000000000000000000000000000815260040161245290614149565b60405180910390fd5b61246481612d27565b50565b60007f01ffc9a7000000000000000000000000000000000000000000000000000000007bffffffffffffffffffffffffffffffffffffffffffffffffffffffff1916827bffffffffffffffffffffffffffffffffffffffffffffffffffffffff1916149050919050565b6000816124dc6125d9565b111580156124eb575060005482105b8015612518575060046000838152602001908152602001600020600001601c9054906101000a900460ff16155b9050919050565b600033905090565b826006600084815260200190815260200160002060006101000a81548173ffffffffffffffffffffffffffffffffffffffff021916908373ffffffffffffffffffffffffffffffffffffffff160217905550818373ffffffffffffffffffffffffffffffffffffffff168273ffffffffffffffffffffffffffffffffffffffff167f8c5be1e5ebec7d5bd14f71427d1e84f3dd0314c0f7b2291e5b200ac8c7c3b92560405160405180910390a4505050565b60006001905090565b60006125ed82612a98565b90508373ffffffffffffffffffffffffffffffffffffffff16816000015173ffffffffffffffffffffffffffffffffffffffff1614612658576040517fa114810000000000000000000000000000000000000000000000000000000000815260040160405180910390fd5b60008473ffffffffffffffffffffffffffffffffffffffff1661267961251f565b73ffffffffffffffffffffffffffffffffffffffff1614806126a857506126a7856126a261251f565b6121a7565b5b806126ed57506126b661251f565b73ffffffffffffffffffffffffffffffffffffffff166126d584610b02565b73ffffffffffffffffffffffffffffffffffffffff16145b905080612726576040517f59c896be00000000000000000000000000000000000000000000000000000000815260040160405180910390fd5b600073ffffffffffffffffffffffffffffffffffffffff168473ffffffffffffffffffffffffffffffffffffffff16141561278d576040517fea553b3400000000000000000000000000000000000000000000000000000000815260040160405180910390fd5b61279a85858560016131e4565b6127a660008487612527565b6001600560008773ffffffffffffffffffffffffffffffffffffffff1673ffffffffffffffffffffffffffffffffffffffff16815260200190815260200160002060000160008282829054906101000a900467ffffffffffffffff160392506101000a81548167ffffffffffffffff021916908367ffffffffffffffff1602179055506001600560008673ffffffffffffffffffffffffffffffffffffffff1673ffffffffffffffffffffffffffffffffffffffff16815260200190815260200160002060000160008282829054906101000a900467ffffffffffffffff160192506101000a81548167ffffffffffffffff021916908367ffffffffffffffff1602179055506000600460008581526020019081526020016000209050848160000160006101000a81548173ffffffffffffffffffffffffffffffffffffffff021916908373ffffffffffffffffffffffffffffffffffffffff160217905550428160000160146101000a81548167ffffffffffffffff021916908367ffffffffffffffff16021790555060006001850190506000600460008381526020019081526020016000209050600073ffffffffffffffffffffffffffffffffffffffff168160000160009054906101000a900473ffffffffffffffffffffffffffffffffffffffff1673ffffffffffffffffffffffffffffffffffffffff161415612a26576000548214612a2557878160000160006101000a81548173ffffffffffffffffffffffffffffffffffffffff021916908373ffffffffffffffffffffffffffffffffffffffff16021790555084602001518160000160146101000a81548167ffffffffffffffff021916908367ffffffffffffffff1602179055505b5b505050828473ffffffffffffffffffffffffffffffffffffffff168673ffffffffffffffffffffffffffffffffffffffff167fddf252ad1be2c89b69c2b068fc378daa952ba7f163c4a11628f55a4df523b3ef60405160405180910390a4612a9185858560016131ea565b5050505050565b612aa0613708565b600082905080612aae6125d9565b11158015612abd575060005481105b15612cf0576000600460008381526020019081526020016000206040518060600160405290816000820160009054906101000a900473ffffffffffffffffffffffffffffffffffffffff1673ffffffffffffffffffffffffffffffffffffffff1673ffffffffffffffffffffffffffffffffffffffff1681526020016000820160149054906101000a900467ffffffffffffffff1667ffffffffffffffff1667ffffffffffffffff16815260200160008201601c9054906101000a900460ff16151515158152505090508060400151612cee57600073ffffffffffffffffffffffffffffffffffffffff16816000015173ffffffffffffffffffffffffffffffffffffffff1614612bd2578092505050612d22565b5b600115612ced57818060019003925050600460008381526020019081526020016000206040518060600160405290816000820160009054906101000a900473ffffffffffffffffffffffffffffffffffffffff1673ffffffffffffffffffffffffffffffffffffffff1673ffffffffffffffffffffffffffffffffffffffff1681526020016000820160149054906101000a900467ffffffffffffffff1667ffffffffffffffff1667ffffffffffffffff16815260200160008201601c9054906101000a900460ff1615151515815250509050600073ffffffffffffffffffffffffffffffffffffffff16816000015173ffffffffffffffffffffffffffffffffffffffff1614612ce8578092505050612d22565b612bd3565b5b505b6040517fdf2d9b4200000000000000000000000000000000000000000000000000000000815260040160405180910390fd5b919050565b6000600860009054906101000a900473ffffffffffffffffffffffffffffffffffffffff16905081600860006101000a81548173ffffffffffffffffffffffffffffffffffffffff021916908373ffffffffffffffffffffffffffffffffffffffff1602179055508173ffffffffffffffffffffffffffffffffffffffff168173ffffffffffffffffffffffffffffffffffffffff167f8be0079c531659141344cd1fd0a4f28419497f9722a3daafe3b4186f6b6457e060405160405180910390a35050565b612e078282604051806020016040528060008152506131f0565b5050565b6000808273ffffffffffffffffffffffffffffffffffffffff163b119050919050565b60008373ffffffffffffffffffffffffffffffffffffffff1663150b7a02612e5461251f565b8786866040518563ffffffff1660e01b8152600401612e769493929190614063565b602060405180830381600087803b158015612e9057600080fd5b505af1925050508015612ec157506040513d601f19601f82011682018060405250810190612ebe9190613b22565b60015b612f3b573d8060008114612ef1576040519150601f19603f3d011682016040523d82523d6000602084013e612ef6565b606091505b50600081511415612f33576040517fd1a57ed600000000000000000000000000000000000000000000000000000000815260040160405180910390fd5b805181602001fd5b63150b7a0260e01b7bffffffffffffffffffffffffffffffffffffffffffffffffffffffff1916817bffffffffffffffffffffffffffffffffffffffffffffffffffffffff191614915050949350505050565b6060600c8054612f9d9061459c565b80601f0160208091040260200160405190810160405280929190818152602001828054612fc99061459c565b80156130165780601f10612feb57610100808354040283529160200191613016565b820191906000526020600020905b815481529060010190602001808311612ff957829003601f168201915b5050505050905090565b60606000821415613068576040518060400160405280600181526020017f300000000000000000000000000000000000000000000000000000000000000081525090506131c8565b600082905060005b6000821461309a578080613083906145ff565b915050600a82613093919061441d565b9150613070565b60008167ffffffffffffffff8111156130dc577f4e487b7100000000000000000000000000000000000000000000000000000000600052604160045260246000fd5b6040519080825280601f01601f19166020018201604052801561310e5781602001600182028036833780820191505090505b5090505b600085146131c15760018261312791906144a8565b9150600a85613136919061466c565b603061314291906143c7565b60f81b81838151811061317e577f4e487b7100000000000000000000000000000000000000000000000000000000600052603260045260246000fd5b60200101907effffffffffffffffffffffffffffffffffffffffffffffffffffffffffffff1916908160001a905350600a856131ba919061441d565b9450613112565b8093505050505b919050565b6000826131da8584613202565b1490509392505050565b50505050565b50505050565b6131fd838383600161329d565b505050565b60008082905060005b845181101561329257600085828151811061324f577f4e487b7100000000000000000000000000000000000000000000000000000000600052603260045260246000fd5b602002602001015190508083116132715761326a838261366b565b925061327e565b61327b818461366b565b92505b50808061328a906145ff565b91505061320b565b508091505092915050565b600080549050600073ffffffffffffffffffffffffffffffffffffffff168573ffffffffffffffffffffffffffffffffffffffff16141561330a576040517f2e07630000000000000000000000000000000000000000000000000000000000815260040160405180910390fd5b6000841415613345576040517fb562e8dd00000000000000000000000000000000000000000000000000000000815260040160405180910390fd5b61335260008683876131e4565b83600560008773ffffffffffffffffffffffffffffffffffffffff1673ffffffffffffffffffffffffffffffffffffffff16815260200190815260200160002060000160008282829054906101000a900467ffffffffffffffff160192506101000a81548167ffffffffffffffff021916908367ffffffffffffffff16021790555083600560008773ffffffffffffffffffffffffffffffffffffffff1673ffffffffffffffffffffffffffffffffffffffff16815260200190815260200160002060000160088282829054906101000a900467ffffffffffffffff160192506101000a81548167ffffffffffffffff021916908367ffffffffffffffff160217905550846004600083815260200190815260200160002060000160006101000a81548173ffffffffffffffffffffffffffffffffffffffff021916908373ffffffffffffffffffffffffffffffffffffffff160217905550426004600083815260200190815260200160002060000160146101000a81548167ffffffffffffffff021916908367ffffffffffffffff16021790555060008190506000858201905083801561351c575061351b8773ffffffffffffffffffffffffffffffffffffffff16612e0b565b5b156135e2575b818773ffffffffffffffffffffffffffffffffffffffff16600073ffffffffffffffffffffffffffffffffffffffff167fddf252ad1be2c89b69c2b068fc378daa952ba7f163c4a11628f55a4df523b3ef60405160405180910390a46135916000888480600101955088612e2e565b6135c7576040517fd1a57ed600000000000000000000000000000000000000000000000000000000815260040160405180910390fd5b808214156135225782600054146135dd57600080fd5b61364e565b5b818060010192508773ffffffffffffffffffffffffffffffffffffffff16600073ffffffffffffffffffffffffffffffffffffffff167fddf252ad1be2c89b69c2b068fc378daa952ba7f163c4a11628f55a4df523b3ef60405160405180910390a4808214156135e3575b81600081905550505061366460008683876131ea565b5050505050565b600082600052816020526040600020905092915050565b82805461368e9061459c565b90600052602060002090601f0160209004810192826136b057600085556136f7565b82601f106136c957805160ff19168380011785556136f7565b828001600101855582156136f7579182015b828111156136f65782518255916020019190600101906136db565b5b509050613704919061374b565b5090565b6040518060600160405280600073ffffffffffffffffffffffffffffffffffffffff168152602001600067ffffffffffffffff1681526020016000151581525090565b5b8082111561376457600081600090555060010161374c565b5090565b600061377b613776846142c9565b6142a4565b90508281526020810184848401111561379357600080fd5b61379e84828561455a565b509392505050565b60006137b96137b4846142fa565b6142a4565b9050828152602081018484840111156137d157600080fd5b6137dc84828561455a565b509392505050565b6000813590506137f3816149af565b92915050565b60008083601f84011261380b57600080fd5b8235905067ffffffffffffffff81111561382457600080fd5b60208301915083602082028301111561383c57600080fd5b9250929050565b600081359050613852816149c6565b92915050565b600081359050613867816149dd565b92915050565b60008135905061387c816149f4565b92915050565b600081519050613891816149f4565b92915050565b600082601f8301126138a857600080fd5b81356138b8848260208601613768565b91505092915050565b600082601f8301126138d257600080fd5b81356138e28482602086016137a6565b91505092915050565b6000813590506138fa81614a0b565b92915050565b60006020828403121561391257600080fd5b6000613920848285016137e4565b91505092915050565b6000806040838503121561393c57600080fd5b600061394a858286016137e4565b925050602061395b858286016137e4565b9150509250929050565b60008060006060848603121561397a57600080fd5b6000613988868287016137e4565b9350506020613999868287016137e4565b92505060406139aa868287016138eb565b9150509250925092565b600080600080608085870312156139ca57600080fd5b60006139d8878288016137e4565b94505060206139e9878288016137e4565b93505060406139fa878288016138eb565b925050606085013567ffffffffffffffff811115613a1757600080fd5b613a2387828801613897565b91505092959194509250565b60008060408385031215613a4257600080fd5b6000613a50858286016137e4565b9250506020613a6185828601613843565b9150509250929050565b60008060408385031215613a7e57600080fd5b6000613a8c858286016137e4565b9250506020613a9d858286016138eb565b9150509250929050565b600060208284031215613ab957600080fd5b6000613ac784828501613843565b91505092915050565b600060208284031215613ae257600080fd5b6000613af084828501613858565b91505092915050565b600060208284031215613b0b57600080fd5b6000613b198482850161386d565b91505092915050565b600060208284031215613b3457600080fd5b6000613b4284828501613882565b91505092915050565b600060208284031215613b5d57600080fd5b600082013567ffffffffffffffff811115613b7757600080fd5b613b83848285016138c1565b91505092915050565b600060208284031215613b9e57600080fd5b6000613bac848285016138eb565b91505092915050565b60008060408385031215613bc857600080fd5b6000613bd6858286016138eb565b9250506020613be7858286016137e4565b9150509250929050565b600080600060408486031215613c0657600080fd5b6000613c14868287016138eb565b935050602084013567ffffffffffffffff811115613c3157600080fd5b613c3d868287016137f9565b92509250509250925092565b6000613c558383613fc9565b60208301905092915050565b613c6a816144dc565b82525050565b613c81613c7c826144dc565b614648565b82525050565b6000613c9282614350565b613c9c818561437e565b9350613ca78361432b565b8060005b83811015613cd8578151613cbf8882613c49565b9750613cca83614371565b925050600181019050613cab565b5085935050505092915050565b613cee816144ee565b82525050565b613cfd816144fa565b82525050565b6000613d0e8261435b565b613d18818561438f565b9350613d28818560208601614569565b613d3181614759565b840191505092915050565b6000613d4782614366565b613d5181856143ab565b9350613d61818560208601614569565b613d6a81614759565b840191505092915050565b6000613d8082614366565b613d8a81856143bc565b9350613d9a818560208601614569565b80840191505092915050565b60008154613db38161459c565b613dbd81866143bc565b94506001821660008114613dd85760018114613de957613e1c565b60ff19831686528186019350613e1c565b613df28561433b565b60005b83811015613e1457815481890152600182019150602081019050613df5565b838801955050505b50505092915050565b6000613e32600e836143ab565b9150613e3d82614777565b602082019050919050565b6000613e556026836143ab565b9150613e60826147a0565b604082019050919050565b6000613e786014836143ab565b9150613e83826147ef565b602082019050919050565b6000613e9b6020836143ab565b9150613ea682614818565b602082019050919050565b6000613ebe6017836143ab565b9150613ec982614841565b602082019050919050565b6000613ee16018836143ab565b9150613eec8261486a565b602082019050919050565b6000613f04602f836143ab565b9150613f0f82614893565b604082019050919050565b6000613f276000836143a0565b9150613f32826148e2565b600082019050919050565b6000613f4a6014836143ab565b9150613f55826148e5565b602082019050919050565b6000613f6d6022836143ab565b9150613f788261490e565b604082019050919050565b6000613f90601f836143ab565b9150613f9b8261495d565b602082019050919050565b6000613fb36013836143ab565b9150613fbe82614986565b602082019050919050565b613fd281614550565b82525050565b613fe181614550565b82525050565b6000613ff38284613c70565b60148201915081905092915050565b600061400e8286613d75565b915061401a8285613d75565b91506140268284613da6565b9150819050949350505050565b600061403e82613f1a565b9150819050919050565b600060208201905061405d6000830184613c61565b92915050565b60006080820190506140786000830187613c61565b6140856020830186613c61565b6140926040830185613fd8565b81810360608301526140a48184613d03565b905095945050505050565b600060208201905081810360008301526140c98184613c87565b905092915050565b60006020820190506140e66000830184613ce5565b92915050565b60006020820190506141016000830184613cf4565b92915050565b600060208201905081810360008301526141218184613d3c565b905092915050565b6000602082019050818103600083015261414281613e25565b9050919050565b6000602082019050818103600083015261416281613e48565b9050919050565b6000602082019050818103600083015261418281613e6b565b9050919050565b600060208201905081810360008301526141a281613e8e565b9050919050565b600060208201905081810360008301526141c281613eb1565b9050919050565b600060208201905081810360008301526141e281613ed4565b9050919050565b6000602082019050818103600083015261420281613ef7565b9050919050565b6000602082019050818103600083015261422281613f3d565b9050919050565b6000602082019050818103600083015261424281613f60565b9050919050565b6000602082019050818103600083015261426281613f83565b9050919050565b6000602082019050818103600083015261428281613fa6565b9050919050565b600060208201905061429e6000830184613fd8565b92915050565b60006142ae6142bf565b90506142ba82826145ce565b919050565b6000604051905090565b600067ffffffffffffffff8211156142e4576142e361472a565b5b6142ed82614759565b9050602081019050919050565b600067ffffffffffffffff8211156143155761431461472a565b5b61431e82614759565b9050602081019050919050565b6000819050602082019050919050565b60008190508160005260206000209050919050565b600081519050919050565b600081519050919050565b600081519050919050565b6000602082019050919050565b600082825260208201905092915050565b600082825260208201905092915050565b600081905092915050565b600082825260208201905092915050565b600081905092915050565b60006143d282614550565b91506143dd83614550565b9250827fffffffffffffffffffffffffffffffffffffffffffffffffffffffffffffffff038211156144125761441161469d565b5b828201905092915050565b600061442882614550565b915061443383614550565b925082614443576144426146cc565b5b828204905092915050565b600061445982614550565b915061446483614550565b9250817fffffffffffffffffffffffffffffffffffffffffffffffffffffffffffffffff048311821515161561449d5761449c61469d565b5b828202905092915050565b60006144b382614550565b91506144be83614550565b9250828210156144d1576144d061469d565b5b828203905092915050565b60006144e782614530565b9050919050565b60008115159050919050565b6000819050919050565b60007fffffffff0000000000000000000000000000000000000000000000000000000082169050919050565b600073ffffffffffffffffffffffffffffffffffffffff82169050919050565b6000819050919050565b82818337600083830152505050565b60005b8381101561458757808201518184015260208101905061456c565b83811115614596576000848401525b50505050565b600060028204905060018216806145b457607f821691505b602082108114156145c8576145c76146fb565b5b50919050565b6145d782614759565b810181811067ffffffffffffffff821117156145f6576145f561472a565b5b80604052505050565b600061460a82614550565b91507fffffffffffffffffffffffffffffffffffffffffffffffffffffffffffffffff82141561463d5761463c61469d565b5b600182019050919050565b60006146538261465a565b9050919050565b60006146658261476a565b9050919050565b600061467782614550565b915061468283614550565b925082614692576146916146cc565b5b828206905092915050565b7f4e487b7100000000000000000000000000000000000000000000000000000000600052601160045260246000fd5b7f4e487b7100000000000000000000000000000000000000000000000000000000600052601260045260246000fd5b7f4e487b7100000000000000000000000000000000000000000000000000000000600052602260045260246000fd5b7f4e487b7100000000000000000000000000000000000000000000000000000000600052604160045260246000fd5b6000601f19601f8301169050919050565b60008160601b9050919050565b7f496e76616c69642070726f6f6621000000000000000000000000000000000000600082015250565b7f4f776e61626c653a206e6577206f776e657220697320746865207a65726f206160008201527f6464726573730000000000000000000000000000000000000000000000000000602082015250565b7f496e76616c6964206d696e7420616d6f756e7421000000000000000000000000600082015250565b7f4f776e61626c653a2063616c6c6572206973206e6f7420746865206f776e6572600082015250565b7f54686520636f6e74726163742069732070617573656421000000000000000000600082015250565b7f4164647265737320616c726561647920636c61696d6564210000000000000000600082015250565b7f4552433732314d657461646174613a2055524920717565727920666f72206e6f60008201527f6e6578697374656e7420746f6b656e0000000000000000000000000000000000602082015250565b50565b7f4d617820737570706c7920657863656564656421000000000000000000000000600082015250565b7f5468652077686974656c6973742073616c65206973206e6f7420656e61626c6560008201527f6421000000000000000000000000000000000000000000000000000000000000602082015250565b7f5265656e7472616e637947756172643a207265656e7472616e742063616c6c00600082015250565b7f496e73756666696369656e742066756e64732100000000000000000000000000600082015250565b6149b8816144dc565b81146149c357600080fd5b50565b6149cf816144ee565b81146149da57600080fd5b50565b6149e6816144fa565b81146149f157600080fd5b50565b6149fd81614504565b8114614a0857600080fd5b50565b614a1481614550565b8114614a1f57600080fd5b5056fea26469706673582212205734d8c97d6e67c2fedc64e45d46810d3dde37a58707a6eaff569205e8d2f5b264736f6c63430008040033",
          "opcodes": "PUSH1 0x80 PUSH1 0x40 MSTORE PUSH1 0x40 MLOAD DUP1 PUSH1 0x20 ADD PUSH1 0x40 MSTORE DUP1 PUSH1 0x0 DUP2 MSTORE POP PUSH1 0xC SWAP1 DUP1 MLOAD SWAP1 PUSH1 0x20 ADD SWAP1 PUSH3 0x2B SWAP3 SWAP2 SWAP1 PUSH3 0x496 JUMP JUMPDEST POP PUSH1 0x40 MLOAD DUP1 PUSH1 0x40 ADD PUSH1 0x40 MSTORE DUP1 PUSH1 0x5 DUP2 MSTORE PUSH1 0x20 ADD PUSH32 0x2E6A736F6E000000000000000000000000000000000000000000000000000000 DUP2 MSTORE POP PUSH1 0xD SWAP1 DUP1 MLOAD SWAP1 PUSH1 0x20 ADD SWAP1 PUSH3 0x79 SWAP3 SWAP2 SWAP1 PUSH3 0x496 JUMP JUMPDEST POP PUSH1 0x1 PUSH1 0x12 PUSH1 0x0 PUSH2 0x100 EXP DUP2 SLOAD DUP2 PUSH1 0xFF MUL NOT AND SWAP1 DUP4 ISZERO ISZERO MUL OR SWAP1 SSTORE POP PUSH1 0x0 PUSH1 0x12 PUSH1 0x1 PUSH2 0x100 EXP DUP2 SLOAD DUP2 PUSH1 0xFF MUL NOT AND SWAP1 DUP4 ISZERO ISZERO MUL OR SWAP1 SSTORE POP PUSH1 0x0 PUSH1 0x12 PUSH1 0x2 PUSH2 0x100 EXP DUP2 SLOAD DUP2 PUSH1 0xFF MUL NOT AND SWAP1 DUP4 ISZERO ISZERO MUL OR SWAP1 SSTORE POP CALLVALUE DUP1 ISZERO PUSH3 0xD8 JUMPI PUSH1 0x0 DUP1 REVERT JUMPDEST POP PUSH1 0x40 MLOAD PUSH3 0x532F CODESIZE SUB DUP1 PUSH3 0x532F DUP4 CODECOPY DUP2 DUP2 ADD PUSH1 0x40 MSTORE DUP2 ADD SWAP1 PUSH3 0xFE SWAP2 SWAP1 PUSH3 0x5CF JUMP JUMPDEST DUP6 DUP6 DUP2 PUSH1 0x2 SWAP1 DUP1 MLOAD SWAP1 PUSH1 0x20 ADD SWAP1 PUSH3 0x118 SWAP3 SWAP2 SWAP1 PUSH3 0x496 JUMP JUMPDEST POP DUP1 PUSH1 0x3 SWAP1 DUP1 MLOAD SWAP1 PUSH1 0x20 ADD SWAP1 PUSH3 0x131 SWAP3 SWAP2 SWAP1 PUSH3 0x496 JUMP JUMPDEST POP PUSH3 0x142 PUSH3 0x1B8 PUSH1 0x20 SHL PUSH1 0x20 SHR JUMP JUMPDEST PUSH1 0x0 DUP2 SWAP1 SSTORE POP POP POP PUSH3 0x16A PUSH3 0x15E PUSH3 0x1C1 PUSH1 0x20 SHL PUSH1 0x20 SHR JUMP JUMPDEST PUSH3 0x1C9 PUSH1 0x20 SHL PUSH1 0x20 SHR JUMP JUMPDEST PUSH1 0x1 PUSH1 0x9 DUP2 SWAP1 SSTORE POP PUSH3 0x183 DUP5 PUSH3 0x28F PUSH1 0x20 SHL PUSH1 0x20 SHR JUMP JUMPDEST DUP3 PUSH1 0x10 DUP2 SWAP1 SSTORE POP PUSH3 0x19B DUP3 PUSH3 0x328 PUSH1 0x20 SHL PUSH1 0x20 SHR JUMP JUMPDEST PUSH3 0x1AC DUP2 PUSH3 0x3C1 PUSH1 0x20 SHL PUSH1 0x20 SHR JUMP JUMPDEST POP POP POP POP POP POP PUSH3 0x8C7 JUMP JUMPDEST PUSH1 0x0 PUSH1 0x1 SWAP1 POP SWAP1 JUMP JUMPDEST PUSH1 0x0 CALLER SWAP1 POP SWAP1 JUMP JUMPDEST PUSH1 0x0 PUSH1 0x8 PUSH1 0x0 SWAP1 SLOAD SWAP1 PUSH2 0x100 EXP SWAP1 DIV PUSH20 0xFFFFFFFFFFFFFFFFFFFFFFFFFFFFFFFFFFFFFFFF AND SWAP1 POP DUP2 PUSH1 0x8 PUSH1 0x0 PUSH2 0x100 EXP DUP2 SLOAD DUP2 PUSH20 0xFFFFFFFFFFFFFFFFFFFFFFFFFFFFFFFFFFFFFFFF MUL NOT AND SWAP1 DUP4 PUSH20 0xFFFFFFFFFFFFFFFFFFFFFFFFFFFFFFFFFFFFFFFF AND MUL OR SWAP1 SSTORE POP DUP2 PUSH20 0xFFFFFFFFFFFFFFFFFFFFFFFFFFFFFFFFFFFFFFFF AND DUP2 PUSH20 0xFFFFFFFFFFFFFFFFFFFFFFFFFFFFFFFFFFFFFFFF AND PUSH32 0x8BE0079C531659141344CD1FD0A4F28419497F9722A3DAAFE3B4186F6B6457E0 PUSH1 0x40 MLOAD PUSH1 0x40 MLOAD DUP1 SWAP2 SUB SWAP1 LOG3 POP POP JUMP JUMPDEST PUSH3 0x29F PUSH3 0x1C1 PUSH1 0x20 SHL PUSH1 0x20 SHR JUMP JUMPDEST PUSH20 0xFFFFFFFFFFFFFFFFFFFFFFFFFFFFFFFFFFFFFFFF AND PUSH3 0x2C5 PUSH3 0x46C PUSH1 0x20 SHL PUSH1 0x20 SHR JUMP JUMPDEST PUSH20 0xFFFFFFFFFFFFFFFFFFFFFFFFFFFFFFFFFFFFFFFF AND EQ PUSH3 0x31E JUMPI PUSH1 0x40 MLOAD PUSH32 0x8C379A000000000000000000000000000000000000000000000000000000000 DUP2 MSTORE PUSH1 0x4 ADD PUSH3 0x315 SWAP1 PUSH3 0x6D7 JUMP JUMPDEST PUSH1 0x40 MLOAD DUP1 SWAP2 SUB SWAP1 REVERT JUMPDEST DUP1 PUSH1 0xF DUP2 SWAP1 SSTORE POP POP JUMP JUMPDEST PUSH3 0x338 PUSH3 0x1C1 PUSH1 0x20 SHL PUSH1 0x20 SHR JUMP JUMPDEST PUSH20 0xFFFFFFFFFFFFFFFFFFFFFFFFFFFFFFFFFFFFFFFF AND PUSH3 0x35E PUSH3 0x46C PUSH1 0x20 SHL PUSH1 0x20 SHR JUMP JUMPDEST PUSH20 0xFFFFFFFFFFFFFFFFFFFFFFFFFFFFFFFFFFFFFFFF AND EQ PUSH3 0x3B7 JUMPI PUSH1 0x40 MLOAD PUSH32 0x8C379A000000000000000000000000000000000000000000000000000000000 DUP2 MSTORE PUSH1 0x4 ADD PUSH3 0x3AE SWAP1 PUSH3 0x6D7 JUMP JUMPDEST PUSH1 0x40 MLOAD DUP1 SWAP2 SUB SWAP1 REVERT JUMPDEST DUP1 PUSH1 0x11 DUP2 SWAP1 SSTORE POP POP JUMP JUMPDEST PUSH3 0x3D1 PUSH3 0x1C1 PUSH1 0x20 SHL PUSH1 0x20 SHR JUMP JUMPDEST PUSH20 0xFFFFFFFFFFFFFFFFFFFFFFFFFFFFFFFFFFFFFFFF AND PUSH3 0x3F7 PUSH3 0x46C PUSH1 0x20 SHL PUSH1 0x20 SHR JUMP JUMPDEST PUSH20 0xFFFFFFFFFFFFFFFFFFFFFFFFFFFFFFFFFFFFFFFF AND EQ PUSH3 0x450 JUMPI PUSH1 0x40 MLOAD PUSH32 0x8C379A000000000000000000000000000000000000000000000000000000000 DUP2 MSTORE PUSH1 0x4 ADD PUSH3 0x447 SWAP1 PUSH3 0x6D7 JUMP JUMPDEST PUSH1 0x40 MLOAD DUP1 SWAP2 SUB SWAP1 REVERT JUMPDEST DUP1 PUSH1 0xE SWAP1 DUP1 MLOAD SWAP1 PUSH1 0x20 ADD SWAP1 PUSH3 0x468 SWAP3 SWAP2 SWAP1 PUSH3 0x496 JUMP JUMPDEST POP POP JUMP JUMPDEST PUSH1 0x0 PUSH1 0x8 PUSH1 0x0 SWAP1 SLOAD SWAP1 PUSH2 0x100 EXP SWAP1 DIV PUSH20 0xFFFFFFFFFFFFFFFFFFFFFFFFFFFFFFFFFFFFFFFF AND SWAP1 POP SWAP1 JUMP JUMPDEST DUP3 DUP1 SLOAD PUSH3 0x4A4 SWAP1 PUSH3 0x7A9 JUMP JUMPDEST SWAP1 PUSH1 0x0 MSTORE PUSH1 0x20 PUSH1 0x0 KECCAK256 SWAP1 PUSH1 0x1F ADD PUSH1 0x20 SWAP1 DIV DUP2 ADD SWAP3 DUP3 PUSH3 0x4C8 JUMPI PUSH1 0x0 DUP6 SSTORE PUSH3 0x514 JUMP JUMPDEST DUP3 PUSH1 0x1F LT PUSH3 0x4E3 JUMPI DUP1 MLOAD PUSH1 0xFF NOT AND DUP4 DUP1 ADD OR DUP6 SSTORE PUSH3 0x514 JUMP JUMPDEST DUP3 DUP1 ADD PUSH1 0x1 ADD DUP6 SSTORE DUP3 ISZERO PUSH3 0x514 JUMPI SWAP2 DUP3 ADD JUMPDEST DUP3 DUP2 GT ISZERO PUSH3 0x513 JUMPI DUP3 MLOAD DUP3 SSTORE SWAP2 PUSH1 0x20 ADD SWAP2 SWAP1 PUSH1 0x1 ADD SWAP1 PUSH3 0x4F6 JUMP JUMPDEST JUMPDEST POP SWAP1 POP PUSH3 0x523 SWAP2 SWAP1 PUSH3 0x527 JUMP JUMPDEST POP SWAP1 JUMP JUMPDEST JUMPDEST DUP1 DUP3 GT ISZERO PUSH3 0x542 JUMPI PUSH1 0x0 DUP2 PUSH1 0x0 SWAP1 SSTORE POP PUSH1 0x1 ADD PUSH3 0x528 JUMP JUMPDEST POP SWAP1 JUMP JUMPDEST PUSH1 0x0 PUSH3 0x55D PUSH3 0x557 DUP5 PUSH3 0x722 JUMP JUMPDEST PUSH3 0x6F9 JUMP JUMPDEST SWAP1 POP DUP3 DUP2 MSTORE PUSH1 0x20 DUP2 ADD DUP5 DUP5 DUP5 ADD GT ISZERO PUSH3 0x576 JUMPI PUSH1 0x0 DUP1 REVERT JUMPDEST PUSH3 0x583 DUP5 DUP3 DUP6 PUSH3 0x773 JUMP JUMPDEST POP SWAP4 SWAP3 POP POP POP JUMP JUMPDEST PUSH1 0x0 DUP3 PUSH1 0x1F DUP4 ADD SLT PUSH3 0x59D JUMPI PUSH1 0x0 DUP1 REVERT JUMPDEST DUP2 MLOAD PUSH3 0x5AF DUP5 DUP3 PUSH1 0x20 DUP7 ADD PUSH3 0x546 JUMP JUMPDEST SWAP2 POP POP SWAP3 SWAP2 POP POP JUMP JUMPDEST PUSH1 0x0 DUP2 MLOAD SWAP1 POP PUSH3 0x5C9 DUP2 PUSH3 0x8AD JUMP JUMPDEST SWAP3 SWAP2 POP POP JUMP JUMPDEST PUSH1 0x0 DUP1 PUSH1 0x0 DUP1 PUSH1 0x0 DUP1 PUSH1 0xC0 DUP8 DUP10 SUB SLT ISZERO PUSH3 0x5E9 JUMPI PUSH1 0x0 DUP1 REVERT JUMPDEST PUSH1 0x0 DUP8 ADD MLOAD PUSH8 0xFFFFFFFFFFFFFFFF DUP2 GT ISZERO PUSH3 0x604 JUMPI PUSH1 0x0 DUP1 REVERT JUMPDEST PUSH3 0x612 DUP10 DUP3 DUP11 ADD PUSH3 0x58B JUMP JUMPDEST SWAP7 POP POP PUSH1 0x20 DUP8 ADD MLOAD PUSH8 0xFFFFFFFFFFFFFFFF DUP2 GT ISZERO PUSH3 0x630 JUMPI PUSH1 0x0 DUP1 REVERT JUMPDEST PUSH3 0x63E DUP10 DUP3 DUP11 ADD PUSH3 0x58B JUMP JUMPDEST SWAP6 POP POP PUSH1 0x40 PUSH3 0x651 DUP10 DUP3 DUP11 ADD PUSH3 0x5B8 JUMP JUMPDEST SWAP5 POP POP PUSH1 0x60 PUSH3 0x664 DUP10 DUP3 DUP11 ADD PUSH3 0x5B8 JUMP JUMPDEST SWAP4 POP POP PUSH1 0x80 PUSH3 0x677 DUP10 DUP3 DUP11 ADD PUSH3 0x5B8 JUMP JUMPDEST SWAP3 POP POP PUSH1 0xA0 DUP8 ADD MLOAD PUSH8 0xFFFFFFFFFFFFFFFF DUP2 GT ISZERO PUSH3 0x695 JUMPI PUSH1 0x0 DUP1 REVERT JUMPDEST PUSH3 0x6A3 DUP10 DUP3 DUP11 ADD PUSH3 0x58B JUMP JUMPDEST SWAP2 POP POP SWAP3 SWAP6 POP SWAP3 SWAP6 POP SWAP3 SWAP6 JUMP JUMPDEST PUSH1 0x0 PUSH3 0x6BF PUSH1 0x20 DUP4 PUSH3 0x758 JUMP JUMPDEST SWAP2 POP PUSH3 0x6CC DUP3 PUSH3 0x884 JUMP JUMPDEST PUSH1 0x20 DUP3 ADD SWAP1 POP SWAP2 SWAP1 POP JUMP JUMPDEST PUSH1 0x0 PUSH1 0x20 DUP3 ADD SWAP1 POP DUP2 DUP2 SUB PUSH1 0x0 DUP4 ADD MSTORE PUSH3 0x6F2 DUP2 PUSH3 0x6B0 JUMP JUMPDEST SWAP1 POP SWAP2 SWAP1 POP JUMP JUMPDEST PUSH1 0x0 PUSH3 0x705 PUSH3 0x718 JUMP JUMPDEST SWAP1 POP PUSH3 0x713 DUP3 DUP3 PUSH3 0x7DF JUMP JUMPDEST SWAP2 SWAP1 POP JUMP JUMPDEST PUSH1 0x0 PUSH1 0x40 MLOAD SWAP1 POP SWAP1 JUMP JUMPDEST PUSH1 0x0 PUSH8 0xFFFFFFFFFFFFFFFF DUP3 GT ISZERO PUSH3 0x740 JUMPI PUSH3 0x73F PUSH3 0x844 JUMP JUMPDEST JUMPDEST PUSH3 0x74B DUP3 PUSH3 0x873 JUMP JUMPDEST SWAP1 POP PUSH1 0x20 DUP2 ADD SWAP1 POP SWAP2 SWAP1 POP JUMP JUMPDEST PUSH1 0x0 DUP3 DUP3 MSTORE PUSH1 0x20 DUP3 ADD SWAP1 POP SWAP3 SWAP2 POP POP JUMP JUMPDEST PUSH1 0x0 DUP2 SWAP1 POP SWAP2 SWAP1 POP JUMP JUMPDEST PUSH1 0x0 JUMPDEST DUP4 DUP2 LT ISZERO PUSH3 0x793 JUMPI DUP1 DUP3 ADD MLOAD DUP2 DUP5 ADD MSTORE PUSH1 0x20 DUP2 ADD SWAP1 POP PUSH3 0x776 JUMP JUMPDEST DUP4 DUP2 GT ISZERO PUSH3 0x7A3 JUMPI PUSH1 0x0 DUP5 DUP5 ADD MSTORE JUMPDEST POP POP POP POP JUMP JUMPDEST PUSH1 0x0 PUSH1 0x2 DUP3 DIV SWAP1 POP PUSH1 0x1 DUP3 AND DUP1 PUSH3 0x7C2 JUMPI PUSH1 0x7F DUP3 AND SWAP2 POP JUMPDEST PUSH1 0x20 DUP3 LT DUP2 EQ ISZERO PUSH3 0x7D9 JUMPI PUSH3 0x7D8 PUSH3 0x815 JUMP JUMPDEST JUMPDEST POP SWAP2 SWAP1 POP JUMP JUMPDEST PUSH3 0x7EA DUP3 PUSH3 0x873 JUMP JUMPDEST DUP2 ADD DUP2 DUP2 LT PUSH8 0xFFFFFFFFFFFFFFFF DUP3 GT OR ISZERO PUSH3 0x80C JUMPI PUSH3 0x80B PUSH3 0x844 JUMP JUMPDEST JUMPDEST DUP1 PUSH1 0x40 MSTORE POP POP POP JUMP JUMPDEST PUSH32 0x4E487B7100000000000000000000000000000000000000000000000000000000 PUSH1 0x0 MSTORE PUSH1 0x22 PUSH1 0x4 MSTORE PUSH1 0x24 PUSH1 0x0 REVERT JUMPDEST PUSH32 0x4E487B7100000000000000000000000000000000000000000000000000000000 PUSH1 0x0 MSTORE PUSH1 0x41 PUSH1 0x4 MSTORE PUSH1 0x24 PUSH1 0x0 REVERT JUMPDEST PUSH1 0x0 PUSH1 0x1F NOT PUSH1 0x1F DUP4 ADD AND SWAP1 POP SWAP2 SWAP1 POP JUMP JUMPDEST PUSH32 0x4F776E61626C653A2063616C6C6572206973206E6F7420746865206F776E6572 PUSH1 0x0 DUP3 ADD MSTORE POP JUMP JUMPDEST PUSH3 0x8B8 DUP2 PUSH3 0x769 JUMP JUMPDEST DUP2 EQ PUSH3 0x8C4 JUMPI PUSH1 0x0 DUP1 REVERT JUMPDEST POP JUMP JUMPDEST PUSH2 0x4A58 DUP1 PUSH3 0x8D7 PUSH1 0x0 CODECOPY PUSH1 0x0 RETURN INVALID PUSH1 0x80 PUSH1 0x40 MSTORE PUSH1 0x4 CALLDATASIZE LT PUSH2 0x251 JUMPI PUSH1 0x0 CALLDATALOAD PUSH1 0xE0 SHR DUP1 PUSH4 0x70A08231 GT PUSH2 0x139 JUMPI DUP1 PUSH4 0xB071401B GT PUSH2 0xB6 JUMPI DUP1 PUSH4 0xD5ABEB01 GT PUSH2 0x7A JUMPI DUP1 PUSH4 0xD5ABEB01 EQ PUSH2 0x86E JUMPI DUP1 PUSH4 0xDB4BEC44 EQ PUSH2 0x899 JUMPI DUP1 PUSH4 0xE0A80853 EQ PUSH2 0x8D6 JUMPI DUP1 PUSH4 0xE985E9C5 EQ PUSH2 0x8FF JUMPI DUP1 PUSH4 0xEFBD73F4 EQ PUSH2 0x93C JUMPI DUP1 PUSH4 0xF2FDE38B EQ PUSH2 0x965 JUMPI PUSH2 0x251 JUMP JUMPDEST DUP1 PUSH4 0xB071401B EQ PUSH2 0x79A JUMPI DUP1 PUSH4 0xB767A098 EQ PUSH2 0x7C3 JUMPI DUP1 PUSH4 0xB88D4FDE EQ PUSH2 0x7EC JUMPI DUP1 PUSH4 0xC87B56DD EQ PUSH2 0x815 JUMPI DUP1 PUSH4 0xD2CAB056 EQ PUSH2 0x852 JUMPI PUSH2 0x251 JUMP JUMPDEST DUP1 PUSH4 0x94354FD0 GT PUSH2 0xFD JUMPI DUP1 PUSH4 0x94354FD0 EQ PUSH2 0x6D4 JUMPI DUP1 PUSH4 0x95D89B41 EQ PUSH2 0x6FF JUMPI DUP1 PUSH4 0xA0712D68 EQ PUSH2 0x72A JUMPI DUP1 PUSH4 0xA22CB465 EQ PUSH2 0x746 JUMPI DUP1 PUSH4 0xA45BA8E7 EQ PUSH2 0x76F JUMPI PUSH2 0x251 JUMP JUMPDEST DUP1 PUSH4 0x70A08231 EQ PUSH2 0x603 JUMPI DUP1 PUSH4 0x715018A6 EQ PUSH2 0x640 JUMPI DUP1 PUSH4 0x7CB64759 EQ PUSH2 0x657 JUMPI DUP1 PUSH4 0x7EC4A659 EQ PUSH2 0x680 JUMPI DUP1 PUSH4 0x8DA5CB5B EQ PUSH2 0x6A9 JUMPI PUSH2 0x251 JUMP JUMPDEST DUP1 PUSH4 0x3CCFD60B GT PUSH2 0x1D2 JUMPI DUP1 PUSH4 0x51830227 GT PUSH2 0x196 JUMPI DUP1 PUSH4 0x51830227 EQ PUSH2 0x4EF JUMPI DUP1 PUSH4 0x5503A0E8 EQ PUSH2 0x51A JUMPI DUP1 PUSH4 0x5C975ABB EQ PUSH2 0x545 JUMPI DUP1 PUSH4 0x62B99AD4 EQ PUSH2 0x570 JUMPI DUP1 PUSH4 0x6352211E EQ PUSH2 0x59B JUMPI DUP1 PUSH4 0x6CAEDE3D EQ PUSH2 0x5D8 JUMPI PUSH2 0x251 JUMP JUMPDEST DUP1 PUSH4 0x3CCFD60B EQ PUSH2 0x420 JUMPI DUP1 PUSH4 0x42842E0E EQ PUSH2 0x437 JUMPI DUP1 PUSH4 0x438B6300 EQ PUSH2 0x460 JUMPI DUP1 PUSH4 0x44A0D68A EQ PUSH2 0x49D JUMPI DUP1 PUSH4 0x4FDD43CB EQ PUSH2 0x4C6 JUMPI PUSH2 0x251 JUMP JUMPDEST DUP1 PUSH4 0x16BA10E0 GT PUSH2 0x219 JUMPI DUP1 PUSH4 0x16BA10E0 EQ PUSH2 0x34F JUMPI DUP1 PUSH4 0x16C38B3C EQ PUSH2 0x378 JUMPI DUP1 PUSH4 0x18160DDD EQ PUSH2 0x3A1 JUMPI DUP1 PUSH4 0x23B872DD EQ PUSH2 0x3CC JUMPI DUP1 PUSH4 0x2EB4A7AB EQ PUSH2 0x3F5 JUMPI PUSH2 0x251 JUMP JUMPDEST DUP1 PUSH4 0x1FFC9A7 EQ PUSH2 0x256 JUMPI DUP1 PUSH4 0x6FDDE03 EQ PUSH2 0x293 JUMPI DUP1 PUSH4 0x81812FC EQ PUSH2 0x2BE JUMPI DUP1 PUSH4 0x95EA7B3 EQ PUSH2 0x2FB JUMPI DUP1 PUSH4 0x13FAEDE6 EQ PUSH2 0x324 JUMPI JUMPDEST PUSH1 0x0 DUP1 REVERT JUMPDEST CALLVALUE DUP1 ISZERO PUSH2 0x262 JUMPI PUSH1 0x0 DUP1 REVERT JUMPDEST POP PUSH2 0x27D PUSH1 0x4 DUP1 CALLDATASIZE SUB DUP2 ADD SWAP1 PUSH2 0x278 SWAP2 SWAP1 PUSH2 0x3AF9 JUMP JUMPDEST PUSH2 0x98E JUMP JUMPDEST PUSH1 0x40 MLOAD PUSH2 0x28A SWAP2 SWAP1 PUSH2 0x40D1 JUMP JUMPDEST PUSH1 0x40 MLOAD DUP1 SWAP2 SUB SWAP1 RETURN JUMPDEST CALLVALUE DUP1 ISZERO PUSH2 0x29F JUMPI PUSH1 0x0 DUP1 REVERT JUMPDEST POP PUSH2 0x2A8 PUSH2 0xA70 JUMP JUMPDEST PUSH1 0x40 MLOAD PUSH2 0x2B5 SWAP2 SWAP1 PUSH2 0x4107 JUMP JUMPDEST PUSH1 0x40 MLOAD DUP1 SWAP2 SUB SWAP1 RETURN JUMPDEST CALLVALUE DUP1 ISZERO PUSH2 0x2CA JUMPI PUSH1 0x0 DUP1 REVERT JUMPDEST POP PUSH2 0x2E5 PUSH1 0x4 DUP1 CALLDATASIZE SUB DUP2 ADD SWAP1 PUSH2 0x2E0 SWAP2 SWAP1 PUSH2 0x3B8C JUMP JUMPDEST PUSH2 0xB02 JUMP JUMPDEST PUSH1 0x40 MLOAD PUSH2 0x2F2 SWAP2 SWAP1 PUSH2 0x4048 JUMP JUMPDEST PUSH1 0x40 MLOAD DUP1 SWAP2 SUB SWAP1 RETURN JUMPDEST CALLVALUE DUP1 ISZERO PUSH2 0x307 JUMPI PUSH1 0x0 DUP1 REVERT JUMPDEST POP PUSH2 0x322 PUSH1 0x4 DUP1 CALLDATASIZE SUB DUP2 ADD SWAP1 PUSH2 0x31D SWAP2 SWAP1 PUSH2 0x3A6B JUMP JUMPDEST PUSH2 0xB7E JUMP JUMPDEST STOP JUMPDEST CALLVALUE DUP1 ISZERO PUSH2 0x330 JUMPI PUSH1 0x0 DUP1 REVERT JUMPDEST POP PUSH2 0x339 PUSH2 0xC89 JUMP JUMPDEST PUSH1 0x40 MLOAD PUSH2 0x346 SWAP2 SWAP1 PUSH2 0x4289 JUMP JUMPDEST PUSH1 0x40 MLOAD DUP1 SWAP2 SUB SWAP1 RETURN JUMPDEST CALLVALUE DUP1 ISZERO PUSH2 0x35B JUMPI PUSH1 0x0 DUP1 REVERT JUMPDEST POP PUSH2 0x376 PUSH1 0x4 DUP1 CALLDATASIZE SUB DUP2 ADD SWAP1 PUSH2 0x371 SWAP2 SWAP1 PUSH2 0x3B4B JUMP JUMPDEST PUSH2 0xC8F JUMP JUMPDEST STOP JUMPDEST CALLVALUE DUP1 ISZERO PUSH2 0x384 JUMPI PUSH1 0x0 DUP1 REVERT JUMPDEST POP PUSH2 0x39F PUSH1 0x4 DUP1 CALLDATASIZE SUB DUP2 ADD SWAP1 PUSH2 0x39A SWAP2 SWAP1 PUSH2 0x3AA7 JUMP JUMPDEST PUSH2 0xD25 JUMP JUMPDEST STOP JUMPDEST CALLVALUE DUP1 ISZERO PUSH2 0x3AD JUMPI PUSH1 0x0 DUP1 REVERT JUMPDEST POP PUSH2 0x3B6 PUSH2 0xDBE JUMP JUMPDEST PUSH1 0x40 MLOAD PUSH2 0x3C3 SWAP2 SWAP1 PUSH2 0x4289 JUMP JUMPDEST PUSH1 0x40 MLOAD DUP1 SWAP2 SUB SWAP1 RETURN JUMPDEST CALLVALUE DUP1 ISZERO PUSH2 0x3D8 JUMPI PUSH1 0x0 DUP1 REVERT JUMPDEST POP PUSH2 0x3F3 PUSH1 0x4 DUP1 CALLDATASIZE SUB DUP2 ADD SWAP1 PUSH2 0x3EE SWAP2 SWAP1 PUSH2 0x3965 JUMP JUMPDEST PUSH2 0xDD5 JUMP JUMPDEST STOP JUMPDEST CALLVALUE DUP1 ISZERO PUSH2 0x401 JUMPI PUSH1 0x0 DUP1 REVERT JUMPDEST POP PUSH2 0x40A PUSH2 0xDE5 JUMP JUMPDEST PUSH1 0x40 MLOAD PUSH2 0x417 SWAP2 SWAP1 PUSH2 0x40EC JUMP JUMPDEST PUSH1 0x40 MLOAD DUP1 SWAP2 SUB SWAP1 RETURN JUMPDEST CALLVALUE DUP1 ISZERO PUSH2 0x42C JUMPI PUSH1 0x0 DUP1 REVERT JUMPDEST POP PUSH2 0x435 PUSH2 0xDEB JUMP JUMPDEST STOP JUMPDEST CALLVALUE DUP1 ISZERO PUSH2 0x443 JUMPI PUSH1 0x0 DUP1 REVERT JUMPDEST POP PUSH2 0x45E PUSH1 0x4 DUP1 CALLDATASIZE SUB DUP2 ADD SWAP1 PUSH2 0x459 SWAP2 SWAP1 PUSH2 0x3965 JUMP JUMPDEST PUSH2 0xF3D JUMP JUMPDEST STOP JUMPDEST CALLVALUE DUP1 ISZERO PUSH2 0x46C JUMPI PUSH1 0x0 DUP1 REVERT JUMPDEST POP PUSH2 0x487 PUSH1 0x4 DUP1 CALLDATASIZE SUB DUP2 ADD SWAP1 PUSH2 0x482 SWAP2 SWAP1 PUSH2 0x3900 JUMP JUMPDEST PUSH2 0xF5D JUMP JUMPDEST PUSH1 0x40 MLOAD PUSH2 0x494 SWAP2 SWAP1 PUSH2 0x40AF JUMP JUMPDEST PUSH1 0x40 MLOAD DUP1 SWAP2 SUB SWAP1 RETURN JUMPDEST CALLVALUE DUP1 ISZERO PUSH2 0x4A9 JUMPI PUSH1 0x0 DUP1 REVERT JUMPDEST POP PUSH2 0x4C4 PUSH1 0x4 DUP1 CALLDATASIZE SUB DUP2 ADD SWAP1 PUSH2 0x4BF SWAP2 SWAP1 PUSH2 0x3B8C JUMP JUMPDEST PUSH2 0x11BD JUMP JUMPDEST STOP JUMPDEST CALLVALUE DUP1 ISZERO PUSH2 0x4D2 JUMPI PUSH1 0x0 DUP1 REVERT JUMPDEST POP PUSH2 0x4ED PUSH1 0x4 DUP1 CALLDATASIZE SUB DUP2 ADD SWAP1 PUSH2 0x4E8 SWAP2 SWAP1 PUSH2 0x3B4B JUMP JUMPDEST PUSH2 0x1243 JUMP JUMPDEST STOP JUMPDEST CALLVALUE DUP1 ISZERO PUSH2 0x4FB JUMPI PUSH1 0x0 DUP1 REVERT JUMPDEST POP PUSH2 0x504 PUSH2 0x12D9 JUMP JUMPDEST PUSH1 0x40 MLOAD PUSH2 0x511 SWAP2 SWAP1 PUSH2 0x40D1 JUMP JUMPDEST PUSH1 0x40 MLOAD DUP1 SWAP2 SUB SWAP1 RETURN JUMPDEST CALLVALUE DUP1 ISZERO PUSH2 0x526 JUMPI PUSH1 0x0 DUP1 REVERT JUMPDEST POP PUSH2 0x52F PUSH2 0x12EC JUMP JUMPDEST PUSH1 0x40 MLOAD PUSH2 0x53C SWAP2 SWAP1 PUSH2 0x4107 JUMP JUMPDEST PUSH1 0x40 MLOAD DUP1 SWAP2 SUB SWAP1 RETURN JUMPDEST CALLVALUE DUP1 ISZERO PUSH2 0x551 JUMPI PUSH1 0x0 DUP1 REVERT JUMPDEST POP PUSH2 0x55A PUSH2 0x137A JUMP JUMPDEST PUSH1 0x40 MLOAD PUSH2 0x567 SWAP2 SWAP1 PUSH2 0x40D1 JUMP JUMPDEST PUSH1 0x40 MLOAD DUP1 SWAP2 SUB SWAP1 RETURN JUMPDEST CALLVALUE DUP1 ISZERO PUSH2 0x57C JUMPI PUSH1 0x0 DUP1 REVERT JUMPDEST POP PUSH2 0x585 PUSH2 0x138D JUMP JUMPDEST PUSH1 0x40 MLOAD PUSH2 0x592 SWAP2 SWAP1 PUSH2 0x4107 JUMP JUMPDEST PUSH1 0x40 MLOAD DUP1 SWAP2 SUB SWAP1 RETURN JUMPDEST CALLVALUE DUP1 ISZERO PUSH2 0x5A7 JUMPI PUSH1 0x0 DUP1 REVERT JUMPDEST POP PUSH2 0x5C2 PUSH1 0x4 DUP1 CALLDATASIZE SUB DUP2 ADD SWAP1 PUSH2 0x5BD SWAP2 SWAP1 PUSH2 0x3B8C JUMP JUMPDEST PUSH2 0x141B JUMP JUMPDEST PUSH1 0x40 MLOAD PUSH2 0x5CF SWAP2 SWAP1 PUSH2 0x4048 JUMP JUMPDEST PUSH1 0x40 MLOAD DUP1 SWAP2 SUB SWAP1 RETURN JUMPDEST CALLVALUE DUP1 ISZERO PUSH2 0x5E4 JUMPI PUSH1 0x0 DUP1 REVERT JUMPDEST POP PUSH2 0x5ED PUSH2 0x1431 JUMP JUMPDEST PUSH1 0x40 MLOAD PUSH2 0x5FA SWAP2 SWAP1 PUSH2 0x40D1 JUMP JUMPDEST PUSH1 0x40 MLOAD DUP1 SWAP2 SUB SWAP1 RETURN JUMPDEST CALLVALUE DUP1 ISZERO PUSH2 0x60F JUMPI PUSH1 0x0 DUP1 REVERT JUMPDEST POP PUSH2 0x62A PUSH1 0x4 DUP1 CALLDATASIZE SUB DUP2 ADD SWAP1 PUSH2 0x625 SWAP2 SWAP1 PUSH2 0x3900 JUMP JUMPDEST PUSH2 0x1444 JUMP JUMPDEST PUSH1 0x40 MLOAD PUSH2 0x637 SWAP2 SWAP1 PUSH2 0x4289 JUMP JUMPDEST PUSH1 0x40 MLOAD DUP1 SWAP2 SUB SWAP1 RETURN JUMPDEST CALLVALUE DUP1 ISZERO PUSH2 0x64C JUMPI PUSH1 0x0 DUP1 REVERT JUMPDEST POP PUSH2 0x655 PUSH2 0x1514 JUMP JUMPDEST STOP JUMPDEST CALLVALUE DUP1 ISZERO PUSH2 0x663 JUMPI PUSH1 0x0 DUP1 REVERT JUMPDEST POP PUSH2 0x67E PUSH1 0x4 DUP1 CALLDATASIZE SUB DUP2 ADD SWAP1 PUSH2 0x679 SWAP2 SWAP1 PUSH2 0x3AD0 JUMP JUMPDEST PUSH2 0x159C JUMP JUMPDEST STOP JUMPDEST CALLVALUE DUP1 ISZERO PUSH2 0x68C JUMPI PUSH1 0x0 DUP1 REVERT JUMPDEST POP PUSH2 0x6A7 PUSH1 0x4 DUP1 CALLDATASIZE SUB DUP2 ADD SWAP1 PUSH2 0x6A2 SWAP2 SWAP1 PUSH2 0x3B4B JUMP JUMPDEST PUSH2 0x1622 JUMP JUMPDEST STOP JUMPDEST CALLVALUE DUP1 ISZERO PUSH2 0x6B5 JUMPI PUSH1 0x0 DUP1 REVERT JUMPDEST POP PUSH2 0x6BE PUSH2 0x16B8 JUMP JUMPDEST PUSH1 0x40 MLOAD PUSH2 0x6CB SWAP2 SWAP1 PUSH2 0x4048 JUMP JUMPDEST PUSH1 0x40 MLOAD DUP1 SWAP2 SUB SWAP1 RETURN JUMPDEST CALLVALUE DUP1 ISZERO PUSH2 0x6E0 JUMPI PUSH1 0x0 DUP1 REVERT JUMPDEST POP PUSH2 0x6E9 PUSH2 0x16E2 JUMP JUMPDEST PUSH1 0x40 MLOAD PUSH2 0x6F6 SWAP2 SWAP1 PUSH2 0x4289 JUMP JUMPDEST PUSH1 0x40 MLOAD DUP1 SWAP2 SUB SWAP1 RETURN JUMPDEST CALLVALUE DUP1 ISZERO PUSH2 0x70B JUMPI PUSH1 0x0 DUP1 REVERT JUMPDEST POP PUSH2 0x714 PUSH2 0x16E8 JUMP JUMPDEST PUSH1 0x40 MLOAD PUSH2 0x721 SWAP2 SWAP1 PUSH2 0x4107 JUMP JUMPDEST PUSH1 0x40 MLOAD DUP1 SWAP2 SUB SWAP1 RETURN JUMPDEST PUSH2 0x744 PUSH1 0x4 DUP1 CALLDATASIZE SUB DUP2 ADD SWAP1 PUSH2 0x73F SWAP2 SWAP1 PUSH2 0x3B8C JUMP JUMPDEST PUSH2 0x177A JUMP JUMPDEST STOP JUMPDEST CALLVALUE DUP1 ISZERO PUSH2 0x752 JUMPI PUSH1 0x0 DUP1 REVERT JUMPDEST POP PUSH2 0x76D PUSH1 0x4 DUP1 CALLDATASIZE SUB DUP2 ADD SWAP1 PUSH2 0x768 SWAP2 SWAP1 PUSH2 0x3A2F JUMP JUMPDEST PUSH2 0x18DA JUMP JUMPDEST STOP JUMPDEST CALLVALUE DUP1 ISZERO PUSH2 0x77B JUMPI PUSH1 0x0 DUP1 REVERT JUMPDEST POP PUSH2 0x784 PUSH2 0x1A52 JUMP JUMPDEST PUSH1 0x40 MLOAD PUSH2 0x791 SWAP2 SWAP1 PUSH2 0x4107 JUMP JUMPDEST PUSH1 0x40 MLOAD DUP1 SWAP2 SUB SWAP1 RETURN JUMPDEST CALLVALUE DUP1 ISZERO PUSH2 0x7A6 JUMPI PUSH1 0x0 DUP1 REVERT JUMPDEST POP PUSH2 0x7C1 PUSH1 0x4 DUP1 CALLDATASIZE SUB DUP2 ADD SWAP1 PUSH2 0x7BC SWAP2 SWAP1 PUSH2 0x3B8C JUMP JUMPDEST PUSH2 0x1AE0 JUMP JUMPDEST STOP JUMPDEST CALLVALUE DUP1 ISZERO PUSH2 0x7CF JUMPI PUSH1 0x0 DUP1 REVERT JUMPDEST POP PUSH2 0x7EA PUSH1 0x4 DUP1 CALLDATASIZE SUB DUP2 ADD SWAP1 PUSH2 0x7E5 SWAP2 SWAP1 PUSH2 0x3AA7 JUMP JUMPDEST PUSH2 0x1B66 JUMP JUMPDEST STOP JUMPDEST CALLVALUE DUP1 ISZERO PUSH2 0x7F8 JUMPI PUSH1 0x0 DUP1 REVERT JUMPDEST POP PUSH2 0x813 PUSH1 0x4 DUP1 CALLDATASIZE SUB DUP2 ADD SWAP1 PUSH2 0x80E SWAP2 SWAP1 PUSH2 0x39B4 JUMP JUMPDEST PUSH2 0x1BFF JUMP JUMPDEST STOP JUMPDEST CALLVALUE DUP1 ISZERO PUSH2 0x821 JUMPI PUSH1 0x0 DUP1 REVERT JUMPDEST POP PUSH2 0x83C PUSH1 0x4 DUP1 CALLDATASIZE SUB DUP2 ADD SWAP1 PUSH2 0x837 SWAP2 SWAP1 PUSH2 0x3B8C JUMP JUMPDEST PUSH2 0x1C7B JUMP JUMPDEST PUSH1 0x40 MLOAD PUSH2 0x849 SWAP2 SWAP1 PUSH2 0x4107 JUMP JUMPDEST PUSH1 0x40 MLOAD DUP1 SWAP2 SUB SWAP1 RETURN JUMPDEST PUSH2 0x86C PUSH1 0x4 DUP1 CALLDATASIZE SUB DUP2 ADD SWAP1 PUSH2 0x867 SWAP2 SWAP1 PUSH2 0x3BF1 JUMP JUMPDEST PUSH2 0x1DD4 JUMP JUMPDEST STOP JUMPDEST CALLVALUE DUP1 ISZERO PUSH2 0x87A JUMPI PUSH1 0x0 DUP1 REVERT JUMPDEST POP PUSH2 0x883 PUSH2 0x20E8 JUMP JUMPDEST PUSH1 0x40 MLOAD PUSH2 0x890 SWAP2 SWAP1 PUSH2 0x4289 JUMP JUMPDEST PUSH1 0x40 MLOAD DUP1 SWAP2 SUB SWAP1 RETURN JUMPDEST CALLVALUE DUP1 ISZERO PUSH2 0x8A5 JUMPI PUSH1 0x0 DUP1 REVERT JUMPDEST POP PUSH2 0x8C0 PUSH1 0x4 DUP1 CALLDATASIZE SUB DUP2 ADD SWAP1 PUSH2 0x8BB SWAP2 SWAP1 PUSH2 0x3900 JUMP JUMPDEST PUSH2 0x20EE JUMP JUMPDEST PUSH1 0x40 MLOAD PUSH2 0x8CD SWAP2 SWAP1 PUSH2 0x40D1 JUMP JUMPDEST PUSH1 0x40 MLOAD DUP1 SWAP2 SUB SWAP1 RETURN JUMPDEST CALLVALUE DUP1 ISZERO PUSH2 0x8E2 JUMPI PUSH1 0x0 DUP1 REVERT JUMPDEST POP PUSH2 0x8FD PUSH1 0x4 DUP1 CALLDATASIZE SUB DUP2 ADD SWAP1 PUSH2 0x8F8 SWAP2 SWAP1 PUSH2 0x3AA7 JUMP JUMPDEST PUSH2 0x210E JUMP JUMPDEST STOP JUMPDEST CALLVALUE DUP1 ISZERO PUSH2 0x90B JUMPI PUSH1 0x0 DUP1 REVERT JUMPDEST POP PUSH2 0x926 PUSH1 0x4 DUP1 CALLDATASIZE SUB DUP2 ADD SWAP1 PUSH2 0x921 SWAP2 SWAP1 PUSH2 0x3929 JUMP JUMPDEST PUSH2 0x21A7 JUMP JUMPDEST PUSH1 0x40 MLOAD PUSH2 0x933 SWAP2 SWAP1 PUSH2 0x40D1 JUMP JUMPDEST PUSH1 0x40 MLOAD DUP1 SWAP2 SUB SWAP1 RETURN JUMPDEST CALLVALUE DUP1 ISZERO PUSH2 0x948 JUMPI PUSH1 0x0 DUP1 REVERT JUMPDEST POP PUSH2 0x963 PUSH1 0x4 DUP1 CALLDATASIZE SUB DUP2 ADD SWAP1 PUSH2 0x95E SWAP2 SWAP1 PUSH2 0x3BB5 JUMP JUMPDEST PUSH2 0x223B JUMP JUMPDEST STOP JUMPDEST CALLVALUE DUP1 ISZERO PUSH2 0x971 JUMPI PUSH1 0x0 DUP1 REVERT JUMPDEST POP PUSH2 0x98C PUSH1 0x4 DUP1 CALLDATASIZE SUB DUP2 ADD SWAP1 PUSH2 0x987 SWAP2 SWAP1 PUSH2 0x3900 JUMP JUMPDEST PUSH2 0x236F JUMP JUMPDEST STOP JUMPDEST PUSH1 0x0 PUSH32 0x80AC58CD00000000000000000000000000000000000000000000000000000000 PUSH28 0xFFFFFFFFFFFFFFFFFFFFFFFFFFFFFFFFFFFFFFFFFFFFFFFFFFFFFFFF NOT AND DUP3 PUSH28 0xFFFFFFFFFFFFFFFFFFFFFFFFFFFFFFFFFFFFFFFFFFFFFFFFFFFFFFFF NOT AND EQ DUP1 PUSH2 0xA59 JUMPI POP PUSH32 0x5B5E139F00000000000000000000000000000000000000000000000000000000 PUSH28 0xFFFFFFFFFFFFFFFFFFFFFFFFFFFFFFFFFFFFFFFFFFFFFFFFFFFFFFFF NOT AND DUP3 PUSH28 0xFFFFFFFFFFFFFFFFFFFFFFFFFFFFFFFFFFFFFFFFFFFFFFFFFFFFFFFF NOT AND EQ JUMPDEST DUP1 PUSH2 0xA69 JUMPI POP PUSH2 0xA68 DUP3 PUSH2 0x2467 JUMP JUMPDEST JUMPDEST SWAP1 POP SWAP2 SWAP1 POP JUMP JUMPDEST PUSH1 0x60 PUSH1 0x2 DUP1 SLOAD PUSH2 0xA7F SWAP1 PUSH2 0x459C JUMP JUMPDEST DUP1 PUSH1 0x1F ADD PUSH1 0x20 DUP1 SWAP2 DIV MUL PUSH1 0x20 ADD PUSH1 0x40 MLOAD SWAP1 DUP2 ADD PUSH1 0x40 MSTORE DUP1 SWAP3 SWAP2 SWAP1 DUP2 DUP2 MSTORE PUSH1 0x20 ADD DUP3 DUP1 SLOAD PUSH2 0xAAB SWAP1 PUSH2 0x459C JUMP JUMPDEST DUP1 ISZERO PUSH2 0xAF8 JUMPI DUP1 PUSH1 0x1F LT PUSH2 0xACD JUMPI PUSH2 0x100 DUP1 DUP4 SLOAD DIV MUL DUP4 MSTORE SWAP2 PUSH1 0x20 ADD SWAP2 PUSH2 0xAF8 JUMP JUMPDEST DUP3 ADD SWAP2 SWAP1 PUSH1 0x0 MSTORE PUSH1 0x20 PUSH1 0x0 KECCAK256 SWAP1 JUMPDEST DUP2 SLOAD DUP2 MSTORE SWAP1 PUSH1 0x1 ADD SWAP1 PUSH1 0x20 ADD DUP1 DUP4 GT PUSH2 0xADB JUMPI DUP3 SWAP1 SUB PUSH1 0x1F AND DUP3 ADD SWAP2 JUMPDEST POP POP POP POP POP SWAP1 POP SWAP1 JUMP JUMPDEST PUSH1 0x0 PUSH2 0xB0D DUP3 PUSH2 0x24D1 JUMP JUMPDEST PUSH2 0xB43 JUMPI PUSH1 0x40 MLOAD PUSH32 0xCF4700E400000000000000000000000000000000000000000000000000000000 DUP2 MSTORE PUSH1 0x4 ADD PUSH1 0x40 MLOAD DUP1 SWAP2 SUB SWAP1 REVERT JUMPDEST PUSH1 0x6 PUSH1 0x0 DUP4 DUP2 MSTORE PUSH1 0x20 ADD SWAP1 DUP2 MSTORE PUSH1 0x20 ADD PUSH1 0x0 KECCAK256 PUSH1 0x0 SWAP1 SLOAD SWAP1 PUSH2 0x100 EXP SWAP1 DIV PUSH20 0xFFFFFFFFFFFFFFFFFFFFFFFFFFFFFFFFFFFFFFFF AND SWAP1 POP SWAP2 SWAP1 POP JUMP JUMPDEST PUSH1 0x0 PUSH2 0xB89 DUP3 PUSH2 0x141B JUMP JUMPDEST SWAP1 POP DUP1 PUSH20 0xFFFFFFFFFFFFFFFFFFFFFFFFFFFFFFFFFFFFFFFF AND DUP4 PUSH20 0xFFFFFFFFFFFFFFFFFFFFFFFFFFFFFFFFFFFFFFFF AND EQ ISZERO PUSH2 0xBF1 JUMPI PUSH1 0x40 MLOAD PUSH32 0x943F7B8C00000000000000000000000000000000000000000000000000000000 DUP2 MSTORE PUSH1 0x4 ADD PUSH1 0x40 MLOAD DUP1 SWAP2 SUB SWAP1 REVERT JUMPDEST DUP1 PUSH20 0xFFFFFFFFFFFFFFFFFFFFFFFFFFFFFFFFFFFFFFFF AND PUSH2 0xC10 PUSH2 0x251F JUMP JUMPDEST PUSH20 0xFFFFFFFFFFFFFFFFFFFFFFFFFFFFFFFFFFFFFFFF AND EQ ISZERO DUP1 ISZERO PUSH2 0xC42 JUMPI POP PUSH2 0xC40 DUP2 PUSH2 0xC3B PUSH2 0x251F JUMP JUMPDEST PUSH2 0x21A7 JUMP JUMPDEST ISZERO JUMPDEST ISZERO PUSH2 0xC79 JUMPI PUSH1 0x40 MLOAD PUSH32 0xCFB3B94200000000000000000000000000000000000000000000000000000000 DUP2 MSTORE PUSH1 0x4 ADD PUSH1 0x40 MLOAD DUP1 SWAP2 SUB SWAP1 REVERT JUMPDEST PUSH2 0xC84 DUP4 DUP4 DUP4 PUSH2 0x2527 JUMP JUMPDEST POP POP POP JUMP JUMPDEST PUSH1 0xF SLOAD DUP2 JUMP JUMPDEST PUSH2 0xC97 PUSH2 0x251F JUMP JUMPDEST PUSH20 0xFFFFFFFFFFFFFFFFFFFFFFFFFFFFFFFFFFFFFFFF AND PUSH2 0xCB5 PUSH2 0x16B8 JUMP JUMPDEST PUSH20 0xFFFFFFFFFFFFFFFFFFFFFFFFFFFFFFFFFFFFFFFF AND EQ PUSH2 0xD0B JUMPI PUSH1 0x40 MLOAD PUSH32 0x8C379A000000000000000000000000000000000000000000000000000000000 DUP2 MSTORE PUSH1 0x4 ADD PUSH2 0xD02 SWAP1 PUSH2 0x4189 JUMP JUMPDEST PUSH1 0x40 MLOAD DUP1 SWAP2 SUB SWAP1 REVERT JUMPDEST DUP1 PUSH1 0xD SWAP1 DUP1 MLOAD SWAP1 PUSH1 0x20 ADD SWAP1 PUSH2 0xD21 SWAP3 SWAP2 SWAP1 PUSH2 0x3682 JUMP JUMPDEST POP POP JUMP JUMPDEST PUSH2 0xD2D PUSH2 0x251F JUMP JUMPDEST PUSH20 0xFFFFFFFFFFFFFFFFFFFFFFFFFFFFFFFFFFFFFFFF AND PUSH2 0xD4B PUSH2 0x16B8 JUMP JUMPDEST PUSH20 0xFFFFFFFFFFFFFFFFFFFFFFFFFFFFFFFFFFFFFFFF AND EQ PUSH2 0xDA1 JUMPI PUSH1 0x40 MLOAD PUSH32 0x8C379A000000000000000000000000000000000000000000000000000000000 DUP2 MSTORE PUSH1 0x4 ADD PUSH2 0xD98 SWAP1 PUSH2 0x4189 JUMP JUMPDEST PUSH1 0x40 MLOAD DUP1 SWAP2 SUB SWAP1 REVERT JUMPDEST DUP1 PUSH1 0x12 PUSH1 0x0 PUSH2 0x100 EXP DUP2 SLOAD DUP2 PUSH1 0xFF MUL NOT AND SWAP1 DUP4 ISZERO ISZERO MUL OR SWAP1 SSTORE POP POP JUMP JUMPDEST PUSH1 0x0 PUSH2 0xDC8 PUSH2 0x25D9 JUMP JUMPDEST PUSH1 0x1 SLOAD PUSH1 0x0 SLOAD SUB SUB SWAP1 POP SWAP1 JUMP JUMPDEST PUSH2 0xDE0 DUP4 DUP4 DUP4 PUSH2 0x25E2 JUMP JUMPDEST POP POP POP JUMP JUMPDEST PUSH1 0xA SLOAD DUP2 JUMP JUMPDEST PUSH2 0xDF3 PUSH2 0x251F JUMP JUMPDEST PUSH20 0xFFFFFFFFFFFFFFFFFFFFFFFFFFFFFFFFFFFFFFFF AND PUSH2 0xE11 PUSH2 0x16B8 JUMP JUMPDEST PUSH20 0xFFFFFFFFFFFFFFFFFFFFFFFFFFFFFFFFFFFFFFFF AND EQ PUSH2 0xE67 JUMPI PUSH1 0x40 MLOAD PUSH32 0x8C379A000000000000000000000000000000000000000000000000000000000 DUP2 MSTORE PUSH1 0x4 ADD PUSH2 0xE5E SWAP1 PUSH2 0x4189 JUMP JUMPDEST PUSH1 0x40 MLOAD DUP1 SWAP2 SUB SWAP1 REVERT JUMPDEST PUSH1 0x2 PUSH1 0x9 SLOAD EQ ISZERO PUSH2 0xEAD JUMPI PUSH1 0x40 MLOAD PUSH32 0x8C379A000000000000000000000000000000000000000000000000000000000 DUP2 MSTORE PUSH1 0x4 ADD PUSH2 0xEA4 SWAP1 PUSH2 0x4249 JUMP JUMPDEST PUSH1 0x40 MLOAD DUP1 SWAP2 SUB SWAP1 REVERT JUMPDEST PUSH1 0x2 PUSH1 0x9 DUP2 SWAP1 SSTORE POP PUSH1 0x0 PUSH2 0xEBF PUSH2 0x16B8 JUMP JUMPDEST PUSH20 0xFFFFFFFFFFFFFFFFFFFFFFFFFFFFFFFFFFFFFFFF AND SELFBALANCE PUSH1 0x40 MLOAD PUSH2 0xEE2 SWAP1 PUSH2 0x4033 JUMP JUMPDEST PUSH1 0x0 PUSH1 0x40 MLOAD DUP1 DUP4 SUB DUP2 DUP6 DUP8 GAS CALL SWAP3 POP POP POP RETURNDATASIZE DUP1 PUSH1 0x0 DUP2 EQ PUSH2 0xF1F JUMPI PUSH1 0x40 MLOAD SWAP2 POP PUSH1 0x1F NOT PUSH1 0x3F RETURNDATASIZE ADD AND DUP3 ADD PUSH1 0x40 MSTORE RETURNDATASIZE DUP3 MSTORE RETURNDATASIZE PUSH1 0x0 PUSH1 0x20 DUP5 ADD RETURNDATACOPY PUSH2 0xF24 JUMP JUMPDEST PUSH1 0x60 SWAP2 POP JUMPDEST POP POP SWAP1 POP DUP1 PUSH2 0xF32 JUMPI PUSH1 0x0 DUP1 REVERT JUMPDEST POP PUSH1 0x1 PUSH1 0x9 DUP2 SWAP1 SSTORE POP JUMP JUMPDEST PUSH2 0xF58 DUP4 DUP4 DUP4 PUSH1 0x40 MLOAD DUP1 PUSH1 0x20 ADD PUSH1 0x40 MSTORE DUP1 PUSH1 0x0 DUP2 MSTORE POP PUSH2 0x1BFF JUMP JUMPDEST POP POP POP JUMP JUMPDEST PUSH1 0x60 PUSH1 0x0 PUSH2 0xF6A DUP4 PUSH2 0x1444 JUMP JUMPDEST SWAP1 POP PUSH1 0x0 DUP2 PUSH8 0xFFFFFFFFFFFFFFFF DUP2 GT ISZERO PUSH2 0xFAE JUMPI PUSH32 0x4E487B7100000000000000000000000000000000000000000000000000000000 PUSH1 0x0 MSTORE PUSH1 0x41 PUSH1 0x4 MSTORE PUSH1 0x24 PUSH1 0x0 REVERT JUMPDEST PUSH1 0x40 MLOAD SWAP1 DUP1 DUP3 MSTORE DUP1 PUSH1 0x20 MUL PUSH1 0x20 ADD DUP3 ADD PUSH1 0x40 MSTORE DUP1 ISZERO PUSH2 0xFDC JUMPI DUP2 PUSH1 0x20 ADD PUSH1 0x20 DUP3 MUL DUP1 CALLDATASIZE DUP4 CALLDATACOPY DUP1 DUP3 ADD SWAP2 POP POP SWAP1 POP JUMPDEST POP SWAP1 POP PUSH1 0x0 PUSH2 0xFE9 PUSH2 0x25D9 JUMP JUMPDEST SWAP1 POP PUSH1 0x0 DUP1 JUMPDEST DUP5 DUP3 LT DUP1 ISZERO PUSH2 0xFFF JUMPI POP PUSH1 0x0 SLOAD DUP4 LT JUMPDEST ISZERO PUSH2 0x11B0 JUMPI PUSH1 0x0 PUSH1 0x4 PUSH1 0x0 DUP6 DUP2 MSTORE PUSH1 0x20 ADD SWAP1 DUP2 MSTORE PUSH1 0x20 ADD PUSH1 0x0 KECCAK256 PUSH1 0x40 MLOAD DUP1 PUSH1 0x60 ADD PUSH1 0x40 MSTORE SWAP1 DUP2 PUSH1 0x0 DUP3 ADD PUSH1 0x0 SWAP1 SLOAD SWAP1 PUSH2 0x100 EXP SWAP1 DIV PUSH20 0xFFFFFFFFFFFFFFFFFFFFFFFFFFFFFFFFFFFFFFFF AND PUSH20 0xFFFFFFFFFFFFFFFFFFFFFFFFFFFFFFFFFFFFFFFF AND PUSH20 0xFFFFFFFFFFFFFFFFFFFFFFFFFFFFFFFFFFFFFFFF AND DUP2 MSTORE PUSH1 0x20 ADD PUSH1 0x0 DUP3 ADD PUSH1 0x14 SWAP1 SLOAD SWAP1 PUSH2 0x100 EXP SWAP1 DIV PUSH8 0xFFFFFFFFFFFFFFFF AND PUSH8 0xFFFFFFFFFFFFFFFF AND PUSH8 0xFFFFFFFFFFFFFFFF AND DUP2 MSTORE PUSH1 0x20 ADD PUSH1 0x0 DUP3 ADD PUSH1 0x1C SWAP1 SLOAD SWAP1 PUSH2 0x100 EXP SWAP1 DIV PUSH1 0xFF AND ISZERO ISZERO ISZERO ISZERO DUP2 MSTORE POP POP SWAP1 POP DUP1 PUSH1 0x40 ADD MLOAD PUSH2 0x119C JUMPI PUSH1 0x0 PUSH20 0xFFFFFFFFFFFFFFFFFFFFFFFFFFFFFFFFFFFFFFFF AND DUP2 PUSH1 0x0 ADD MLOAD PUSH20 0xFFFFFFFFFFFFFFFFFFFFFFFFFFFFFFFFFFFFFFFF AND EQ PUSH2 0x1112 JUMPI DUP1 PUSH1 0x0 ADD MLOAD SWAP2 POP JUMPDEST DUP8 PUSH20 0xFFFFFFFFFFFFFFFFFFFFFFFFFFFFFFFFFFFFFFFF AND DUP3 PUSH20 0xFFFFFFFFFFFFFFFFFFFFFFFFFFFFFFFFFFFFFFFF AND EQ ISZERO PUSH2 0x119B JUMPI DUP4 DUP6 DUP5 DUP2 MLOAD DUP2 LT PUSH2 0x1180 JUMPI PUSH32 0x4E487B7100000000000000000000000000000000000000000000000000000000 PUSH1 0x0 MSTORE PUSH1 0x32 PUSH1 0x4 MSTORE PUSH1 0x24 PUSH1 0x0 REVERT JUMPDEST PUSH1 0x20 MUL PUSH1 0x20 ADD ADD DUP2 DUP2 MSTORE POP POP DUP3 DUP1 PUSH2 0x1197 SWAP1 PUSH2 0x45FF JUMP JUMPDEST SWAP4 POP POP JUMPDEST JUMPDEST DUP4 DUP1 PUSH2 0x11A7 SWAP1 PUSH2 0x45FF JUMP JUMPDEST SWAP5 POP POP POP PUSH2 0xFEF JUMP JUMPDEST DUP4 SWAP6 POP POP POP POP POP POP SWAP2 SWAP1 POP JUMP JUMPDEST PUSH2 0x11C5 PUSH2 0x251F JUMP JUMPDEST PUSH20 0xFFFFFFFFFFFFFFFFFFFFFFFFFFFFFFFFFFFFFFFF AND PUSH2 0x11E3 PUSH2 0x16B8 JUMP JUMPDEST PUSH20 0xFFFFFFFFFFFFFFFFFFFFFFFFFFFFFFFFFFFFFFFF AND EQ PUSH2 0x1239 JUMPI PUSH1 0x40 MLOAD PUSH32 0x8C379A000000000000000000000000000000000000000000000000000000000 DUP2 MSTORE PUSH1 0x4 ADD PUSH2 0x1230 SWAP1 PUSH2 0x4189 JUMP JUMPDEST PUSH1 0x40 MLOAD DUP1 SWAP2 SUB SWAP1 REVERT JUMPDEST DUP1 PUSH1 0xF DUP2 SWAP1 SSTORE POP POP JUMP JUMPDEST PUSH2 0x124B PUSH2 0x251F JUMP JUMPDEST PUSH20 0xFFFFFFFFFFFFFFFFFFFFFFFFFFFFFFFFFFFFFFFF AND PUSH2 0x1269 PUSH2 0x16B8 JUMP JUMPDEST PUSH20 0xFFFFFFFFFFFFFFFFFFFFFFFFFFFFFFFFFFFFFFFF AND EQ PUSH2 0x12BF JUMPI PUSH1 0x40 MLOAD PUSH32 0x8C379A000000000000000000000000000000000000000000000000000000000 DUP2 MSTORE PUSH1 0x4 ADD PUSH2 0x12B6 SWAP1 PUSH2 0x4189 JUMP JUMPDEST PUSH1 0x40 MLOAD DUP1 SWAP2 SUB SWAP1 REVERT JUMPDEST DUP1 PUSH1 0xE SWAP1 DUP1 MLOAD SWAP1 PUSH1 0x20 ADD SWAP1 PUSH2 0x12D5 SWAP3 SWAP2 SWAP1 PUSH2 0x3682 JUMP JUMPDEST POP POP JUMP JUMPDEST PUSH1 0x12 PUSH1 0x2 SWAP1 SLOAD SWAP1 PUSH2 0x100 EXP SWAP1 DIV PUSH1 0xFF AND DUP2 JUMP JUMPDEST PUSH1 0xD DUP1 SLOAD PUSH2 0x12F9 SWAP1 PUSH2 0x459C JUMP JUMPDEST DUP1 PUSH1 0x1F ADD PUSH1 0x20 DUP1 SWAP2 DIV MUL PUSH1 0x20 ADD PUSH1 0x40 MLOAD SWAP1 DUP2 ADD PUSH1 0x40 MSTORE DUP1 SWAP3 SWAP2 SWAP1 DUP2 DUP2 MSTORE PUSH1 0x20 ADD DUP3 DUP1 SLOAD PUSH2 0x1325 SWAP1 PUSH2 0x459C JUMP JUMPDEST DUP1 ISZERO PUSH2 0x1372 JUMPI DUP1 PUSH1 0x1F LT PUSH2 0x1347 JUMPI PUSH2 0x100 DUP1 DUP4 SLOAD DIV MUL DUP4 MSTORE SWAP2 PUSH1 0x20 ADD SWAP2 PUSH2 0x1372 JUMP JUMPDEST DUP3 ADD SWAP2 SWAP1 PUSH1 0x0 MSTORE PUSH1 0x20 PUSH1 0x0 KECCAK256 SWAP1 JUMPDEST DUP2 SLOAD DUP2 MSTORE SWAP1 PUSH1 0x1 ADD SWAP1 PUSH1 0x20 ADD DUP1 DUP4 GT PUSH2 0x1355 JUMPI DUP3 SWAP1 SUB PUSH1 0x1F AND DUP3 ADD SWAP2 JUMPDEST POP POP POP POP POP DUP2 JUMP JUMPDEST PUSH1 0x12 PUSH1 0x0 SWAP1 SLOAD SWAP1 PUSH2 0x100 EXP SWAP1 DIV PUSH1 0xFF AND DUP2 JUMP JUMPDEST PUSH1 0xC DUP1 SLOAD PUSH2 0x139A SWAP1 PUSH2 0x459C JUMP JUMPDEST DUP1 PUSH1 0x1F ADD PUSH1 0x20 DUP1 SWAP2 DIV MUL PUSH1 0x20 ADD PUSH1 0x40 MLOAD SWAP1 DUP2 ADD PUSH1 0x40 MSTORE DUP1 SWAP3 SWAP2 SWAP1 DUP2 DUP2 MSTORE PUSH1 0x20 ADD DUP3 DUP1 SLOAD PUSH2 0x13C6 SWAP1 PUSH2 0x459C JUMP JUMPDEST DUP1 ISZERO PUSH2 0x1413 JUMPI DUP1 PUSH1 0x1F LT PUSH2 0x13E8 JUMPI PUSH2 0x100 DUP1 DUP4 SLOAD DIV MUL DUP4 MSTORE SWAP2 PUSH1 0x20 ADD SWAP2 PUSH2 0x1413 JUMP JUMPDEST DUP3 ADD SWAP2 SWAP1 PUSH1 0x0 MSTORE PUSH1 0x20 PUSH1 0x0 KECCAK256 SWAP1 JUMPDEST DUP2 SLOAD DUP2 MSTORE SWAP1 PUSH1 0x1 ADD SWAP1 PUSH1 0x20 ADD DUP1 DUP4 GT PUSH2 0x13F6 JUMPI DUP3 SWAP1 SUB PUSH1 0x1F AND DUP3 ADD SWAP2 JUMPDEST POP POP POP POP POP DUP2 JUMP JUMPDEST PUSH1 0x0 PUSH2 0x1426 DUP3 PUSH2 0x2A98 JUMP JUMPDEST PUSH1 0x0 ADD MLOAD SWAP1 POP SWAP2 SWAP1 POP JUMP JUMPDEST PUSH1 0x12 PUSH1 0x1 SWAP1 SLOAD SWAP1 PUSH2 0x100 EXP SWAP1 DIV PUSH1 0xFF AND DUP2 JUMP JUMPDEST PUSH1 0x0 DUP1 PUSH20 0xFFFFFFFFFFFFFFFFFFFFFFFFFFFFFFFFFFFFFFFF AND DUP3 PUSH20 0xFFFFFFFFFFFFFFFFFFFFFFFFFFFFFFFFFFFFFFFF AND EQ ISZERO PUSH2 0x14AC JUMPI PUSH1 0x40 MLOAD PUSH32 0x8F4EB60400000000000000000000000000000000000000000000000000000000 DUP2 MSTORE PUSH1 0x4 ADD PUSH1 0x40 MLOAD DUP1 SWAP2 SUB SWAP1 REVERT JUMPDEST PUSH1 0x5 PUSH1 0x0 DUP4 PUSH20 0xFFFFFFFFFFFFFFFFFFFFFFFFFFFFFFFFFFFFFFFF AND PUSH20 0xFFFFFFFFFFFFFFFFFFFFFFFFFFFFFFFFFFFFFFFF AND DUP2 MSTORE PUSH1 0x20 ADD SWAP1 DUP2 MSTORE PUSH1 0x20 ADD PUSH1 0x0 KECCAK256 PUSH1 0x0 ADD PUSH1 0x0 SWAP1 SLOAD SWAP1 PUSH2 0x100 EXP SWAP1 DIV PUSH8 0xFFFFFFFFFFFFFFFF AND PUSH8 0xFFFFFFFFFFFFFFFF AND SWAP1 POP SWAP2 SWAP1 POP JUMP JUMPDEST PUSH2 0x151C PUSH2 0x251F JUMP JUMPDEST PUSH20 0xFFFFFFFFFFFFFFFFFFFFFFFFFFFFFFFFFFFFFFFF AND PUSH2 0x153A PUSH2 0x16B8 JUMP JUMPDEST PUSH20 0xFFFFFFFFFFFFFFFFFFFFFFFFFFFFFFFFFFFFFFFF AND EQ PUSH2 0x1590 JUMPI PUSH1 0x40 MLOAD PUSH32 0x8C379A000000000000000000000000000000000000000000000000000000000 DUP2 MSTORE PUSH1 0x4 ADD PUSH2 0x1587 SWAP1 PUSH2 0x4189 JUMP JUMPDEST PUSH1 0x40 MLOAD DUP1 SWAP2 SUB SWAP1 REVERT JUMPDEST PUSH2 0x159A PUSH1 0x0 PUSH2 0x2D27 JUMP JUMPDEST JUMP JUMPDEST PUSH2 0x15A4 PUSH2 0x251F JUMP JUMPDEST PUSH20 0xFFFFFFFFFFFFFFFFFFFFFFFFFFFFFFFFFFFFFFFF AND PUSH2 0x15C2 PUSH2 0x16B8 JUMP JUMPDEST PUSH20 0xFFFFFFFFFFFFFFFFFFFFFFFFFFFFFFFFFFFFFFFF AND EQ PUSH2 0x1618 JUMPI PUSH1 0x40 MLOAD PUSH32 0x8C379A000000000000000000000000000000000000000000000000000000000 DUP2 MSTORE PUSH1 0x4 ADD PUSH2 0x160F SWAP1 PUSH2 0x4189 JUMP JUMPDEST PUSH1 0x40 MLOAD DUP1 SWAP2 SUB SWAP1 REVERT JUMPDEST DUP1 PUSH1 0xA DUP2 SWAP1 SSTORE POP POP JUMP JUMPDEST PUSH2 0x162A PUSH2 0x251F JUMP JUMPDEST PUSH20 0xFFFFFFFFFFFFFFFFFFFFFFFFFFFFFFFFFFFFFFFF AND PUSH2 0x1648 PUSH2 0x16B8 JUMP JUMPDEST PUSH20 0xFFFFFFFFFFFFFFFFFFFFFFFFFFFFFFFFFFFFFFFF AND EQ PUSH2 0x169E JUMPI PUSH1 0x40 MLOAD PUSH32 0x8C379A000000000000000000000000000000000000000000000000000000000 DUP2 MSTORE PUSH1 0x4 ADD PUSH2 0x1695 SWAP1 PUSH2 0x4189 JUMP JUMPDEST PUSH1 0x40 MLOAD DUP1 SWAP2 SUB SWAP1 REVERT JUMPDEST DUP1 PUSH1 0xC SWAP1 DUP1 MLOAD SWAP1 PUSH1 0x20 ADD SWAP1 PUSH2 0x16B4 SWAP3 SWAP2 SWAP1 PUSH2 0x3682 JUMP JUMPDEST POP POP JUMP JUMPDEST PUSH1 0x0 PUSH1 0x8 PUSH1 0x0 SWAP1 SLOAD SWAP1 PUSH2 0x100 EXP SWAP1 DIV PUSH20 0xFFFFFFFFFFFFFFFFFFFFFFFFFFFFFFFFFFFFFFFF AND SWAP1 POP SWAP1 JUMP JUMPDEST PUSH1 0x11 SLOAD DUP2 JUMP JUMPDEST PUSH1 0x60 PUSH1 0x3 DUP1 SLOAD PUSH2 0x16F7 SWAP1 PUSH2 0x459C JUMP JUMPDEST DUP1 PUSH1 0x1F ADD PUSH1 0x20 DUP1 SWAP2 DIV MUL PUSH1 0x20 ADD PUSH1 0x40 MLOAD SWAP1 DUP2 ADD PUSH1 0x40 MSTORE DUP1 SWAP3 SWAP2 SWAP1 DUP2 DUP2 MSTORE PUSH1 0x20 ADD DUP3 DUP1 SLOAD PUSH2 0x1723 SWAP1 PUSH2 0x459C JUMP JUMPDEST DUP1 ISZERO PUSH2 0x1770 JUMPI DUP1 PUSH1 0x1F LT PUSH2 0x1745 JUMPI PUSH2 0x100 DUP1 DUP4 SLOAD DIV MUL DUP4 MSTORE SWAP2 PUSH1 0x20 ADD SWAP2 PUSH2 0x1770 JUMP JUMPDEST DUP3 ADD SWAP2 SWAP1 PUSH1 0x0 MSTORE PUSH1 0x20 PUSH1 0x0 KECCAK256 SWAP1 JUMPDEST DUP2 SLOAD DUP2 MSTORE SWAP1 PUSH1 0x1 ADD SWAP1 PUSH1 0x20 ADD DUP1 DUP4 GT PUSH2 0x1753 JUMPI DUP3 SWAP1 SUB PUSH1 0x1F AND DUP3 ADD SWAP2 JUMPDEST POP POP POP POP POP SWAP1 POP SWAP1 JUMP JUMPDEST DUP1 PUSH1 0x0 DUP2 GT DUP1 ISZERO PUSH2 0x178D JUMPI POP PUSH1 0x11 SLOAD DUP2 GT ISZERO JUMPDEST PUSH2 0x17CC JUMPI PUSH1 0x40 MLOAD PUSH32 0x8C379A000000000000000000000000000000000000000000000000000000000 DUP2 MSTORE PUSH1 0x4 ADD PUSH2 0x17C3 SWAP1 PUSH2 0x4169 JUMP JUMPDEST PUSH1 0x40 MLOAD DUP1 SWAP2 SUB SWAP1 REVERT JUMPDEST PUSH1 0x10 SLOAD DUP2 PUSH2 0x17D8 PUSH2 0xDBE JUMP JUMPDEST PUSH2 0x17E2 SWAP2 SWAP1 PUSH2 0x43C7 JUMP JUMPDEST GT ISZERO PUSH2 0x1823 JUMPI PUSH1 0x40 MLOAD PUSH32 0x8C379A000000000000000000000000000000000000000000000000000000000 DUP2 MSTORE PUSH1 0x4 ADD PUSH2 0x181A SWAP1 PUSH2 0x4209 JUMP JUMPDEST PUSH1 0x40 MLOAD DUP1 SWAP2 SUB SWAP1 REVERT JUMPDEST DUP2 DUP1 PUSH1 0xF SLOAD PUSH2 0x1832 SWAP2 SWAP1 PUSH2 0x444E JUMP JUMPDEST CALLVALUE LT ISZERO PUSH2 0x1874 JUMPI PUSH1 0x40 MLOAD PUSH32 0x8C379A000000000000000000000000000000000000000000000000000000000 DUP2 MSTORE PUSH1 0x4 ADD PUSH2 0x186B SWAP1 PUSH2 0x4269 JUMP JUMPDEST PUSH1 0x40 MLOAD DUP1 SWAP2 SUB SWAP1 REVERT JUMPDEST PUSH1 0x12 PUSH1 0x0 SWAP1 SLOAD SWAP1 PUSH2 0x100 EXP SWAP1 DIV PUSH1 0xFF AND ISZERO PUSH2 0x18C4 JUMPI PUSH1 0x40 MLOAD PUSH32 0x8C379A000000000000000000000000000000000000000000000000000000000 DUP2 MSTORE PUSH1 0x4 ADD PUSH2 0x18BB SWAP1 PUSH2 0x41A9 JUMP JUMPDEST PUSH1 0x40 MLOAD DUP1 SWAP2 SUB SWAP1 REVERT JUMPDEST PUSH2 0x18D5 PUSH2 0x18CF PUSH2 0x251F JUMP JUMPDEST DUP5 PUSH2 0x2DED JUMP JUMPDEST POP POP POP JUMP JUMPDEST PUSH2 0x18E2 PUSH2 0x251F JUMP JUMPDEST PUSH20 0xFFFFFFFFFFFFFFFFFFFFFFFFFFFFFFFFFFFFFFFF AND DUP3 PUSH20 0xFFFFFFFFFFFFFFFFFFFFFFFFFFFFFFFFFFFFFFFF AND EQ ISZERO PUSH2 0x1947 JUMPI PUSH1 0x40 MLOAD PUSH32 0xB06307DB00000000000000000000000000000000000000000000000000000000 DUP2 MSTORE PUSH1 0x4 ADD PUSH1 0x40 MLOAD DUP1 SWAP2 SUB SWAP1 REVERT JUMPDEST DUP1 PUSH1 0x7 PUSH1 0x0 PUSH2 0x1954 PUSH2 0x251F JUMP JUMPDEST PUSH20 0xFFFFFFFFFFFFFFFFFFFFFFFFFFFFFFFFFFFFFFFF AND PUSH20 0xFFFFFFFFFFFFFFFFFFFFFFFFFFFFFFFFFFFFFFFF AND DUP2 MSTORE PUSH1 0x20 ADD SWAP1 DUP2 MSTORE PUSH1 0x20 ADD PUSH1 0x0 KECCAK256 PUSH1 0x0 DUP5 PUSH20 0xFFFFFFFFFFFFFFFFFFFFFFFFFFFFFFFFFFFFFFFF AND PUSH20 0xFFFFFFFFFFFFFFFFFFFFFFFFFFFFFFFFFFFFFFFF AND DUP2 MSTORE PUSH1 0x20 ADD SWAP1 DUP2 MSTORE PUSH1 0x20 ADD PUSH1 0x0 KECCAK256 PUSH1 0x0 PUSH2 0x100 EXP DUP2 SLOAD DUP2 PUSH1 0xFF MUL NOT AND SWAP1 DUP4 ISZERO ISZERO MUL OR SWAP1 SSTORE POP DUP2 PUSH20 0xFFFFFFFFFFFFFFFFFFFFFFFFFFFFFFFFFFFFFFFF AND PUSH2 0x1A01 PUSH2 0x251F JUMP JUMPDEST PUSH20 0xFFFFFFFFFFFFFFFFFFFFFFFFFFFFFFFFFFFFFFFF AND PUSH32 0x17307EAB39AB6107E8899845AD3D59BD9653F200F220920489CA2B5937696C31 DUP4 PUSH1 0x40 MLOAD PUSH2 0x1A46 SWAP2 SWAP1 PUSH2 0x40D1 JUMP JUMPDEST PUSH1 0x40 MLOAD DUP1 SWAP2 SUB SWAP1 LOG3 POP POP JUMP JUMPDEST PUSH1 0xE DUP1 SLOAD PUSH2 0x1A5F SWAP1 PUSH2 0x459C JUMP JUMPDEST DUP1 PUSH1 0x1F ADD PUSH1 0x20 DUP1 SWAP2 DIV MUL PUSH1 0x20 ADD PUSH1 0x40 MLOAD SWAP1 DUP2 ADD PUSH1 0x40 MSTORE DUP1 SWAP3 SWAP2 SWAP1 DUP2 DUP2 MSTORE PUSH1 0x20 ADD DUP3 DUP1 SLOAD PUSH2 0x1A8B SWAP1 PUSH2 0x459C JUMP JUMPDEST DUP1 ISZERO PUSH2 0x1AD8 JUMPI DUP1 PUSH1 0x1F LT PUSH2 0x1AAD JUMPI PUSH2 0x100 DUP1 DUP4 SLOAD DIV MUL DUP4 MSTORE SWAP2 PUSH1 0x20 ADD SWAP2 PUSH2 0x1AD8 JUMP JUMPDEST DUP3 ADD SWAP2 SWAP1 PUSH1 0x0 MSTORE PUSH1 0x20 PUSH1 0x0 KECCAK256 SWAP1 JUMPDEST DUP2 SLOAD DUP2 MSTORE SWAP1 PUSH1 0x1 ADD SWAP1 PUSH1 0x20 ADD DUP1 DUP4 GT PUSH2 0x1ABB JUMPI DUP3 SWAP1 SUB PUSH1 0x1F AND DUP3 ADD SWAP2 JUMPDEST POP POP POP POP POP DUP2 JUMP JUMPDEST PUSH2 0x1AE8 PUSH2 0x251F JUMP JUMPDEST PUSH20 0xFFFFFFFFFFFFFFFFFFFFFFFFFFFFFFFFFFFFFFFF AND PUSH2 0x1B06 PUSH2 0x16B8 JUMP JUMPDEST PUSH20 0xFFFFFFFFFFFFFFFFFFFFFFFFFFFFFFFFFFFFFFFF AND EQ PUSH2 0x1B5C JUMPI PUSH1 0x40 MLOAD PUSH32 0x8C379A000000000000000000000000000000000000000000000000000000000 DUP2 MSTORE PUSH1 0x4 ADD PUSH2 0x1B53 SWAP1 PUSH2 0x4189 JUMP JUMPDEST PUSH1 0x40 MLOAD DUP1 SWAP2 SUB SWAP1 REVERT JUMPDEST DUP1 PUSH1 0x11 DUP2 SWAP1 SSTORE POP POP JUMP JUMPDEST PUSH2 0x1B6E PUSH2 0x251F JUMP JUMPDEST PUSH20 0xFFFFFFFFFFFFFFFFFFFFFFFFFFFFFFFFFFFFFFFF AND PUSH2 0x1B8C PUSH2 0x16B8 JUMP JUMPDEST PUSH20 0xFFFFFFFFFFFFFFFFFFFFFFFFFFFFFFFFFFFFFFFF AND EQ PUSH2 0x1BE2 JUMPI PUSH1 0x40 MLOAD PUSH32 0x8C379A000000000000000000000000000000000000000000000000000000000 DUP2 MSTORE PUSH1 0x4 ADD PUSH2 0x1BD9 SWAP1 PUSH2 0x4189 JUMP JUMPDEST PUSH1 0x40 MLOAD DUP1 SWAP2 SUB SWAP1 REVERT JUMPDEST DUP1 PUSH1 0x12 PUSH1 0x1 PUSH2 0x100 EXP DUP2 SLOAD DUP2 PUSH1 0xFF MUL NOT AND SWAP1 DUP4 ISZERO ISZERO MUL OR SWAP1 SSTORE POP POP JUMP JUMPDEST PUSH2 0x1C0A DUP5 DUP5 DUP5 PUSH2 0x25E2 JUMP JUMPDEST PUSH2 0x1C29 DUP4 PUSH20 0xFFFFFFFFFFFFFFFFFFFFFFFFFFFFFFFFFFFFFFFF AND PUSH2 0x2E0B JUMP JUMPDEST DUP1 ISZERO PUSH2 0x1C3E JUMPI POP PUSH2 0x1C3C DUP5 DUP5 DUP5 DUP5 PUSH2 0x2E2E JUMP JUMPDEST ISZERO JUMPDEST ISZERO PUSH2 0x1C75 JUMPI PUSH1 0x40 MLOAD PUSH32 0xD1A57ED600000000000000000000000000000000000000000000000000000000 DUP2 MSTORE PUSH1 0x4 ADD PUSH1 0x40 MLOAD DUP1 SWAP2 SUB SWAP1 REVERT JUMPDEST POP POP POP POP JUMP JUMPDEST PUSH1 0x60 PUSH2 0x1C86 DUP3 PUSH2 0x24D1 JUMP JUMPDEST PUSH2 0x1CC5 JUMPI PUSH1 0x40 MLOAD PUSH32 0x8C379A000000000000000000000000000000000000000000000000000000000 DUP2 MSTORE PUSH1 0x4 ADD PUSH2 0x1CBC SWAP1 PUSH2 0x41E9 JUMP JUMPDEST PUSH1 0x40 MLOAD DUP1 SWAP2 SUB SWAP1 REVERT JUMPDEST PUSH1 0x0 ISZERO ISZERO PUSH1 0x12 PUSH1 0x2 SWAP1 SLOAD SWAP1 PUSH2 0x100 EXP SWAP1 DIV PUSH1 0xFF AND ISZERO ISZERO EQ ISZERO PUSH2 0x1D73 JUMPI PUSH1 0xE DUP1 SLOAD PUSH2 0x1CEE SWAP1 PUSH2 0x459C JUMP JUMPDEST DUP1 PUSH1 0x1F ADD PUSH1 0x20 DUP1 SWAP2 DIV MUL PUSH1 0x20 ADD PUSH1 0x40 MLOAD SWAP1 DUP2 ADD PUSH1 0x40 MSTORE DUP1 SWAP3 SWAP2 SWAP1 DUP2 DUP2 MSTORE PUSH1 0x20 ADD DUP3 DUP1 SLOAD PUSH2 0x1D1A SWAP1 PUSH2 0x459C JUMP JUMPDEST DUP1 ISZERO PUSH2 0x1D67 JUMPI DUP1 PUSH1 0x1F LT PUSH2 0x1D3C JUMPI PUSH2 0x100 DUP1 DUP4 SLOAD DIV MUL DUP4 MSTORE SWAP2 PUSH1 0x20 ADD SWAP2 PUSH2 0x1D67 JUMP JUMPDEST DUP3 ADD SWAP2 SWAP1 PUSH1 0x0 MSTORE PUSH1 0x20 PUSH1 0x0 KECCAK256 SWAP1 JUMPDEST DUP2 SLOAD DUP2 MSTORE SWAP1 PUSH1 0x1 ADD SWAP1 PUSH1 0x20 ADD DUP1 DUP4 GT PUSH2 0x1D4A JUMPI DUP3 SWAP1 SUB PUSH1 0x1F AND DUP3 ADD SWAP2 JUMPDEST POP POP POP POP POP SWAP1 POP PUSH2 0x1DCF JUMP JUMPDEST PUSH1 0x0 PUSH2 0x1D7D PUSH2 0x2F8E JUMP JUMPDEST SWAP1 POP PUSH1 0x0 DUP2 MLOAD GT PUSH2 0x1D9D JUMPI PUSH1 0x40 MLOAD DUP1 PUSH1 0x20 ADD PUSH1 0x40 MSTORE DUP1 PUSH1 0x0 DUP2 MSTORE POP PUSH2 0x1DCB JUMP JUMPDEST DUP1 PUSH2 0x1DA7 DUP5 PUSH2 0x3020 JUMP JUMPDEST PUSH1 0xD PUSH1 0x40 MLOAD PUSH1 0x20 ADD PUSH2 0x1DBB SWAP4 SWAP3 SWAP2 SWAP1 PUSH2 0x4002 JUMP JUMPDEST PUSH1 0x40 MLOAD PUSH1 0x20 DUP2 DUP4 SUB SUB DUP2 MSTORE SWAP1 PUSH1 0x40 MSTORE JUMPDEST SWAP2 POP POP JUMPDEST SWAP2 SWAP1 POP JUMP JUMPDEST DUP3 PUSH1 0x0 DUP2 GT DUP1 ISZERO PUSH2 0x1DE7 JUMPI POP PUSH1 0x11 SLOAD DUP2 GT ISZERO JUMPDEST PUSH2 0x1E26 JUMPI PUSH1 0x40 MLOAD PUSH32 0x8C379A000000000000000000000000000000000000000000000000000000000 DUP2 MSTORE PUSH1 0x4 ADD PUSH2 0x1E1D SWAP1 PUSH2 0x4169 JUMP JUMPDEST PUSH1 0x40 MLOAD DUP1 SWAP2 SUB SWAP1 REVERT JUMPDEST PUSH1 0x10 SLOAD DUP2 PUSH2 0x1E32 PUSH2 0xDBE JUMP JUMPDEST PUSH2 0x1E3C SWAP2 SWAP1 PUSH2 0x43C7 JUMP JUMPDEST GT ISZERO PUSH2 0x1E7D JUMPI PUSH1 0x40 MLOAD PUSH32 0x8C379A000000000000000000000000000000000000000000000000000000000 DUP2 MSTORE PUSH1 0x4 ADD PUSH2 0x1E74 SWAP1 PUSH2 0x4209 JUMP JUMPDEST PUSH1 0x40 MLOAD DUP1 SWAP2 SUB SWAP1 REVERT JUMPDEST DUP4 DUP1 PUSH1 0xF SLOAD PUSH2 0x1E8C SWAP2 SWAP1 PUSH2 0x444E JUMP JUMPDEST CALLVALUE LT ISZERO PUSH2 0x1ECE JUMPI PUSH1 0x40 MLOAD PUSH32 0x8C379A000000000000000000000000000000000000000000000000000000000 DUP2 MSTORE PUSH1 0x4 ADD PUSH2 0x1EC5 SWAP1 PUSH2 0x4269 JUMP JUMPDEST PUSH1 0x40 MLOAD DUP1 SWAP2 SUB SWAP1 REVERT JUMPDEST PUSH1 0x12 PUSH1 0x1 SWAP1 SLOAD SWAP1 PUSH2 0x100 EXP SWAP1 DIV PUSH1 0xFF AND PUSH2 0x1F1D JUMPI PUSH1 0x40 MLOAD PUSH32 0x8C379A000000000000000000000000000000000000000000000000000000000 DUP2 MSTORE PUSH1 0x4 ADD PUSH2 0x1F14 SWAP1 PUSH2 0x4229 JUMP JUMPDEST PUSH1 0x40 MLOAD DUP1 SWAP2 SUB SWAP1 REVERT JUMPDEST PUSH1 0xB PUSH1 0x0 PUSH2 0x1F29 PUSH2 0x251F JUMP JUMPDEST PUSH20 0xFFFFFFFFFFFFFFFFFFFFFFFFFFFFFFFFFFFFFFFF AND PUSH20 0xFFFFFFFFFFFFFFFFFFFFFFFFFFFFFFFFFFFFFFFF AND DUP2 MSTORE PUSH1 0x20 ADD SWAP1 DUP2 MSTORE PUSH1 0x20 ADD PUSH1 0x0 KECCAK256 PUSH1 0x0 SWAP1 SLOAD SWAP1 PUSH2 0x100 EXP SWAP1 DIV PUSH1 0xFF AND ISZERO PUSH2 0x1FB1 JUMPI PUSH1 0x40 MLOAD PUSH32 0x8C379A000000000000000000000000000000000000000000000000000000000 DUP2 MSTORE PUSH1 0x4 ADD PUSH2 0x1FA8 SWAP1 PUSH2 0x41C9 JUMP JUMPDEST PUSH1 0x40 MLOAD DUP1 SWAP2 SUB SWAP1 REVERT JUMPDEST PUSH1 0x0 PUSH2 0x1FBB PUSH2 0x251F JUMP JUMPDEST PUSH1 0x40 MLOAD PUSH1 0x20 ADD PUSH2 0x1FCB SWAP2 SWAP1 PUSH2 0x3FE7 JUMP JUMPDEST PUSH1 0x40 MLOAD PUSH1 0x20 DUP2 DUP4 SUB SUB DUP2 MSTORE SWAP1 PUSH1 0x40 MSTORE DUP1 MLOAD SWAP1 PUSH1 0x20 ADD KECCAK256 SWAP1 POP PUSH2 0x2031 DUP6 DUP6 DUP1 DUP1 PUSH1 0x20 MUL PUSH1 0x20 ADD PUSH1 0x40 MLOAD SWAP1 DUP2 ADD PUSH1 0x40 MSTORE DUP1 SWAP4 SWAP3 SWAP2 SWAP1 DUP2 DUP2 MSTORE PUSH1 0x20 ADD DUP4 DUP4 PUSH1 0x20 MUL DUP1 DUP3 DUP5 CALLDATACOPY PUSH1 0x0 DUP2 DUP5 ADD MSTORE PUSH1 0x1F NOT PUSH1 0x1F DUP3 ADD AND SWAP1 POP DUP1 DUP4 ADD SWAP3 POP POP POP POP POP POP POP PUSH1 0xA SLOAD DUP4 PUSH2 0x31CD JUMP JUMPDEST PUSH2 0x2070 JUMPI PUSH1 0x40 MLOAD PUSH32 0x8C379A000000000000000000000000000000000000000000000000000000000 DUP2 MSTORE PUSH1 0x4 ADD PUSH2 0x2067 SWAP1 PUSH2 0x4129 JUMP JUMPDEST PUSH1 0x40 MLOAD DUP1 SWAP2 SUB SWAP1 REVERT JUMPDEST PUSH1 0x1 PUSH1 0xB PUSH1 0x0 PUSH2 0x207E PUSH2 0x251F JUMP JUMPDEST PUSH20 0xFFFFFFFFFFFFFFFFFFFFFFFFFFFFFFFFFFFFFFFF AND PUSH20 0xFFFFFFFFFFFFFFFFFFFFFFFFFFFFFFFFFFFFFFFF AND DUP2 MSTORE PUSH1 0x20 ADD SWAP1 DUP2 MSTORE PUSH1 0x20 ADD PUSH1 0x0 KECCAK256 PUSH1 0x0 PUSH2 0x100 EXP DUP2 SLOAD DUP2 PUSH1 0xFF MUL NOT AND SWAP1 DUP4 ISZERO ISZERO MUL OR SWAP1 SSTORE POP PUSH2 0x20E0 PUSH2 0x20DA PUSH2 0x251F JUMP JUMPDEST DUP8 PUSH2 0x2DED JUMP JUMPDEST POP POP POP POP POP POP JUMP JUMPDEST PUSH1 0x10 SLOAD DUP2 JUMP JUMPDEST PUSH1 0xB PUSH1 0x20 MSTORE DUP1 PUSH1 0x0 MSTORE PUSH1 0x40 PUSH1 0x0 KECCAK256 PUSH1 0x0 SWAP2 POP SLOAD SWAP1 PUSH2 0x100 EXP SWAP1 DIV PUSH1 0xFF AND DUP2 JUMP JUMPDEST PUSH2 0x2116 PUSH2 0x251F JUMP JUMPDEST PUSH20 0xFFFFFFFFFFFFFFFFFFFFFFFFFFFFFFFFFFFFFFFF AND PUSH2 0x2134 PUSH2 0x16B8 JUMP JUMPDEST PUSH20 0xFFFFFFFFFFFFFFFFFFFFFFFFFFFFFFFFFFFFFFFF AND EQ PUSH2 0x218A JUMPI PUSH1 0x40 MLOAD PUSH32 0x8C379A000000000000000000000000000000000000000000000000000000000 DUP2 MSTORE PUSH1 0x4 ADD PUSH2 0x2181 SWAP1 PUSH2 0x4189 JUMP JUMPDEST PUSH1 0x40 MLOAD DUP1 SWAP2 SUB SWAP1 REVERT JUMPDEST DUP1 PUSH1 0x12 PUSH1 0x2 PUSH2 0x100 EXP DUP2 SLOAD DUP2 PUSH1 0xFF MUL NOT AND SWAP1 DUP4 ISZERO ISZERO MUL OR SWAP1 SSTORE POP POP JUMP JUMPDEST PUSH1 0x0 PUSH1 0x7 PUSH1 0x0 DUP5 PUSH20 0xFFFFFFFFFFFFFFFFFFFFFFFFFFFFFFFFFFFFFFFF AND PUSH20 0xFFFFFFFFFFFFFFFFFFFFFFFFFFFFFFFFFFFFFFFF AND DUP2 MSTORE PUSH1 0x20 ADD SWAP1 DUP2 MSTORE PUSH1 0x20 ADD PUSH1 0x0 KECCAK256 PUSH1 0x0 DUP4 PUSH20 0xFFFFFFFFFFFFFFFFFFFFFFFFFFFFFFFFFFFFFFFF AND PUSH20 0xFFFFFFFFFFFFFFFFFFFFFFFFFFFFFFFFFFFFFFFF AND DUP2 MSTORE PUSH1 0x20 ADD SWAP1 DUP2 MSTORE PUSH1 0x20 ADD PUSH1 0x0 KECCAK256 PUSH1 0x0 SWAP1 SLOAD SWAP1 PUSH2 0x100 EXP SWAP1 DIV PUSH1 0xFF AND SWAP1 POP SWAP3 SWAP2 POP POP JUMP JUMPDEST DUP2 PUSH1 0x0 DUP2 GT DUP1 ISZERO PUSH2 0x224E JUMPI POP PUSH1 0x11 SLOAD DUP2 GT ISZERO JUMPDEST PUSH2 0x228D JUMPI PUSH1 0x40 MLOAD PUSH32 0x8C379A000000000000000000000000000000000000000000000000000000000 DUP2 MSTORE PUSH1 0x4 ADD PUSH2 0x2284 SWAP1 PUSH2 0x4169 JUMP JUMPDEST PUSH1 0x40 MLOAD DUP1 SWAP2 SUB SWAP1 REVERT JUMPDEST PUSH1 0x10 SLOAD DUP2 PUSH2 0x2299 PUSH2 0xDBE JUMP JUMPDEST PUSH2 0x22A3 SWAP2 SWAP1 PUSH2 0x43C7 JUMP JUMPDEST GT ISZERO PUSH2 0x22E4 JUMPI PUSH1 0x40 MLOAD PUSH32 0x8C379A000000000000000000000000000000000000000000000000000000000 DUP2 MSTORE PUSH1 0x4 ADD PUSH2 0x22DB SWAP1 PUSH2 0x4209 JUMP JUMPDEST PUSH1 0x40 MLOAD DUP1 SWAP2 SUB SWAP1 REVERT JUMPDEST PUSH2 0x22EC PUSH2 0x251F JUMP JUMPDEST PUSH20 0xFFFFFFFFFFFFFFFFFFFFFFFFFFFFFFFFFFFFFFFF AND PUSH2 0x230A PUSH2 0x16B8 JUMP JUMPDEST PUSH20 0xFFFFFFFFFFFFFFFFFFFFFFFFFFFFFFFFFFFFFFFF AND EQ PUSH2 0x2360 JUMPI PUSH1 0x40 MLOAD PUSH32 0x8C379A000000000000000000000000000000000000000000000000000000000 DUP2 MSTORE PUSH1 0x4 ADD PUSH2 0x2357 SWAP1 PUSH2 0x4189 JUMP JUMPDEST PUSH1 0x40 MLOAD DUP1 SWAP2 SUB SWAP1 REVERT JUMPDEST PUSH2 0x236A DUP3 DUP5 PUSH2 0x2DED JUMP JUMPDEST POP POP POP JUMP JUMPDEST PUSH2 0x2377 PUSH2 0x251F JUMP JUMPDEST PUSH20 0xFFFFFFFFFFFFFFFFFFFFFFFFFFFFFFFFFFFFFFFF AND PUSH2 0x2395 PUSH2 0x16B8 JUMP JUMPDEST PUSH20 0xFFFFFFFFFFFFFFFFFFFFFFFFFFFFFFFFFFFFFFFF AND EQ PUSH2 0x23EB JUMPI PUSH1 0x40 MLOAD PUSH32 0x8C379A000000000000000000000000000000000000000000000000000000000 DUP2 MSTORE PUSH1 0x4 ADD PUSH2 0x23E2 SWAP1 PUSH2 0x4189 JUMP JUMPDEST PUSH1 0x40 MLOAD DUP1 SWAP2 SUB SWAP1 REVERT JUMPDEST PUSH1 0x0 PUSH20 0xFFFFFFFFFFFFFFFFFFFFFFFFFFFFFFFFFFFFFFFF AND DUP2 PUSH20 0xFFFFFFFFFFFFFFFFFFFFFFFFFFFFFFFFFFFFFFFF AND EQ ISZERO PUSH2 0x245B JUMPI PUSH1 0x40 MLOAD PUSH32 0x8C379A000000000000000000000000000000000000000000000000000000000 DUP2 MSTORE PUSH1 0x4 ADD PUSH2 0x2452 SWAP1 PUSH2 0x4149 JUMP JUMPDEST PUSH1 0x40 MLOAD DUP1 SWAP2 SUB SWAP1 REVERT JUMPDEST PUSH2 0x2464 DUP2 PUSH2 0x2D27 JUMP JUMPDEST POP JUMP JUMPDEST PUSH1 0x0 PUSH32 0x1FFC9A700000000000000000000000000000000000000000000000000000000 PUSH28 0xFFFFFFFFFFFFFFFFFFFFFFFFFFFFFFFFFFFFFFFFFFFFFFFFFFFFFFFF NOT AND DUP3 PUSH28 0xFFFFFFFFFFFFFFFFFFFFFFFFFFFFFFFFFFFFFFFFFFFFFFFFFFFFFFFF NOT AND EQ SWAP1 POP SWAP2 SWAP1 POP JUMP JUMPDEST PUSH1 0x0 DUP2 PUSH2 0x24DC PUSH2 0x25D9 JUMP JUMPDEST GT ISZERO DUP1 ISZERO PUSH2 0x24EB JUMPI POP PUSH1 0x0 SLOAD DUP3 LT JUMPDEST DUP1 ISZERO PUSH2 0x2518 JUMPI POP PUSH1 0x4 PUSH1 0x0 DUP4 DUP2 MSTORE PUSH1 0x20 ADD SWAP1 DUP2 MSTORE PUSH1 0x20 ADD PUSH1 0x0 KECCAK256 PUSH1 0x0 ADD PUSH1 0x1C SWAP1 SLOAD SWAP1 PUSH2 0x100 EXP SWAP1 DIV PUSH1 0xFF AND ISZERO JUMPDEST SWAP1 POP SWAP2 SWAP1 POP JUMP JUMPDEST PUSH1 0x0 CALLER SWAP1 POP SWAP1 JUMP JUMPDEST DUP3 PUSH1 0x6 PUSH1 0x0 DUP5 DUP2 MSTORE PUSH1 0x20 ADD SWAP1 DUP2 MSTORE PUSH1 0x20 ADD PUSH1 0x0 KECCAK256 PUSH1 0x0 PUSH2 0x100 EXP DUP2 SLOAD DUP2 PUSH20 0xFFFFFFFFFFFFFFFFFFFFFFFFFFFFFFFFFFFFFFFF MUL NOT AND SWAP1 DUP4 PUSH20 0xFFFFFFFFFFFFFFFFFFFFFFFFFFFFFFFFFFFFFFFF AND MUL OR SWAP1 SSTORE POP DUP2 DUP4 PUSH20 0xFFFFFFFFFFFFFFFFFFFFFFFFFFFFFFFFFFFFFFFF AND DUP3 PUSH20 0xFFFFFFFFFFFFFFFFFFFFFFFFFFFFFFFFFFFFFFFF AND PUSH32 0x8C5BE1E5EBEC7D5BD14F71427D1E84F3DD0314C0F7B2291E5B200AC8C7C3B925 PUSH1 0x40 MLOAD PUSH1 0x40 MLOAD DUP1 SWAP2 SUB SWAP1 LOG4 POP POP POP JUMP JUMPDEST PUSH1 0x0 PUSH1 0x1 SWAP1 POP SWAP1 JUMP JUMPDEST PUSH1 0x0 PUSH2 0x25ED DUP3 PUSH2 0x2A98 JUMP JUMPDEST SWAP1 POP DUP4 PUSH20 0xFFFFFFFFFFFFFFFFFFFFFFFFFFFFFFFFFFFFFFFF AND DUP2 PUSH1 0x0 ADD MLOAD PUSH20 0xFFFFFFFFFFFFFFFFFFFFFFFFFFFFFFFFFFFFFFFF AND EQ PUSH2 0x2658 JUMPI PUSH1 0x40 MLOAD PUSH32 0xA114810000000000000000000000000000000000000000000000000000000000 DUP2 MSTORE PUSH1 0x4 ADD PUSH1 0x40 MLOAD DUP1 SWAP2 SUB SWAP1 REVERT JUMPDEST PUSH1 0x0 DUP5 PUSH20 0xFFFFFFFFFFFFFFFFFFFFFFFFFFFFFFFFFFFFFFFF AND PUSH2 0x2679 PUSH2 0x251F JUMP JUMPDEST PUSH20 0xFFFFFFFFFFFFFFFFFFFFFFFFFFFFFFFFFFFFFFFF AND EQ DUP1 PUSH2 0x26A8 JUMPI POP PUSH2 0x26A7 DUP6 PUSH2 0x26A2 PUSH2 0x251F JUMP JUMPDEST PUSH2 0x21A7 JUMP JUMPDEST JUMPDEST DUP1 PUSH2 0x26ED JUMPI POP PUSH2 0x26B6 PUSH2 0x251F JUMP JUMPDEST PUSH20 0xFFFFFFFFFFFFFFFFFFFFFFFFFFFFFFFFFFFFFFFF AND PUSH2 0x26D5 DUP5 PUSH2 0xB02 JUMP JUMPDEST PUSH20 0xFFFFFFFFFFFFFFFFFFFFFFFFFFFFFFFFFFFFFFFF AND EQ JUMPDEST SWAP1 POP DUP1 PUSH2 0x2726 JUMPI PUSH1 0x40 MLOAD PUSH32 0x59C896BE00000000000000000000000000000000000000000000000000000000 DUP2 MSTORE PUSH1 0x4 ADD PUSH1 0x40 MLOAD DUP1 SWAP2 SUB SWAP1 REVERT JUMPDEST PUSH1 0x0 PUSH20 0xFFFFFFFFFFFFFFFFFFFFFFFFFFFFFFFFFFFFFFFF AND DUP5 PUSH20 0xFFFFFFFFFFFFFFFFFFFFFFFFFFFFFFFFFFFFFFFF AND EQ ISZERO PUSH2 0x278D JUMPI PUSH1 0x40 MLOAD PUSH32 0xEA553B3400000000000000000000000000000000000000000000000000000000 DUP2 MSTORE PUSH1 0x4 ADD PUSH1 0x40 MLOAD DUP1 SWAP2 SUB SWAP1 REVERT JUMPDEST PUSH2 0x279A DUP6 DUP6 DUP6 PUSH1 0x1 PUSH2 0x31E4 JUMP JUMPDEST PUSH2 0x27A6 PUSH1 0x0 DUP5 DUP8 PUSH2 0x2527 JUMP JUMPDEST PUSH1 0x1 PUSH1 0x5 PUSH1 0x0 DUP8 PUSH20 0xFFFFFFFFFFFFFFFFFFFFFFFFFFFFFFFFFFFFFFFF AND PUSH20 0xFFFFFFFFFFFFFFFFFFFFFFFFFFFFFFFFFFFFFFFF AND DUP2 MSTORE PUSH1 0x20 ADD SWAP1 DUP2 MSTORE PUSH1 0x20 ADD PUSH1 0x0 KECCAK256 PUSH1 0x0 ADD PUSH1 0x0 DUP3 DUP3 DUP3 SWAP1 SLOAD SWAP1 PUSH2 0x100 EXP SWAP1 DIV PUSH8 0xFFFFFFFFFFFFFFFF AND SUB SWAP3 POP PUSH2 0x100 EXP DUP2 SLOAD DUP2 PUSH8 0xFFFFFFFFFFFFFFFF MUL NOT AND SWAP1 DUP4 PUSH8 0xFFFFFFFFFFFFFFFF AND MUL OR SWAP1 SSTORE POP PUSH1 0x1 PUSH1 0x5 PUSH1 0x0 DUP7 PUSH20 0xFFFFFFFFFFFFFFFFFFFFFFFFFFFFFFFFFFFFFFFF AND PUSH20 0xFFFFFFFFFFFFFFFFFFFFFFFFFFFFFFFFFFFFFFFF AND DUP2 MSTORE PUSH1 0x20 ADD SWAP1 DUP2 MSTORE PUSH1 0x20 ADD PUSH1 0x0 KECCAK256 PUSH1 0x0 ADD PUSH1 0x0 DUP3 DUP3 DUP3 SWAP1 SLOAD SWAP1 PUSH2 0x100 EXP SWAP1 DIV PUSH8 0xFFFFFFFFFFFFFFFF AND ADD SWAP3 POP PUSH2 0x100 EXP DUP2 SLOAD DUP2 PUSH8 0xFFFFFFFFFFFFFFFF MUL NOT AND SWAP1 DUP4 PUSH8 0xFFFFFFFFFFFFFFFF AND MUL OR SWAP1 SSTORE POP PUSH1 0x0 PUSH1 0x4 PUSH1 0x0 DUP6 DUP2 MSTORE PUSH1 0x20 ADD SWAP1 DUP2 MSTORE PUSH1 0x20 ADD PUSH1 0x0 KECCAK256 SWAP1 POP DUP5 DUP2 PUSH1 0x0 ADD PUSH1 0x0 PUSH2 0x100 EXP DUP2 SLOAD DUP2 PUSH20 0xFFFFFFFFFFFFFFFFFFFFFFFFFFFFFFFFFFFFFFFF MUL NOT AND SWAP1 DUP4 PUSH20 0xFFFFFFFFFFFFFFFFFFFFFFFFFFFFFFFFFFFFFFFF AND MUL OR SWAP1 SSTORE POP TIMESTAMP DUP2 PUSH1 0x0 ADD PUSH1 0x14 PUSH2 0x100 EXP DUP2 SLOAD DUP2 PUSH8 0xFFFFFFFFFFFFFFFF MUL NOT AND SWAP1 DUP4 PUSH8 0xFFFFFFFFFFFFFFFF AND MUL OR SWAP1 SSTORE POP PUSH1 0x0 PUSH1 0x1 DUP6 ADD SWAP1 POP PUSH1 0x0 PUSH1 0x4 PUSH1 0x0 DUP4 DUP2 MSTORE PUSH1 0x20 ADD SWAP1 DUP2 MSTORE PUSH1 0x20 ADD PUSH1 0x0 KECCAK256 SWAP1 POP PUSH1 0x0 PUSH20 0xFFFFFFFFFFFFFFFFFFFFFFFFFFFFFFFFFFFFFFFF AND DUP2 PUSH1 0x0 ADD PUSH1 0x0 SWAP1 SLOAD SWAP1 PUSH2 0x100 EXP SWAP1 DIV PUSH20 0xFFFFFFFFFFFFFFFFFFFFFFFFFFFFFFFFFFFFFFFF AND PUSH20 0xFFFFFFFFFFFFFFFFFFFFFFFFFFFFFFFFFFFFFFFF AND EQ ISZERO PUSH2 0x2A26 JUMPI PUSH1 0x0 SLOAD DUP3 EQ PUSH2 0x2A25 JUMPI DUP8 DUP2 PUSH1 0x0 ADD PUSH1 0x0 PUSH2 0x100 EXP DUP2 SLOAD DUP2 PUSH20 0xFFFFFFFFFFFFFFFFFFFFFFFFFFFFFFFFFFFFFFFF MUL NOT AND SWAP1 DUP4 PUSH20 0xFFFFFFFFFFFFFFFFFFFFFFFFFFFFFFFFFFFFFFFF AND MUL OR SWAP1 SSTORE POP DUP5 PUSH1 0x20 ADD MLOAD DUP2 PUSH1 0x0 ADD PUSH1 0x14 PUSH2 0x100 EXP DUP2 SLOAD DUP2 PUSH8 0xFFFFFFFFFFFFFFFF MUL NOT AND SWAP1 DUP4 PUSH8 0xFFFFFFFFFFFFFFFF AND MUL OR SWAP1 SSTORE POP JUMPDEST JUMPDEST POP POP POP DUP3 DUP5 PUSH20 0xFFFFFFFFFFFFFFFFFFFFFFFFFFFFFFFFFFFFFFFF AND DUP7 PUSH20 0xFFFFFFFFFFFFFFFFFFFFFFFFFFFFFFFFFFFFFFFF AND PUSH32 0xDDF252AD1BE2C89B69C2B068FC378DAA952BA7F163C4A11628F55A4DF523B3EF PUSH1 0x40 MLOAD PUSH1 0x40 MLOAD DUP1 SWAP2 SUB SWAP1 LOG4 PUSH2 0x2A91 DUP6 DUP6 DUP6 PUSH1 0x1 PUSH2 0x31EA JUMP JUMPDEST POP POP POP POP POP JUMP JUMPDEST PUSH2 0x2AA0 PUSH2 0x3708 JUMP JUMPDEST PUSH1 0x0 DUP3 SWAP1 POP DUP1 PUSH2 0x2AAE PUSH2 0x25D9 JUMP JUMPDEST GT ISZERO DUP1 ISZERO PUSH2 0x2ABD JUMPI POP PUSH1 0x0 SLOAD DUP2 LT JUMPDEST ISZERO PUSH2 0x2CF0 JUMPI PUSH1 0x0 PUSH1 0x4 PUSH1 0x0 DUP4 DUP2 MSTORE PUSH1 0x20 ADD SWAP1 DUP2 MSTORE PUSH1 0x20 ADD PUSH1 0x0 KECCAK256 PUSH1 0x40 MLOAD DUP1 PUSH1 0x60 ADD PUSH1 0x40 MSTORE SWAP1 DUP2 PUSH1 0x0 DUP3 ADD PUSH1 0x0 SWAP1 SLOAD SWAP1 PUSH2 0x100 EXP SWAP1 DIV PUSH20 0xFFFFFFFFFFFFFFFFFFFFFFFFFFFFFFFFFFFFFFFF AND PUSH20 0xFFFFFFFFFFFFFFFFFFFFFFFFFFFFFFFFFFFFFFFF AND PUSH20 0xFFFFFFFFFFFFFFFFFFFFFFFFFFFFFFFFFFFFFFFF AND DUP2 MSTORE PUSH1 0x20 ADD PUSH1 0x0 DUP3 ADD PUSH1 0x14 SWAP1 SLOAD SWAP1 PUSH2 0x100 EXP SWAP1 DIV PUSH8 0xFFFFFFFFFFFFFFFF AND PUSH8 0xFFFFFFFFFFFFFFFF AND PUSH8 0xFFFFFFFFFFFFFFFF AND DUP2 MSTORE PUSH1 0x20 ADD PUSH1 0x0 DUP3 ADD PUSH1 0x1C SWAP1 SLOAD SWAP1 PUSH2 0x100 EXP SWAP1 DIV PUSH1 0xFF AND ISZERO ISZERO ISZERO ISZERO DUP2 MSTORE POP POP SWAP1 POP DUP1 PUSH1 0x40 ADD MLOAD PUSH2 0x2CEE JUMPI PUSH1 0x0 PUSH20 0xFFFFFFFFFFFFFFFFFFFFFFFFFFFFFFFFFFFFFFFF AND DUP2 PUSH1 0x0 ADD MLOAD PUSH20 0xFFFFFFFFFFFFFFFFFFFFFFFFFFFFFFFFFFFFFFFF AND EQ PUSH2 0x2BD2 JUMPI DUP1 SWAP3 POP POP POP PUSH2 0x2D22 JUMP JUMPDEST JUMPDEST PUSH1 0x1 ISZERO PUSH2 0x2CED JUMPI DUP2 DUP1 PUSH1 0x1 SWAP1 SUB SWAP3 POP POP PUSH1 0x4 PUSH1 0x0 DUP4 DUP2 MSTORE PUSH1 0x20 ADD SWAP1 DUP2 MSTORE PUSH1 0x20 ADD PUSH1 0x0 KECCAK256 PUSH1 0x40 MLOAD DUP1 PUSH1 0x60 ADD PUSH1 0x40 MSTORE SWAP1 DUP2 PUSH1 0x0 DUP3 ADD PUSH1 0x0 SWAP1 SLOAD SWAP1 PUSH2 0x100 EXP SWAP1 DIV PUSH20 0xFFFFFFFFFFFFFFFFFFFFFFFFFFFFFFFFFFFFFFFF AND PUSH20 0xFFFFFFFFFFFFFFFFFFFFFFFFFFFFFFFFFFFFFFFF AND PUSH20 0xFFFFFFFFFFFFFFFFFFFFFFFFFFFFFFFFFFFFFFFF AND DUP2 MSTORE PUSH1 0x20 ADD PUSH1 0x0 DUP3 ADD PUSH1 0x14 SWAP1 SLOAD SWAP1 PUSH2 0x100 EXP SWAP1 DIV PUSH8 0xFFFFFFFFFFFFFFFF AND PUSH8 0xFFFFFFFFFFFFFFFF AND PUSH8 0xFFFFFFFFFFFFFFFF AND DUP2 MSTORE PUSH1 0x20 ADD PUSH1 0x0 DUP3 ADD PUSH1 0x1C SWAP1 SLOAD SWAP1 PUSH2 0x100 EXP SWAP1 DIV PUSH1 0xFF AND ISZERO ISZERO ISZERO ISZERO DUP2 MSTORE POP POP SWAP1 POP PUSH1 0x0 PUSH20 0xFFFFFFFFFFFFFFFFFFFFFFFFFFFFFFFFFFFFFFFF AND DUP2 PUSH1 0x0 ADD MLOAD PUSH20 0xFFFFFFFFFFFFFFFFFFFFFFFFFFFFFFFFFFFFFFFF AND EQ PUSH2 0x2CE8 JUMPI DUP1 SWAP3 POP POP POP PUSH2 0x2D22 JUMP JUMPDEST PUSH2 0x2BD3 JUMP JUMPDEST JUMPDEST POP JUMPDEST PUSH1 0x40 MLOAD PUSH32 0xDF2D9B4200000000000000000000000000000000000000000000000000000000 DUP2 MSTORE PUSH1 0x4 ADD PUSH1 0x40 MLOAD DUP1 SWAP2 SUB SWAP1 REVERT JUMPDEST SWAP2 SWAP1 POP JUMP JUMPDEST PUSH1 0x0 PUSH1 0x8 PUSH1 0x0 SWAP1 SLOAD SWAP1 PUSH2 0x100 EXP SWAP1 DIV PUSH20 0xFFFFFFFFFFFFFFFFFFFFFFFFFFFFFFFFFFFFFFFF AND SWAP1 POP DUP2 PUSH1 0x8 PUSH1 0x0 PUSH2 0x100 EXP DUP2 SLOAD DUP2 PUSH20 0xFFFFFFFFFFFFFFFFFFFFFFFFFFFFFFFFFFFFFFFF MUL NOT AND SWAP1 DUP4 PUSH20 0xFFFFFFFFFFFFFFFFFFFFFFFFFFFFFFFFFFFFFFFF AND MUL OR SWAP1 SSTORE POP DUP2 PUSH20 0xFFFFFFFFFFFFFFFFFFFFFFFFFFFFFFFFFFFFFFFF AND DUP2 PUSH20 0xFFFFFFFFFFFFFFFFFFFFFFFFFFFFFFFFFFFFFFFF AND PUSH32 0x8BE0079C531659141344CD1FD0A4F28419497F9722A3DAAFE3B4186F6B6457E0 PUSH1 0x40 MLOAD PUSH1 0x40 MLOAD DUP1 SWAP2 SUB SWAP1 LOG3 POP POP JUMP JUMPDEST PUSH2 0x2E07 DUP3 DUP3 PUSH1 0x40 MLOAD DUP1 PUSH1 0x20 ADD PUSH1 0x40 MSTORE DUP1 PUSH1 0x0 DUP2 MSTORE POP PUSH2 0x31F0 JUMP JUMPDEST POP POP JUMP JUMPDEST PUSH1 0x0 DUP1 DUP3 PUSH20 0xFFFFFFFFFFFFFFFFFFFFFFFFFFFFFFFFFFFFFFFF AND EXTCODESIZE GT SWAP1 POP SWAP2 SWAP1 POP JUMP JUMPDEST PUSH1 0x0 DUP4 PUSH20 0xFFFFFFFFFFFFFFFFFFFFFFFFFFFFFFFFFFFFFFFF AND PUSH4 0x150B7A02 PUSH2 0x2E54 PUSH2 0x251F JUMP JUMPDEST DUP8 DUP7 DUP7 PUSH1 0x40 MLOAD DUP6 PUSH4 0xFFFFFFFF AND PUSH1 0xE0 SHL DUP2 MSTORE PUSH1 0x4 ADD PUSH2 0x2E76 SWAP5 SWAP4 SWAP3 SWAP2 SWAP1 PUSH2 0x4063 JUMP JUMPDEST PUSH1 0x20 PUSH1 0x40 MLOAD DUP1 DUP4 SUB DUP2 PUSH1 0x0 DUP8 DUP1 EXTCODESIZE ISZERO DUP1 ISZERO PUSH2 0x2E90 JUMPI PUSH1 0x0 DUP1 REVERT JUMPDEST POP GAS CALL SWAP3 POP POP POP DUP1 ISZERO PUSH2 0x2EC1 JUMPI POP PUSH1 0x40 MLOAD RETURNDATASIZE PUSH1 0x1F NOT PUSH1 0x1F DUP3 ADD AND DUP3 ADD DUP1 PUSH1 0x40 MSTORE POP DUP2 ADD SWAP1 PUSH2 0x2EBE SWAP2 SWAP1 PUSH2 0x3B22 JUMP JUMPDEST PUSH1 0x1 JUMPDEST PUSH2 0x2F3B JUMPI RETURNDATASIZE DUP1 PUSH1 0x0 DUP2 EQ PUSH2 0x2EF1 JUMPI PUSH1 0x40 MLOAD SWAP2 POP PUSH1 0x1F NOT PUSH1 0x3F RETURNDATASIZE ADD AND DUP3 ADD PUSH1 0x40 MSTORE RETURNDATASIZE DUP3 MSTORE RETURNDATASIZE PUSH1 0x0 PUSH1 0x20 DUP5 ADD RETURNDATACOPY PUSH2 0x2EF6 JUMP JUMPDEST PUSH1 0x60 SWAP2 POP JUMPDEST POP PUSH1 0x0 DUP2 MLOAD EQ ISZERO PUSH2 0x2F33 JUMPI PUSH1 0x40 MLOAD PUSH32 0xD1A57ED600000000000000000000000000000000000000000000000000000000 DUP2 MSTORE PUSH1 0x4 ADD PUSH1 0x40 MLOAD DUP1 SWAP2 SUB SWAP1 REVERT JUMPDEST DUP1 MLOAD DUP2 PUSH1 0x20 ADD REVERT JUMPDEST PUSH4 0x150B7A02 PUSH1 0xE0 SHL PUSH28 0xFFFFFFFFFFFFFFFFFFFFFFFFFFFFFFFFFFFFFFFFFFFFFFFFFFFFFFFF NOT AND DUP2 PUSH28 0xFFFFFFFFFFFFFFFFFFFFFFFFFFFFFFFFFFFFFFFFFFFFFFFFFFFFFFFF NOT AND EQ SWAP2 POP POP SWAP5 SWAP4 POP POP POP POP JUMP JUMPDEST PUSH1 0x60 PUSH1 0xC DUP1 SLOAD PUSH2 0x2F9D SWAP1 PUSH2 0x459C JUMP JUMPDEST DUP1 PUSH1 0x1F ADD PUSH1 0x20 DUP1 SWAP2 DIV MUL PUSH1 0x20 ADD PUSH1 0x40 MLOAD SWAP1 DUP2 ADD PUSH1 0x40 MSTORE DUP1 SWAP3 SWAP2 SWAP1 DUP2 DUP2 MSTORE PUSH1 0x20 ADD DUP3 DUP1 SLOAD PUSH2 0x2FC9 SWAP1 PUSH2 0x459C JUMP JUMPDEST DUP1 ISZERO PUSH2 0x3016 JUMPI DUP1 PUSH1 0x1F LT PUSH2 0x2FEB JUMPI PUSH2 0x100 DUP1 DUP4 SLOAD DIV MUL DUP4 MSTORE SWAP2 PUSH1 0x20 ADD SWAP2 PUSH2 0x3016 JUMP JUMPDEST DUP3 ADD SWAP2 SWAP1 PUSH1 0x0 MSTORE PUSH1 0x20 PUSH1 0x0 KECCAK256 SWAP1 JUMPDEST DUP2 SLOAD DUP2 MSTORE SWAP1 PUSH1 0x1 ADD SWAP1 PUSH1 0x20 ADD DUP1 DUP4 GT PUSH2 0x2FF9 JUMPI DUP3 SWAP1 SUB PUSH1 0x1F AND DUP3 ADD SWAP2 JUMPDEST POP POP POP POP POP SWAP1 POP SWAP1 JUMP JUMPDEST PUSH1 0x60 PUSH1 0x0 DUP3 EQ ISZERO PUSH2 0x3068 JUMPI PUSH1 0x40 MLOAD DUP1 PUSH1 0x40 ADD PUSH1 0x40 MSTORE DUP1 PUSH1 0x1 DUP2 MSTORE PUSH1 0x20 ADD PUSH32 0x3000000000000000000000000000000000000000000000000000000000000000 DUP2 MSTORE POP SWAP1 POP PUSH2 0x31C8 JUMP JUMPDEST PUSH1 0x0 DUP3 SWAP1 POP PUSH1 0x0 JUMPDEST PUSH1 0x0 DUP3 EQ PUSH2 0x309A JUMPI DUP1 DUP1 PUSH2 0x3083 SWAP1 PUSH2 0x45FF JUMP JUMPDEST SWAP2 POP POP PUSH1 0xA DUP3 PUSH2 0x3093 SWAP2 SWAP1 PUSH2 0x441D JUMP JUMPDEST SWAP2 POP PUSH2 0x3070 JUMP JUMPDEST PUSH1 0x0 DUP2 PUSH8 0xFFFFFFFFFFFFFFFF DUP2 GT ISZERO PUSH2 0x30DC JUMPI PUSH32 0x4E487B7100000000000000000000000000000000000000000000000000000000 PUSH1 0x0 MSTORE PUSH1 0x41 PUSH1 0x4 MSTORE PUSH1 0x24 PUSH1 0x0 REVERT JUMPDEST PUSH1 0x40 MLOAD SWAP1 DUP1 DUP3 MSTORE DUP1 PUSH1 0x1F ADD PUSH1 0x1F NOT AND PUSH1 0x20 ADD DUP3 ADD PUSH1 0x40 MSTORE DUP1 ISZERO PUSH2 0x310E JUMPI DUP2 PUSH1 0x20 ADD PUSH1 0x1 DUP3 MUL DUP1 CALLDATASIZE DUP4 CALLDATACOPY DUP1 DUP3 ADD SWAP2 POP POP SWAP1 POP JUMPDEST POP SWAP1 POP JUMPDEST PUSH1 0x0 DUP6 EQ PUSH2 0x31C1 JUMPI PUSH1 0x1 DUP3 PUSH2 0x3127 SWAP2 SWAP1 PUSH2 0x44A8 JUMP JUMPDEST SWAP2 POP PUSH1 0xA DUP6 PUSH2 0x3136 SWAP2 SWAP1 PUSH2 0x466C JUMP JUMPDEST PUSH1 0x30 PUSH2 0x3142 SWAP2 SWAP1 PUSH2 0x43C7 JUMP JUMPDEST PUSH1 0xF8 SHL DUP2 DUP4 DUP2 MLOAD DUP2 LT PUSH2 0x317E JUMPI PUSH32 0x4E487B7100000000000000000000000000000000000000000000000000000000 PUSH1 0x0 MSTORE PUSH1 0x32 PUSH1 0x4 MSTORE PUSH1 0x24 PUSH1 0x0 REVERT JUMPDEST PUSH1 0x20 ADD ADD SWAP1 PUSH31 0xFFFFFFFFFFFFFFFFFFFFFFFFFFFFFFFFFFFFFFFFFFFFFFFFFFFFFFFFFFFFFF NOT AND SWAP1 DUP2 PUSH1 0x0 BYTE SWAP1 MSTORE8 POP PUSH1 0xA DUP6 PUSH2 0x31BA SWAP2 SWAP1 PUSH2 0x441D JUMP JUMPDEST SWAP5 POP PUSH2 0x3112 JUMP JUMPDEST DUP1 SWAP4 POP POP POP POP JUMPDEST SWAP2 SWAP1 POP JUMP JUMPDEST PUSH1 0x0 DUP3 PUSH2 0x31DA DUP6 DUP5 PUSH2 0x3202 JUMP JUMPDEST EQ SWAP1 POP SWAP4 SWAP3 POP POP POP JUMP JUMPDEST POP POP POP POP JUMP JUMPDEST POP POP POP POP JUMP JUMPDEST PUSH2 0x31FD DUP4 DUP4 DUP4 PUSH1 0x1 PUSH2 0x329D JUMP JUMPDEST POP POP POP JUMP JUMPDEST PUSH1 0x0 DUP1 DUP3 SWAP1 POP PUSH1 0x0 JUMPDEST DUP5 MLOAD DUP2 LT ISZERO PUSH2 0x3292 JUMPI PUSH1 0x0 DUP6 DUP3 DUP2 MLOAD DUP2 LT PUSH2 0x324F JUMPI PUSH32 0x4E487B7100000000000000000000000000000000000000000000000000000000 PUSH1 0x0 MSTORE PUSH1 0x32 PUSH1 0x4 MSTORE PUSH1 0x24 PUSH1 0x0 REVERT JUMPDEST PUSH1 0x20 MUL PUSH1 0x20 ADD ADD MLOAD SWAP1 POP DUP1 DUP4 GT PUSH2 0x3271 JUMPI PUSH2 0x326A DUP4 DUP3 PUSH2 0x366B JUMP JUMPDEST SWAP3 POP PUSH2 0x327E JUMP JUMPDEST PUSH2 0x327B DUP2 DUP5 PUSH2 0x366B JUMP JUMPDEST SWAP3 POP JUMPDEST POP DUP1 DUP1 PUSH2 0x328A SWAP1 PUSH2 0x45FF JUMP JUMPDEST SWAP2 POP POP PUSH2 0x320B JUMP JUMPDEST POP DUP1 SWAP2 POP POP SWAP3 SWAP2 POP POP JUMP JUMPDEST PUSH1 0x0 DUP1 SLOAD SWAP1 POP PUSH1 0x0 PUSH20 0xFFFFFFFFFFFFFFFFFFFFFFFFFFFFFFFFFFFFFFFF AND DUP6 PUSH20 0xFFFFFFFFFFFFFFFFFFFFFFFFFFFFFFFFFFFFFFFF AND EQ ISZERO PUSH2 0x330A JUMPI PUSH1 0x40 MLOAD PUSH32 0x2E07630000000000000000000000000000000000000000000000000000000000 DUP2 MSTORE PUSH1 0x4 ADD PUSH1 0x40 MLOAD DUP1 SWAP2 SUB SWAP1 REVERT JUMPDEST PUSH1 0x0 DUP5 EQ ISZERO PUSH2 0x3345 JUMPI PUSH1 0x40 MLOAD PUSH32 0xB562E8DD00000000000000000000000000000000000000000000000000000000 DUP2 MSTORE PUSH1 0x4 ADD PUSH1 0x40 MLOAD DUP1 SWAP2 SUB SWAP1 REVERT JUMPDEST PUSH2 0x3352 PUSH1 0x0 DUP7 DUP4 DUP8 PUSH2 0x31E4 JUMP JUMPDEST DUP4 PUSH1 0x5 PUSH1 0x0 DUP8 PUSH20 0xFFFFFFFFFFFFFFFFFFFFFFFFFFFFFFFFFFFFFFFF AND PUSH20 0xFFFFFFFFFFFFFFFFFFFFFFFFFFFFFFFFFFFFFFFF AND DUP2 MSTORE PUSH1 0x20 ADD SWAP1 DUP2 MSTORE PUSH1 0x20 ADD PUSH1 0x0 KECCAK256 PUSH1 0x0 ADD PUSH1 0x0 DUP3 DUP3 DUP3 SWAP1 SLOAD SWAP1 PUSH2 0x100 EXP SWAP1 DIV PUSH8 0xFFFFFFFFFFFFFFFF AND ADD SWAP3 POP PUSH2 0x100 EXP DUP2 SLOAD DUP2 PUSH8 0xFFFFFFFFFFFFFFFF MUL NOT AND SWAP1 DUP4 PUSH8 0xFFFFFFFFFFFFFFFF AND MUL OR SWAP1 SSTORE POP DUP4 PUSH1 0x5 PUSH1 0x0 DUP8 PUSH20 0xFFFFFFFFFFFFFFFFFFFFFFFFFFFFFFFFFFFFFFFF AND PUSH20 0xFFFFFFFFFFFFFFFFFFFFFFFFFFFFFFFFFFFFFFFF AND DUP2 MSTORE PUSH1 0x20 ADD SWAP1 DUP2 MSTORE PUSH1 0x20 ADD PUSH1 0x0 KECCAK256 PUSH1 0x0 ADD PUSH1 0x8 DUP3 DUP3 DUP3 SWAP1 SLOAD SWAP1 PUSH2 0x100 EXP SWAP1 DIV PUSH8 0xFFFFFFFFFFFFFFFF AND ADD SWAP3 POP PUSH2 0x100 EXP DUP2 SLOAD DUP2 PUSH8 0xFFFFFFFFFFFFFFFF MUL NOT AND SWAP1 DUP4 PUSH8 0xFFFFFFFFFFFFFFFF AND MUL OR SWAP1 SSTORE POP DUP5 PUSH1 0x4 PUSH1 0x0 DUP4 DUP2 MSTORE PUSH1 0x20 ADD SWAP1 DUP2 MSTORE PUSH1 0x20 ADD PUSH1 0x0 KECCAK256 PUSH1 0x0 ADD PUSH1 0x0 PUSH2 0x100 EXP DUP2 SLOAD DUP2 PUSH20 0xFFFFFFFFFFFFFFFFFFFFFFFFFFFFFFFFFFFFFFFF MUL NOT AND SWAP1 DUP4 PUSH20 0xFFFFFFFFFFFFFFFFFFFFFFFFFFFFFFFFFFFFFFFF AND MUL OR SWAP1 SSTORE POP TIMESTAMP PUSH1 0x4 PUSH1 0x0 DUP4 DUP2 MSTORE PUSH1 0x20 ADD SWAP1 DUP2 MSTORE PUSH1 0x20 ADD PUSH1 0x0 KECCAK256 PUSH1 0x0 ADD PUSH1 0x14 PUSH2 0x100 EXP DUP2 SLOAD DUP2 PUSH8 0xFFFFFFFFFFFFFFFF MUL NOT AND SWAP1 DUP4 PUSH8 0xFFFFFFFFFFFFFFFF AND MUL OR SWAP1 SSTORE POP PUSH1 0x0 DUP2 SWAP1 POP PUSH1 0x0 DUP6 DUP3 ADD SWAP1 POP DUP4 DUP1 ISZERO PUSH2 0x351C JUMPI POP PUSH2 0x351B DUP8 PUSH20 0xFFFFFFFFFFFFFFFFFFFFFFFFFFFFFFFFFFFFFFFF AND PUSH2 0x2E0B JUMP JUMPDEST JUMPDEST ISZERO PUSH2 0x35E2 JUMPI JUMPDEST DUP2 DUP8 PUSH20 0xFFFFFFFFFFFFFFFFFFFFFFFFFFFFFFFFFFFFFFFF AND PUSH1 0x0 PUSH20 0xFFFFFFFFFFFFFFFFFFFFFFFFFFFFFFFFFFFFFFFF AND PUSH32 0xDDF252AD1BE2C89B69C2B068FC378DAA952BA7F163C4A11628F55A4DF523B3EF PUSH1 0x40 MLOAD PUSH1 0x40 MLOAD DUP1 SWAP2 SUB SWAP1 LOG4 PUSH2 0x3591 PUSH1 0x0 DUP9 DUP5 DUP1 PUSH1 0x1 ADD SWAP6 POP DUP9 PUSH2 0x2E2E JUMP JUMPDEST PUSH2 0x35C7 JUMPI PUSH1 0x40 MLOAD PUSH32 0xD1A57ED600000000000000000000000000000000000000000000000000000000 DUP2 MSTORE PUSH1 0x4 ADD PUSH1 0x40 MLOAD DUP1 SWAP2 SUB SWAP1 REVERT JUMPDEST DUP1 DUP3 EQ ISZERO PUSH2 0x3522 JUMPI DUP3 PUSH1 0x0 SLOAD EQ PUSH2 0x35DD JUMPI PUSH1 0x0 DUP1 REVERT JUMPDEST PUSH2 0x364E JUMP JUMPDEST JUMPDEST DUP2 DUP1 PUSH1 0x1 ADD SWAP3 POP DUP8 PUSH20 0xFFFFFFFFFFFFFFFFFFFFFFFFFFFFFFFFFFFFFFFF AND PUSH1 0x0 PUSH20 0xFFFFFFFFFFFFFFFFFFFFFFFFFFFFFFFFFFFFFFFF AND PUSH32 0xDDF252AD1BE2C89B69C2B068FC378DAA952BA7F163C4A11628F55A4DF523B3EF PUSH1 0x40 MLOAD PUSH1 0x40 MLOAD DUP1 SWAP2 SUB SWAP1 LOG4 DUP1 DUP3 EQ ISZERO PUSH2 0x35E3 JUMPI JUMPDEST DUP2 PUSH1 0x0 DUP2 SWAP1 SSTORE POP POP POP PUSH2 0x3664 PUSH1 0x0 DUP7 DUP4 DUP8 PUSH2 0x31EA JUMP JUMPDEST POP POP POP POP POP JUMP JUMPDEST PUSH1 0x0 DUP3 PUSH1 0x0 MSTORE DUP2 PUSH1 0x20 MSTORE PUSH1 0x40 PUSH1 0x0 KECCAK256 SWAP1 POP SWAP3 SWAP2 POP POP JUMP JUMPDEST DUP3 DUP1 SLOAD PUSH2 0x368E SWAP1 PUSH2 0x459C JUMP JUMPDEST SWAP1 PUSH1 0x0 MSTORE PUSH1 0x20 PUSH1 0x0 KECCAK256 SWAP1 PUSH1 0x1F ADD PUSH1 0x20 SWAP1 DIV DUP2 ADD SWAP3 DUP3 PUSH2 0x36B0 JUMPI PUSH1 0x0 DUP6 SSTORE PUSH2 0x36F7 JUMP JUMPDEST DUP3 PUSH1 0x1F LT PUSH2 0x36C9 JUMPI DUP1 MLOAD PUSH1 0xFF NOT AND DUP4 DUP1 ADD OR DUP6 SSTORE PUSH2 0x36F7 JUMP JUMPDEST DUP3 DUP1 ADD PUSH1 0x1 ADD DUP6 SSTORE DUP3 ISZERO PUSH2 0x36F7 JUMPI SWAP2 DUP3 ADD JUMPDEST DUP3 DUP2 GT ISZERO PUSH2 0x36F6 JUMPI DUP3 MLOAD DUP3 SSTORE SWAP2 PUSH1 0x20 ADD SWAP2 SWAP1 PUSH1 0x1 ADD SWAP1 PUSH2 0x36DB JUMP JUMPDEST JUMPDEST POP SWAP1 POP PUSH2 0x3704 SWAP2 SWAP1 PUSH2 0x374B JUMP JUMPDEST POP SWAP1 JUMP JUMPDEST PUSH1 0x40 MLOAD DUP1 PUSH1 0x60 ADD PUSH1 0x40 MSTORE DUP1 PUSH1 0x0 PUSH20 0xFFFFFFFFFFFFFFFFFFFFFFFFFFFFFFFFFFFFFFFF AND DUP2 MSTORE PUSH1 0x20 ADD PUSH1 0x0 PUSH8 0xFFFFFFFFFFFFFFFF AND DUP2 MSTORE PUSH1 0x20 ADD PUSH1 0x0 ISZERO ISZERO DUP2 MSTORE POP SWAP1 JUMP JUMPDEST JUMPDEST DUP1 DUP3 GT ISZERO PUSH2 0x3764 JUMPI PUSH1 0x0 DUP2 PUSH1 0x0 SWAP1 SSTORE POP PUSH1 0x1 ADD PUSH2 0x374C JUMP JUMPDEST POP SWAP1 JUMP JUMPDEST PUSH1 0x0 PUSH2 0x377B PUSH2 0x3776 DUP5 PUSH2 0x42C9 JUMP JUMPDEST PUSH2 0x42A4 JUMP JUMPDEST SWAP1 POP DUP3 DUP2 MSTORE PUSH1 0x20 DUP2 ADD DUP5 DUP5 DUP5 ADD GT ISZERO PUSH2 0x3793 JUMPI PUSH1 0x0 DUP1 REVERT JUMPDEST PUSH2 0x379E DUP5 DUP3 DUP6 PUSH2 0x455A JUMP JUMPDEST POP SWAP4 SWAP3 POP POP POP JUMP JUMPDEST PUSH1 0x0 PUSH2 0x37B9 PUSH2 0x37B4 DUP5 PUSH2 0x42FA JUMP JUMPDEST PUSH2 0x42A4 JUMP JUMPDEST SWAP1 POP DUP3 DUP2 MSTORE PUSH1 0x20 DUP2 ADD DUP5 DUP5 DUP5 ADD GT ISZERO PUSH2 0x37D1 JUMPI PUSH1 0x0 DUP1 REVERT JUMPDEST PUSH2 0x37DC DUP5 DUP3 DUP6 PUSH2 0x455A JUMP JUMPDEST POP SWAP4 SWAP3 POP POP POP JUMP JUMPDEST PUSH1 0x0 DUP2 CALLDATALOAD SWAP1 POP PUSH2 0x37F3 DUP2 PUSH2 0x49AF JUMP JUMPDEST SWAP3 SWAP2 POP POP JUMP JUMPDEST PUSH1 0x0 DUP1 DUP4 PUSH1 0x1F DUP5 ADD SLT PUSH2 0x380B JUMPI PUSH1 0x0 DUP1 REVERT JUMPDEST DUP3 CALLDATALOAD SWAP1 POP PUSH8 0xFFFFFFFFFFFFFFFF DUP2 GT ISZERO PUSH2 0x3824 JUMPI PUSH1 0x0 DUP1 REVERT JUMPDEST PUSH1 0x20 DUP4 ADD SWAP2 POP DUP4 PUSH1 0x20 DUP3 MUL DUP4 ADD GT ISZERO PUSH2 0x383C JUMPI PUSH1 0x0 DUP1 REVERT JUMPDEST SWAP3 POP SWAP3 SWAP1 POP JUMP JUMPDEST PUSH1 0x0 DUP2 CALLDATALOAD SWAP1 POP PUSH2 0x3852 DUP2 PUSH2 0x49C6 JUMP JUMPDEST SWAP3 SWAP2 POP POP JUMP JUMPDEST PUSH1 0x0 DUP2 CALLDATALOAD SWAP1 POP PUSH2 0x3867 DUP2 PUSH2 0x49DD JUMP JUMPDEST SWAP3 SWAP2 POP POP JUMP JUMPDEST PUSH1 0x0 DUP2 CALLDATALOAD SWAP1 POP PUSH2 0x387C DUP2 PUSH2 0x49F4 JUMP JUMPDEST SWAP3 SWAP2 POP POP JUMP JUMPDEST PUSH1 0x0 DUP2 MLOAD SWAP1 POP PUSH2 0x3891 DUP2 PUSH2 0x49F4 JUMP JUMPDEST SWAP3 SWAP2 POP POP JUMP JUMPDEST PUSH1 0x0 DUP3 PUSH1 0x1F DUP4 ADD SLT PUSH2 0x38A8 JUMPI PUSH1 0x0 DUP1 REVERT JUMPDEST DUP2 CALLDATALOAD PUSH2 0x38B8 DUP5 DUP3 PUSH1 0x20 DUP7 ADD PUSH2 0x3768 JUMP JUMPDEST SWAP2 POP POP SWAP3 SWAP2 POP POP JUMP JUMPDEST PUSH1 0x0 DUP3 PUSH1 0x1F DUP4 ADD SLT PUSH2 0x38D2 JUMPI PUSH1 0x0 DUP1 REVERT JUMPDEST DUP2 CALLDATALOAD PUSH2 0x38E2 DUP5 DUP3 PUSH1 0x20 DUP7 ADD PUSH2 0x37A6 JUMP JUMPDEST SWAP2 POP POP SWAP3 SWAP2 POP POP JUMP JUMPDEST PUSH1 0x0 DUP2 CALLDATALOAD SWAP1 POP PUSH2 0x38FA DUP2 PUSH2 0x4A0B JUMP JUMPDEST SWAP3 SWAP2 POP POP JUMP JUMPDEST PUSH1 0x0 PUSH1 0x20 DUP3 DUP5 SUB SLT ISZERO PUSH2 0x3912 JUMPI PUSH1 0x0 DUP1 REVERT JUMPDEST PUSH1 0x0 PUSH2 0x3920 DUP5 DUP3 DUP6 ADD PUSH2 0x37E4 JUMP JUMPDEST SWAP2 POP POP SWAP3 SWAP2 POP POP JUMP JUMPDEST PUSH1 0x0 DUP1 PUSH1 0x40 DUP4 DUP6 SUB SLT ISZERO PUSH2 0x393C JUMPI PUSH1 0x0 DUP1 REVERT JUMPDEST PUSH1 0x0 PUSH2 0x394A DUP6 DUP3 DUP7 ADD PUSH2 0x37E4 JUMP JUMPDEST SWAP3 POP POP PUSH1 0x20 PUSH2 0x395B DUP6 DUP3 DUP7 ADD PUSH2 0x37E4 JUMP JUMPDEST SWAP2 POP POP SWAP3 POP SWAP3 SWAP1 POP JUMP JUMPDEST PUSH1 0x0 DUP1 PUSH1 0x0 PUSH1 0x60 DUP5 DUP7 SUB SLT ISZERO PUSH2 0x397A JUMPI PUSH1 0x0 DUP1 REVERT JUMPDEST PUSH1 0x0 PUSH2 0x3988 DUP7 DUP3 DUP8 ADD PUSH2 0x37E4 JUMP JUMPDEST SWAP4 POP POP PUSH1 0x20 PUSH2 0x3999 DUP7 DUP3 DUP8 ADD PUSH2 0x37E4 JUMP JUMPDEST SWAP3 POP POP PUSH1 0x40 PUSH2 0x39AA DUP7 DUP3 DUP8 ADD PUSH2 0x38EB JUMP JUMPDEST SWAP2 POP POP SWAP3 POP SWAP3 POP SWAP3 JUMP JUMPDEST PUSH1 0x0 DUP1 PUSH1 0x0 DUP1 PUSH1 0x80 DUP6 DUP8 SUB SLT ISZERO PUSH2 0x39CA JUMPI PUSH1 0x0 DUP1 REVERT JUMPDEST PUSH1 0x0 PUSH2 0x39D8 DUP8 DUP3 DUP9 ADD PUSH2 0x37E4 JUMP JUMPDEST SWAP5 POP POP PUSH1 0x20 PUSH2 0x39E9 DUP8 DUP3 DUP9 ADD PUSH2 0x37E4 JUMP JUMPDEST SWAP4 POP POP PUSH1 0x40 PUSH2 0x39FA DUP8 DUP3 DUP9 ADD PUSH2 0x38EB JUMP JUMPDEST SWAP3 POP POP PUSH1 0x60 DUP6 ADD CALLDATALOAD PUSH8 0xFFFFFFFFFFFFFFFF DUP2 GT ISZERO PUSH2 0x3A17 JUMPI PUSH1 0x0 DUP1 REVERT JUMPDEST PUSH2 0x3A23 DUP8 DUP3 DUP9 ADD PUSH2 0x3897 JUMP JUMPDEST SWAP2 POP POP SWAP3 SWAP6 SWAP2 SWAP5 POP SWAP3 POP JUMP JUMPDEST PUSH1 0x0 DUP1 PUSH1 0x40 DUP4 DUP6 SUB SLT ISZERO PUSH2 0x3A42 JUMPI PUSH1 0x0 DUP1 REVERT JUMPDEST PUSH1 0x0 PUSH2 0x3A50 DUP6 DUP3 DUP7 ADD PUSH2 0x37E4 JUMP JUMPDEST SWAP3 POP POP PUSH1 0x20 PUSH2 0x3A61 DUP6 DUP3 DUP7 ADD PUSH2 0x3843 JUMP JUMPDEST SWAP2 POP POP SWAP3 POP SWAP3 SWAP1 POP JUMP JUMPDEST PUSH1 0x0 DUP1 PUSH1 0x40 DUP4 DUP6 SUB SLT ISZERO PUSH2 0x3A7E JUMPI PUSH1 0x0 DUP1 REVERT JUMPDEST PUSH1 0x0 PUSH2 0x3A8C DUP6 DUP3 DUP7 ADD PUSH2 0x37E4 JUMP JUMPDEST SWAP3 POP POP PUSH1 0x20 PUSH2 0x3A9D DUP6 DUP3 DUP7 ADD PUSH2 0x38EB JUMP JUMPDEST SWAP2 POP POP SWAP3 POP SWAP3 SWAP1 POP JUMP JUMPDEST PUSH1 0x0 PUSH1 0x20 DUP3 DUP5 SUB SLT ISZERO PUSH2 0x3AB9 JUMPI PUSH1 0x0 DUP1 REVERT JUMPDEST PUSH1 0x0 PUSH2 0x3AC7 DUP5 DUP3 DUP6 ADD PUSH2 0x3843 JUMP JUMPDEST SWAP2 POP POP SWAP3 SWAP2 POP POP JUMP JUMPDEST PUSH1 0x0 PUSH1 0x20 DUP3 DUP5 SUB SLT ISZERO PUSH2 0x3AE2 JUMPI PUSH1 0x0 DUP1 REVERT JUMPDEST PUSH1 0x0 PUSH2 0x3AF0 DUP5 DUP3 DUP6 ADD PUSH2 0x3858 JUMP JUMPDEST SWAP2 POP POP SWAP3 SWAP2 POP POP JUMP JUMPDEST PUSH1 0x0 PUSH1 0x20 DUP3 DUP5 SUB SLT ISZERO PUSH2 0x3B0B JUMPI PUSH1 0x0 DUP1 REVERT JUMPDEST PUSH1 0x0 PUSH2 0x3B19 DUP5 DUP3 DUP6 ADD PUSH2 0x386D JUMP JUMPDEST SWAP2 POP POP SWAP3 SWAP2 POP POP JUMP JUMPDEST PUSH1 0x0 PUSH1 0x20 DUP3 DUP5 SUB SLT ISZERO PUSH2 0x3B34 JUMPI PUSH1 0x0 DUP1 REVERT JUMPDEST PUSH1 0x0 PUSH2 0x3B42 DUP5 DUP3 DUP6 ADD PUSH2 0x3882 JUMP JUMPDEST SWAP2 POP POP SWAP3 SWAP2 POP POP JUMP JUMPDEST PUSH1 0x0 PUSH1 0x20 DUP3 DUP5 SUB SLT ISZERO PUSH2 0x3B5D JUMPI PUSH1 0x0 DUP1 REVERT JUMPDEST PUSH1 0x0 DUP3 ADD CALLDATALOAD PUSH8 0xFFFFFFFFFFFFFFFF DUP2 GT ISZERO PUSH2 0x3B77 JUMPI PUSH1 0x0 DUP1 REVERT JUMPDEST PUSH2 0x3B83 DUP5 DUP3 DUP6 ADD PUSH2 0x38C1 JUMP JUMPDEST SWAP2 POP POP SWAP3 SWAP2 POP POP JUMP JUMPDEST PUSH1 0x0 PUSH1 0x20 DUP3 DUP5 SUB SLT ISZERO PUSH2 0x3B9E JUMPI PUSH1 0x0 DUP1 REVERT JUMPDEST PUSH1 0x0 PUSH2 0x3BAC DUP5 DUP3 DUP6 ADD PUSH2 0x38EB JUMP JUMPDEST SWAP2 POP POP SWAP3 SWAP2 POP POP JUMP JUMPDEST PUSH1 0x0 DUP1 PUSH1 0x40 DUP4 DUP6 SUB SLT ISZERO PUSH2 0x3BC8 JUMPI PUSH1 0x0 DUP1 REVERT JUMPDEST PUSH1 0x0 PUSH2 0x3BD6 DUP6 DUP3 DUP7 ADD PUSH2 0x38EB JUMP JUMPDEST SWAP3 POP POP PUSH1 0x20 PUSH2 0x3BE7 DUP6 DUP3 DUP7 ADD PUSH2 0x37E4 JUMP JUMPDEST SWAP2 POP POP SWAP3 POP SWAP3 SWAP1 POP JUMP JUMPDEST PUSH1 0x0 DUP1 PUSH1 0x0 PUSH1 0x40 DUP5 DUP7 SUB SLT ISZERO PUSH2 0x3C06 JUMPI PUSH1 0x0 DUP1 REVERT JUMPDEST PUSH1 0x0 PUSH2 0x3C14 DUP7 DUP3 DUP8 ADD PUSH2 0x38EB JUMP JUMPDEST SWAP4 POP POP PUSH1 0x20 DUP5 ADD CALLDATALOAD PUSH8 0xFFFFFFFFFFFFFFFF DUP2 GT ISZERO PUSH2 0x3C31 JUMPI PUSH1 0x0 DUP1 REVERT JUMPDEST PUSH2 0x3C3D DUP7 DUP3 DUP8 ADD PUSH2 0x37F9 JUMP JUMPDEST SWAP3 POP SWAP3 POP POP SWAP3 POP SWAP3 POP SWAP3 JUMP JUMPDEST PUSH1 0x0 PUSH2 0x3C55 DUP4 DUP4 PUSH2 0x3FC9 JUMP JUMPDEST PUSH1 0x20 DUP4 ADD SWAP1 POP SWAP3 SWAP2 POP POP JUMP JUMPDEST PUSH2 0x3C6A DUP2 PUSH2 0x44DC JUMP JUMPDEST DUP3 MSTORE POP POP JUMP JUMPDEST PUSH2 0x3C81 PUSH2 0x3C7C DUP3 PUSH2 0x44DC JUMP JUMPDEST PUSH2 0x4648 JUMP JUMPDEST DUP3 MSTORE POP POP JUMP JUMPDEST PUSH1 0x0 PUSH2 0x3C92 DUP3 PUSH2 0x4350 JUMP JUMPDEST PUSH2 0x3C9C DUP2 DUP6 PUSH2 0x437E JUMP JUMPDEST SWAP4 POP PUSH2 0x3CA7 DUP4 PUSH2 0x432B JUMP JUMPDEST DUP1 PUSH1 0x0 JUMPDEST DUP4 DUP2 LT ISZERO PUSH2 0x3CD8 JUMPI DUP2 MLOAD PUSH2 0x3CBF DUP9 DUP3 PUSH2 0x3C49 JUMP JUMPDEST SWAP8 POP PUSH2 0x3CCA DUP4 PUSH2 0x4371 JUMP JUMPDEST SWAP3 POP POP PUSH1 0x1 DUP2 ADD SWAP1 POP PUSH2 0x3CAB JUMP JUMPDEST POP DUP6 SWAP4 POP POP POP POP SWAP3 SWAP2 POP POP JUMP JUMPDEST PUSH2 0x3CEE DUP2 PUSH2 0x44EE JUMP JUMPDEST DUP3 MSTORE POP POP JUMP JUMPDEST PUSH2 0x3CFD DUP2 PUSH2 0x44FA JUMP JUMPDEST DUP3 MSTORE POP POP JUMP JUMPDEST PUSH1 0x0 PUSH2 0x3D0E DUP3 PUSH2 0x435B JUMP JUMPDEST PUSH2 0x3D18 DUP2 DUP6 PUSH2 0x438F JUMP JUMPDEST SWAP4 POP PUSH2 0x3D28 DUP2 DUP6 PUSH1 0x20 DUP7 ADD PUSH2 0x4569 JUMP JUMPDEST PUSH2 0x3D31 DUP2 PUSH2 0x4759 JUMP JUMPDEST DUP5 ADD SWAP2 POP POP SWAP3 SWAP2 POP POP JUMP JUMPDEST PUSH1 0x0 PUSH2 0x3D47 DUP3 PUSH2 0x4366 JUMP JUMPDEST PUSH2 0x3D51 DUP2 DUP6 PUSH2 0x43AB JUMP JUMPDEST SWAP4 POP PUSH2 0x3D61 DUP2 DUP6 PUSH1 0x20 DUP7 ADD PUSH2 0x4569 JUMP JUMPDEST PUSH2 0x3D6A DUP2 PUSH2 0x4759 JUMP JUMPDEST DUP5 ADD SWAP2 POP POP SWAP3 SWAP2 POP POP JUMP JUMPDEST PUSH1 0x0 PUSH2 0x3D80 DUP3 PUSH2 0x4366 JUMP JUMPDEST PUSH2 0x3D8A DUP2 DUP6 PUSH2 0x43BC JUMP JUMPDEST SWAP4 POP PUSH2 0x3D9A DUP2 DUP6 PUSH1 0x20 DUP7 ADD PUSH2 0x4569 JUMP JUMPDEST DUP1 DUP5 ADD SWAP2 POP POP SWAP3 SWAP2 POP POP JUMP JUMPDEST PUSH1 0x0 DUP2 SLOAD PUSH2 0x3DB3 DUP2 PUSH2 0x459C JUMP JUMPDEST PUSH2 0x3DBD DUP2 DUP7 PUSH2 0x43BC JUMP JUMPDEST SWAP5 POP PUSH1 0x1 DUP3 AND PUSH1 0x0 DUP2 EQ PUSH2 0x3DD8 JUMPI PUSH1 0x1 DUP2 EQ PUSH2 0x3DE9 JUMPI PUSH2 0x3E1C JUMP JUMPDEST PUSH1 0xFF NOT DUP4 AND DUP7 MSTORE DUP2 DUP7 ADD SWAP4 POP PUSH2 0x3E1C JUMP JUMPDEST PUSH2 0x3DF2 DUP6 PUSH2 0x433B JUMP JUMPDEST PUSH1 0x0 JUMPDEST DUP4 DUP2 LT ISZERO PUSH2 0x3E14 JUMPI DUP2 SLOAD DUP2 DUP10 ADD MSTORE PUSH1 0x1 DUP3 ADD SWAP2 POP PUSH1 0x20 DUP2 ADD SWAP1 POP PUSH2 0x3DF5 JUMP JUMPDEST DUP4 DUP9 ADD SWAP6 POP POP POP JUMPDEST POP POP POP SWAP3 SWAP2 POP POP JUMP JUMPDEST PUSH1 0x0 PUSH2 0x3E32 PUSH1 0xE DUP4 PUSH2 0x43AB JUMP JUMPDEST SWAP2 POP PUSH2 0x3E3D DUP3 PUSH2 0x4777 JUMP JUMPDEST PUSH1 0x20 DUP3 ADD SWAP1 POP SWAP2 SWAP1 POP JUMP JUMPDEST PUSH1 0x0 PUSH2 0x3E55 PUSH1 0x26 DUP4 PUSH2 0x43AB JUMP JUMPDEST SWAP2 POP PUSH2 0x3E60 DUP3 PUSH2 0x47A0 JUMP JUMPDEST PUSH1 0x40 DUP3 ADD SWAP1 POP SWAP2 SWAP1 POP JUMP JUMPDEST PUSH1 0x0 PUSH2 0x3E78 PUSH1 0x14 DUP4 PUSH2 0x43AB JUMP JUMPDEST SWAP2 POP PUSH2 0x3E83 DUP3 PUSH2 0x47EF JUMP JUMPDEST PUSH1 0x20 DUP3 ADD SWAP1 POP SWAP2 SWAP1 POP JUMP JUMPDEST PUSH1 0x0 PUSH2 0x3E9B PUSH1 0x20 DUP4 PUSH2 0x43AB JUMP JUMPDEST SWAP2 POP PUSH2 0x3EA6 DUP3 PUSH2 0x4818 JUMP JUMPDEST PUSH1 0x20 DUP3 ADD SWAP1 POP SWAP2 SWAP1 POP JUMP JUMPDEST PUSH1 0x0 PUSH2 0x3EBE PUSH1 0x17 DUP4 PUSH2 0x43AB JUMP JUMPDEST SWAP2 POP PUSH2 0x3EC9 DUP3 PUSH2 0x4841 JUMP JUMPDEST PUSH1 0x20 DUP3 ADD SWAP1 POP SWAP2 SWAP1 POP JUMP JUMPDEST PUSH1 0x0 PUSH2 0x3EE1 PUSH1 0x18 DUP4 PUSH2 0x43AB JUMP JUMPDEST SWAP2 POP PUSH2 0x3EEC DUP3 PUSH2 0x486A JUMP JUMPDEST PUSH1 0x20 DUP3 ADD SWAP1 POP SWAP2 SWAP1 POP JUMP JUMPDEST PUSH1 0x0 PUSH2 0x3F04 PUSH1 0x2F DUP4 PUSH2 0x43AB JUMP JUMPDEST SWAP2 POP PUSH2 0x3F0F DUP3 PUSH2 0x4893 JUMP JUMPDEST PUSH1 0x40 DUP3 ADD SWAP1 POP SWAP2 SWAP1 POP JUMP JUMPDEST PUSH1 0x0 PUSH2 0x3F27 PUSH1 0x0 DUP4 PUSH2 0x43A0 JUMP JUMPDEST SWAP2 POP PUSH2 0x3F32 DUP3 PUSH2 0x48E2 JUMP JUMPDEST PUSH1 0x0 DUP3 ADD SWAP1 POP SWAP2 SWAP1 POP JUMP JUMPDEST PUSH1 0x0 PUSH2 0x3F4A PUSH1 0x14 DUP4 PUSH2 0x43AB JUMP JUMPDEST SWAP2 POP PUSH2 0x3F55 DUP3 PUSH2 0x48E5 JUMP JUMPDEST PUSH1 0x20 DUP3 ADD SWAP1 POP SWAP2 SWAP1 POP JUMP JUMPDEST PUSH1 0x0 PUSH2 0x3F6D PUSH1 0x22 DUP4 PUSH2 0x43AB JUMP JUMPDEST SWAP2 POP PUSH2 0x3F78 DUP3 PUSH2 0x490E JUMP JUMPDEST PUSH1 0x40 DUP3 ADD SWAP1 POP SWAP2 SWAP1 POP JUMP JUMPDEST PUSH1 0x0 PUSH2 0x3F90 PUSH1 0x1F DUP4 PUSH2 0x43AB JUMP JUMPDEST SWAP2 POP PUSH2 0x3F9B DUP3 PUSH2 0x495D JUMP JUMPDEST PUSH1 0x20 DUP3 ADD SWAP1 POP SWAP2 SWAP1 POP JUMP JUMPDEST PUSH1 0x0 PUSH2 0x3FB3 PUSH1 0x13 DUP4 PUSH2 0x43AB JUMP JUMPDEST SWAP2 POP PUSH2 0x3FBE DUP3 PUSH2 0x4986 JUMP JUMPDEST PUSH1 0x20 DUP3 ADD SWAP1 POP SWAP2 SWAP1 POP JUMP JUMPDEST PUSH2 0x3FD2 DUP2 PUSH2 0x4550 JUMP JUMPDEST DUP3 MSTORE POP POP JUMP JUMPDEST PUSH2 0x3FE1 DUP2 PUSH2 0x4550 JUMP JUMPDEST DUP3 MSTORE POP POP JUMP JUMPDEST PUSH1 0x0 PUSH2 0x3FF3 DUP3 DUP5 PUSH2 0x3C70 JUMP JUMPDEST PUSH1 0x14 DUP3 ADD SWAP2 POP DUP2 SWAP1 POP SWAP3 SWAP2 POP POP JUMP JUMPDEST PUSH1 0x0 PUSH2 0x400E DUP3 DUP7 PUSH2 0x3D75 JUMP JUMPDEST SWAP2 POP PUSH2 0x401A DUP3 DUP6 PUSH2 0x3D75 JUMP JUMPDEST SWAP2 POP PUSH2 0x4026 DUP3 DUP5 PUSH2 0x3DA6 JUMP JUMPDEST SWAP2 POP DUP2 SWAP1 POP SWAP5 SWAP4 POP POP POP POP JUMP JUMPDEST PUSH1 0x0 PUSH2 0x403E DUP3 PUSH2 0x3F1A JUMP JUMPDEST SWAP2 POP DUP2 SWAP1 POP SWAP2 SWAP1 POP JUMP JUMPDEST PUSH1 0x0 PUSH1 0x20 DUP3 ADD SWAP1 POP PUSH2 0x405D PUSH1 0x0 DUP4 ADD DUP5 PUSH2 0x3C61 JUMP JUMPDEST SWAP3 SWAP2 POP POP JUMP JUMPDEST PUSH1 0x0 PUSH1 0x80 DUP3 ADD SWAP1 POP PUSH2 0x4078 PUSH1 0x0 DUP4 ADD DUP8 PUSH2 0x3C61 JUMP JUMPDEST PUSH2 0x4085 PUSH1 0x20 DUP4 ADD DUP7 PUSH2 0x3C61 JUMP JUMPDEST PUSH2 0x4092 PUSH1 0x40 DUP4 ADD DUP6 PUSH2 0x3FD8 JUMP JUMPDEST DUP2 DUP2 SUB PUSH1 0x60 DUP4 ADD MSTORE PUSH2 0x40A4 DUP2 DUP5 PUSH2 0x3D03 JUMP JUMPDEST SWAP1 POP SWAP6 SWAP5 POP POP POP POP POP JUMP JUMPDEST PUSH1 0x0 PUSH1 0x20 DUP3 ADD SWAP1 POP DUP2 DUP2 SUB PUSH1 0x0 DUP4 ADD MSTORE PUSH2 0x40C9 DUP2 DUP5 PUSH2 0x3C87 JUMP JUMPDEST SWAP1 POP SWAP3 SWAP2 POP POP JUMP JUMPDEST PUSH1 0x0 PUSH1 0x20 DUP3 ADD SWAP1 POP PUSH2 0x40E6 PUSH1 0x0 DUP4 ADD DUP5 PUSH2 0x3CE5 JUMP JUMPDEST SWAP3 SWAP2 POP POP JUMP JUMPDEST PUSH1 0x0 PUSH1 0x20 DUP3 ADD SWAP1 POP PUSH2 0x4101 PUSH1 0x0 DUP4 ADD DUP5 PUSH2 0x3CF4 JUMP JUMPDEST SWAP3 SWAP2 POP POP JUMP JUMPDEST PUSH1 0x0 PUSH1 0x20 DUP3 ADD SWAP1 POP DUP2 DUP2 SUB PUSH1 0x0 DUP4 ADD MSTORE PUSH2 0x4121 DUP2 DUP5 PUSH2 0x3D3C JUMP JUMPDEST SWAP1 POP SWAP3 SWAP2 POP POP JUMP JUMPDEST PUSH1 0x0 PUSH1 0x20 DUP3 ADD SWAP1 POP DUP2 DUP2 SUB PUSH1 0x0 DUP4 ADD MSTORE PUSH2 0x4142 DUP2 PUSH2 0x3E25 JUMP JUMPDEST SWAP1 POP SWAP2 SWAP1 POP JUMP JUMPDEST PUSH1 0x0 PUSH1 0x20 DUP3 ADD SWAP1 POP DUP2 DUP2 SUB PUSH1 0x0 DUP4 ADD MSTORE PUSH2 0x4162 DUP2 PUSH2 0x3E48 JUMP JUMPDEST SWAP1 POP SWAP2 SWAP1 POP JUMP JUMPDEST PUSH1 0x0 PUSH1 0x20 DUP3 ADD SWAP1 POP DUP2 DUP2 SUB PUSH1 0x0 DUP4 ADD MSTORE PUSH2 0x4182 DUP2 PUSH2 0x3E6B JUMP JUMPDEST SWAP1 POP SWAP2 SWAP1 POP JUMP JUMPDEST PUSH1 0x0 PUSH1 0x20 DUP3 ADD SWAP1 POP DUP2 DUP2 SUB PUSH1 0x0 DUP4 ADD MSTORE PUSH2 0x41A2 DUP2 PUSH2 0x3E8E JUMP JUMPDEST SWAP1 POP SWAP2 SWAP1 POP JUMP JUMPDEST PUSH1 0x0 PUSH1 0x20 DUP3 ADD SWAP1 POP DUP2 DUP2 SUB PUSH1 0x0 DUP4 ADD MSTORE PUSH2 0x41C2 DUP2 PUSH2 0x3EB1 JUMP JUMPDEST SWAP1 POP SWAP2 SWAP1 POP JUMP JUMPDEST PUSH1 0x0 PUSH1 0x20 DUP3 ADD SWAP1 POP DUP2 DUP2 SUB PUSH1 0x0 DUP4 ADD MSTORE PUSH2 0x41E2 DUP2 PUSH2 0x3ED4 JUMP JUMPDEST SWAP1 POP SWAP2 SWAP1 POP JUMP JUMPDEST PUSH1 0x0 PUSH1 0x20 DUP3 ADD SWAP1 POP DUP2 DUP2 SUB PUSH1 0x0 DUP4 ADD MSTORE PUSH2 0x4202 DUP2 PUSH2 0x3EF7 JUMP JUMPDEST SWAP1 POP SWAP2 SWAP1 POP JUMP JUMPDEST PUSH1 0x0 PUSH1 0x20 DUP3 ADD SWAP1 POP DUP2 DUP2 SUB PUSH1 0x0 DUP4 ADD MSTORE PUSH2 0x4222 DUP2 PUSH2 0x3F3D JUMP JUMPDEST SWAP1 POP SWAP2 SWAP1 POP JUMP JUMPDEST PUSH1 0x0 PUSH1 0x20 DUP3 ADD SWAP1 POP DUP2 DUP2 SUB PUSH1 0x0 DUP4 ADD MSTORE PUSH2 0x4242 DUP2 PUSH2 0x3F60 JUMP JUMPDEST SWAP1 POP SWAP2 SWAP1 POP JUMP JUMPDEST PUSH1 0x0 PUSH1 0x20 DUP3 ADD SWAP1 POP DUP2 DUP2 SUB PUSH1 0x0 DUP4 ADD MSTORE PUSH2 0x4262 DUP2 PUSH2 0x3F83 JUMP JUMPDEST SWAP1 POP SWAP2 SWAP1 POP JUMP JUMPDEST PUSH1 0x0 PUSH1 0x20 DUP3 ADD SWAP1 POP DUP2 DUP2 SUB PUSH1 0x0 DUP4 ADD MSTORE PUSH2 0x4282 DUP2 PUSH2 0x3FA6 JUMP JUMPDEST SWAP1 POP SWAP2 SWAP1 POP JUMP JUMPDEST PUSH1 0x0 PUSH1 0x20 DUP3 ADD SWAP1 POP PUSH2 0x429E PUSH1 0x0 DUP4 ADD DUP5 PUSH2 0x3FD8 JUMP JUMPDEST SWAP3 SWAP2 POP POP JUMP JUMPDEST PUSH1 0x0 PUSH2 0x42AE PUSH2 0x42BF JUMP JUMPDEST SWAP1 POP PUSH2 0x42BA DUP3 DUP3 PUSH2 0x45CE JUMP JUMPDEST SWAP2 SWAP1 POP JUMP JUMPDEST PUSH1 0x0 PUSH1 0x40 MLOAD SWAP1 POP SWAP1 JUMP JUMPDEST PUSH1 0x0 PUSH8 0xFFFFFFFFFFFFFFFF DUP3 GT ISZERO PUSH2 0x42E4 JUMPI PUSH2 0x42E3 PUSH2 0x472A JUMP JUMPDEST JUMPDEST PUSH2 0x42ED DUP3 PUSH2 0x4759 JUMP JUMPDEST SWAP1 POP PUSH1 0x20 DUP2 ADD SWAP1 POP SWAP2 SWAP1 POP JUMP JUMPDEST PUSH1 0x0 PUSH8 0xFFFFFFFFFFFFFFFF DUP3 GT ISZERO PUSH2 0x4315 JUMPI PUSH2 0x4314 PUSH2 0x472A JUMP JUMPDEST JUMPDEST PUSH2 0x431E DUP3 PUSH2 0x4759 JUMP JUMPDEST SWAP1 POP PUSH1 0x20 DUP2 ADD SWAP1 POP SWAP2 SWAP1 POP JUMP JUMPDEST PUSH1 0x0 DUP2 SWAP1 POP PUSH1 0x20 DUP3 ADD SWAP1 POP SWAP2 SWAP1 POP JUMP JUMPDEST PUSH1 0x0 DUP2 SWAP1 POP DUP2 PUSH1 0x0 MSTORE PUSH1 0x20 PUSH1 0x0 KECCAK256 SWAP1 POP SWAP2 SWAP1 POP JUMP JUMPDEST PUSH1 0x0 DUP2 MLOAD SWAP1 POP SWAP2 SWAP1 POP JUMP JUMPDEST PUSH1 0x0 DUP2 MLOAD SWAP1 POP SWAP2 SWAP1 POP JUMP JUMPDEST PUSH1 0x0 DUP2 MLOAD SWAP1 POP SWAP2 SWAP1 POP JUMP JUMPDEST PUSH1 0x0 PUSH1 0x20 DUP3 ADD SWAP1 POP SWAP2 SWAP1 POP JUMP JUMPDEST PUSH1 0x0 DUP3 DUP3 MSTORE PUSH1 0x20 DUP3 ADD SWAP1 POP SWAP3 SWAP2 POP POP JUMP JUMPDEST PUSH1 0x0 DUP3 DUP3 MSTORE PUSH1 0x20 DUP3 ADD SWAP1 POP SWAP3 SWAP2 POP POP JUMP JUMPDEST PUSH1 0x0 DUP2 SWAP1 POP SWAP3 SWAP2 POP POP JUMP JUMPDEST PUSH1 0x0 DUP3 DUP3 MSTORE PUSH1 0x20 DUP3 ADD SWAP1 POP SWAP3 SWAP2 POP POP JUMP JUMPDEST PUSH1 0x0 DUP2 SWAP1 POP SWAP3 SWAP2 POP POP JUMP JUMPDEST PUSH1 0x0 PUSH2 0x43D2 DUP3 PUSH2 0x4550 JUMP JUMPDEST SWAP2 POP PUSH2 0x43DD DUP4 PUSH2 0x4550 JUMP JUMPDEST SWAP3 POP DUP3 PUSH32 0xFFFFFFFFFFFFFFFFFFFFFFFFFFFFFFFFFFFFFFFFFFFFFFFFFFFFFFFFFFFFFFFF SUB DUP3 GT ISZERO PUSH2 0x4412 JUMPI PUSH2 0x4411 PUSH2 0x469D JUMP JUMPDEST JUMPDEST DUP3 DUP3 ADD SWAP1 POP SWAP3 SWAP2 POP POP JUMP JUMPDEST PUSH1 0x0 PUSH2 0x4428 DUP3 PUSH2 0x4550 JUMP JUMPDEST SWAP2 POP PUSH2 0x4433 DUP4 PUSH2 0x4550 JUMP JUMPDEST SWAP3 POP DUP3 PUSH2 0x4443 JUMPI PUSH2 0x4442 PUSH2 0x46CC JUMP JUMPDEST JUMPDEST DUP3 DUP3 DIV SWAP1 POP SWAP3 SWAP2 POP POP JUMP JUMPDEST PUSH1 0x0 PUSH2 0x4459 DUP3 PUSH2 0x4550 JUMP JUMPDEST SWAP2 POP PUSH2 0x4464 DUP4 PUSH2 0x4550 JUMP JUMPDEST SWAP3 POP DUP2 PUSH32 0xFFFFFFFFFFFFFFFFFFFFFFFFFFFFFFFFFFFFFFFFFFFFFFFFFFFFFFFFFFFFFFFF DIV DUP4 GT DUP3 ISZERO ISZERO AND ISZERO PUSH2 0x449D JUMPI PUSH2 0x449C PUSH2 0x469D JUMP JUMPDEST JUMPDEST DUP3 DUP3 MUL SWAP1 POP SWAP3 SWAP2 POP POP JUMP JUMPDEST PUSH1 0x0 PUSH2 0x44B3 DUP3 PUSH2 0x4550 JUMP JUMPDEST SWAP2 POP PUSH2 0x44BE DUP4 PUSH2 0x4550 JUMP JUMPDEST SWAP3 POP DUP3 DUP3 LT ISZERO PUSH2 0x44D1 JUMPI PUSH2 0x44D0 PUSH2 0x469D JUMP JUMPDEST JUMPDEST DUP3 DUP3 SUB SWAP1 POP SWAP3 SWAP2 POP POP JUMP JUMPDEST PUSH1 0x0 PUSH2 0x44E7 DUP3 PUSH2 0x4530 JUMP JUMPDEST SWAP1 POP SWAP2 SWAP1 POP JUMP JUMPDEST PUSH1 0x0 DUP2 ISZERO ISZERO SWAP1 POP SWAP2 SWAP1 POP JUMP JUMPDEST PUSH1 0x0 DUP2 SWAP1 POP SWAP2 SWAP1 POP JUMP JUMPDEST PUSH1 0x0 PUSH32 0xFFFFFFFF00000000000000000000000000000000000000000000000000000000 DUP3 AND SWAP1 POP SWAP2 SWAP1 POP JUMP JUMPDEST PUSH1 0x0 PUSH20 0xFFFFFFFFFFFFFFFFFFFFFFFFFFFFFFFFFFFFFFFF DUP3 AND SWAP1 POP SWAP2 SWAP1 POP JUMP JUMPDEST PUSH1 0x0 DUP2 SWAP1 POP SWAP2 SWAP1 POP JUMP JUMPDEST DUP3 DUP2 DUP4 CALLDATACOPY PUSH1 0x0 DUP4 DUP4 ADD MSTORE POP POP POP JUMP JUMPDEST PUSH1 0x0 JUMPDEST DUP4 DUP2 LT ISZERO PUSH2 0x4587 JUMPI DUP1 DUP3 ADD MLOAD DUP2 DUP5 ADD MSTORE PUSH1 0x20 DUP2 ADD SWAP1 POP PUSH2 0x456C JUMP JUMPDEST DUP4 DUP2 GT ISZERO PUSH2 0x4596 JUMPI PUSH1 0x0 DUP5 DUP5 ADD MSTORE JUMPDEST POP POP POP POP JUMP JUMPDEST PUSH1 0x0 PUSH1 0x2 DUP3 DIV SWAP1 POP PUSH1 0x1 DUP3 AND DUP1 PUSH2 0x45B4 JUMPI PUSH1 0x7F DUP3 AND SWAP2 POP JUMPDEST PUSH1 0x20 DUP3 LT DUP2 EQ ISZERO PUSH2 0x45C8 JUMPI PUSH2 0x45C7 PUSH2 0x46FB JUMP JUMPDEST JUMPDEST POP SWAP2 SWAP1 POP JUMP JUMPDEST PUSH2 0x45D7 DUP3 PUSH2 0x4759 JUMP JUMPDEST DUP2 ADD DUP2 DUP2 LT PUSH8 0xFFFFFFFFFFFFFFFF DUP3 GT OR ISZERO PUSH2 0x45F6 JUMPI PUSH2 0x45F5 PUSH2 0x472A JUMP JUMPDEST JUMPDEST DUP1 PUSH1 0x40 MSTORE POP POP POP JUMP JUMPDEST PUSH1 0x0 PUSH2 0x460A DUP3 PUSH2 0x4550 JUMP JUMPDEST SWAP2 POP PUSH32 0xFFFFFFFFFFFFFFFFFFFFFFFFFFFFFFFFFFFFFFFFFFFFFFFFFFFFFFFFFFFFFFFF DUP3 EQ ISZERO PUSH2 0x463D JUMPI PUSH2 0x463C PUSH2 0x469D JUMP JUMPDEST JUMPDEST PUSH1 0x1 DUP3 ADD SWAP1 POP SWAP2 SWAP1 POP JUMP JUMPDEST PUSH1 0x0 PUSH2 0x4653 DUP3 PUSH2 0x465A JUMP JUMPDEST SWAP1 POP SWAP2 SWAP1 POP JUMP JUMPDEST PUSH1 0x0 PUSH2 0x4665 DUP3 PUSH2 0x476A JUMP JUMPDEST SWAP1 POP SWAP2 SWAP1 POP JUMP JUMPDEST PUSH1 0x0 PUSH2 0x4677 DUP3 PUSH2 0x4550 JUMP JUMPDEST SWAP2 POP PUSH2 0x4682 DUP4 PUSH2 0x4550 JUMP JUMPDEST SWAP3 POP DUP3 PUSH2 0x4692 JUMPI PUSH2 0x4691 PUSH2 0x46CC JUMP JUMPDEST JUMPDEST DUP3 DUP3 MOD SWAP1 POP SWAP3 SWAP2 POP POP JUMP JUMPDEST PUSH32 0x4E487B7100000000000000000000000000000000000000000000000000000000 PUSH1 0x0 MSTORE PUSH1 0x11 PUSH1 0x4 MSTORE PUSH1 0x24 PUSH1 0x0 REVERT JUMPDEST PUSH32 0x4E487B7100000000000000000000000000000000000000000000000000000000 PUSH1 0x0 MSTORE PUSH1 0x12 PUSH1 0x4 MSTORE PUSH1 0x24 PUSH1 0x0 REVERT JUMPDEST PUSH32 0x4E487B7100000000000000000000000000000000000000000000000000000000 PUSH1 0x0 MSTORE PUSH1 0x22 PUSH1 0x4 MSTORE PUSH1 0x24 PUSH1 0x0 REVERT JUMPDEST PUSH32 0x4E487B7100000000000000000000000000000000000000000000000000000000 PUSH1 0x0 MSTORE PUSH1 0x41 PUSH1 0x4 MSTORE PUSH1 0x24 PUSH1 0x0 REVERT JUMPDEST PUSH1 0x0 PUSH1 0x1F NOT PUSH1 0x1F DUP4 ADD AND SWAP1 POP SWAP2 SWAP1 POP JUMP JUMPDEST PUSH1 0x0 DUP2 PUSH1 0x60 SHL SWAP1 POP SWAP2 SWAP1 POP JUMP JUMPDEST PUSH32 0x496E76616C69642070726F6F6621000000000000000000000000000000000000 PUSH1 0x0 DUP3 ADD MSTORE POP JUMP JUMPDEST PUSH32 0x4F776E61626C653A206E6577206F776E657220697320746865207A65726F2061 PUSH1 0x0 DUP3 ADD MSTORE PUSH32 0x6464726573730000000000000000000000000000000000000000000000000000 PUSH1 0x20 DUP3 ADD MSTORE POP JUMP JUMPDEST PUSH32 0x496E76616C6964206D696E7420616D6F756E7421000000000000000000000000 PUSH1 0x0 DUP3 ADD MSTORE POP JUMP JUMPDEST PUSH32 0x4F776E61626C653A2063616C6C6572206973206E6F7420746865206F776E6572 PUSH1 0x0 DUP3 ADD MSTORE POP JUMP JUMPDEST PUSH32 0x54686520636F6E74726163742069732070617573656421000000000000000000 PUSH1 0x0 DUP3 ADD MSTORE POP JUMP JUMPDEST PUSH32 0x4164647265737320616C726561647920636C61696D6564210000000000000000 PUSH1 0x0 DUP3 ADD MSTORE POP JUMP JUMPDEST PUSH32 0x4552433732314D657461646174613A2055524920717565727920666F72206E6F PUSH1 0x0 DUP3 ADD MSTORE PUSH32 0x6E6578697374656E7420746F6B656E0000000000000000000000000000000000 PUSH1 0x20 DUP3 ADD MSTORE POP JUMP JUMPDEST POP JUMP JUMPDEST PUSH32 0x4D617820737570706C7920657863656564656421000000000000000000000000 PUSH1 0x0 DUP3 ADD MSTORE POP JUMP JUMPDEST PUSH32 0x5468652077686974656C6973742073616C65206973206E6F7420656E61626C65 PUSH1 0x0 DUP3 ADD MSTORE PUSH32 0x6421000000000000000000000000000000000000000000000000000000000000 PUSH1 0x20 DUP3 ADD MSTORE POP JUMP JUMPDEST PUSH32 0x5265656E7472616E637947756172643A207265656E7472616E742063616C6C00 PUSH1 0x0 DUP3 ADD MSTORE POP JUMP JUMPDEST PUSH32 0x496E73756666696369656E742066756E64732100000000000000000000000000 PUSH1 0x0 DUP3 ADD MSTORE POP JUMP JUMPDEST PUSH2 0x49B8 DUP2 PUSH2 0x44DC JUMP JUMPDEST DUP2 EQ PUSH2 0x49C3 JUMPI PUSH1 0x0 DUP1 REVERT JUMPDEST POP JUMP JUMPDEST PUSH2 0x49CF DUP2 PUSH2 0x44EE JUMP JUMPDEST DUP2 EQ PUSH2 0x49DA JUMPI PUSH1 0x0 DUP1 REVERT JUMPDEST POP JUMP JUMPDEST PUSH2 0x49E6 DUP2 PUSH2 0x44FA JUMP JUMPDEST DUP2 EQ PUSH2 0x49F1 JUMPI PUSH1 0x0 DUP1 REVERT JUMPDEST POP JUMP JUMPDEST PUSH2 0x49FD DUP2 PUSH2 0x4504 JUMP JUMPDEST DUP2 EQ PUSH2 0x4A08 JUMPI PUSH1 0x0 DUP1 REVERT JUMPDEST POP JUMP JUMPDEST PUSH2 0x4A14 DUP2 PUSH2 0x4550 JUMP JUMPDEST DUP2 EQ PUSH2 0x4A1F JUMPI PUSH1 0x0 DUP1 REVERT JUMPDEST POP JUMP INVALID LOG2 PUSH5 0x6970667358 0x22 SLT KECCAK256 JUMPI CALLVALUE 0xD8 0xC9 PUSH30 0x6E67C2FEDC64E45D46810D3DDE37A58707A6EAFF569205E8D2F5B264736F PUSH13 0x63430008040033000000000000 "
        },
        "methodIdentifiers": {
          "approve(address,uint256)": "095ea7b3",
          "balanceOf(address)": "70a08231",
          "cost()": "13faede6",
          "getApproved(uint256)": "081812fc",
          "hiddenMetadataUri()": "a45ba8e7",
          "isApprovedForAll(address,address)": "e985e9c5",
          "maxMintAmountPerTx()": "94354fd0",
          "maxSupply()": "d5abeb01",
          "merkleRoot()": "2eb4a7ab",
          "mint(uint256)": "a0712d68",
          "mintForAddress(uint256,address)": "efbd73f4",
          "name()": "06fdde03",
          "owner()": "8da5cb5b",
          "ownerOf(uint256)": "6352211e",
          "paused()": "5c975abb",
          "renounceOwnership()": "715018a6",
          "revealed()": "51830227",
          "safeTransferFrom(address,address,uint256)": "42842e0e",
          "safeTransferFrom(address,address,uint256,bytes)": "b88d4fde",
          "setApprovalForAll(address,bool)": "a22cb465",
          "setCost(uint256)": "44a0d68a",
          "setHiddenMetadataUri(string)": "4fdd43cb",
          "setMaxMintAmountPerTx(uint256)": "b071401b",
          "setMerkleRoot(bytes32)": "7cb64759",
          "setPaused(bool)": "16c38b3c",
          "setRevealed(bool)": "e0a80853",
          "setUriPrefix(string)": "7ec4a659",
          "setUriSuffix(string)": "16ba10e0",
          "setWhitelistMintEnabled(bool)": "b767a098",
          "supportsInterface(bytes4)": "01ffc9a7",
          "symbol()": "95d89b41",
          "tokenURI(uint256)": "c87b56dd",
          "totalSupply()": "18160ddd",
          "transferFrom(address,address,uint256)": "23b872dd",
          "transferOwnership(address)": "f2fde38b",
          "uriPrefix()": "62b99ad4",
          "uriSuffix()": "5503a0e8",
          "walletOfOwner(address)": "438b6300",
          "whitelistClaimed(address)": "db4bec44",
          "whitelistMint(uint256,bytes32[])": "d2cab056",
          "whitelistMintEnabled()": "6caede3d",
          "withdraw()": "3ccfd60b"
        }
      }
    }
  }
}