{
  "_format": "hh-sol-artifact-1",
  "contractName": "PlanetsContract",
  "sourceName": "contracts/PlanetsContract.sol",
  "abi": [
    {
      "inputs": [
        {
          "internalType": "string",
          "name": "_tokenName",
          "type": "string"
        },
        {
          "internalType": "string",
          "name": "_tokenSymbol",
          "type": "string"
        },
        {
          "internalType": "uint256",
          "name": "_cost",
          "type": "uint256"
        },
        {
          "internalType": "uint256",
          "name": "_maxSupply",
          "type": "uint256"
        },
        {
          "internalType": "uint256",
          "name": "_maxMintAmountPerTx",
          "type": "uint256"
        },
        {
          "internalType": "string",
          "name": "_uriPrefix",
          "type": "string"
        },
        {
          "internalType": "string",
          "name": "_uriContractMetadata",
          "type": "string"
        }
      ],
      "stateMutability": "nonpayable",
      "type": "constructor"
    },
    {
      "inputs": [],
      "name": "ApprovalCallerNotOwnerNorApproved",
      "type": "error"
    },
    {
      "inputs": [],
      "name": "ApprovalQueryForNonexistentToken",
      "type": "error"
    },
    {
      "inputs": [],
      "name": "ApprovalToCurrentOwner",
      "type": "error"
    },
    {
      "inputs": [],
      "name": "ApproveToCaller",
      "type": "error"
    },
    {
      "inputs": [],
      "name": "BalanceQueryForZeroAddress",
      "type": "error"
    },
    {
      "inputs": [],
      "name": "MintToZeroAddress",
      "type": "error"
    },
    {
      "inputs": [],
      "name": "MintZeroQuantity",
      "type": "error"
    },
    {
      "inputs": [],
      "name": "OwnerQueryForNonexistentToken",
      "type": "error"
    },
    {
      "inputs": [],
      "name": "TransferCallerNotOwnerNorApproved",
      "type": "error"
    },
    {
      "inputs": [],
      "name": "TransferFromIncorrectOwner",
      "type": "error"
    },
    {
      "inputs": [],
      "name": "TransferToNonERC721ReceiverImplementer",
      "type": "error"
    },
    {
      "inputs": [],
      "name": "TransferToZeroAddress",
      "type": "error"
    },
    {
      "anonymous": false,
      "inputs": [
        {
          "indexed": true,
          "internalType": "address",
          "name": "owner",
          "type": "address"
        },
        {
          "indexed": true,
          "internalType": "address",
          "name": "approved",
          "type": "address"
        },
        {
          "indexed": true,
          "internalType": "uint256",
          "name": "tokenId",
          "type": "uint256"
        }
      ],
      "name": "Approval",
      "type": "event"
    },
    {
      "anonymous": false,
      "inputs": [
        {
          "indexed": true,
          "internalType": "address",
          "name": "owner",
          "type": "address"
        },
        {
          "indexed": true,
          "internalType": "address",
          "name": "operator",
          "type": "address"
        },
        {
          "indexed": false,
          "internalType": "bool",
          "name": "approved",
          "type": "bool"
        }
      ],
      "name": "ApprovalForAll",
      "type": "event"
    },
    {
      "anonymous": false,
      "inputs": [
        {
          "indexed": true,
          "internalType": "address",
          "name": "previousOwner",
          "type": "address"
        },
        {
          "indexed": true,
          "internalType": "address",
          "name": "newOwner",
          "type": "address"
        }
      ],
      "name": "OwnershipTransferred",
      "type": "event"
    },
    {
      "anonymous": false,
      "inputs": [
        {
          "indexed": true,
          "internalType": "address",
          "name": "from",
          "type": "address"
        },
        {
          "indexed": true,
          "internalType": "address",
          "name": "to",
          "type": "address"
        },
        {
          "indexed": true,
          "internalType": "uint256",
          "name": "tokenId",
          "type": "uint256"
        }
      ],
      "name": "Transfer",
      "type": "event"
    },
    {
      "inputs": [
        {
          "internalType": "address",
          "name": "to",
          "type": "address"
        },
        {
          "internalType": "uint256",
          "name": "tokenId",
          "type": "uint256"
        }
      ],
      "name": "approve",
      "outputs": [],
      "stateMutability": "nonpayable",
      "type": "function"
    },
    {
      "inputs": [
        {
          "internalType": "address",
          "name": "owner",
          "type": "address"
        }
      ],
      "name": "balanceOf",
      "outputs": [
        {
          "internalType": "uint256",
          "name": "",
          "type": "uint256"
        }
      ],
      "stateMutability": "view",
      "type": "function"
    },
    {
      "inputs": [],
      "name": "contractMetadataUri",
      "outputs": [
        {
          "internalType": "string",
          "name": "",
          "type": "string"
        }
      ],
      "stateMutability": "view",
      "type": "function"
    },
    {
      "inputs": [],
      "name": "contractURI",
      "outputs": [
        {
          "internalType": "string",
          "name": "",
          "type": "string"
        }
      ],
      "stateMutability": "view",
      "type": "function"
    },
    {
      "inputs": [],
      "name": "cost",
      "outputs": [
        {
          "internalType": "uint256",
          "name": "",
          "type": "uint256"
        }
      ],
      "stateMutability": "view",
      "type": "function"
    },
    {
      "inputs": [
        {
          "internalType": "uint256",
          "name": "tokenId",
          "type": "uint256"
        }
      ],
      "name": "getApproved",
      "outputs": [
        {
          "internalType": "address",
          "name": "",
          "type": "address"
        }
      ],
      "stateMutability": "view",
      "type": "function"
    },
    {
      "inputs": [],
      "name": "hiddenMetadataUri",
      "outputs": [
        {
          "internalType": "string",
          "name": "",
          "type": "string"
        }
      ],
      "stateMutability": "view",
      "type": "function"
    },
    {
      "inputs": [
        {
          "internalType": "address",
          "name": "owner",
          "type": "address"
        },
        {
          "internalType": "address",
          "name": "operator",
          "type": "address"
        }
      ],
      "name": "isApprovedForAll",
      "outputs": [
        {
          "internalType": "bool",
          "name": "",
          "type": "bool"
        }
      ],
      "stateMutability": "view",
      "type": "function"
    },
    {
      "inputs": [],
      "name": "maxMintAmountPerTx",
      "outputs": [
        {
          "internalType": "uint256",
          "name": "",
          "type": "uint256"
        }
      ],
      "stateMutability": "view",
      "type": "function"
    },
    {
      "inputs": [],
      "name": "maxSupply",
      "outputs": [
        {
          "internalType": "uint256",
          "name": "",
          "type": "uint256"
        }
      ],
      "stateMutability": "view",
      "type": "function"
    },
    {
      "inputs": [],
      "name": "merkleRoot",
      "outputs": [
        {
          "internalType": "bytes32",
          "name": "",
          "type": "bytes32"
        }
      ],
      "stateMutability": "view",
      "type": "function"
    },
    {
      "inputs": [
        {
          "internalType": "uint256",
          "name": "_mintAmount",
          "type": "uint256"
        }
      ],
      "name": "mint",
      "outputs": [],
      "stateMutability": "payable",
      "type": "function"
    },
    {
      "inputs": [
        {
          "internalType": "uint256",
          "name": "_mintAmount",
          "type": "uint256"
        },
        {
          "internalType": "address",
          "name": "_receiver",
          "type": "address"
        }
      ],
      "name": "mintForAddress",
      "outputs": [],
      "stateMutability": "nonpayable",
      "type": "function"
    },
    {
      "inputs": [],
      "name": "name",
      "outputs": [
        {
          "internalType": "string",
          "name": "",
          "type": "string"
        }
      ],
      "stateMutability": "view",
      "type": "function"
    },
    {
      "inputs": [],
      "name": "owner",
      "outputs": [
        {
          "internalType": "address",
          "name": "",
          "type": "address"
        }
      ],
      "stateMutability": "view",
      "type": "function"
    },
    {
      "inputs": [
        {
          "internalType": "uint256",
          "name": "tokenId",
          "type": "uint256"
        }
      ],
      "name": "ownerOf",
      "outputs": [
        {
          "internalType": "address",
          "name": "",
          "type": "address"
        }
      ],
      "stateMutability": "view",
      "type": "function"
    },
    {
      "inputs": [],
      "name": "paused",
      "outputs": [
        {
          "internalType": "bool",
          "name": "",
          "type": "bool"
        }
      ],
      "stateMutability": "view",
      "type": "function"
    },
    {
      "inputs": [],
      "name": "renounceOwnership",
      "outputs": [],
      "stateMutability": "nonpayable",
      "type": "function"
    },
    {
      "inputs": [],
      "name": "revealed",
      "outputs": [
        {
          "internalType": "bool",
          "name": "",
          "type": "bool"
        }
      ],
      "stateMutability": "view",
      "type": "function"
    },
    {
      "inputs": [
        {
          "internalType": "address",
          "name": "from",
          "type": "address"
        },
        {
          "internalType": "address",
          "name": "to",
          "type": "address"
        },
        {
          "internalType": "uint256",
          "name": "tokenId",
          "type": "uint256"
        }
      ],
      "name": "safeTransferFrom",
      "outputs": [],
      "stateMutability": "nonpayable",
      "type": "function"
    },
    {
      "inputs": [
        {
          "internalType": "address",
          "name": "from",
          "type": "address"
        },
        {
          "internalType": "address",
          "name": "to",
          "type": "address"
        },
        {
          "internalType": "uint256",
          "name": "tokenId",
          "type": "uint256"
        },
        {
          "internalType": "bytes",
          "name": "_data",
          "type": "bytes"
        }
      ],
      "name": "safeTransferFrom",
      "outputs": [],
      "stateMutability": "nonpayable",
      "type": "function"
    },
    {
      "inputs": [
        {
          "internalType": "address",
          "name": "operator",
          "type": "address"
        },
        {
          "internalType": "bool",
          "name": "approved",
          "type": "bool"
        }
      ],
      "name": "setApprovalForAll",
      "outputs": [],
      "stateMutability": "nonpayable",
      "type": "function"
    },
    {
      "inputs": [
        {
          "internalType": "string",
          "name": "_uriContractMetadata",
          "type": "string"
        }
      ],
      "name": "setContractURI",
      "outputs": [],
      "stateMutability": "nonpayable",
      "type": "function"
    },
    {
      "inputs": [
        {
          "internalType": "uint256",
          "name": "_cost",
          "type": "uint256"
        }
      ],
      "name": "setCost",
      "outputs": [],
      "stateMutability": "nonpayable",
      "type": "function"
    },
    {
      "inputs": [
        {
          "internalType": "string",
          "name": "_hiddenMetadataUri",
          "type": "string"
        }
      ],
      "name": "setHiddenMetadataUri",
      "outputs": [],
      "stateMutability": "nonpayable",
      "type": "function"
    },
    {
      "inputs": [
        {
          "internalType": "uint256",
          "name": "_maxMintAmountPerTx",
          "type": "uint256"
        }
      ],
      "name": "setMaxMintAmountPerTx",
      "outputs": [],
      "stateMutability": "nonpayable",
      "type": "function"
    },
    {
      "inputs": [
        {
          "internalType": "bytes32",
          "name": "_merkleRoot",
          "type": "bytes32"
        }
      ],
      "name": "setMerkleRoot",
      "outputs": [],
      "stateMutability": "nonpayable",
      "type": "function"
    },
    {
      "inputs": [
        {
          "internalType": "bool",
          "name": "_state",
          "type": "bool"
        }
      ],
      "name": "setPaused",
      "outputs": [],
      "stateMutability": "nonpayable",
      "type": "function"
    },
    {
      "inputs": [
        {
          "internalType": "bool",
          "name": "_state",
          "type": "bool"
        }
      ],
      "name": "setRevealed",
      "outputs": [],
      "stateMutability": "nonpayable",
      "type": "function"
    },
    {
      "inputs": [
        {
          "internalType": "string",
          "name": "_uriPrefix",
          "type": "string"
        }
      ],
      "name": "setUriPrefix",
      "outputs": [],
      "stateMutability": "nonpayable",
      "type": "function"
    },
    {
      "inputs": [
        {
          "internalType": "string",
          "name": "_uriSuffix",
          "type": "string"
        }
      ],
      "name": "setUriSuffix",
      "outputs": [],
      "stateMutability": "nonpayable",
      "type": "function"
    },
    {
      "inputs": [
        {
          "internalType": "bool",
          "name": "_state",
          "type": "bool"
        }
      ],
      "name": "setWhitelistMintEnabled",
      "outputs": [],
      "stateMutability": "nonpayable",
      "type": "function"
    },
    {
      "inputs": [
        {
          "internalType": "bytes4",
          "name": "interfaceId",
          "type": "bytes4"
        }
      ],
      "name": "supportsInterface",
      "outputs": [
        {
          "internalType": "bool",
          "name": "",
          "type": "bool"
        }
      ],
      "stateMutability": "view",
      "type": "function"
    },
    {
      "inputs": [],
      "name": "symbol",
      "outputs": [
        {
          "internalType": "string",
          "name": "",
          "type": "string"
        }
      ],
      "stateMutability": "view",
      "type": "function"
    },
    {
      "inputs": [
        {
          "internalType": "uint256",
          "name": "_tokenId",
          "type": "uint256"
        }
      ],
      "name": "tokenURI",
      "outputs": [
        {
          "internalType": "string",
          "name": "",
          "type": "string"
        }
      ],
      "stateMutability": "view",
      "type": "function"
    },
    {
      "inputs": [],
      "name": "totalSupply",
      "outputs": [
        {
          "internalType": "uint256",
          "name": "",
          "type": "uint256"
        }
      ],
      "stateMutability": "view",
      "type": "function"
    },
    {
      "inputs": [
        {
          "internalType": "address",
          "name": "from",
          "type": "address"
        },
        {
          "internalType": "address",
          "name": "to",
          "type": "address"
        },
        {
          "internalType": "uint256",
          "name": "tokenId",
          "type": "uint256"
        }
      ],
      "name": "transferFrom",
      "outputs": [],
      "stateMutability": "nonpayable",
      "type": "function"
    },
    {
      "inputs": [
        {
          "internalType": "address",
          "name": "newOwner",
          "type": "address"
        }
      ],
      "name": "transferOwnership",
      "outputs": [],
      "stateMutability": "nonpayable",
      "type": "function"
    },
    {
      "inputs": [],
      "name": "uriPrefix",
      "outputs": [
        {
          "internalType": "string",
          "name": "",
          "type": "string"
        }
      ],
      "stateMutability": "view",
      "type": "function"
    },
    {
      "inputs": [],
      "name": "uriSuffix",
      "outputs": [
        {
          "internalType": "string",
          "name": "",
          "type": "string"
        }
      ],
      "stateMutability": "view",
      "type": "function"
    },
    {
      "inputs": [
        {
          "internalType": "address",
          "name": "_owner",
          "type": "address"
        }
      ],
      "name": "walletOfOwner",
      "outputs": [
        {
          "internalType": "uint256[]",
          "name": "",
          "type": "uint256[]"
        }
      ],
      "stateMutability": "view",
      "type": "function"
    },
    {
      "inputs": [
        {
          "internalType": "address",
          "name": "",
          "type": "address"
        }
      ],
      "name": "whitelistClaimed",
      "outputs": [
        {
          "internalType": "bool",
          "name": "",
          "type": "bool"
        }
      ],
      "stateMutability": "view",
      "type": "function"
    },
    {
      "inputs": [
        {
          "internalType": "uint256",
          "name": "_mintAmount",
          "type": "uint256"
        },
        {
          "internalType": "bytes32[]",
          "name": "_merkleProof",
          "type": "bytes32[]"
        }
      ],
      "name": "whitelistMint",
      "outputs": [],
      "stateMutability": "payable",
      "type": "function"
    },
    {
      "inputs": [],
      "name": "whitelistMintEnabled",
      "outputs": [
        {
          "internalType": "bool",
          "name": "",
          "type": "bool"
        }
      ],
      "stateMutability": "view",
      "type": "function"
    },
    {
      "inputs": [],
      "name": "withdraw",
      "outputs": [],
      "stateMutability": "nonpayable",
      "type": "function"
    }
  ],
  "bytecode": "0x608060405260405180602001604052806000815250600c90805190602001906200002b92919062000553565b506040518060400160405280600581526020017f2e6a736f6e000000000000000000000000000000000000000000000000000000815250600d90805190602001906200007992919062000553565b506000601360006101000a81548160ff0219169083151502179055506000601360016101000a81548160ff0219169083151502179055506001601360026101000a81548160ff021916908315150217905550348015620000d857600080fd5b50604051620056c3380380620056c38339818101604052810190620000fe9190620007db565b868681600290805190602001906200011892919062000553565b5080600390805190602001906200013192919062000553565b5062000142620001ca60201b60201c565b60008190555050506200016a6200015e620001d360201b60201c565b620001db60201b60201c565b60016009819055506200018385620002a160201b60201c565b836011819055506200019b836200033a60201b60201c565b620001ac82620003d360201b60201c565b620001bd816200047e60201b60201c565b50505050505050620009f2565b60006001905090565b600033905090565b6000600860009054906101000a900473ffffffffffffffffffffffffffffffffffffffff16905081600860006101000a81548173ffffffffffffffffffffffffffffffffffffffff021916908373ffffffffffffffffffffffffffffffffffffffff1602179055508173ffffffffffffffffffffffffffffffffffffffff168173ffffffffffffffffffffffffffffffffffffffff167f8be0079c531659141344cd1fd0a4f28419497f9722a3daafe3b4186f6b6457e060405160405180910390a35050565b620002b1620001d360201b60201c565b73ffffffffffffffffffffffffffffffffffffffff16620002d76200052960201b60201c565b73ffffffffffffffffffffffffffffffffffffffff161462000330576040517f08c379a000000000000000000000000000000000000000000000000000000000815260040162000327906200096b565b60405180910390fd5b8060108190555050565b6200034a620001d360201b60201c565b73ffffffffffffffffffffffffffffffffffffffff16620003706200052960201b60201c565b73ffffffffffffffffffffffffffffffffffffffff1614620003c9576040517f08c379a0000000000000000000000000000000000000000000000000000000008152600401620003c0906200096b565b60405180910390fd5b8060128190555050565b620003e3620001d360201b60201c565b73ffffffffffffffffffffffffffffffffffffffff16620004096200052960201b60201c565b73ffffffffffffffffffffffffffffffffffffffff161462000462576040517f08c379a000000000000000000000000000000000000000000000000000000000815260040162000459906200096b565b60405180910390fd5b80600c90805190602001906200047a92919062000553565b5050565b6200048e620001d360201b60201c565b73ffffffffffffffffffffffffffffffffffffffff16620004b46200052960201b60201c565b73ffffffffffffffffffffffffffffffffffffffff16146200050d576040517f08c379a000000000000000000000000000000000000000000000000000000000815260040162000504906200096b565b60405180910390fd5b80600f90805190602001906200052592919062000553565b5050565b6000600860009054906101000a900473ffffffffffffffffffffffffffffffffffffffff16905090565b8280546200056190620009bc565b90600052602060002090601f016020900481019282620005855760008555620005d1565b82601f10620005a057805160ff1916838001178555620005d1565b82800160010185558215620005d1579182015b82811115620005d0578251825591602001919060010190620005b3565b5b509050620005e09190620005e4565b5090565b5b80821115620005ff576000816000905550600101620005e5565b5090565b6000604051905090565b600080fd5b600080fd5b600080fd5b600080fd5b6000601f19601f8301169050919050565b7f4e487b7100000000000000000000000000000000000000000000000000000000600052604160045260246000fd5b6200066c8262000621565b810181811067ffffffffffffffff821117156200068e576200068d62000632565b5b80604052505050565b6000620006a362000603565b9050620006b1828262000661565b919050565b600067ffffffffffffffff821115620006d457620006d362000632565b5b620006df8262000621565b9050602081019050919050565b60005b838110156200070c578082015181840152602081019050620006ef565b838111156200071c576000848401525b50505050565b6000620007396200073384620006b6565b62000697565b9050828152602081018484840111156200075857620007576200061c565b5b62000765848285620006ec565b509392505050565b600082601f83011262000785576200078462000617565b5b81516200079784826020860162000722565b91505092915050565b6000819050919050565b620007b581620007a0565b8114620007c157600080fd5b50565b600081519050620007d581620007aa565b92915050565b600080600080600080600060e0888a031215620007fd57620007fc6200060d565b5b600088015167ffffffffffffffff8111156200081e576200081d62000612565b5b6200082c8a828b016200076d565b975050602088015167ffffffffffffffff81111562000850576200084f62000612565b5b6200085e8a828b016200076d565b9650506040620008718a828b01620007c4565b9550506060620008848a828b01620007c4565b9450506080620008978a828b01620007c4565b93505060a088015167ffffffffffffffff811115620008bb57620008ba62000612565b5b620008c98a828b016200076d565b92505060c088015167ffffffffffffffff811115620008ed57620008ec62000612565b5b620008fb8a828b016200076d565b91505092959891949750929550565b600082825260208201905092915050565b7f4f776e61626c653a2063616c6c6572206973206e6f7420746865206f776e6572600082015250565b6000620009536020836200090a565b915062000960826200091b565b602082019050919050565b60006020820190508181036000830152620009868162000944565b9050919050565b7f4e487b7100000000000000000000000000000000000000000000000000000000600052602260045260246000fd5b60006002820490506001821680620009d557607f821691505b60208210811415620009ec57620009eb6200098d565b5b50919050565b614cc18062000a026000396000f3fe6080604052600436106102725760003560e01c8063715018a61161014f578063b767a098116100c1578063db4bec441161007a578063db4bec441461090e578063e0a808531461094b578063e8a3d48514610974578063e985e9c51461099f578063efbd73f4146109dc578063f2fde38b14610a0557610272565b8063b767a0981461080d578063b88d4fde14610836578063ba66a5f91461085f578063c87b56dd1461088a578063d2cab056146108c7578063d5abeb01146108e357610272565b806394354fd01161011357806394354fd01461071e57806395d89b4114610749578063a0712d6814610774578063a22cb46514610790578063a45ba8e7146107b9578063b071401b146107e457610272565b8063715018a6146106615780637cb64759146106785780637ec4a659146106a15780638da5cb5b146106ca578063938e3d7b146106f557610272565b806342842e0e116101e85780635503a0e8116101ac5780635503a0e81461053b5780635c975abb1461056657806362b99ad4146105915780636352211e146105bc5780636caede3d146105f957806370a082311461062457610272565b806342842e0e14610458578063438b63001461048157806344a0d68a146104be5780634fdd43cb146104e7578063518302271461051057610272565b806316ba10e01161023a57806316ba10e01461037057806316c38b3c1461039957806318160ddd146103c257806323b872dd146103ed5780632eb4a7ab146104165780633ccfd60b1461044157610272565b806301ffc9a71461027757806306fdde03146102b4578063081812fc146102df578063095ea7b31461031c57806313faede614610345575b600080fd5b34801561028357600080fd5b5061029e60048036038101906102999190613990565b610a2e565b6040516102ab91906139d8565b60405180910390f35b3480156102c057600080fd5b506102c9610b10565b6040516102d69190613a8c565b60405180910390f35b3480156102eb57600080fd5b5061030660048036038101906103019190613ae4565b610ba2565b6040516103139190613b52565b60405180910390f35b34801561032857600080fd5b50610343600480360381019061033e9190613b99565b610c1e565b005b34801561035157600080fd5b5061035a610d29565b6040516103679190613be8565b60405180910390f35b34801561037c57600080fd5b5061039760048036038101906103929190613d38565b610d2f565b005b3480156103a557600080fd5b506103c060048036038101906103bb9190613dad565b610dc5565b005b3480156103ce57600080fd5b506103d7610e5e565b6040516103e49190613be8565b60405180910390f35b3480156103f957600080fd5b50610414600480360381019061040f9190613dda565b610e75565b005b34801561042257600080fd5b5061042b610e85565b6040516104389190613e46565b60405180910390f35b34801561044d57600080fd5b50610456610e8b565b005b34801561046457600080fd5b5061047f600480360381019061047a9190613dda565b610fdd565b005b34801561048d57600080fd5b506104a860048036038101906104a39190613e61565b610ffd565b6040516104b59190613f4c565b60405180910390f35b3480156104ca57600080fd5b506104e560048036038101906104e09190613ae4565b611211565b005b3480156104f357600080fd5b5061050e60048036038101906105099190613d38565b611297565b005b34801561051c57600080fd5b5061052561132d565b60405161053291906139d8565b60405180910390f35b34801561054757600080fd5b50610550611340565b60405161055d9190613a8c565b60405180910390f35b34801561057257600080fd5b5061057b6113ce565b60405161058891906139d8565b60405180910390f35b34801561059d57600080fd5b506105a66113e1565b6040516105b39190613a8c565b60405180910390f35b3480156105c857600080fd5b506105e360048036038101906105de9190613ae4565b61146f565b6040516105f09190613b52565b60405180910390f35b34801561060557600080fd5b5061060e611485565b60405161061b91906139d8565b60405180910390f35b34801561063057600080fd5b5061064b60048036038101906106469190613e61565b611498565b6040516106589190613be8565b60405180910390f35b34801561066d57600080fd5b50610676611568565b005b34801561068457600080fd5b5061069f600480360381019061069a9190613f9a565b6115f0565b005b3480156106ad57600080fd5b506106c860048036038101906106c39190613d38565b611676565b005b3480156106d657600080fd5b506106df61170c565b6040516106ec9190613b52565b60405180910390f35b34801561070157600080fd5b5061071c60048036038101906107179190613d38565b611736565b005b34801561072a57600080fd5b506107336117cc565b6040516107409190613be8565b60405180910390f35b34801561075557600080fd5b5061075e6117d2565b60405161076b9190613a8c565b60405180910390f35b61078e60048036038101906107899190613ae4565b611864565b005b34801561079c57600080fd5b506107b760048036038101906107b29190613fc7565b6119cb565b005b3480156107c557600080fd5b506107ce611b43565b6040516107db9190613a8c565b60405180910390f35b3480156107f057600080fd5b5061080b60048036038101906108069190613ae4565b611bd1565b005b34801561081957600080fd5b50610834600480360381019061082f9190613dad565b611c57565b005b34801561084257600080fd5b5061085d600480360381019061085891906140a8565b611cf0565b005b34801561086b57600080fd5b50610874611d6c565b6040516108819190613a8c565b60405180910390f35b34801561089657600080fd5b506108b160048036038101906108ac9190613ae4565b611dfa565b6040516108be9190613a8c565b60405180910390f35b6108e160048036038101906108dc919061418b565b611f53565b005b3480156108ef57600080fd5b506108f861226e565b6040516109059190613be8565b60405180910390f35b34801561091a57600080fd5b5061093560048036038101906109309190613e61565b612274565b60405161094291906139d8565b60405180910390f35b34801561095757600080fd5b50610972600480360381019061096d9190613dad565b612294565b005b34801561098057600080fd5b5061098961232d565b6040516109969190613a8c565b60405180910390f35b3480156109ab57600080fd5b506109c660048036038101906109c191906141eb565b6123bf565b6040516109d391906139d8565b60405180910390f35b3480156109e857600080fd5b50610a0360048036038101906109fe919061422b565b612453565b005b348015610a1157600080fd5b50610a2c6004803603810190610a279190613e61565b612587565b005b60007f80ac58cd000000000000000000000000000000000000000000000000000000007bffffffffffffffffffffffffffffffffffffffffffffffffffffffff1916827bffffffffffffffffffffffffffffffffffffffffffffffffffffffff19161480610af957507f5b5e139f000000000000000000000000000000000000000000000000000000007bffffffffffffffffffffffffffffffffffffffffffffffffffffffff1916827bffffffffffffffffffffffffffffffffffffffffffffffffffffffff1916145b80610b095750610b088261267f565b5b9050919050565b606060028054610b1f9061429a565b80601f0160208091040260200160405190810160405280929190818152602001828054610b4b9061429a565b8015610b985780601f10610b6d57610100808354040283529160200191610b98565b820191906000526020600020905b815481529060010190602001808311610b7b57829003601f168201915b5050505050905090565b6000610bad826126e9565b610be3576040517fcf4700e400000000000000000000000000000000000000000000000000000000815260040160405180910390fd5b6006600083815260200190815260200160002060009054906101000a900473ffffffffffffffffffffffffffffffffffffffff169050919050565b6000610c298261146f565b90508073ffffffffffffffffffffffffffffffffffffffff168373ffffffffffffffffffffffffffffffffffffffff161415610c91576040517f943f7b8c00000000000000000000000000000000000000000000000000000000815260040160405180910390fd5b8073ffffffffffffffffffffffffffffffffffffffff16610cb0612737565b73ffffffffffffffffffffffffffffffffffffffff1614158015610ce25750610ce081610cdb612737565b6123bf565b155b15610d19576040517fcfb3b94200000000000000000000000000000000000000000000000000000000815260040160405180910390fd5b610d2483838361273f565b505050565b60105481565b610d37612737565b73ffffffffffffffffffffffffffffffffffffffff16610d5561170c565b73ffffffffffffffffffffffffffffffffffffffff1614610dab576040517f08c379a0000000000000000000000000000000000000000000000000000000008152600401610da290614318565b60405180910390fd5b80600d9080519060200190610dc192919061383e565b5050565b610dcd612737565b73ffffffffffffffffffffffffffffffffffffffff16610deb61170c565b73ffffffffffffffffffffffffffffffffffffffff1614610e41576040517f08c379a0000000000000000000000000000000000000000000000000000000008152600401610e3890614318565b60405180910390fd5b80601360006101000a81548160ff02191690831515021790555050565b6000610e686127f1565b6001546000540303905090565b610e808383836127fa565b505050565b600a5481565b610e93612737565b73ffffffffffffffffffffffffffffffffffffffff16610eb161170c565b73ffffffffffffffffffffffffffffffffffffffff1614610f07576040517f08c379a0000000000000000000000000000000000000000000000000000000008152600401610efe90614318565b60405180910390fd5b60026009541415610f4d576040517f08c379a0000000000000000000000000000000000000000000000000000000008152600401610f4490614384565b60405180910390fd5b60026009819055506000610f5f61170c565b73ffffffffffffffffffffffffffffffffffffffff1647604051610f82906143d5565b60006040518083038185875af1925050503d8060008114610fbf576040519150601f19603f3d011682016040523d82523d6000602084013e610fc4565b606091505b5050905080610fd257600080fd5b506001600981905550565b610ff883838360405180602001604052806000815250611cf0565b505050565b6060600061100a83611498565b905060008167ffffffffffffffff81111561102857611027613c0d565b5b6040519080825280602002602001820160405280156110565781602001602082028036833780820191505090505b50905060006110636127f1565b90506000805b8482108015611079575060005483105b15611204576000600460008581526020019081526020016000206040518060600160405290816000820160009054906101000a900473ffffffffffffffffffffffffffffffffffffffff1673ffffffffffffffffffffffffffffffffffffffff1673ffffffffffffffffffffffffffffffffffffffff1681526020016000820160149054906101000a900467ffffffffffffffff1667ffffffffffffffff1667ffffffffffffffff16815260200160008201601c9054906101000a900460ff161515151581525050905080604001516111f057600073ffffffffffffffffffffffffffffffffffffffff16816000015173ffffffffffffffffffffffffffffffffffffffff161461118c57806000015191505b8773ffffffffffffffffffffffffffffffffffffffff168273ffffffffffffffffffffffffffffffffffffffff1614156111ef57838584815181106111d4576111d36143ea565b5b60200260200101818152505082806111eb90614448565b9350505b5b83806111fb90614448565b94505050611069565b8395505050505050919050565b611219612737565b73ffffffffffffffffffffffffffffffffffffffff1661123761170c565b73ffffffffffffffffffffffffffffffffffffffff161461128d576040517f08c379a000000000000000000000000000000000000000000000000000000000815260040161128490614318565b60405180910390fd5b8060108190555050565b61129f612737565b73ffffffffffffffffffffffffffffffffffffffff166112bd61170c565b73ffffffffffffffffffffffffffffffffffffffff1614611313576040517f08c379a000000000000000000000000000000000000000000000000000000000815260040161130a90614318565b60405180910390fd5b80600e908051906020019061132992919061383e565b5050565b601360029054906101000a900460ff1681565b600d805461134d9061429a565b80601f01602080910402602001604051908101604052809291908181526020018280546113799061429a565b80156113c65780601f1061139b576101008083540402835291602001916113c6565b820191906000526020600020905b8154815290600101906020018083116113a957829003601f168201915b505050505081565b601360009054906101000a900460ff1681565b600c80546113ee9061429a565b80601f016020809104026020016040519081016040528092919081815260200182805461141a9061429a565b80156114675780601f1061143c57610100808354040283529160200191611467565b820191906000526020600020905b81548152906001019060200180831161144a57829003601f168201915b505050505081565b600061147a82612cb0565b600001519050919050565b601360019054906101000a900460ff1681565b60008073ffffffffffffffffffffffffffffffffffffffff168273ffffffffffffffffffffffffffffffffffffffff161415611500576040517f8f4eb60400000000000000000000000000000000000000000000000000000000815260040160405180910390fd5b600560008373ffffffffffffffffffffffffffffffffffffffff1673ffffffffffffffffffffffffffffffffffffffff16815260200190815260200160002060000160009054906101000a900467ffffffffffffffff1667ffffffffffffffff169050919050565b611570612737565b73ffffffffffffffffffffffffffffffffffffffff1661158e61170c565b73ffffffffffffffffffffffffffffffffffffffff16146115e4576040517f08c379a00000000000000000000000000000000000000000000000000000000081526004016115db90614318565b60405180910390fd5b6115ee6000612f3f565b565b6115f8612737565b73ffffffffffffffffffffffffffffffffffffffff1661161661170c565b73ffffffffffffffffffffffffffffffffffffffff161461166c576040517f08c379a000000000000000000000000000000000000000000000000000000000815260040161166390614318565b60405180910390fd5b80600a8190555050565b61167e612737565b73ffffffffffffffffffffffffffffffffffffffff1661169c61170c565b73ffffffffffffffffffffffffffffffffffffffff16146116f2576040517f08c379a00000000000000000000000000000000000000000000000000000000081526004016116e990614318565b60405180910390fd5b80600c908051906020019061170892919061383e565b5050565b6000600860009054906101000a900473ffffffffffffffffffffffffffffffffffffffff16905090565b61173e612737565b73ffffffffffffffffffffffffffffffffffffffff1661175c61170c565b73ffffffffffffffffffffffffffffffffffffffff16146117b2576040517f08c379a00000000000000000000000000000000000000000000000000000000081526004016117a990614318565b60405180910390fd5b80600f90805190602001906117c892919061383e565b5050565b60125481565b6060600380546117e19061429a565b80601f016020809104026020016040519081016040528092919081815260200182805461180d9061429a565b801561185a5780601f1061182f5761010080835404028352916020019161185a565b820191906000526020600020905b81548152906001019060200180831161183d57829003601f168201915b5050505050905090565b8060008111801561187757506012548111155b6118b6576040517f08c379a00000000000000000000000000000000000000000000000000000000081526004016118ad906144dd565b60405180910390fd5b601154816118c2610e5e565b6118cc91906144fd565b111561190d576040517f08c379a00000000000000000000000000000000000000000000000000000000081526004016119049061459f565b60405180910390fd5b816119238160105461300590919063ffffffff16565b341015611965576040517f08c379a000000000000000000000000000000000000000000000000000000000815260040161195c9061460b565b60405180910390fd5b601360009054906101000a900460ff16156119b5576040517f08c379a00000000000000000000000000000000000000000000000000000000081526004016119ac90614677565b60405180910390fd5b6119c66119c0612737565b8461301b565b505050565b6119d3612737565b73ffffffffffffffffffffffffffffffffffffffff168273ffffffffffffffffffffffffffffffffffffffff161415611a38576040517fb06307db00000000000000000000000000000000000000000000000000000000815260040160405180910390fd5b8060076000611a45612737565b73ffffffffffffffffffffffffffffffffffffffff1673ffffffffffffffffffffffffffffffffffffffff16815260200190815260200160002060008473ffffffffffffffffffffffffffffffffffffffff1673ffffffffffffffffffffffffffffffffffffffff16815260200190815260200160002060006101000a81548160ff0219169083151502179055508173ffffffffffffffffffffffffffffffffffffffff16611af2612737565b73ffffffffffffffffffffffffffffffffffffffff167f17307eab39ab6107e8899845ad3d59bd9653f200f220920489ca2b5937696c3183604051611b3791906139d8565b60405180910390a35050565b600e8054611b509061429a565b80601f0160208091040260200160405190810160405280929190818152602001828054611b7c9061429a565b8015611bc95780601f10611b9e57610100808354040283529160200191611bc9565b820191906000526020600020905b815481529060010190602001808311611bac57829003601f168201915b505050505081565b611bd9612737565b73ffffffffffffffffffffffffffffffffffffffff16611bf761170c565b73ffffffffffffffffffffffffffffffffffffffff1614611c4d576040517f08c379a0000000000000000000000000000000000000000000000000000000008152600401611c4490614318565b60405180910390fd5b8060128190555050565b611c5f612737565b73ffffffffffffffffffffffffffffffffffffffff16611c7d61170c565b73ffffffffffffffffffffffffffffffffffffffff1614611cd3576040517f08c379a0000000000000000000000000000000000000000000000000000000008152600401611cca90614318565b60405180910390fd5b80601360016101000a81548160ff02191690831515021790555050565b611cfb8484846127fa565b611d1a8373ffffffffffffffffffffffffffffffffffffffff16613039565b8015611d2f5750611d2d8484848461305c565b155b15611d66576040517fd1a57ed600000000000000000000000000000000000000000000000000000000815260040160405180910390fd5b50505050565b600f8054611d799061429a565b80601f0160208091040260200160405190810160405280929190818152602001828054611da59061429a565b8015611df25780601f10611dc757610100808354040283529160200191611df2565b820191906000526020600020905b815481529060010190602001808311611dd557829003601f168201915b505050505081565b6060611e05826126e9565b611e44576040517f08c379a0000000000000000000000000000000000000000000000000000000008152600401611e3b90614709565b60405180910390fd5b60001515601360029054906101000a900460ff1615151415611ef257600e8054611e6d9061429a565b80601f0160208091040260200160405190810160405280929190818152602001828054611e999061429a565b8015611ee65780601f10611ebb57610100808354040283529160200191611ee6565b820191906000526020600020905b815481529060010190602001808311611ec957829003601f168201915b50505050509050611f4e565b6000611efc6131bc565b90506000815111611f1c5760405180602001604052806000815250611f4a565b80611f268461324e565b600d604051602001611f3a939291906147f9565b6040516020818303038152906040525b9150505b919050565b82600081118015611f6657506012548111155b611fa5576040517f08c379a0000000000000000000000000000000000000000000000000000000008152600401611f9c906144dd565b60405180910390fd5b60115481611fb1610e5e565b611fbb91906144fd565b1115611ffc576040517f08c379a0000000000000000000000000000000000000000000000000000000008152600401611ff39061459f565b60405180910390fd5b836120128160105461300590919063ffffffff16565b341015612054576040517f08c379a000000000000000000000000000000000000000000000000000000000815260040161204b9061460b565b60405180910390fd5b601360019054906101000a900460ff166120a3576040517f08c379a000000000000000000000000000000000000000000000000000000000815260040161209a9061489c565b60405180910390fd5b600b60006120af612737565b73ffffffffffffffffffffffffffffffffffffffff1673ffffffffffffffffffffffffffffffffffffffff16815260200190815260200160002060009054906101000a900460ff1615612137576040517f08c379a000000000000000000000000000000000000000000000000000000000815260040161212e90614908565b60405180910390fd5b6000612141612737565b6040516020016121519190614970565b6040516020818303038152906040528051906020012090506121b7858580806020026020016040519081016040528093929190818152602001838360200280828437600081840152601f19601f82011690508083019250505050505050600a54836133af565b6121f6576040517f08c379a00000000000000000000000000000000000000000000000000000000081526004016121ed906149d7565b60405180910390fd5b6001600b6000612204612737565b73ffffffffffffffffffffffffffffffffffffffff1673ffffffffffffffffffffffffffffffffffffffff16815260200190815260200160002060006101000a81548160ff021916908315150217905550612266612260612737565b8761301b565b505050505050565b60115481565b600b6020528060005260406000206000915054906101000a900460ff1681565b61229c612737565b73ffffffffffffffffffffffffffffffffffffffff166122ba61170c565b73ffffffffffffffffffffffffffffffffffffffff1614612310576040517f08c379a000000000000000000000000000000000000000000000000000000000815260040161230790614318565b60405180910390fd5b80601360026101000a81548160ff02191690831515021790555050565b6060600f805461233c9061429a565b80601f01602080910402602001604051908101604052809291908181526020018280546123689061429a565b80156123b55780601f1061238a576101008083540402835291602001916123b5565b820191906000526020600020905b81548152906001019060200180831161239857829003601f168201915b5050505050905090565b6000600760008473ffffffffffffffffffffffffffffffffffffffff1673ffffffffffffffffffffffffffffffffffffffff16815260200190815260200160002060008373ffffffffffffffffffffffffffffffffffffffff1673ffffffffffffffffffffffffffffffffffffffff16815260200190815260200160002060009054906101000a900460ff16905092915050565b8160008111801561246657506012548111155b6124a5576040517f08c379a000000000000000000000000000000000000000000000000000000000815260040161249c906144dd565b60405180910390fd5b601154816124b1610e5e565b6124bb91906144fd565b11156124fc576040517f08c379a00000000000000000000000000000000000000000000000000000000081526004016124f39061459f565b60405180910390fd5b612504612737565b73ffffffffffffffffffffffffffffffffffffffff1661252261170c565b73ffffffffffffffffffffffffffffffffffffffff1614612578576040517f08c379a000000000000000000000000000000000000000000000000000000000815260040161256f90614318565b60405180910390fd5b612582828461301b565b505050565b61258f612737565b73ffffffffffffffffffffffffffffffffffffffff166125ad61170c565b73ffffffffffffffffffffffffffffffffffffffff1614612603576040517f08c379a00000000000000000000000000000000000000000000000000000000081526004016125fa90614318565b60405180910390fd5b600073ffffffffffffffffffffffffffffffffffffffff168173ffffffffffffffffffffffffffffffffffffffff161415612673576040517f08c379a000000000000000000000000000000000000000000000000000000000815260040161266a90614a69565b60405180910390fd5b61267c81612f3f565b50565b60007f01ffc9a7000000000000000000000000000000000000000000000000000000007bffffffffffffffffffffffffffffffffffffffffffffffffffffffff1916827bffffffffffffffffffffffffffffffffffffffffffffffffffffffff1916149050919050565b6000816126f46127f1565b11158015612703575060005482105b8015612730575060046000838152602001908152602001600020600001601c9054906101000a900460ff16155b9050919050565b600033905090565b826006600084815260200190815260200160002060006101000a81548173ffffffffffffffffffffffffffffffffffffffff021916908373ffffffffffffffffffffffffffffffffffffffff160217905550818373ffffffffffffffffffffffffffffffffffffffff168273ffffffffffffffffffffffffffffffffffffffff167f8c5be1e5ebec7d5bd14f71427d1e84f3dd0314c0f7b2291e5b200ac8c7c3b92560405160405180910390a4505050565b60006001905090565b600061280582612cb0565b90508373ffffffffffffffffffffffffffffffffffffffff16816000015173ffffffffffffffffffffffffffffffffffffffff1614612870576040517fa114810000000000000000000000000000000000000000000000000000000000815260040160405180910390fd5b60008473ffffffffffffffffffffffffffffffffffffffff16612891612737565b73ffffffffffffffffffffffffffffffffffffffff1614806128c057506128bf856128ba612737565b6123bf565b5b8061290557506128ce612737565b73ffffffffffffffffffffffffffffffffffffffff166128ed84610ba2565b73ffffffffffffffffffffffffffffffffffffffff16145b90508061293e576040517f59c896be00000000000000000000000000000000000000000000000000000000815260040160405180910390fd5b600073ffffffffffffffffffffffffffffffffffffffff168473ffffffffffffffffffffffffffffffffffffffff1614156129a5576040517fea553b3400000000000000000000000000000000000000000000000000000000815260040160405180910390fd5b6129b285858560016133c6565b6129be6000848761273f565b6001600560008773ffffffffffffffffffffffffffffffffffffffff1673ffffffffffffffffffffffffffffffffffffffff16815260200190815260200160002060000160008282829054906101000a900467ffffffffffffffff160392506101000a81548167ffffffffffffffff021916908367ffffffffffffffff1602179055506001600560008673ffffffffffffffffffffffffffffffffffffffff1673ffffffffffffffffffffffffffffffffffffffff16815260200190815260200160002060000160008282829054906101000a900467ffffffffffffffff160192506101000a81548167ffffffffffffffff021916908367ffffffffffffffff1602179055506000600460008581526020019081526020016000209050848160000160006101000a81548173ffffffffffffffffffffffffffffffffffffffff021916908373ffffffffffffffffffffffffffffffffffffffff160217905550428160000160146101000a81548167ffffffffffffffff021916908367ffffffffffffffff16021790555060006001850190506000600460008381526020019081526020016000209050600073ffffffffffffffffffffffffffffffffffffffff168160000160009054906101000a900473ffffffffffffffffffffffffffffffffffffffff1673ffffffffffffffffffffffffffffffffffffffff161415612c3e576000548214612c3d57878160000160006101000a81548173ffffffffffffffffffffffffffffffffffffffff021916908373ffffffffffffffffffffffffffffffffffffffff16021790555084602001518160000160146101000a81548167ffffffffffffffff021916908367ffffffffffffffff1602179055505b5b505050828473ffffffffffffffffffffffffffffffffffffffff168673ffffffffffffffffffffffffffffffffffffffff167fddf252ad1be2c89b69c2b068fc378daa952ba7f163c4a11628f55a4df523b3ef60405160405180910390a4612ca985858560016133cc565b5050505050565b612cb86138c4565b600082905080612cc66127f1565b11158015612cd5575060005481105b15612f08576000600460008381526020019081526020016000206040518060600160405290816000820160009054906101000a900473ffffffffffffffffffffffffffffffffffffffff1673ffffffffffffffffffffffffffffffffffffffff1673ffffffffffffffffffffffffffffffffffffffff1681526020016000820160149054906101000a900467ffffffffffffffff1667ffffffffffffffff1667ffffffffffffffff16815260200160008201601c9054906101000a900460ff16151515158152505090508060400151612f0657600073ffffffffffffffffffffffffffffffffffffffff16816000015173ffffffffffffffffffffffffffffffffffffffff1614612dea578092505050612f3a565b5b600115612f0557818060019003925050600460008381526020019081526020016000206040518060600160405290816000820160009054906101000a900473ffffffffffffffffffffffffffffffffffffffff1673ffffffffffffffffffffffffffffffffffffffff1673ffffffffffffffffffffffffffffffffffffffff1681526020016000820160149054906101000a900467ffffffffffffffff1667ffffffffffffffff1667ffffffffffffffff16815260200160008201601c9054906101000a900460ff1615151515815250509050600073ffffffffffffffffffffffffffffffffffffffff16816000015173ffffffffffffffffffffffffffffffffffffffff1614612f00578092505050612f3a565b612deb565b5b505b6040517fdf2d9b4200000000000000000000000000000000000000000000000000000000815260040160405180910390fd5b919050565b6000600860009054906101000a900473ffffffffffffffffffffffffffffffffffffffff16905081600860006101000a81548173ffffffffffffffffffffffffffffffffffffffff021916908373ffffffffffffffffffffffffffffffffffffffff1602179055508173ffffffffffffffffffffffffffffffffffffffff168173ffffffffffffffffffffffffffffffffffffffff167f8be0079c531659141344cd1fd0a4f28419497f9722a3daafe3b4186f6b6457e060405160405180910390a35050565b600081836130139190614a89565b905092915050565b6130358282604051806020016040528060008152506133d2565b5050565b6000808273ffffffffffffffffffffffffffffffffffffffff163b119050919050565b60008373ffffffffffffffffffffffffffffffffffffffff1663150b7a02613082612737565b8786866040518563ffffffff1660e01b81526004016130a49493929190614b38565b602060405180830381600087803b1580156130be57600080fd5b505af19250505080156130ef57506040513d601f19601f820116820180604052508101906130ec9190614b99565b60015b613169573d806000811461311f576040519150601f19603f3d011682016040523d82523d6000602084013e613124565b606091505b50600081511415613161576040517fd1a57ed600000000000000000000000000000000000000000000000000000000815260040160405180910390fd5b805181602001fd5b63150b7a0260e01b7bffffffffffffffffffffffffffffffffffffffffffffffffffffffff1916817bffffffffffffffffffffffffffffffffffffffffffffffffffffffff191614915050949350505050565b6060600c80546131cb9061429a565b80601f01602080910402602001604051908101604052809291908181526020018280546131f79061429a565b80156132445780601f1061321957610100808354040283529160200191613244565b820191906000526020600020905b81548152906001019060200180831161322757829003601f168201915b5050505050905090565b60606000821415613296576040518060400160405280600181526020017f300000000000000000000000000000000000000000000000000000000000000081525090506133aa565b600082905060005b600082146132c85780806132b190614448565b915050600a826132c19190614bf5565b915061329e565b60008167ffffffffffffffff8111156132e4576132e3613c0d565b5b6040519080825280601f01601f1916602001820160405280156133165781602001600182028036833780820191505090505b5090505b600085146133a35760018261332f9190614c26565b9150600a8561333e9190614c5a565b603061334a91906144fd565b60f81b8183815181106133605761335f6143ea565b5b60200101907effffffffffffffffffffffffffffffffffffffffffffffffffffffffffffff1916908160001a905350600a8561339c9190614bf5565b945061331a565b8093505050505b919050565b6000826133bc85846133e4565b1490509392505050565b50505050565b50505050565b6133df8383836001613459565b505050565b60008082905060005b845181101561344e57600085828151811061340b5761340a6143ea565b5b6020026020010151905080831161342d576134268382613827565b925061343a565b6134378184613827565b92505b50808061344690614448565b9150506133ed565b508091505092915050565b600080549050600073ffffffffffffffffffffffffffffffffffffffff168573ffffffffffffffffffffffffffffffffffffffff1614156134c6576040517f2e07630000000000000000000000000000000000000000000000000000000000815260040160405180910390fd5b6000841415613501576040517fb562e8dd00000000000000000000000000000000000000000000000000000000815260040160405180910390fd5b61350e60008683876133c6565b83600560008773ffffffffffffffffffffffffffffffffffffffff1673ffffffffffffffffffffffffffffffffffffffff16815260200190815260200160002060000160008282829054906101000a900467ffffffffffffffff160192506101000a81548167ffffffffffffffff021916908367ffffffffffffffff16021790555083600560008773ffffffffffffffffffffffffffffffffffffffff1673ffffffffffffffffffffffffffffffffffffffff16815260200190815260200160002060000160088282829054906101000a900467ffffffffffffffff160192506101000a81548167ffffffffffffffff021916908367ffffffffffffffff160217905550846004600083815260200190815260200160002060000160006101000a81548173ffffffffffffffffffffffffffffffffffffffff021916908373ffffffffffffffffffffffffffffffffffffffff160217905550426004600083815260200190815260200160002060000160146101000a81548167ffffffffffffffff021916908367ffffffffffffffff1602179055506000819050600085820190508380156136d857506136d78773ffffffffffffffffffffffffffffffffffffffff16613039565b5b1561379e575b818773ffffffffffffffffffffffffffffffffffffffff16600073ffffffffffffffffffffffffffffffffffffffff167fddf252ad1be2c89b69c2b068fc378daa952ba7f163c4a11628f55a4df523b3ef60405160405180910390a461374d600088848060010195508861305c565b613783576040517fd1a57ed600000000000000000000000000000000000000000000000000000000815260040160405180910390fd5b808214156136de57826000541461379957600080fd5b61380a565b5b818060010192508773ffffffffffffffffffffffffffffffffffffffff16600073ffffffffffffffffffffffffffffffffffffffff167fddf252ad1be2c89b69c2b068fc378daa952ba7f163c4a11628f55a4df523b3ef60405160405180910390a48082141561379f575b81600081905550505061382060008683876133cc565b5050505050565b600082600052816020526040600020905092915050565b82805461384a9061429a565b90600052602060002090601f01602090048101928261386c57600085556138b3565b82601f1061388557805160ff19168380011785556138b3565b828001600101855582156138b3579182015b828111156138b2578251825591602001919060010190613897565b5b5090506138c09190613907565b5090565b6040518060600160405280600073ffffffffffffffffffffffffffffffffffffffff168152602001600067ffffffffffffffff1681526020016000151581525090565b5b80821115613920576000816000905550600101613908565b5090565b6000604051905090565b600080fd5b600080fd5b60007fffffffff0000000000000000000000000000000000000000000000000000000082169050919050565b61396d81613938565b811461397857600080fd5b50565b60008135905061398a81613964565b92915050565b6000602082840312156139a6576139a561392e565b5b60006139b48482850161397b565b91505092915050565b60008115159050919050565b6139d2816139bd565b82525050565b60006020820190506139ed60008301846139c9565b92915050565b600081519050919050565b600082825260208201905092915050565b60005b83811015613a2d578082015181840152602081019050613a12565b83811115613a3c576000848401525b50505050565b6000601f19601f8301169050919050565b6000613a5e826139f3565b613a6881856139fe565b9350613a78818560208601613a0f565b613a8181613a42565b840191505092915050565b60006020820190508181036000830152613aa68184613a53565b905092915050565b6000819050919050565b613ac181613aae565b8114613acc57600080fd5b50565b600081359050613ade81613ab8565b92915050565b600060208284031215613afa57613af961392e565b5b6000613b0884828501613acf565b91505092915050565b600073ffffffffffffffffffffffffffffffffffffffff82169050919050565b6000613b3c82613b11565b9050919050565b613b4c81613b31565b82525050565b6000602082019050613b676000830184613b43565b92915050565b613b7681613b31565b8114613b8157600080fd5b50565b600081359050613b9381613b6d565b92915050565b60008060408385031215613bb057613baf61392e565b5b6000613bbe85828601613b84565b9250506020613bcf85828601613acf565b9150509250929050565b613be281613aae565b82525050565b6000602082019050613bfd6000830184613bd9565b92915050565b600080fd5b600080fd5b7f4e487b7100000000000000000000000000000000000000000000000000000000600052604160045260246000fd5b613c4582613a42565b810181811067ffffffffffffffff82111715613c6457613c63613c0d565b5b80604052505050565b6000613c77613924565b9050613c838282613c3c565b919050565b600067ffffffffffffffff821115613ca357613ca2613c0d565b5b613cac82613a42565b9050602081019050919050565b82818337600083830152505050565b6000613cdb613cd684613c88565b613c6d565b905082815260208101848484011115613cf757613cf6613c08565b5b613d02848285613cb9565b509392505050565b600082601f830112613d1f57613d1e613c03565b5b8135613d2f848260208601613cc8565b91505092915050565b600060208284031215613d4e57613d4d61392e565b5b600082013567ffffffffffffffff811115613d6c57613d6b613933565b5b613d7884828501613d0a565b91505092915050565b613d8a816139bd565b8114613d9557600080fd5b50565b600081359050613da781613d81565b92915050565b600060208284031215613dc357613dc261392e565b5b6000613dd184828501613d98565b91505092915050565b600080600060608486031215613df357613df261392e565b5b6000613e0186828701613b84565b9350506020613e1286828701613b84565b9250506040613e2386828701613acf565b9150509250925092565b6000819050919050565b613e4081613e2d565b82525050565b6000602082019050613e5b6000830184613e37565b92915050565b600060208284031215613e7757613e7661392e565b5b6000613e8584828501613b84565b91505092915050565b600081519050919050565b600082825260208201905092915050565b6000819050602082019050919050565b613ec381613aae565b82525050565b6000613ed58383613eba565b60208301905092915050565b6000602082019050919050565b6000613ef982613e8e565b613f038185613e99565b9350613f0e83613eaa565b8060005b83811015613f3f578151613f268882613ec9565b9750613f3183613ee1565b925050600181019050613f12565b5085935050505092915050565b60006020820190508181036000830152613f668184613eee565b905092915050565b613f7781613e2d565b8114613f8257600080fd5b50565b600081359050613f9481613f6e565b92915050565b600060208284031215613fb057613faf61392e565b5b6000613fbe84828501613f85565b91505092915050565b60008060408385031215613fde57613fdd61392e565b5b6000613fec85828601613b84565b9250506020613ffd85828601613d98565b9150509250929050565b600067ffffffffffffffff82111561402257614021613c0d565b5b61402b82613a42565b9050602081019050919050565b600061404b61404684614007565b613c6d565b90508281526020810184848401111561406757614066613c08565b5b614072848285613cb9565b509392505050565b600082601f83011261408f5761408e613c03565b5b813561409f848260208601614038565b91505092915050565b600080600080608085870312156140c2576140c161392e565b5b60006140d087828801613b84565b94505060206140e187828801613b84565b93505060406140f287828801613acf565b925050606085013567ffffffffffffffff81111561411357614112613933565b5b61411f8782880161407a565b91505092959194509250565b600080fd5b600080fd5b60008083601f84011261414b5761414a613c03565b5b8235905067ffffffffffffffff8111156141685761416761412b565b5b60208301915083602082028301111561418457614183614130565b5b9250929050565b6000806000604084860312156141a4576141a361392e565b5b60006141b286828701613acf565b935050602084013567ffffffffffffffff8111156141d3576141d2613933565b5b6141df86828701614135565b92509250509250925092565b600080604083850312156142025761420161392e565b5b600061421085828601613b84565b925050602061422185828601613b84565b9150509250929050565b600080604083850312156142425761424161392e565b5b600061425085828601613acf565b925050602061426185828601613b84565b9150509250929050565b7f4e487b7100000000000000000000000000000000000000000000000000000000600052602260045260246000fd5b600060028204905060018216806142b257607f821691505b602082108114156142c6576142c561426b565b5b50919050565b7f4f776e61626c653a2063616c6c6572206973206e6f7420746865206f776e6572600082015250565b60006143026020836139fe565b915061430d826142cc565b602082019050919050565b60006020820190508181036000830152614331816142f5565b9050919050565b7f5265656e7472616e637947756172643a207265656e7472616e742063616c6c00600082015250565b600061436e601f836139fe565b915061437982614338565b602082019050919050565b6000602082019050818103600083015261439d81614361565b9050919050565b600081905092915050565b50565b60006143bf6000836143a4565b91506143ca826143af565b600082019050919050565b60006143e0826143b2565b9150819050919050565b7f4e487b7100000000000000000000000000000000000000000000000000000000600052603260045260246000fd5b7f4e487b7100000000000000000000000000000000000000000000000000000000600052601160045260246000fd5b600061445382613aae565b91507fffffffffffffffffffffffffffffffffffffffffffffffffffffffffffffffff82141561448657614485614419565b5b600182019050919050565b7f496e76616c6964206d696e7420616d6f756e7421000000000000000000000000600082015250565b60006144c76014836139fe565b91506144d282614491565b602082019050919050565b600060208201905081810360008301526144f6816144ba565b9050919050565b600061450882613aae565b915061451383613aae565b9250827fffffffffffffffffffffffffffffffffffffffffffffffffffffffffffffffff0382111561454857614547614419565b5b828201905092915050565b7f4d617820737570706c7920657863656564656421000000000000000000000000600082015250565b60006145896014836139fe565b915061459482614553565b602082019050919050565b600060208201905081810360008301526145b88161457c565b9050919050565b7f496e73756666696369656e742066756e64732100000000000000000000000000600082015250565b60006145f56013836139fe565b9150614600826145bf565b602082019050919050565b60006020820190508181036000830152614624816145e8565b9050919050565b7f54686520636f6e74726163742069732070617573656421000000000000000000600082015250565b60006146616017836139fe565b915061466c8261462b565b602082019050919050565b6000602082019050818103600083015261469081614654565b9050919050565b7f4552433732314d657461646174613a2055524920717565727920666f72206e6f60008201527f6e6578697374656e7420746f6b656e0000000000000000000000000000000000602082015250565b60006146f3602f836139fe565b91506146fe82614697565b604082019050919050565b60006020820190508181036000830152614722816146e6565b9050919050565b600081905092915050565b600061473f826139f3565b6147498185614729565b9350614759818560208601613a0f565b80840191505092915050565b60008190508160005260206000209050919050565b600081546147878161429a565b6147918186614729565b945060018216600081146147ac57600181146147bd576147f0565b60ff198316865281860193506147f0565b6147c685614765565b60005b838110156147e8578154818901526001820191506020810190506147c9565b838801955050505b50505092915050565b60006148058286614734565b91506148118285614734565b915061481d828461477a565b9150819050949350505050565b7f5468652077686974656c6973742073616c65206973206e6f7420656e61626c6560008201527f6421000000000000000000000000000000000000000000000000000000000000602082015250565b60006148866022836139fe565b91506148918261482a565b604082019050919050565b600060208201905081810360008301526148b581614879565b9050919050565b7f4164647265737320616c726561647920636c61696d6564210000000000000000600082015250565b60006148f26018836139fe565b91506148fd826148bc565b602082019050919050565b60006020820190508181036000830152614921816148e5565b9050919050565b60008160601b9050919050565b600061494082614928565b9050919050565b600061495282614935565b9050919050565b61496a61496582613b31565b614947565b82525050565b600061497c8284614959565b60148201915081905092915050565b7f496e76616c69642070726f6f6621000000000000000000000000000000000000600082015250565b60006149c1600e836139fe565b91506149cc8261498b565b602082019050919050565b600060208201905081810360008301526149f0816149b4565b9050919050565b7f4f776e61626c653a206e6577206f776e657220697320746865207a65726f206160008201527f6464726573730000000000000000000000000000000000000000000000000000602082015250565b6000614a536026836139fe565b9150614a5e826149f7565b604082019050919050565b60006020820190508181036000830152614a8281614a46565b9050919050565b6000614a9482613aae565b9150614a9f83613aae565b9250817fffffffffffffffffffffffffffffffffffffffffffffffffffffffffffffffff0483118215151615614ad857614ad7614419565b5b828202905092915050565b600081519050919050565b600082825260208201905092915050565b6000614b0a82614ae3565b614b148185614aee565b9350614b24818560208601613a0f565b614b2d81613a42565b840191505092915050565b6000608082019050614b4d6000830187613b43565b614b5a6020830186613b43565b614b676040830185613bd9565b8181036060830152614b798184614aff565b905095945050505050565b600081519050614b9381613964565b92915050565b600060208284031215614baf57614bae61392e565b5b6000614bbd84828501614b84565b91505092915050565b7f4e487b7100000000000000000000000000000000000000000000000000000000600052601260045260246000fd5b6000614c0082613aae565b9150614c0b83613aae565b925082614c1b57614c1a614bc6565b5b828204905092915050565b6000614c3182613aae565b9150614c3c83613aae565b925082821015614c4f57614c4e614419565b5b828203905092915050565b6000614c6582613aae565b9150614c7083613aae565b925082614c8057614c7f614bc6565b5b82820690509291505056fea2646970667358221220915071753b1eb2eb2527131971c1ad940f1801303108bf915262366cfee7490c64736f6c63430008090033",
  "linkReferences": {},
  "deployedLinkReferences": {}
}