{
  "_format": "hh-sol-artifact-1",
  "contractName": "PlanetsContract",
  "sourceName": "contracts/PlanetsContract.sol",
  "abi": [
    {
      "inputs": [
        {
          "internalType": "string",
          "name": "_tokenName",
          "type": "string"
        },
        {
          "internalType": "string",
          "name": "_tokenSymbol",
          "type": "string"
        },
        {
          "internalType": "uint256",
          "name": "_cost",
          "type": "uint256"
        },
        {
          "internalType": "uint256",
          "name": "_maxSupply",
          "type": "uint256"
        },
        {
          "internalType": "uint256",
          "name": "_maxMintAmountPerTx",
          "type": "uint256"
        },
        {
          "internalType": "string",
          "name": "_hiddenMetadataUri",
          "type": "string"
        }
      ],
      "stateMutability": "nonpayable",
      "type": "constructor"
    },
    {
      "inputs": [],
      "name": "ApprovalCallerNotOwnerNorApproved",
      "type": "error"
    },
    {
      "inputs": [],
      "name": "ApprovalQueryForNonexistentToken",
      "type": "error"
    },
    {
      "inputs": [],
      "name": "ApprovalToCurrentOwner",
      "type": "error"
    },
    {
      "inputs": [],
      "name": "ApproveToCaller",
      "type": "error"
    },
    {
      "inputs": [],
      "name": "BalanceQueryForZeroAddress",
      "type": "error"
    },
    {
      "inputs": [],
      "name": "MintToZeroAddress",
      "type": "error"
    },
    {
      "inputs": [],
      "name": "MintZeroQuantity",
      "type": "error"
    },
    {
      "inputs": [],
      "name": "OwnerQueryForNonexistentToken",
      "type": "error"
    },
    {
      "inputs": [],
      "name": "TransferCallerNotOwnerNorApproved",
      "type": "error"
    },
    {
      "inputs": [],
      "name": "TransferFromIncorrectOwner",
      "type": "error"
    },
    {
      "inputs": [],
      "name": "TransferToNonERC721ReceiverImplementer",
      "type": "error"
    },
    {
      "inputs": [],
      "name": "TransferToZeroAddress",
      "type": "error"
    },
    {
      "anonymous": false,
      "inputs": [
        {
          "indexed": true,
          "internalType": "address",
          "name": "owner",
          "type": "address"
        },
        {
          "indexed": true,
          "internalType": "address",
          "name": "approved",
          "type": "address"
        },
        {
          "indexed": true,
          "internalType": "uint256",
          "name": "tokenId",
          "type": "uint256"
        }
      ],
      "name": "Approval",
      "type": "event"
    },
    {
      "anonymous": false,
      "inputs": [
        {
          "indexed": true,
          "internalType": "address",
          "name": "owner",
          "type": "address"
        },
        {
          "indexed": true,
          "internalType": "address",
          "name": "operator",
          "type": "address"
        },
        {
          "indexed": false,
          "internalType": "bool",
          "name": "approved",
          "type": "bool"
        }
      ],
      "name": "ApprovalForAll",
      "type": "event"
    },
    {
      "anonymous": false,
      "inputs": [
        {
          "indexed": true,
          "internalType": "address",
          "name": "previousOwner",
          "type": "address"
        },
        {
          "indexed": true,
          "internalType": "address",
          "name": "newOwner",
          "type": "address"
        }
      ],
      "name": "OwnershipTransferred",
      "type": "event"
    },
    {
      "anonymous": false,
      "inputs": [
        {
          "indexed": true,
          "internalType": "address",
          "name": "from",
          "type": "address"
        },
        {
          "indexed": true,
          "internalType": "address",
          "name": "to",
          "type": "address"
        },
        {
          "indexed": true,
          "internalType": "uint256",
          "name": "tokenId",
          "type": "uint256"
        }
      ],
      "name": "Transfer",
      "type": "event"
    },
    {
      "inputs": [
        {
          "internalType": "address",
          "name": "to",
          "type": "address"
        },
        {
          "internalType": "uint256",
          "name": "tokenId",
          "type": "uint256"
        }
      ],
      "name": "approve",
      "outputs": [],
      "stateMutability": "nonpayable",
      "type": "function"
    },
    {
      "inputs": [
        {
          "internalType": "address",
          "name": "owner",
          "type": "address"
        }
      ],
      "name": "balanceOf",
      "outputs": [
        {
          "internalType": "uint256",
          "name": "",
          "type": "uint256"
        }
      ],
      "stateMutability": "view",
      "type": "function"
    },
    {
      "inputs": [],
      "name": "cost",
      "outputs": [
        {
          "internalType": "uint256",
          "name": "",
          "type": "uint256"
        }
      ],
      "stateMutability": "view",
      "type": "function"
    },
    {
      "inputs": [
        {
          "internalType": "uint256",
          "name": "tokenId",
          "type": "uint256"
        }
      ],
      "name": "getApproved",
      "outputs": [
        {
          "internalType": "address",
          "name": "",
          "type": "address"
        }
      ],
      "stateMutability": "view",
      "type": "function"
    },
    {
      "inputs": [],
      "name": "hiddenMetadataUri",
      "outputs": [
        {
          "internalType": "string",
          "name": "",
          "type": "string"
        }
      ],
      "stateMutability": "view",
      "type": "function"
    },
    {
      "inputs": [
        {
          "internalType": "address",
          "name": "owner",
          "type": "address"
        },
        {
          "internalType": "address",
          "name": "operator",
          "type": "address"
        }
      ],
      "name": "isApprovedForAll",
      "outputs": [
        {
          "internalType": "bool",
          "name": "",
          "type": "bool"
        }
      ],
      "stateMutability": "view",
      "type": "function"
    },
    {
      "inputs": [],
      "name": "maxMintAmountPerTx",
      "outputs": [
        {
          "internalType": "uint256",
          "name": "",
          "type": "uint256"
        }
      ],
      "stateMutability": "view",
      "type": "function"
    },
    {
      "inputs": [],
      "name": "maxSupply",
      "outputs": [
        {
          "internalType": "uint256",
          "name": "",
          "type": "uint256"
        }
      ],
      "stateMutability": "view",
      "type": "function"
    },
    {
      "inputs": [],
      "name": "merkleRoot",
      "outputs": [
        {
          "internalType": "bytes32",
          "name": "",
          "type": "bytes32"
        }
      ],
      "stateMutability": "view",
      "type": "function"
    },
    {
      "inputs": [
        {
          "internalType": "uint256",
          "name": "_mintAmount",
          "type": "uint256"
        }
      ],
      "name": "mint",
      "outputs": [],
      "stateMutability": "payable",
      "type": "function"
    },
    {
      "inputs": [
        {
          "internalType": "uint256",
          "name": "_mintAmount",
          "type": "uint256"
        },
        {
          "internalType": "address",
          "name": "_receiver",
          "type": "address"
        }
      ],
      "name": "mintForAddress",
      "outputs": [],
      "stateMutability": "nonpayable",
      "type": "function"
    },
    {
      "inputs": [],
      "name": "name",
      "outputs": [
        {
          "internalType": "string",
          "name": "",
          "type": "string"
        }
      ],
      "stateMutability": "view",
      "type": "function"
    },
    {
      "inputs": [],
      "name": "owner",
      "outputs": [
        {
          "internalType": "address",
          "name": "",
          "type": "address"
        }
      ],
      "stateMutability": "view",
      "type": "function"
    },
    {
      "inputs": [
        {
          "internalType": "uint256",
          "name": "tokenId",
          "type": "uint256"
        }
      ],
      "name": "ownerOf",
      "outputs": [
        {
          "internalType": "address",
          "name": "",
          "type": "address"
        }
      ],
      "stateMutability": "view",
      "type": "function"
    },
    {
      "inputs": [],
      "name": "paused",
      "outputs": [
        {
          "internalType": "bool",
          "name": "",
          "type": "bool"
        }
      ],
      "stateMutability": "view",
      "type": "function"
    },
    {
      "inputs": [],
      "name": "renounceOwnership",
      "outputs": [],
      "stateMutability": "nonpayable",
      "type": "function"
    },
    {
      "inputs": [],
      "name": "revealed",
      "outputs": [
        {
          "internalType": "bool",
          "name": "",
          "type": "bool"
        }
      ],
      "stateMutability": "view",
      "type": "function"
    },
    {
      "inputs": [
        {
          "internalType": "address",
          "name": "from",
          "type": "address"
        },
        {
          "internalType": "address",
          "name": "to",
          "type": "address"
        },
        {
          "internalType": "uint256",
          "name": "tokenId",
          "type": "uint256"
        }
      ],
      "name": "safeTransferFrom",
      "outputs": [],
      "stateMutability": "nonpayable",
      "type": "function"
    },
    {
      "inputs": [
        {
          "internalType": "address",
          "name": "from",
          "type": "address"
        },
        {
          "internalType": "address",
          "name": "to",
          "type": "address"
        },
        {
          "internalType": "uint256",
          "name": "tokenId",
          "type": "uint256"
        },
        {
          "internalType": "bytes",
          "name": "_data",
          "type": "bytes"
        }
      ],
      "name": "safeTransferFrom",
      "outputs": [],
      "stateMutability": "nonpayable",
      "type": "function"
    },
    {
      "inputs": [
        {
          "internalType": "address",
          "name": "operator",
          "type": "address"
        },
        {
          "internalType": "bool",
          "name": "approved",
          "type": "bool"
        }
      ],
      "name": "setApprovalForAll",
      "outputs": [],
      "stateMutability": "nonpayable",
      "type": "function"
    },
    {
      "inputs": [
        {
          "internalType": "uint256",
          "name": "_cost",
          "type": "uint256"
        }
      ],
      "name": "setCost",
      "outputs": [],
      "stateMutability": "nonpayable",
      "type": "function"
    },
    {
      "inputs": [
        {
          "internalType": "string",
          "name": "_hiddenMetadataUri",
          "type": "string"
        }
      ],
      "name": "setHiddenMetadataUri",
      "outputs": [],
      "stateMutability": "nonpayable",
      "type": "function"
    },
    {
      "inputs": [
        {
          "internalType": "uint256",
          "name": "_maxMintAmountPerTx",
          "type": "uint256"
        }
      ],
      "name": "setMaxMintAmountPerTx",
      "outputs": [],
      "stateMutability": "nonpayable",
      "type": "function"
    },
    {
      "inputs": [
        {
          "internalType": "bytes32",
          "name": "_merkleRoot",
          "type": "bytes32"
        }
      ],
      "name": "setMerkleRoot",
      "outputs": [],
      "stateMutability": "nonpayable",
      "type": "function"
    },
    {
      "inputs": [
        {
          "internalType": "bool",
          "name": "_state",
          "type": "bool"
        }
      ],
      "name": "setPaused",
      "outputs": [],
      "stateMutability": "nonpayable",
      "type": "function"
    },
    {
      "inputs": [
        {
          "internalType": "bool",
          "name": "_state",
          "type": "bool"
        }
      ],
      "name": "setRevealed",
      "outputs": [],
      "stateMutability": "nonpayable",
      "type": "function"
    },
    {
      "inputs": [
        {
          "internalType": "string",
          "name": "_uriPrefix",
          "type": "string"
        }
      ],
      "name": "setUriPrefix",
      "outputs": [],
      "stateMutability": "nonpayable",
      "type": "function"
    },
    {
      "inputs": [
        {
          "internalType": "string",
          "name": "_uriSuffix",
          "type": "string"
        }
      ],
      "name": "setUriSuffix",
      "outputs": [],
      "stateMutability": "nonpayable",
      "type": "function"
    },
    {
      "inputs": [
        {
          "internalType": "bool",
          "name": "_state",
          "type": "bool"
        }
      ],
      "name": "setWhitelistMintEnabled",
      "outputs": [],
      "stateMutability": "nonpayable",
      "type": "function"
    },
    {
      "inputs": [
        {
          "internalType": "bytes4",
          "name": "interfaceId",
          "type": "bytes4"
        }
      ],
      "name": "supportsInterface",
      "outputs": [
        {
          "internalType": "bool",
          "name": "",
          "type": "bool"
        }
      ],
      "stateMutability": "view",
      "type": "function"
    },
    {
      "inputs": [],
      "name": "symbol",
      "outputs": [
        {
          "internalType": "string",
          "name": "",
          "type": "string"
        }
      ],
      "stateMutability": "view",
      "type": "function"
    },
    {
      "inputs": [
        {
          "internalType": "uint256",
          "name": "_tokenId",
          "type": "uint256"
        }
      ],
      "name": "tokenURI",
      "outputs": [
        {
          "internalType": "string",
          "name": "",
          "type": "string"
        }
      ],
      "stateMutability": "view",
      "type": "function"
    },
    {
      "inputs": [],
      "name": "totalSupply",
      "outputs": [
        {
          "internalType": "uint256",
          "name": "",
          "type": "uint256"
        }
      ],
      "stateMutability": "view",
      "type": "function"
    },
    {
      "inputs": [
        {
          "internalType": "address",
          "name": "from",
          "type": "address"
        },
        {
          "internalType": "address",
          "name": "to",
          "type": "address"
        },
        {
          "internalType": "uint256",
          "name": "tokenId",
          "type": "uint256"
        }
      ],
      "name": "transferFrom",
      "outputs": [],
      "stateMutability": "nonpayable",
      "type": "function"
    },
    {
      "inputs": [
        {
          "internalType": "address",
          "name": "newOwner",
          "type": "address"
        }
      ],
      "name": "transferOwnership",
      "outputs": [],
      "stateMutability": "nonpayable",
      "type": "function"
    },
    {
      "inputs": [],
      "name": "uriPrefix",
      "outputs": [
        {
          "internalType": "string",
          "name": "",
          "type": "string"
        }
      ],
      "stateMutability": "view",
      "type": "function"
    },
    {
      "inputs": [],
      "name": "uriSuffix",
      "outputs": [
        {
          "internalType": "string",
          "name": "",
          "type": "string"
        }
      ],
      "stateMutability": "view",
      "type": "function"
    },
    {
      "inputs": [
        {
          "internalType": "address",
          "name": "_owner",
          "type": "address"
        }
      ],
      "name": "walletOfOwner",
      "outputs": [
        {
          "internalType": "uint256[]",
          "name": "",
          "type": "uint256[]"
        }
      ],
      "stateMutability": "view",
      "type": "function"
    },
    {
      "inputs": [
        {
          "internalType": "address",
          "name": "",
          "type": "address"
        }
      ],
      "name": "whitelistClaimed",
      "outputs": [
        {
          "internalType": "bool",
          "name": "",
          "type": "bool"
        }
      ],
      "stateMutability": "view",
      "type": "function"
    },
    {
      "inputs": [
        {
          "internalType": "uint256",
          "name": "_mintAmount",
          "type": "uint256"
        },
        {
          "internalType": "bytes32[]",
          "name": "_merkleProof",
          "type": "bytes32[]"
        }
      ],
      "name": "whitelistMint",
      "outputs": [],
      "stateMutability": "payable",
      "type": "function"
    },
    {
      "inputs": [],
      "name": "whitelistMintEnabled",
      "outputs": [
        {
          "internalType": "bool",
          "name": "",
          "type": "bool"
        }
      ],
      "stateMutability": "view",
      "type": "function"
    },
    {
      "inputs": [],
      "name": "withdraw",
      "outputs": [],
      "stateMutability": "nonpayable",
      "type": "function"
    }
  ],
  "bytecode": "0x608060405260405180602001604052806000815250600c90805190602001906200002b92919062000496565b506040518060400160405280600581526020017f2e6a736f6e000000000000000000000000000000000000000000000000000000815250600d90805190602001906200007992919062000496565b506000601260006101000a81548160ff0219169083151502179055506000601260016101000a81548160ff0219169083151502179055506000601260026101000a81548160ff021916908315150217905550348015620000d857600080fd5b506040516200537a3803806200537a8339818101604052810190620000fe91906200071e565b858581600290805190602001906200011892919062000496565b5080600390805190602001906200013192919062000496565b5062000142620001b860201b60201c565b60008190555050506200016a6200015e620001c160201b60201c565b620001c960201b60201c565b600160098190555062000183846200028f60201b60201c565b826010819055506200019b826200032860201b60201c565b620001ac81620003c160201b60201c565b505050505050620008ff565b60006001905090565b600033905090565b6000600860009054906101000a900473ffffffffffffffffffffffffffffffffffffffff16905081600860006101000a81548173ffffffffffffffffffffffffffffffffffffffff021916908373ffffffffffffffffffffffffffffffffffffffff1602179055508173ffffffffffffffffffffffffffffffffffffffff168173ffffffffffffffffffffffffffffffffffffffff167f8be0079c531659141344cd1fd0a4f28419497f9722a3daafe3b4186f6b6457e060405160405180910390a35050565b6200029f620001c160201b60201c565b73ffffffffffffffffffffffffffffffffffffffff16620002c56200046c60201b60201c565b73ffffffffffffffffffffffffffffffffffffffff16146200031e576040517f08c379a0000000000000000000000000000000000000000000000000000000008152600401620003159062000878565b60405180910390fd5b80600f8190555050565b62000338620001c160201b60201c565b73ffffffffffffffffffffffffffffffffffffffff166200035e6200046c60201b60201c565b73ffffffffffffffffffffffffffffffffffffffff1614620003b7576040517f08c379a0000000000000000000000000000000000000000000000000000000008152600401620003ae9062000878565b60405180910390fd5b8060118190555050565b620003d1620001c160201b60201c565b73ffffffffffffffffffffffffffffffffffffffff16620003f76200046c60201b60201c565b73ffffffffffffffffffffffffffffffffffffffff161462000450576040517f08c379a0000000000000000000000000000000000000000000000000000000008152600401620004479062000878565b60405180910390fd5b80600e90805190602001906200046892919062000496565b5050565b6000600860009054906101000a900473ffffffffffffffffffffffffffffffffffffffff16905090565b828054620004a490620008c9565b90600052602060002090601f016020900481019282620004c8576000855562000514565b82601f10620004e357805160ff191683800117855562000514565b8280016001018555821562000514579182015b8281111562000513578251825591602001919060010190620004f6565b5b50905062000523919062000527565b5090565b5b808211156200054257600081600090555060010162000528565b5090565b6000604051905090565b600080fd5b600080fd5b600080fd5b600080fd5b6000601f19601f8301169050919050565b7f4e487b7100000000000000000000000000000000000000000000000000000000600052604160045260246000fd5b620005af8262000564565b810181811067ffffffffffffffff82111715620005d157620005d062000575565b5b80604052505050565b6000620005e662000546565b9050620005f48282620005a4565b919050565b600067ffffffffffffffff82111562000617576200061662000575565b5b620006228262000564565b9050602081019050919050565b60005b838110156200064f57808201518184015260208101905062000632565b838111156200065f576000848401525b50505050565b60006200067c6200067684620005f9565b620005da565b9050828152602081018484840111156200069b576200069a6200055f565b5b620006a88482856200062f565b509392505050565b600082601f830112620006c857620006c76200055a565b5b8151620006da84826020860162000665565b91505092915050565b6000819050919050565b620006f881620006e3565b81146200070457600080fd5b50565b6000815190506200071881620006ed565b92915050565b60008060008060008060c087890312156200073e576200073d62000550565b5b600087015167ffffffffffffffff8111156200075f576200075e62000555565b5b6200076d89828a01620006b0565b965050602087015167ffffffffffffffff81111562000791576200079062000555565b5b6200079f89828a01620006b0565b9550506040620007b289828a0162000707565b9450506060620007c589828a0162000707565b9350506080620007d889828a0162000707565b92505060a087015167ffffffffffffffff811115620007fc57620007fb62000555565b5b6200080a89828a01620006b0565b9150509295509295509295565b600082825260208201905092915050565b7f4f776e61626c653a2063616c6c6572206973206e6f7420746865206f776e6572600082015250565b60006200086060208362000817565b91506200086d8262000828565b602082019050919050565b60006020820190508181036000830152620008938162000851565b9050919050565b7f4e487b7100000000000000000000000000000000000000000000000000000000600052602260045260246000fd5b60006002820490506001821680620008e257607f821691505b60208210811415620008f957620008f86200089a565b5b50919050565b614a6b806200090f6000396000f3fe6080604052600436106102515760003560e01c806370a0823111610139578063b071401b116100b6578063d5abeb011161007a578063d5abeb011461086e578063db4bec4414610899578063e0a80853146108d6578063e985e9c5146108ff578063efbd73f41461093c578063f2fde38b1461096557610251565b8063b071401b1461079a578063b767a098146107c3578063b88d4fde146107ec578063c87b56dd14610815578063d2cab0561461085257610251565b806394354fd0116100fd57806394354fd0146106d457806395d89b41146106ff578063a0712d681461072a578063a22cb46514610746578063a45ba8e71461076f57610251565b806370a0823114610603578063715018a6146106405780637cb64759146106575780637ec4a659146106805780638da5cb5b146106a957610251565b80633ccfd60b116101d2578063518302271161019657806351830227146104ef5780635503a0e81461051a5780635c975abb1461054557806362b99ad4146105705780636352211e1461059b5780636caede3d146105d857610251565b80633ccfd60b1461042057806342842e0e14610437578063438b63001461046057806344a0d68a1461049d5780634fdd43cb146104c657610251565b806316ba10e01161021957806316ba10e01461034f57806316c38b3c1461037857806318160ddd146103a157806323b872dd146103cc5780632eb4a7ab146103f557610251565b806301ffc9a71461025657806306fdde0314610293578063081812fc146102be578063095ea7b3146102fb57806313faede614610324575b600080fd5b34801561026257600080fd5b5061027d6004803603810190610278919061373a565b61098e565b60405161028a9190613782565b60405180910390f35b34801561029f57600080fd5b506102a8610a70565b6040516102b59190613836565b60405180910390f35b3480156102ca57600080fd5b506102e560048036038101906102e0919061388e565b610b02565b6040516102f291906138fc565b60405180910390f35b34801561030757600080fd5b50610322600480360381019061031d9190613943565b610b7e565b005b34801561033057600080fd5b50610339610c89565b6040516103469190613992565b60405180910390f35b34801561035b57600080fd5b5061037660048036038101906103719190613ae2565b610c8f565b005b34801561038457600080fd5b5061039f600480360381019061039a9190613b57565b610d25565b005b3480156103ad57600080fd5b506103b6610dbe565b6040516103c39190613992565b60405180910390f35b3480156103d857600080fd5b506103f360048036038101906103ee9190613b84565b610dd5565b005b34801561040157600080fd5b5061040a610de5565b6040516104179190613bf0565b60405180910390f35b34801561042c57600080fd5b50610435610deb565b005b34801561044357600080fd5b5061045e60048036038101906104599190613b84565b610f3d565b005b34801561046c57600080fd5b5061048760048036038101906104829190613c0b565b610f5d565b6040516104949190613cf6565b60405180910390f35b3480156104a957600080fd5b506104c460048036038101906104bf919061388e565b611171565b005b3480156104d257600080fd5b506104ed60048036038101906104e89190613ae2565b6111f7565b005b3480156104fb57600080fd5b5061050461128d565b6040516105119190613782565b60405180910390f35b34801561052657600080fd5b5061052f6112a0565b60405161053c9190613836565b60405180910390f35b34801561055157600080fd5b5061055a61132e565b6040516105679190613782565b60405180910390f35b34801561057c57600080fd5b50610585611341565b6040516105929190613836565b60405180910390f35b3480156105a757600080fd5b506105c260048036038101906105bd919061388e565b6113cf565b6040516105cf91906138fc565b60405180910390f35b3480156105e457600080fd5b506105ed6113e5565b6040516105fa9190613782565b60405180910390f35b34801561060f57600080fd5b5061062a60048036038101906106259190613c0b565b6113f8565b6040516106379190613992565b60405180910390f35b34801561064c57600080fd5b506106556114c8565b005b34801561066357600080fd5b5061067e60048036038101906106799190613d44565b611550565b005b34801561068c57600080fd5b506106a760048036038101906106a29190613ae2565b6115d6565b005b3480156106b557600080fd5b506106be61166c565b6040516106cb91906138fc565b60405180910390f35b3480156106e057600080fd5b506106e9611696565b6040516106f69190613992565b60405180910390f35b34801561070b57600080fd5b5061071461169c565b6040516107219190613836565b60405180910390f35b610744600480360381019061073f919061388e565b61172e565b005b34801561075257600080fd5b5061076d60048036038101906107689190613d71565b611895565b005b34801561077b57600080fd5b50610784611a0d565b6040516107919190613836565b60405180910390f35b3480156107a657600080fd5b506107c160048036038101906107bc919061388e565b611a9b565b005b3480156107cf57600080fd5b506107ea60048036038101906107e59190613b57565b611b21565b005b3480156107f857600080fd5b50610813600480360381019061080e9190613e52565b611bba565b005b34801561082157600080fd5b5061083c6004803603810190610837919061388e565b611c36565b6040516108499190613836565b60405180910390f35b61086c60048036038101906108679190613f35565b611d8f565b005b34801561087a57600080fd5b506108836120aa565b6040516108909190613992565b60405180910390f35b3480156108a557600080fd5b506108c060048036038101906108bb9190613c0b565b6120b0565b6040516108cd9190613782565b60405180910390f35b3480156108e257600080fd5b506108fd60048036038101906108f89190613b57565b6120d0565b005b34801561090b57600080fd5b5061092660048036038101906109219190613f95565b612169565b6040516109339190613782565b60405180910390f35b34801561094857600080fd5b50610963600480360381019061095e9190613fd5565b6121fd565b005b34801561097157600080fd5b5061098c60048036038101906109879190613c0b565b612331565b005b60007f80ac58cd000000000000000000000000000000000000000000000000000000007bffffffffffffffffffffffffffffffffffffffffffffffffffffffff1916827bffffffffffffffffffffffffffffffffffffffffffffffffffffffff19161480610a5957507f5b5e139f000000000000000000000000000000000000000000000000000000007bffffffffffffffffffffffffffffffffffffffffffffffffffffffff1916827bffffffffffffffffffffffffffffffffffffffffffffffffffffffff1916145b80610a695750610a6882612429565b5b9050919050565b606060028054610a7f90614044565b80601f0160208091040260200160405190810160405280929190818152602001828054610aab90614044565b8015610af85780601f10610acd57610100808354040283529160200191610af8565b820191906000526020600020905b815481529060010190602001808311610adb57829003601f168201915b5050505050905090565b6000610b0d82612493565b610b43576040517fcf4700e400000000000000000000000000000000000000000000000000000000815260040160405180910390fd5b6006600083815260200190815260200160002060009054906101000a900473ffffffffffffffffffffffffffffffffffffffff169050919050565b6000610b89826113cf565b90508073ffffffffffffffffffffffffffffffffffffffff168373ffffffffffffffffffffffffffffffffffffffff161415610bf1576040517f943f7b8c00000000000000000000000000000000000000000000000000000000815260040160405180910390fd5b8073ffffffffffffffffffffffffffffffffffffffff16610c106124e1565b73ffffffffffffffffffffffffffffffffffffffff1614158015610c425750610c4081610c3b6124e1565b612169565b155b15610c79576040517fcfb3b94200000000000000000000000000000000000000000000000000000000815260040160405180910390fd5b610c848383836124e9565b505050565b600f5481565b610c976124e1565b73ffffffffffffffffffffffffffffffffffffffff16610cb561166c565b73ffffffffffffffffffffffffffffffffffffffff1614610d0b576040517f08c379a0000000000000000000000000000000000000000000000000000000008152600401610d02906140c2565b60405180910390fd5b80600d9080519060200190610d219291906135e8565b5050565b610d2d6124e1565b73ffffffffffffffffffffffffffffffffffffffff16610d4b61166c565b73ffffffffffffffffffffffffffffffffffffffff1614610da1576040517f08c379a0000000000000000000000000000000000000000000000000000000008152600401610d98906140c2565b60405180910390fd5b80601260006101000a81548160ff02191690831515021790555050565b6000610dc861259b565b6001546000540303905090565b610de08383836125a4565b505050565b600a5481565b610df36124e1565b73ffffffffffffffffffffffffffffffffffffffff16610e1161166c565b73ffffffffffffffffffffffffffffffffffffffff1614610e67576040517f08c379a0000000000000000000000000000000000000000000000000000000008152600401610e5e906140c2565b60405180910390fd5b60026009541415610ead576040517f08c379a0000000000000000000000000000000000000000000000000000000008152600401610ea49061412e565b60405180910390fd5b60026009819055506000610ebf61166c565b73ffffffffffffffffffffffffffffffffffffffff1647604051610ee29061417f565b60006040518083038185875af1925050503d8060008114610f1f576040519150601f19603f3d011682016040523d82523d6000602084013e610f24565b606091505b5050905080610f3257600080fd5b506001600981905550565b610f5883838360405180602001604052806000815250611bba565b505050565b60606000610f6a836113f8565b905060008167ffffffffffffffff811115610f8857610f876139b7565b5b604051908082528060200260200182016040528015610fb65781602001602082028036833780820191505090505b5090506000610fc361259b565b90506000805b8482108015610fd9575060005483105b15611164576000600460008581526020019081526020016000206040518060600160405290816000820160009054906101000a900473ffffffffffffffffffffffffffffffffffffffff1673ffffffffffffffffffffffffffffffffffffffff1673ffffffffffffffffffffffffffffffffffffffff1681526020016000820160149054906101000a900467ffffffffffffffff1667ffffffffffffffff1667ffffffffffffffff16815260200160008201601c9054906101000a900460ff1615151515815250509050806040015161115057600073ffffffffffffffffffffffffffffffffffffffff16816000015173ffffffffffffffffffffffffffffffffffffffff16146110ec57806000015191505b8773ffffffffffffffffffffffffffffffffffffffff168273ffffffffffffffffffffffffffffffffffffffff16141561114f578385848151811061113457611133614194565b5b602002602001018181525050828061114b906141f2565b9350505b5b838061115b906141f2565b94505050610fc9565b8395505050505050919050565b6111796124e1565b73ffffffffffffffffffffffffffffffffffffffff1661119761166c565b73ffffffffffffffffffffffffffffffffffffffff16146111ed576040517f08c379a00000000000000000000000000000000000000000000000000000000081526004016111e4906140c2565b60405180910390fd5b80600f8190555050565b6111ff6124e1565b73ffffffffffffffffffffffffffffffffffffffff1661121d61166c565b73ffffffffffffffffffffffffffffffffffffffff1614611273576040517f08c379a000000000000000000000000000000000000000000000000000000000815260040161126a906140c2565b60405180910390fd5b80600e90805190602001906112899291906135e8565b5050565b601260029054906101000a900460ff1681565b600d80546112ad90614044565b80601f01602080910402602001604051908101604052809291908181526020018280546112d990614044565b80156113265780601f106112fb57610100808354040283529160200191611326565b820191906000526020600020905b81548152906001019060200180831161130957829003601f168201915b505050505081565b601260009054906101000a900460ff1681565b600c805461134e90614044565b80601f016020809104026020016040519081016040528092919081815260200182805461137a90614044565b80156113c75780601f1061139c576101008083540402835291602001916113c7565b820191906000526020600020905b8154815290600101906020018083116113aa57829003601f168201915b505050505081565b60006113da82612a5a565b600001519050919050565b601260019054906101000a900460ff1681565b60008073ffffffffffffffffffffffffffffffffffffffff168273ffffffffffffffffffffffffffffffffffffffff161415611460576040517f8f4eb60400000000000000000000000000000000000000000000000000000000815260040160405180910390fd5b600560008373ffffffffffffffffffffffffffffffffffffffff1673ffffffffffffffffffffffffffffffffffffffff16815260200190815260200160002060000160009054906101000a900467ffffffffffffffff1667ffffffffffffffff169050919050565b6114d06124e1565b73ffffffffffffffffffffffffffffffffffffffff166114ee61166c565b73ffffffffffffffffffffffffffffffffffffffff1614611544576040517f08c379a000000000000000000000000000000000000000000000000000000000815260040161153b906140c2565b60405180910390fd5b61154e6000612ce9565b565b6115586124e1565b73ffffffffffffffffffffffffffffffffffffffff1661157661166c565b73ffffffffffffffffffffffffffffffffffffffff16146115cc576040517f08c379a00000000000000000000000000000000000000000000000000000000081526004016115c3906140c2565b60405180910390fd5b80600a8190555050565b6115de6124e1565b73ffffffffffffffffffffffffffffffffffffffff166115fc61166c565b73ffffffffffffffffffffffffffffffffffffffff1614611652576040517f08c379a0000000000000000000000000000000000000000000000000000000008152600401611649906140c2565b60405180910390fd5b80600c90805190602001906116689291906135e8565b5050565b6000600860009054906101000a900473ffffffffffffffffffffffffffffffffffffffff16905090565b60115481565b6060600380546116ab90614044565b80601f01602080910402602001604051908101604052809291908181526020018280546116d790614044565b80156117245780601f106116f957610100808354040283529160200191611724565b820191906000526020600020905b81548152906001019060200180831161170757829003601f168201915b5050505050905090565b8060008111801561174157506011548111155b611780576040517f08c379a000000000000000000000000000000000000000000000000000000000815260040161177790614287565b60405180910390fd5b6010548161178c610dbe565b61179691906142a7565b11156117d7576040517f08c379a00000000000000000000000000000000000000000000000000000000081526004016117ce90614349565b60405180910390fd5b816117ed81600f54612daf90919063ffffffff16565b34101561182f576040517f08c379a0000000000000000000000000000000000000000000000000000000008152600401611826906143b5565b60405180910390fd5b601260009054906101000a900460ff161561187f576040517f08c379a000000000000000000000000000000000000000000000000000000000815260040161187690614421565b60405180910390fd5b61189061188a6124e1565b84612dc5565b505050565b61189d6124e1565b73ffffffffffffffffffffffffffffffffffffffff168273ffffffffffffffffffffffffffffffffffffffff161415611902576040517fb06307db00000000000000000000000000000000000000000000000000000000815260040160405180910390fd5b806007600061190f6124e1565b73ffffffffffffffffffffffffffffffffffffffff1673ffffffffffffffffffffffffffffffffffffffff16815260200190815260200160002060008473ffffffffffffffffffffffffffffffffffffffff1673ffffffffffffffffffffffffffffffffffffffff16815260200190815260200160002060006101000a81548160ff0219169083151502179055508173ffffffffffffffffffffffffffffffffffffffff166119bc6124e1565b73ffffffffffffffffffffffffffffffffffffffff167f17307eab39ab6107e8899845ad3d59bd9653f200f220920489ca2b5937696c3183604051611a019190613782565b60405180910390a35050565b600e8054611a1a90614044565b80601f0160208091040260200160405190810160405280929190818152602001828054611a4690614044565b8015611a935780601f10611a6857610100808354040283529160200191611a93565b820191906000526020600020905b815481529060010190602001808311611a7657829003601f168201915b505050505081565b611aa36124e1565b73ffffffffffffffffffffffffffffffffffffffff16611ac161166c565b73ffffffffffffffffffffffffffffffffffffffff1614611b17576040517f08c379a0000000000000000000000000000000000000000000000000000000008152600401611b0e906140c2565b60405180910390fd5b8060118190555050565b611b296124e1565b73ffffffffffffffffffffffffffffffffffffffff16611b4761166c565b73ffffffffffffffffffffffffffffffffffffffff1614611b9d576040517f08c379a0000000000000000000000000000000000000000000000000000000008152600401611b94906140c2565b60405180910390fd5b80601260016101000a81548160ff02191690831515021790555050565b611bc58484846125a4565b611be48373ffffffffffffffffffffffffffffffffffffffff16612de3565b8015611bf95750611bf784848484612e06565b155b15611c30576040517fd1a57ed600000000000000000000000000000000000000000000000000000000815260040160405180910390fd5b50505050565b6060611c4182612493565b611c80576040517f08c379a0000000000000000000000000000000000000000000000000000000008152600401611c77906144b3565b60405180910390fd5b60001515601260029054906101000a900460ff1615151415611d2e57600e8054611ca990614044565b80601f0160208091040260200160405190810160405280929190818152602001828054611cd590614044565b8015611d225780601f10611cf757610100808354040283529160200191611d22565b820191906000526020600020905b815481529060010190602001808311611d0557829003601f168201915b50505050509050611d8a565b6000611d38612f66565b90506000815111611d585760405180602001604052806000815250611d86565b80611d6284612ff8565b600d604051602001611d76939291906145a3565b6040516020818303038152906040525b9150505b919050565b82600081118015611da257506011548111155b611de1576040517f08c379a0000000000000000000000000000000000000000000000000000000008152600401611dd890614287565b60405180910390fd5b60105481611ded610dbe565b611df791906142a7565b1115611e38576040517f08c379a0000000000000000000000000000000000000000000000000000000008152600401611e2f90614349565b60405180910390fd5b83611e4e81600f54612daf90919063ffffffff16565b341015611e90576040517f08c379a0000000000000000000000000000000000000000000000000000000008152600401611e87906143b5565b60405180910390fd5b601260019054906101000a900460ff16611edf576040517f08c379a0000000000000000000000000000000000000000000000000000000008152600401611ed690614646565b60405180910390fd5b600b6000611eeb6124e1565b73ffffffffffffffffffffffffffffffffffffffff1673ffffffffffffffffffffffffffffffffffffffff16815260200190815260200160002060009054906101000a900460ff1615611f73576040517f08c379a0000000000000000000000000000000000000000000000000000000008152600401611f6a906146b2565b60405180910390fd5b6000611f7d6124e1565b604051602001611f8d919061471a565b604051602081830303815290604052805190602001209050611ff3858580806020026020016040519081016040528093929190818152602001838360200280828437600081840152601f19601f82011690508083019250505050505050600a5483613159565b612032576040517f08c379a000000000000000000000000000000000000000000000000000000000815260040161202990614781565b60405180910390fd5b6001600b60006120406124e1565b73ffffffffffffffffffffffffffffffffffffffff1673ffffffffffffffffffffffffffffffffffffffff16815260200190815260200160002060006101000a81548160ff0219169083151502179055506120a261209c6124e1565b87612dc5565b505050505050565b60105481565b600b6020528060005260406000206000915054906101000a900460ff1681565b6120d86124e1565b73ffffffffffffffffffffffffffffffffffffffff166120f661166c565b73ffffffffffffffffffffffffffffffffffffffff161461214c576040517f08c379a0000000000000000000000000000000000000000000000000000000008152600401612143906140c2565b60405180910390fd5b80601260026101000a81548160ff02191690831515021790555050565b6000600760008473ffffffffffffffffffffffffffffffffffffffff1673ffffffffffffffffffffffffffffffffffffffff16815260200190815260200160002060008373ffffffffffffffffffffffffffffffffffffffff1673ffffffffffffffffffffffffffffffffffffffff16815260200190815260200160002060009054906101000a900460ff16905092915050565b8160008111801561221057506011548111155b61224f576040517f08c379a000000000000000000000000000000000000000000000000000000000815260040161224690614287565b60405180910390fd5b6010548161225b610dbe565b61226591906142a7565b11156122a6576040517f08c379a000000000000000000000000000000000000000000000000000000000815260040161229d90614349565b60405180910390fd5b6122ae6124e1565b73ffffffffffffffffffffffffffffffffffffffff166122cc61166c565b73ffffffffffffffffffffffffffffffffffffffff1614612322576040517f08c379a0000000000000000000000000000000000000000000000000000000008152600401612319906140c2565b60405180910390fd5b61232c8284612dc5565b505050565b6123396124e1565b73ffffffffffffffffffffffffffffffffffffffff1661235761166c565b73ffffffffffffffffffffffffffffffffffffffff16146123ad576040517f08c379a00000000000000000000000000000000000000000000000000000000081526004016123a4906140c2565b60405180910390fd5b600073ffffffffffffffffffffffffffffffffffffffff168173ffffffffffffffffffffffffffffffffffffffff16141561241d576040517f08c379a000000000000000000000000000000000000000000000000000000000815260040161241490614813565b60405180910390fd5b61242681612ce9565b50565b60007f01ffc9a7000000000000000000000000000000000000000000000000000000007bffffffffffffffffffffffffffffffffffffffffffffffffffffffff1916827bffffffffffffffffffffffffffffffffffffffffffffffffffffffff1916149050919050565b60008161249e61259b565b111580156124ad575060005482105b80156124da575060046000838152602001908152602001600020600001601c9054906101000a900460ff16155b9050919050565b600033905090565b826006600084815260200190815260200160002060006101000a81548173ffffffffffffffffffffffffffffffffffffffff021916908373ffffffffffffffffffffffffffffffffffffffff160217905550818373ffffffffffffffffffffffffffffffffffffffff168273ffffffffffffffffffffffffffffffffffffffff167f8c5be1e5ebec7d5bd14f71427d1e84f3dd0314c0f7b2291e5b200ac8c7c3b92560405160405180910390a4505050565b60006001905090565b60006125af82612a5a565b90508373ffffffffffffffffffffffffffffffffffffffff16816000015173ffffffffffffffffffffffffffffffffffffffff161461261a576040517fa114810000000000000000000000000000000000000000000000000000000000815260040160405180910390fd5b60008473ffffffffffffffffffffffffffffffffffffffff1661263b6124e1565b73ffffffffffffffffffffffffffffffffffffffff16148061266a5750612669856126646124e1565b612169565b5b806126af57506126786124e1565b73ffffffffffffffffffffffffffffffffffffffff1661269784610b02565b73ffffffffffffffffffffffffffffffffffffffff16145b9050806126e8576040517f59c896be00000000000000000000000000000000000000000000000000000000815260040160405180910390fd5b600073ffffffffffffffffffffffffffffffffffffffff168473ffffffffffffffffffffffffffffffffffffffff16141561274f576040517fea553b3400000000000000000000000000000000000000000000000000000000815260040160405180910390fd5b61275c8585856001613170565b612768600084876124e9565b6001600560008773ffffffffffffffffffffffffffffffffffffffff1673ffffffffffffffffffffffffffffffffffffffff16815260200190815260200160002060000160008282829054906101000a900467ffffffffffffffff160392506101000a81548167ffffffffffffffff021916908367ffffffffffffffff1602179055506001600560008673ffffffffffffffffffffffffffffffffffffffff1673ffffffffffffffffffffffffffffffffffffffff16815260200190815260200160002060000160008282829054906101000a900467ffffffffffffffff160192506101000a81548167ffffffffffffffff021916908367ffffffffffffffff1602179055506000600460008581526020019081526020016000209050848160000160006101000a81548173ffffffffffffffffffffffffffffffffffffffff021916908373ffffffffffffffffffffffffffffffffffffffff160217905550428160000160146101000a81548167ffffffffffffffff021916908367ffffffffffffffff16021790555060006001850190506000600460008381526020019081526020016000209050600073ffffffffffffffffffffffffffffffffffffffff168160000160009054906101000a900473ffffffffffffffffffffffffffffffffffffffff1673ffffffffffffffffffffffffffffffffffffffff1614156129e85760005482146129e757878160000160006101000a81548173ffffffffffffffffffffffffffffffffffffffff021916908373ffffffffffffffffffffffffffffffffffffffff16021790555084602001518160000160146101000a81548167ffffffffffffffff021916908367ffffffffffffffff1602179055505b5b505050828473ffffffffffffffffffffffffffffffffffffffff168673ffffffffffffffffffffffffffffffffffffffff167fddf252ad1be2c89b69c2b068fc378daa952ba7f163c4a11628f55a4df523b3ef60405160405180910390a4612a538585856001613176565b5050505050565b612a6261366e565b600082905080612a7061259b565b11158015612a7f575060005481105b15612cb2576000600460008381526020019081526020016000206040518060600160405290816000820160009054906101000a900473ffffffffffffffffffffffffffffffffffffffff1673ffffffffffffffffffffffffffffffffffffffff1673ffffffffffffffffffffffffffffffffffffffff1681526020016000820160149054906101000a900467ffffffffffffffff1667ffffffffffffffff1667ffffffffffffffff16815260200160008201601c9054906101000a900460ff16151515158152505090508060400151612cb057600073ffffffffffffffffffffffffffffffffffffffff16816000015173ffffffffffffffffffffffffffffffffffffffff1614612b94578092505050612ce4565b5b600115612caf57818060019003925050600460008381526020019081526020016000206040518060600160405290816000820160009054906101000a900473ffffffffffffffffffffffffffffffffffffffff1673ffffffffffffffffffffffffffffffffffffffff1673ffffffffffffffffffffffffffffffffffffffff1681526020016000820160149054906101000a900467ffffffffffffffff1667ffffffffffffffff1667ffffffffffffffff16815260200160008201601c9054906101000a900460ff1615151515815250509050600073ffffffffffffffffffffffffffffffffffffffff16816000015173ffffffffffffffffffffffffffffffffffffffff1614612caa578092505050612ce4565b612b95565b5b505b6040517fdf2d9b4200000000000000000000000000000000000000000000000000000000815260040160405180910390fd5b919050565b6000600860009054906101000a900473ffffffffffffffffffffffffffffffffffffffff16905081600860006101000a81548173ffffffffffffffffffffffffffffffffffffffff021916908373ffffffffffffffffffffffffffffffffffffffff1602179055508173ffffffffffffffffffffffffffffffffffffffff168173ffffffffffffffffffffffffffffffffffffffff167f8be0079c531659141344cd1fd0a4f28419497f9722a3daafe3b4186f6b6457e060405160405180910390a35050565b60008183612dbd9190614833565b905092915050565b612ddf82826040518060200160405280600081525061317c565b5050565b6000808273ffffffffffffffffffffffffffffffffffffffff163b119050919050565b60008373ffffffffffffffffffffffffffffffffffffffff1663150b7a02612e2c6124e1565b8786866040518563ffffffff1660e01b8152600401612e4e94939291906148e2565b602060405180830381600087803b158015612e6857600080fd5b505af1925050508015612e9957506040513d601f19601f82011682018060405250810190612e969190614943565b60015b612f13573d8060008114612ec9576040519150601f19603f3d011682016040523d82523d6000602084013e612ece565b606091505b50600081511415612f0b576040517fd1a57ed600000000000000000000000000000000000000000000000000000000815260040160405180910390fd5b805181602001fd5b63150b7a0260e01b7bffffffffffffffffffffffffffffffffffffffffffffffffffffffff1916817bffffffffffffffffffffffffffffffffffffffffffffffffffffffff191614915050949350505050565b6060600c8054612f7590614044565b80601f0160208091040260200160405190810160405280929190818152602001828054612fa190614044565b8015612fee5780601f10612fc357610100808354040283529160200191612fee565b820191906000526020600020905b815481529060010190602001808311612fd157829003601f168201915b5050505050905090565b60606000821415613040576040518060400160405280600181526020017f30000000000000000000000000000000000000000000000000000000000000008152509050613154565b600082905060005b6000821461307257808061305b906141f2565b915050600a8261306b919061499f565b9150613048565b60008167ffffffffffffffff81111561308e5761308d6139b7565b5b6040519080825280601f01601f1916602001820160405280156130c05781602001600182028036833780820191505090505b5090505b6000851461314d576001826130d991906149d0565b9150600a856130e89190614a04565b60306130f491906142a7565b60f81b81838151811061310a57613109614194565b5b60200101907effffffffffffffffffffffffffffffffffffffffffffffffffffffffffffff1916908160001a905350600a85613146919061499f565b94506130c4565b8093505050505b919050565b600082613166858461318e565b1490509392505050565b50505050565b50505050565b6131898383836001613203565b505050565b60008082905060005b84518110156131f85760008582815181106131b5576131b4614194565b5b602002602001015190508083116131d7576131d083826135d1565b92506131e4565b6131e181846135d1565b92505b5080806131f0906141f2565b915050613197565b508091505092915050565b600080549050600073ffffffffffffffffffffffffffffffffffffffff168573ffffffffffffffffffffffffffffffffffffffff161415613270576040517f2e07630000000000000000000000000000000000000000000000000000000000815260040160405180910390fd5b60008414156132ab576040517fb562e8dd00000000000000000000000000000000000000000000000000000000815260040160405180910390fd5b6132b86000868387613170565b83600560008773ffffffffffffffffffffffffffffffffffffffff1673ffffffffffffffffffffffffffffffffffffffff16815260200190815260200160002060000160008282829054906101000a900467ffffffffffffffff160192506101000a81548167ffffffffffffffff021916908367ffffffffffffffff16021790555083600560008773ffffffffffffffffffffffffffffffffffffffff1673ffffffffffffffffffffffffffffffffffffffff16815260200190815260200160002060000160088282829054906101000a900467ffffffffffffffff160192506101000a81548167ffffffffffffffff021916908367ffffffffffffffff160217905550846004600083815260200190815260200160002060000160006101000a81548173ffffffffffffffffffffffffffffffffffffffff021916908373ffffffffffffffffffffffffffffffffffffffff160217905550426004600083815260200190815260200160002060000160146101000a81548167ffffffffffffffff021916908367ffffffffffffffff16021790555060008190506000858201905083801561348257506134818773ffffffffffffffffffffffffffffffffffffffff16612de3565b5b15613548575b818773ffffffffffffffffffffffffffffffffffffffff16600073ffffffffffffffffffffffffffffffffffffffff167fddf252ad1be2c89b69c2b068fc378daa952ba7f163c4a11628f55a4df523b3ef60405160405180910390a46134f76000888480600101955088612e06565b61352d576040517fd1a57ed600000000000000000000000000000000000000000000000000000000815260040160405180910390fd5b8082141561348857826000541461354357600080fd5b6135b4565b5b818060010192508773ffffffffffffffffffffffffffffffffffffffff16600073ffffffffffffffffffffffffffffffffffffffff167fddf252ad1be2c89b69c2b068fc378daa952ba7f163c4a11628f55a4df523b3ef60405160405180910390a480821415613549575b8160008190555050506135ca6000868387613176565b5050505050565b600082600052816020526040600020905092915050565b8280546135f490614044565b90600052602060002090601f016020900481019282613616576000855561365d565b82601f1061362f57805160ff191683800117855561365d565b8280016001018555821561365d579182015b8281111561365c578251825591602001919060010190613641565b5b50905061366a91906136b1565b5090565b6040518060600160405280600073ffffffffffffffffffffffffffffffffffffffff168152602001600067ffffffffffffffff1681526020016000151581525090565b5b808211156136ca5760008160009055506001016136b2565b5090565b6000604051905090565b600080fd5b600080fd5b60007fffffffff0000000000000000000000000000000000000000000000000000000082169050919050565b613717816136e2565b811461372257600080fd5b50565b6000813590506137348161370e565b92915050565b6000602082840312156137505761374f6136d8565b5b600061375e84828501613725565b91505092915050565b60008115159050919050565b61377c81613767565b82525050565b60006020820190506137976000830184613773565b92915050565b600081519050919050565b600082825260208201905092915050565b60005b838110156137d75780820151818401526020810190506137bc565b838111156137e6576000848401525b50505050565b6000601f19601f8301169050919050565b60006138088261379d565b61381281856137a8565b93506138228185602086016137b9565b61382b816137ec565b840191505092915050565b6000602082019050818103600083015261385081846137fd565b905092915050565b6000819050919050565b61386b81613858565b811461387657600080fd5b50565b60008135905061388881613862565b92915050565b6000602082840312156138a4576138a36136d8565b5b60006138b284828501613879565b91505092915050565b600073ffffffffffffffffffffffffffffffffffffffff82169050919050565b60006138e6826138bb565b9050919050565b6138f6816138db565b82525050565b600060208201905061391160008301846138ed565b92915050565b613920816138db565b811461392b57600080fd5b50565b60008135905061393d81613917565b92915050565b6000806040838503121561395a576139596136d8565b5b60006139688582860161392e565b925050602061397985828601613879565b9150509250929050565b61398c81613858565b82525050565b60006020820190506139a76000830184613983565b92915050565b600080fd5b600080fd5b7f4e487b7100000000000000000000000000000000000000000000000000000000600052604160045260246000fd5b6139ef826137ec565b810181811067ffffffffffffffff82111715613a0e57613a0d6139b7565b5b80604052505050565b6000613a216136ce565b9050613a2d82826139e6565b919050565b600067ffffffffffffffff821115613a4d57613a4c6139b7565b5b613a56826137ec565b9050602081019050919050565b82818337600083830152505050565b6000613a85613a8084613a32565b613a17565b905082815260208101848484011115613aa157613aa06139b2565b5b613aac848285613a63565b509392505050565b600082601f830112613ac957613ac86139ad565b5b8135613ad9848260208601613a72565b91505092915050565b600060208284031215613af857613af76136d8565b5b600082013567ffffffffffffffff811115613b1657613b156136dd565b5b613b2284828501613ab4565b91505092915050565b613b3481613767565b8114613b3f57600080fd5b50565b600081359050613b5181613b2b565b92915050565b600060208284031215613b6d57613b6c6136d8565b5b6000613b7b84828501613b42565b91505092915050565b600080600060608486031215613b9d57613b9c6136d8565b5b6000613bab8682870161392e565b9350506020613bbc8682870161392e565b9250506040613bcd86828701613879565b9150509250925092565b6000819050919050565b613bea81613bd7565b82525050565b6000602082019050613c056000830184613be1565b92915050565b600060208284031215613c2157613c206136d8565b5b6000613c2f8482850161392e565b91505092915050565b600081519050919050565b600082825260208201905092915050565b6000819050602082019050919050565b613c6d81613858565b82525050565b6000613c7f8383613c64565b60208301905092915050565b6000602082019050919050565b6000613ca382613c38565b613cad8185613c43565b9350613cb883613c54565b8060005b83811015613ce9578151613cd08882613c73565b9750613cdb83613c8b565b925050600181019050613cbc565b5085935050505092915050565b60006020820190508181036000830152613d108184613c98565b905092915050565b613d2181613bd7565b8114613d2c57600080fd5b50565b600081359050613d3e81613d18565b92915050565b600060208284031215613d5a57613d596136d8565b5b6000613d6884828501613d2f565b91505092915050565b60008060408385031215613d8857613d876136d8565b5b6000613d968582860161392e565b9250506020613da785828601613b42565b9150509250929050565b600067ffffffffffffffff821115613dcc57613dcb6139b7565b5b613dd5826137ec565b9050602081019050919050565b6000613df5613df084613db1565b613a17565b905082815260208101848484011115613e1157613e106139b2565b5b613e1c848285613a63565b509392505050565b600082601f830112613e3957613e386139ad565b5b8135613e49848260208601613de2565b91505092915050565b60008060008060808587031215613e6c57613e6b6136d8565b5b6000613e7a8782880161392e565b9450506020613e8b8782880161392e565b9350506040613e9c87828801613879565b925050606085013567ffffffffffffffff811115613ebd57613ebc6136dd565b5b613ec987828801613e24565b91505092959194509250565b600080fd5b600080fd5b60008083601f840112613ef557613ef46139ad565b5b8235905067ffffffffffffffff811115613f1257613f11613ed5565b5b602083019150836020820283011115613f2e57613f2d613eda565b5b9250929050565b600080600060408486031215613f4e57613f4d6136d8565b5b6000613f5c86828701613879565b935050602084013567ffffffffffffffff811115613f7d57613f7c6136dd565b5b613f8986828701613edf565b92509250509250925092565b60008060408385031215613fac57613fab6136d8565b5b6000613fba8582860161392e565b9250506020613fcb8582860161392e565b9150509250929050565b60008060408385031215613fec57613feb6136d8565b5b6000613ffa85828601613879565b925050602061400b8582860161392e565b9150509250929050565b7f4e487b7100000000000000000000000000000000000000000000000000000000600052602260045260246000fd5b6000600282049050600182168061405c57607f821691505b602082108114156140705761406f614015565b5b50919050565b7f4f776e61626c653a2063616c6c6572206973206e6f7420746865206f776e6572600082015250565b60006140ac6020836137a8565b91506140b782614076565b602082019050919050565b600060208201905081810360008301526140db8161409f565b9050919050565b7f5265656e7472616e637947756172643a207265656e7472616e742063616c6c00600082015250565b6000614118601f836137a8565b9150614123826140e2565b602082019050919050565b600060208201905081810360008301526141478161410b565b9050919050565b600081905092915050565b50565b600061416960008361414e565b915061417482614159565b600082019050919050565b600061418a8261415c565b9150819050919050565b7f4e487b7100000000000000000000000000000000000000000000000000000000600052603260045260246000fd5b7f4e487b7100000000000000000000000000000000000000000000000000000000600052601160045260246000fd5b60006141fd82613858565b91507fffffffffffffffffffffffffffffffffffffffffffffffffffffffffffffffff8214156142305761422f6141c3565b5b600182019050919050565b7f496e76616c6964206d696e7420616d6f756e7421000000000000000000000000600082015250565b60006142716014836137a8565b915061427c8261423b565b602082019050919050565b600060208201905081810360008301526142a081614264565b9050919050565b60006142b282613858565b91506142bd83613858565b9250827fffffffffffffffffffffffffffffffffffffffffffffffffffffffffffffffff038211156142f2576142f16141c3565b5b828201905092915050565b7f4d617820737570706c7920657863656564656421000000000000000000000000600082015250565b60006143336014836137a8565b915061433e826142fd565b602082019050919050565b6000602082019050818103600083015261436281614326565b9050919050565b7f496e73756666696369656e742066756e64732100000000000000000000000000600082015250565b600061439f6013836137a8565b91506143aa82614369565b602082019050919050565b600060208201905081810360008301526143ce81614392565b9050919050565b7f54686520636f6e74726163742069732070617573656421000000000000000000600082015250565b600061440b6017836137a8565b9150614416826143d5565b602082019050919050565b6000602082019050818103600083015261443a816143fe565b9050919050565b7f4552433732314d657461646174613a2055524920717565727920666f72206e6f60008201527f6e6578697374656e7420746f6b656e0000000000000000000000000000000000602082015250565b600061449d602f836137a8565b91506144a882614441565b604082019050919050565b600060208201905081810360008301526144cc81614490565b9050919050565b600081905092915050565b60006144e98261379d565b6144f381856144d3565b93506145038185602086016137b9565b80840191505092915050565b60008190508160005260206000209050919050565b6000815461453181614044565b61453b81866144d3565b9450600182166000811461455657600181146145675761459a565b60ff1983168652818601935061459a565b6145708561450f565b60005b8381101561459257815481890152600182019150602081019050614573565b838801955050505b50505092915050565b60006145af82866144de565b91506145bb82856144de565b91506145c78284614524565b9150819050949350505050565b7f5468652077686974656c6973742073616c65206973206e6f7420656e61626c6560008201527f6421000000000000000000000000000000000000000000000000000000000000602082015250565b60006146306022836137a8565b915061463b826145d4565b604082019050919050565b6000602082019050818103600083015261465f81614623565b9050919050565b7f4164647265737320616c726561647920636c61696d6564210000000000000000600082015250565b600061469c6018836137a8565b91506146a782614666565b602082019050919050565b600060208201905081810360008301526146cb8161468f565b9050919050565b60008160601b9050919050565b60006146ea826146d2565b9050919050565b60006146fc826146df565b9050919050565b61471461470f826138db565b6146f1565b82525050565b60006147268284614703565b60148201915081905092915050565b7f496e76616c69642070726f6f6621000000000000000000000000000000000000600082015250565b600061476b600e836137a8565b915061477682614735565b602082019050919050565b6000602082019050818103600083015261479a8161475e565b9050919050565b7f4f776e61626c653a206e6577206f776e657220697320746865207a65726f206160008201527f6464726573730000000000000000000000000000000000000000000000000000602082015250565b60006147fd6026836137a8565b9150614808826147a1565b604082019050919050565b6000602082019050818103600083015261482c816147f0565b9050919050565b600061483e82613858565b915061484983613858565b9250817fffffffffffffffffffffffffffffffffffffffffffffffffffffffffffffffff0483118215151615614882576148816141c3565b5b828202905092915050565b600081519050919050565b600082825260208201905092915050565b60006148b48261488d565b6148be8185614898565b93506148ce8185602086016137b9565b6148d7816137ec565b840191505092915050565b60006080820190506148f760008301876138ed565b61490460208301866138ed565b6149116040830185613983565b818103606083015261492381846148a9565b905095945050505050565b60008151905061493d8161370e565b92915050565b600060208284031215614959576149586136d8565b5b60006149678482850161492e565b91505092915050565b7f4e487b7100000000000000000000000000000000000000000000000000000000600052601260045260246000fd5b60006149aa82613858565b91506149b583613858565b9250826149c5576149c4614970565b5b828204905092915050565b60006149db82613858565b91506149e683613858565b9250828210156149f9576149f86141c3565b5b828203905092915050565b6000614a0f82613858565b9150614a1a83613858565b925082614a2a57614a29614970565b5b82820690509291505056fea2646970667358221220177ddfbabca5a26471c00fe29055c70a12eafafef10d9616e3bff265a310c70d64736f6c63430008090033",
  "linkReferences": {},
  "deployedLinkReferences": {}
}