{
  "_format": "hh-sol-artifact-1",
  "contractName": "PlanetsContract",
  "sourceName": "contracts/Planets.sol",
  "abi": [
    {
      "inputs": [
        {
          "internalType": "string",
          "name": "_tokenName",
          "type": "string"
        },
        {
          "internalType": "string",
          "name": "_tokenSymbol",
          "type": "string"
        },
        {
          "internalType": "uint256",
          "name": "_cost",
          "type": "uint256"
        },
        {
          "internalType": "uint256",
          "name": "_maxSupply",
          "type": "uint256"
        },
        {
          "internalType": "uint256",
          "name": "_maxMintAmountPerTx",
          "type": "uint256"
        },
        {
          "internalType": "string",
          "name": "_hiddenMetadataUri",
          "type": "string"
        }
      ],
      "stateMutability": "nonpayable",
      "type": "constructor"
    },
    {
      "inputs": [],
      "name": "ApprovalCallerNotOwnerNorApproved",
      "type": "error"
    },
    {
      "inputs": [],
      "name": "ApprovalQueryForNonexistentToken",
      "type": "error"
    },
    {
      "inputs": [],
      "name": "ApprovalToCurrentOwner",
      "type": "error"
    },
    {
      "inputs": [],
      "name": "ApproveToCaller",
      "type": "error"
    },
    {
      "inputs": [],
      "name": "BalanceQueryForZeroAddress",
      "type": "error"
    },
    {
      "inputs": [],
      "name": "MintToZeroAddress",
      "type": "error"
    },
    {
      "inputs": [],
      "name": "MintZeroQuantity",
      "type": "error"
    },
    {
      "inputs": [],
      "name": "OwnerQueryForNonexistentToken",
      "type": "error"
    },
    {
      "inputs": [],
      "name": "TransferCallerNotOwnerNorApproved",
      "type": "error"
    },
    {
      "inputs": [],
      "name": "TransferFromIncorrectOwner",
      "type": "error"
    },
    {
      "inputs": [],
      "name": "TransferToNonERC721ReceiverImplementer",
      "type": "error"
    },
    {
      "inputs": [],
      "name": "TransferToZeroAddress",
      "type": "error"
    },
    {
      "anonymous": false,
      "inputs": [
        {
          "indexed": true,
          "internalType": "address",
          "name": "owner",
          "type": "address"
        },
        {
          "indexed": true,
          "internalType": "address",
          "name": "approved",
          "type": "address"
        },
        {
          "indexed": true,
          "internalType": "uint256",
          "name": "tokenId",
          "type": "uint256"
        }
      ],
      "name": "Approval",
      "type": "event"
    },
    {
      "anonymous": false,
      "inputs": [
        {
          "indexed": true,
          "internalType": "address",
          "name": "owner",
          "type": "address"
        },
        {
          "indexed": true,
          "internalType": "address",
          "name": "operator",
          "type": "address"
        },
        {
          "indexed": false,
          "internalType": "bool",
          "name": "approved",
          "type": "bool"
        }
      ],
      "name": "ApprovalForAll",
      "type": "event"
    },
    {
      "anonymous": false,
      "inputs": [
        {
          "indexed": true,
          "internalType": "address",
          "name": "previousOwner",
          "type": "address"
        },
        {
          "indexed": true,
          "internalType": "address",
          "name": "newOwner",
          "type": "address"
        }
      ],
      "name": "OwnershipTransferred",
      "type": "event"
    },
    {
      "anonymous": false,
      "inputs": [
        {
          "indexed": true,
          "internalType": "address",
          "name": "from",
          "type": "address"
        },
        {
          "indexed": true,
          "internalType": "address",
          "name": "to",
          "type": "address"
        },
        {
          "indexed": true,
          "internalType": "uint256",
          "name": "tokenId",
          "type": "uint256"
        }
      ],
      "name": "Transfer",
      "type": "event"
    },
    {
      "inputs": [
        {
          "internalType": "address",
          "name": "to",
          "type": "address"
        },
        {
          "internalType": "uint256",
          "name": "tokenId",
          "type": "uint256"
        }
      ],
      "name": "approve",
      "outputs": [],
      "stateMutability": "nonpayable",
      "type": "function"
    },
    {
      "inputs": [
        {
          "internalType": "address",
          "name": "owner",
          "type": "address"
        }
      ],
      "name": "balanceOf",
      "outputs": [
        {
          "internalType": "uint256",
          "name": "",
          "type": "uint256"
        }
      ],
      "stateMutability": "view",
      "type": "function"
    },
    {
      "inputs": [],
      "name": "cost",
      "outputs": [
        {
          "internalType": "uint256",
          "name": "",
          "type": "uint256"
        }
      ],
      "stateMutability": "view",
      "type": "function"
    },
    {
      "inputs": [
        {
          "internalType": "uint256",
          "name": "tokenId",
          "type": "uint256"
        }
      ],
      "name": "getApproved",
      "outputs": [
        {
          "internalType": "address",
          "name": "",
          "type": "address"
        }
      ],
      "stateMutability": "view",
      "type": "function"
    },
    {
      "inputs": [],
      "name": "hiddenMetadataUri",
      "outputs": [
        {
          "internalType": "string",
          "name": "",
          "type": "string"
        }
      ],
      "stateMutability": "view",
      "type": "function"
    },
    {
      "inputs": [
        {
          "internalType": "address",
          "name": "owner",
          "type": "address"
        },
        {
          "internalType": "address",
          "name": "operator",
          "type": "address"
        }
      ],
      "name": "isApprovedForAll",
      "outputs": [
        {
          "internalType": "bool",
          "name": "",
          "type": "bool"
        }
      ],
      "stateMutability": "view",
      "type": "function"
    },
    {
      "inputs": [],
      "name": "maxMintAmountPerTx",
      "outputs": [
        {
          "internalType": "uint256",
          "name": "",
          "type": "uint256"
        }
      ],
      "stateMutability": "view",
      "type": "function"
    },
    {
      "inputs": [],
      "name": "maxSupply",
      "outputs": [
        {
          "internalType": "uint256",
          "name": "",
          "type": "uint256"
        }
      ],
      "stateMutability": "view",
      "type": "function"
    },
    {
      "inputs": [],
      "name": "merkleRoot",
      "outputs": [
        {
          "internalType": "bytes32",
          "name": "",
          "type": "bytes32"
        }
      ],
      "stateMutability": "view",
      "type": "function"
    },
    {
      "inputs": [
        {
          "internalType": "uint256",
          "name": "_mintAmount",
          "type": "uint256"
        }
      ],
      "name": "mint",
      "outputs": [],
      "stateMutability": "payable",
      "type": "function"
    },
    {
      "inputs": [
        {
          "internalType": "uint256",
          "name": "_mintAmount",
          "type": "uint256"
        },
        {
          "internalType": "address",
          "name": "_receiver",
          "type": "address"
        }
      ],
      "name": "mintForAddress",
      "outputs": [],
      "stateMutability": "nonpayable",
      "type": "function"
    },
    {
      "inputs": [],
      "name": "name",
      "outputs": [
        {
          "internalType": "string",
          "name": "",
          "type": "string"
        }
      ],
      "stateMutability": "view",
      "type": "function"
    },
    {
      "inputs": [],
      "name": "owner",
      "outputs": [
        {
          "internalType": "address",
          "name": "",
          "type": "address"
        }
      ],
      "stateMutability": "view",
      "type": "function"
    },
    {
      "inputs": [
        {
          "internalType": "uint256",
          "name": "tokenId",
          "type": "uint256"
        }
      ],
      "name": "ownerOf",
      "outputs": [
        {
          "internalType": "address",
          "name": "",
          "type": "address"
        }
      ],
      "stateMutability": "view",
      "type": "function"
    },
    {
      "inputs": [],
      "name": "paused",
      "outputs": [
        {
          "internalType": "bool",
          "name": "",
          "type": "bool"
        }
      ],
      "stateMutability": "view",
      "type": "function"
    },
    {
      "inputs": [],
      "name": "renounceOwnership",
      "outputs": [],
      "stateMutability": "nonpayable",
      "type": "function"
    },
    {
      "inputs": [],
      "name": "revealed",
      "outputs": [
        {
          "internalType": "bool",
          "name": "",
          "type": "bool"
        }
      ],
      "stateMutability": "view",
      "type": "function"
    },
    {
      "inputs": [
        {
          "internalType": "address",
          "name": "from",
          "type": "address"
        },
        {
          "internalType": "address",
          "name": "to",
          "type": "address"
        },
        {
          "internalType": "uint256",
          "name": "tokenId",
          "type": "uint256"
        }
      ],
      "name": "safeTransferFrom",
      "outputs": [],
      "stateMutability": "nonpayable",
      "type": "function"
    },
    {
      "inputs": [
        {
          "internalType": "address",
          "name": "from",
          "type": "address"
        },
        {
          "internalType": "address",
          "name": "to",
          "type": "address"
        },
        {
          "internalType": "uint256",
          "name": "tokenId",
          "type": "uint256"
        },
        {
          "internalType": "bytes",
          "name": "_data",
          "type": "bytes"
        }
      ],
      "name": "safeTransferFrom",
      "outputs": [],
      "stateMutability": "nonpayable",
      "type": "function"
    },
    {
      "inputs": [
        {
          "internalType": "address",
          "name": "operator",
          "type": "address"
        },
        {
          "internalType": "bool",
          "name": "approved",
          "type": "bool"
        }
      ],
      "name": "setApprovalForAll",
      "outputs": [],
      "stateMutability": "nonpayable",
      "type": "function"
    },
    {
      "inputs": [
        {
          "internalType": "uint256",
          "name": "_cost",
          "type": "uint256"
        }
      ],
      "name": "setCost",
      "outputs": [],
      "stateMutability": "nonpayable",
      "type": "function"
    },
    {
      "inputs": [
        {
          "internalType": "string",
          "name": "_hiddenMetadataUri",
          "type": "string"
        }
      ],
      "name": "setHiddenMetadataUri",
      "outputs": [],
      "stateMutability": "nonpayable",
      "type": "function"
    },
    {
      "inputs": [
        {
          "internalType": "uint256",
          "name": "_maxMintAmountPerTx",
          "type": "uint256"
        }
      ],
      "name": "setMaxMintAmountPerTx",
      "outputs": [],
      "stateMutability": "nonpayable",
      "type": "function"
    },
    {
      "inputs": [
        {
          "internalType": "bytes32",
          "name": "_merkleRoot",
          "type": "bytes32"
        }
      ],
      "name": "setMerkleRoot",
      "outputs": [],
      "stateMutability": "nonpayable",
      "type": "function"
    },
    {
      "inputs": [
        {
          "internalType": "bool",
          "name": "_state",
          "type": "bool"
        }
      ],
      "name": "setPaused",
      "outputs": [],
      "stateMutability": "nonpayable",
      "type": "function"
    },
    {
      "inputs": [
        {
          "internalType": "bool",
          "name": "_state",
          "type": "bool"
        }
      ],
      "name": "setRevealed",
      "outputs": [],
      "stateMutability": "nonpayable",
      "type": "function"
    },
    {
      "inputs": [
        {
          "internalType": "string",
          "name": "_uriPrefix",
          "type": "string"
        }
      ],
      "name": "setUriPrefix",
      "outputs": [],
      "stateMutability": "nonpayable",
      "type": "function"
    },
    {
      "inputs": [
        {
          "internalType": "string",
          "name": "_uriSuffix",
          "type": "string"
        }
      ],
      "name": "setUriSuffix",
      "outputs": [],
      "stateMutability": "nonpayable",
      "type": "function"
    },
    {
      "inputs": [
        {
          "internalType": "bool",
          "name": "_state",
          "type": "bool"
        }
      ],
      "name": "setWhitelistMintEnabled",
      "outputs": [],
      "stateMutability": "nonpayable",
      "type": "function"
    },
    {
      "inputs": [
        {
          "internalType": "bytes4",
          "name": "interfaceId",
          "type": "bytes4"
        }
      ],
      "name": "supportsInterface",
      "outputs": [
        {
          "internalType": "bool",
          "name": "",
          "type": "bool"
        }
      ],
      "stateMutability": "view",
      "type": "function"
    },
    {
      "inputs": [],
      "name": "symbol",
      "outputs": [
        {
          "internalType": "string",
          "name": "",
          "type": "string"
        }
      ],
      "stateMutability": "view",
      "type": "function"
    },
    {
      "inputs": [
        {
          "internalType": "uint256",
          "name": "_tokenId",
          "type": "uint256"
        }
      ],
      "name": "tokenURI",
      "outputs": [
        {
          "internalType": "string",
          "name": "",
          "type": "string"
        }
      ],
      "stateMutability": "view",
      "type": "function"
    },
    {
      "inputs": [],
      "name": "totalSupply",
      "outputs": [
        {
          "internalType": "uint256",
          "name": "",
          "type": "uint256"
        }
      ],
      "stateMutability": "view",
      "type": "function"
    },
    {
      "inputs": [
        {
          "internalType": "address",
          "name": "from",
          "type": "address"
        },
        {
          "internalType": "address",
          "name": "to",
          "type": "address"
        },
        {
          "internalType": "uint256",
          "name": "tokenId",
          "type": "uint256"
        }
      ],
      "name": "transferFrom",
      "outputs": [],
      "stateMutability": "nonpayable",
      "type": "function"
    },
    {
      "inputs": [
        {
          "internalType": "address",
          "name": "newOwner",
          "type": "address"
        }
      ],
      "name": "transferOwnership",
      "outputs": [],
      "stateMutability": "nonpayable",
      "type": "function"
    },
    {
      "inputs": [],
      "name": "uriPrefix",
      "outputs": [
        {
          "internalType": "string",
          "name": "",
          "type": "string"
        }
      ],
      "stateMutability": "view",
      "type": "function"
    },
    {
      "inputs": [],
      "name": "uriSuffix",
      "outputs": [
        {
          "internalType": "string",
          "name": "",
          "type": "string"
        }
      ],
      "stateMutability": "view",
      "type": "function"
    },
    {
      "inputs": [
        {
          "internalType": "address",
          "name": "_owner",
          "type": "address"
        }
      ],
      "name": "walletOfOwner",
      "outputs": [
        {
          "internalType": "uint256[]",
          "name": "",
          "type": "uint256[]"
        }
      ],
      "stateMutability": "view",
      "type": "function"
    },
    {
      "inputs": [
        {
          "internalType": "address",
          "name": "",
          "type": "address"
        }
      ],
      "name": "whitelistClaimed",
      "outputs": [
        {
          "internalType": "bool",
          "name": "",
          "type": "bool"
        }
      ],
      "stateMutability": "view",
      "type": "function"
    },
    {
      "inputs": [
        {
          "internalType": "uint256",
          "name": "_mintAmount",
          "type": "uint256"
        },
        {
          "internalType": "bytes32[]",
          "name": "_merkleProof",
          "type": "bytes32[]"
        }
      ],
      "name": "whitelistMint",
      "outputs": [],
      "stateMutability": "payable",
      "type": "function"
    },
    {
      "inputs": [],
      "name": "whitelistMintEnabled",
      "outputs": [
        {
          "internalType": "bool",
          "name": "",
          "type": "bool"
        }
      ],
      "stateMutability": "view",
      "type": "function"
    },
    {
      "inputs": [],
      "name": "withdraw",
      "outputs": [],
      "stateMutability": "nonpayable",
      "type": "function"
    }
  ],
  "bytecode": "0x608060405260405180602001604052806000815250600c90805190602001906200002b92919062000496565b506040518060400160405280600581526020017f2e6a736f6e000000000000000000000000000000000000000000000000000000815250600d90805190602001906200007992919062000496565b506001601260006101000a81548160ff0219169083151502179055506000601260016101000a81548160ff0219169083151502179055506000601260026101000a81548160ff021916908315150217905550348015620000d857600080fd5b506040516200532f3803806200532f8339818101604052810190620000fe9190620005cf565b858581600290805190602001906200011892919062000496565b5080600390805190602001906200013192919062000496565b5062000142620001b860201b60201c565b60008190555050506200016a6200015e620001c160201b60201c565b620001c960201b60201c565b600160098190555062000183846200028f60201b60201c565b826010819055506200019b826200032860201b60201c565b620001ac81620003c160201b60201c565b505050505050620008c7565b60006001905090565b600033905090565b6000600860009054906101000a900473ffffffffffffffffffffffffffffffffffffffff16905081600860006101000a81548173ffffffffffffffffffffffffffffffffffffffff021916908373ffffffffffffffffffffffffffffffffffffffff1602179055508173ffffffffffffffffffffffffffffffffffffffff168173ffffffffffffffffffffffffffffffffffffffff167f8be0079c531659141344cd1fd0a4f28419497f9722a3daafe3b4186f6b6457e060405160405180910390a35050565b6200029f620001c160201b60201c565b73ffffffffffffffffffffffffffffffffffffffff16620002c56200046c60201b60201c565b73ffffffffffffffffffffffffffffffffffffffff16146200031e576040517f08c379a00000000000000000000000000000000000000000000000000000000081526004016200031590620006d7565b60405180910390fd5b80600f8190555050565b62000338620001c160201b60201c565b73ffffffffffffffffffffffffffffffffffffffff166200035e6200046c60201b60201c565b73ffffffffffffffffffffffffffffffffffffffff1614620003b7576040517f08c379a0000000000000000000000000000000000000000000000000000000008152600401620003ae90620006d7565b60405180910390fd5b8060118190555050565b620003d1620001c160201b60201c565b73ffffffffffffffffffffffffffffffffffffffff16620003f76200046c60201b60201c565b73ffffffffffffffffffffffffffffffffffffffff161462000450576040517f08c379a00000000000000000000000000000000000000000000000000000000081526004016200044790620006d7565b60405180910390fd5b80600e90805190602001906200046892919062000496565b5050565b6000600860009054906101000a900473ffffffffffffffffffffffffffffffffffffffff16905090565b828054620004a490620007a9565b90600052602060002090601f016020900481019282620004c8576000855562000514565b82601f10620004e357805160ff191683800117855562000514565b8280016001018555821562000514579182015b8281111562000513578251825591602001919060010190620004f6565b5b50905062000523919062000527565b5090565b5b808211156200054257600081600090555060010162000528565b5090565b60006200055d620005578462000722565b620006f9565b9050828152602081018484840111156200057657600080fd5b6200058384828562000773565b509392505050565b600082601f8301126200059d57600080fd5b8151620005af84826020860162000546565b91505092915050565b600081519050620005c981620008ad565b92915050565b60008060008060008060c08789031215620005e957600080fd5b600087015167ffffffffffffffff8111156200060457600080fd5b6200061289828a016200058b565b965050602087015167ffffffffffffffff8111156200063057600080fd5b6200063e89828a016200058b565b95505060406200065189828a01620005b8565b94505060606200066489828a01620005b8565b93505060806200067789828a01620005b8565b92505060a087015167ffffffffffffffff8111156200069557600080fd5b620006a389828a016200058b565b9150509295509295509295565b6000620006bf60208362000758565b9150620006cc8262000884565b602082019050919050565b60006020820190508181036000830152620006f281620006b0565b9050919050565b60006200070562000718565b9050620007138282620007df565b919050565b6000604051905090565b600067ffffffffffffffff82111562000740576200073f62000844565b5b6200074b8262000873565b9050602081019050919050565b600082825260208201905092915050565b6000819050919050565b60005b838110156200079357808201518184015260208101905062000776565b83811115620007a3576000848401525b50505050565b60006002820490506001821680620007c257607f821691505b60208210811415620007d957620007d862000815565b5b50919050565b620007ea8262000873565b810181811067ffffffffffffffff821117156200080c576200080b62000844565b5b80604052505050565b7f4e487b7100000000000000000000000000000000000000000000000000000000600052602260045260246000fd5b7f4e487b7100000000000000000000000000000000000000000000000000000000600052604160045260246000fd5b6000601f19601f8301169050919050565b7f4f776e61626c653a2063616c6c6572206973206e6f7420746865206f776e6572600082015250565b620008b88162000769565b8114620008c457600080fd5b50565b614a5880620008d76000396000f3fe6080604052600436106102515760003560e01c806370a0823111610139578063b071401b116100b6578063d5abeb011161007a578063d5abeb011461086e578063db4bec4414610899578063e0a80853146108d6578063e985e9c5146108ff578063efbd73f41461093c578063f2fde38b1461096557610251565b8063b071401b1461079a578063b767a098146107c3578063b88d4fde146107ec578063c87b56dd14610815578063d2cab0561461085257610251565b806394354fd0116100fd57806394354fd0146106d457806395d89b41146106ff578063a0712d681461072a578063a22cb46514610746578063a45ba8e71461076f57610251565b806370a0823114610603578063715018a6146106405780637cb64759146106575780637ec4a659146106805780638da5cb5b146106a957610251565b80633ccfd60b116101d2578063518302271161019657806351830227146104ef5780635503a0e81461051a5780635c975abb1461054557806362b99ad4146105705780636352211e1461059b5780636caede3d146105d857610251565b80633ccfd60b1461042057806342842e0e14610437578063438b63001461046057806344a0d68a1461049d5780634fdd43cb146104c657610251565b806316ba10e01161021957806316ba10e01461034f57806316c38b3c1461037857806318160ddd146103a157806323b872dd146103cc5780632eb4a7ab146103f557610251565b806301ffc9a71461025657806306fdde0314610293578063081812fc146102be578063095ea7b3146102fb57806313faede614610324575b600080fd5b34801561026257600080fd5b5061027d60048036038101906102789190613af9565b61098e565b60405161028a91906140d1565b60405180910390f35b34801561029f57600080fd5b506102a8610a70565b6040516102b59190614107565b60405180910390f35b3480156102ca57600080fd5b506102e560048036038101906102e09190613b8c565b610b02565b6040516102f29190614048565b60405180910390f35b34801561030757600080fd5b50610322600480360381019061031d9190613a6b565b610b7e565b005b34801561033057600080fd5b50610339610c89565b6040516103469190614289565b60405180910390f35b34801561035b57600080fd5b5061037660048036038101906103719190613b4b565b610c8f565b005b34801561038457600080fd5b5061039f600480360381019061039a9190613aa7565b610d25565b005b3480156103ad57600080fd5b506103b6610dbe565b6040516103c39190614289565b60405180910390f35b3480156103d857600080fd5b506103f360048036038101906103ee9190613965565b610dd5565b005b34801561040157600080fd5b5061040a610de5565b60405161041791906140ec565b60405180910390f35b34801561042c57600080fd5b50610435610deb565b005b34801561044357600080fd5b5061045e60048036038101906104599190613965565b610f3d565b005b34801561046c57600080fd5b5061048760048036038101906104829190613900565b610f5d565b60405161049491906140af565b60405180910390f35b3480156104a957600080fd5b506104c460048036038101906104bf9190613b8c565b6111bd565b005b3480156104d257600080fd5b506104ed60048036038101906104e89190613b4b565b611243565b005b3480156104fb57600080fd5b506105046112d9565b60405161051191906140d1565b60405180910390f35b34801561052657600080fd5b5061052f6112ec565b60405161053c9190614107565b60405180910390f35b34801561055157600080fd5b5061055a61137a565b60405161056791906140d1565b60405180910390f35b34801561057c57600080fd5b5061058561138d565b6040516105929190614107565b60405180910390f35b3480156105a757600080fd5b506105c260048036038101906105bd9190613b8c565b61141b565b6040516105cf9190614048565b60405180910390f35b3480156105e457600080fd5b506105ed611431565b6040516105fa91906140d1565b60405180910390f35b34801561060f57600080fd5b5061062a60048036038101906106259190613900565b611444565b6040516106379190614289565b60405180910390f35b34801561064c57600080fd5b50610655611514565b005b34801561066357600080fd5b5061067e60048036038101906106799190613ad0565b61159c565b005b34801561068c57600080fd5b506106a760048036038101906106a29190613b4b565b611622565b005b3480156106b557600080fd5b506106be6116b8565b6040516106cb9190614048565b60405180910390f35b3480156106e057600080fd5b506106e96116e2565b6040516106f69190614289565b60405180910390f35b34801561070b57600080fd5b506107146116e8565b6040516107219190614107565b60405180910390f35b610744600480360381019061073f9190613b8c565b61177a565b005b34801561075257600080fd5b5061076d60048036038101906107689190613a2f565b6118da565b005b34801561077b57600080fd5b50610784611a52565b6040516107919190614107565b60405180910390f35b3480156107a657600080fd5b506107c160048036038101906107bc9190613b8c565b611ae0565b005b3480156107cf57600080fd5b506107ea60048036038101906107e59190613aa7565b611b66565b005b3480156107f857600080fd5b50610813600480360381019061080e91906139b4565b611bff565b005b34801561082157600080fd5b5061083c60048036038101906108379190613b8c565b611c7b565b6040516108499190614107565b60405180910390f35b61086c60048036038101906108679190613bf1565b611dd4565b005b34801561087a57600080fd5b506108836120e8565b6040516108909190614289565b60405180910390f35b3480156108a557600080fd5b506108c060048036038101906108bb9190613900565b6120ee565b6040516108cd91906140d1565b60405180910390f35b3480156108e257600080fd5b506108fd60048036038101906108f89190613aa7565b61210e565b005b34801561090b57600080fd5b5061092660048036038101906109219190613929565b6121a7565b60405161093391906140d1565b60405180910390f35b34801561094857600080fd5b50610963600480360381019061095e9190613bb5565b61223b565b005b34801561097157600080fd5b5061098c60048036038101906109879190613900565b61236f565b005b60007f80ac58cd000000000000000000000000000000000000000000000000000000007bffffffffffffffffffffffffffffffffffffffffffffffffffffffff1916827bffffffffffffffffffffffffffffffffffffffffffffffffffffffff19161480610a5957507f5b5e139f000000000000000000000000000000000000000000000000000000007bffffffffffffffffffffffffffffffffffffffffffffffffffffffff1916827bffffffffffffffffffffffffffffffffffffffffffffffffffffffff1916145b80610a695750610a6882612467565b5b9050919050565b606060028054610a7f9061459c565b80601f0160208091040260200160405190810160405280929190818152602001828054610aab9061459c565b8015610af85780601f10610acd57610100808354040283529160200191610af8565b820191906000526020600020905b815481529060010190602001808311610adb57829003601f168201915b5050505050905090565b6000610b0d826124d1565b610b43576040517fcf4700e400000000000000000000000000000000000000000000000000000000815260040160405180910390fd5b6006600083815260200190815260200160002060009054906101000a900473ffffffffffffffffffffffffffffffffffffffff169050919050565b6000610b898261141b565b90508073ffffffffffffffffffffffffffffffffffffffff168373ffffffffffffffffffffffffffffffffffffffff161415610bf1576040517f943f7b8c00000000000000000000000000000000000000000000000000000000815260040160405180910390fd5b8073ffffffffffffffffffffffffffffffffffffffff16610c1061251f565b73ffffffffffffffffffffffffffffffffffffffff1614158015610c425750610c4081610c3b61251f565b6121a7565b155b15610c79576040517fcfb3b94200000000000000000000000000000000000000000000000000000000815260040160405180910390fd5b610c84838383612527565b505050565b600f5481565b610c9761251f565b73ffffffffffffffffffffffffffffffffffffffff16610cb56116b8565b73ffffffffffffffffffffffffffffffffffffffff1614610d0b576040517f08c379a0000000000000000000000000000000000000000000000000000000008152600401610d0290614189565b60405180910390fd5b80600d9080519060200190610d21929190613682565b5050565b610d2d61251f565b73ffffffffffffffffffffffffffffffffffffffff16610d4b6116b8565b73ffffffffffffffffffffffffffffffffffffffff1614610da1576040517f08c379a0000000000000000000000000000000000000000000000000000000008152600401610d9890614189565b60405180910390fd5b80601260006101000a81548160ff02191690831515021790555050565b6000610dc86125d9565b6001546000540303905090565b610de08383836125e2565b505050565b600a5481565b610df361251f565b73ffffffffffffffffffffffffffffffffffffffff16610e116116b8565b73ffffffffffffffffffffffffffffffffffffffff1614610e67576040517f08c379a0000000000000000000000000000000000000000000000000000000008152600401610e5e90614189565b60405180910390fd5b60026009541415610ead576040517f08c379a0000000000000000000000000000000000000000000000000000000008152600401610ea490614249565b60405180910390fd5b60026009819055506000610ebf6116b8565b73ffffffffffffffffffffffffffffffffffffffff1647604051610ee290614033565b60006040518083038185875af1925050503d8060008114610f1f576040519150601f19603f3d011682016040523d82523d6000602084013e610f24565b606091505b5050905080610f3257600080fd5b506001600981905550565b610f5883838360405180602001604052806000815250611bff565b505050565b60606000610f6a83611444565b905060008167ffffffffffffffff811115610fae577f4e487b7100000000000000000000000000000000000000000000000000000000600052604160045260246000fd5b604051908082528060200260200182016040528015610fdc5781602001602082028036833780820191505090505b5090506000610fe96125d9565b90506000805b8482108015610fff575060005483105b156111b0576000600460008581526020019081526020016000206040518060600160405290816000820160009054906101000a900473ffffffffffffffffffffffffffffffffffffffff1673ffffffffffffffffffffffffffffffffffffffff1673ffffffffffffffffffffffffffffffffffffffff1681526020016000820160149054906101000a900467ffffffffffffffff1667ffffffffffffffff1667ffffffffffffffff16815260200160008201601c9054906101000a900460ff1615151515815250509050806040015161119c57600073ffffffffffffffffffffffffffffffffffffffff16816000015173ffffffffffffffffffffffffffffffffffffffff161461111257806000015191505b8773ffffffffffffffffffffffffffffffffffffffff168273ffffffffffffffffffffffffffffffffffffffff16141561119b5783858481518110611180577f4e487b7100000000000000000000000000000000000000000000000000000000600052603260045260246000fd5b6020026020010181815250508280611197906145ff565b9350505b5b83806111a7906145ff565b94505050610fef565b8395505050505050919050565b6111c561251f565b73ffffffffffffffffffffffffffffffffffffffff166111e36116b8565b73ffffffffffffffffffffffffffffffffffffffff1614611239576040517f08c379a000000000000000000000000000000000000000000000000000000000815260040161123090614189565b60405180910390fd5b80600f8190555050565b61124b61251f565b73ffffffffffffffffffffffffffffffffffffffff166112696116b8565b73ffffffffffffffffffffffffffffffffffffffff16146112bf576040517f08c379a00000000000000000000000000000000000000000000000000000000081526004016112b690614189565b60405180910390fd5b80600e90805190602001906112d5929190613682565b5050565b601260029054906101000a900460ff1681565b600d80546112f99061459c565b80601f01602080910402602001604051908101604052809291908181526020018280546113259061459c565b80156113725780601f1061134757610100808354040283529160200191611372565b820191906000526020600020905b81548152906001019060200180831161135557829003601f168201915b505050505081565b601260009054906101000a900460ff1681565b600c805461139a9061459c565b80601f01602080910402602001604051908101604052809291908181526020018280546113c69061459c565b80156114135780601f106113e857610100808354040283529160200191611413565b820191906000526020600020905b8154815290600101906020018083116113f657829003601f168201915b505050505081565b600061142682612a98565b600001519050919050565b601260019054906101000a900460ff1681565b60008073ffffffffffffffffffffffffffffffffffffffff168273ffffffffffffffffffffffffffffffffffffffff1614156114ac576040517f8f4eb60400000000000000000000000000000000000000000000000000000000815260040160405180910390fd5b600560008373ffffffffffffffffffffffffffffffffffffffff1673ffffffffffffffffffffffffffffffffffffffff16815260200190815260200160002060000160009054906101000a900467ffffffffffffffff1667ffffffffffffffff169050919050565b61151c61251f565b73ffffffffffffffffffffffffffffffffffffffff1661153a6116b8565b73ffffffffffffffffffffffffffffffffffffffff1614611590576040517f08c379a000000000000000000000000000000000000000000000000000000000815260040161158790614189565b60405180910390fd5b61159a6000612d27565b565b6115a461251f565b73ffffffffffffffffffffffffffffffffffffffff166115c26116b8565b73ffffffffffffffffffffffffffffffffffffffff1614611618576040517f08c379a000000000000000000000000000000000000000000000000000000000815260040161160f90614189565b60405180910390fd5b80600a8190555050565b61162a61251f565b73ffffffffffffffffffffffffffffffffffffffff166116486116b8565b73ffffffffffffffffffffffffffffffffffffffff161461169e576040517f08c379a000000000000000000000000000000000000000000000000000000000815260040161169590614189565b60405180910390fd5b80600c90805190602001906116b4929190613682565b5050565b6000600860009054906101000a900473ffffffffffffffffffffffffffffffffffffffff16905090565b60115481565b6060600380546116f79061459c565b80601f01602080910402602001604051908101604052809291908181526020018280546117239061459c565b80156117705780601f1061174557610100808354040283529160200191611770565b820191906000526020600020905b81548152906001019060200180831161175357829003601f168201915b5050505050905090565b8060008111801561178d57506011548111155b6117cc576040517f08c379a00000000000000000000000000000000000000000000000000000000081526004016117c390614169565b60405180910390fd5b601054816117d8610dbe565b6117e291906143c7565b1115611823576040517f08c379a000000000000000000000000000000000000000000000000000000000815260040161181a90614209565b60405180910390fd5b8180600f54611832919061444e565b341015611874576040517f08c379a000000000000000000000000000000000000000000000000000000000815260040161186b90614269565b60405180910390fd5b601260009054906101000a900460ff16156118c4576040517f08c379a00000000000000000000000000000000000000000000000000000000081526004016118bb906141a9565b60405180910390fd5b6118d56118cf61251f565b84612ded565b505050565b6118e261251f565b73ffffffffffffffffffffffffffffffffffffffff168273ffffffffffffffffffffffffffffffffffffffff161415611947576040517fb06307db00000000000000000000000000000000000000000000000000000000815260040160405180910390fd5b806007600061195461251f565b73ffffffffffffffffffffffffffffffffffffffff1673ffffffffffffffffffffffffffffffffffffffff16815260200190815260200160002060008473ffffffffffffffffffffffffffffffffffffffff1673ffffffffffffffffffffffffffffffffffffffff16815260200190815260200160002060006101000a81548160ff0219169083151502179055508173ffffffffffffffffffffffffffffffffffffffff16611a0161251f565b73ffffffffffffffffffffffffffffffffffffffff167f17307eab39ab6107e8899845ad3d59bd9653f200f220920489ca2b5937696c3183604051611a4691906140d1565b60405180910390a35050565b600e8054611a5f9061459c565b80601f0160208091040260200160405190810160405280929190818152602001828054611a8b9061459c565b8015611ad85780601f10611aad57610100808354040283529160200191611ad8565b820191906000526020600020905b815481529060010190602001808311611abb57829003601f168201915b505050505081565b611ae861251f565b73ffffffffffffffffffffffffffffffffffffffff16611b066116b8565b73ffffffffffffffffffffffffffffffffffffffff1614611b5c576040517f08c379a0000000000000000000000000000000000000000000000000000000008152600401611b5390614189565b60405180910390fd5b8060118190555050565b611b6e61251f565b73ffffffffffffffffffffffffffffffffffffffff16611b8c6116b8565b73ffffffffffffffffffffffffffffffffffffffff1614611be2576040517f08c379a0000000000000000000000000000000000000000000000000000000008152600401611bd990614189565b60405180910390fd5b80601260016101000a81548160ff02191690831515021790555050565b611c0a8484846125e2565b611c298373ffffffffffffffffffffffffffffffffffffffff16612e0b565b8015611c3e5750611c3c84848484612e2e565b155b15611c75576040517fd1a57ed600000000000000000000000000000000000000000000000000000000815260040160405180910390fd5b50505050565b6060611c86826124d1565b611cc5576040517f08c379a0000000000000000000000000000000000000000000000000000000008152600401611cbc906141e9565b60405180910390fd5b60001515601260029054906101000a900460ff1615151415611d7357600e8054611cee9061459c565b80601f0160208091040260200160405190810160405280929190818152602001828054611d1a9061459c565b8015611d675780601f10611d3c57610100808354040283529160200191611d67565b820191906000526020600020905b815481529060010190602001808311611d4a57829003601f168201915b50505050509050611dcf565b6000611d7d612f8e565b90506000815111611d9d5760405180602001604052806000815250611dcb565b80611da784613020565b600d604051602001611dbb93929190614002565b6040516020818303038152906040525b9150505b919050565b82600081118015611de757506011548111155b611e26576040517f08c379a0000000000000000000000000000000000000000000000000000000008152600401611e1d90614169565b60405180910390fd5b60105481611e32610dbe565b611e3c91906143c7565b1115611e7d576040517f08c379a0000000000000000000000000000000000000000000000000000000008152600401611e7490614209565b60405180910390fd5b8380600f54611e8c919061444e565b341015611ece576040517f08c379a0000000000000000000000000000000000000000000000000000000008152600401611ec590614269565b60405180910390fd5b601260019054906101000a900460ff16611f1d576040517f08c379a0000000000000000000000000000000000000000000000000000000008152600401611f1490614229565b60405180910390fd5b600b6000611f2961251f565b73ffffffffffffffffffffffffffffffffffffffff1673ffffffffffffffffffffffffffffffffffffffff16815260200190815260200160002060009054906101000a900460ff1615611fb1576040517f08c379a0000000000000000000000000000000000000000000000000000000008152600401611fa8906141c9565b60405180910390fd5b6000611fbb61251f565b604051602001611fcb9190613fe7565b604051602081830303815290604052805190602001209050612031858580806020026020016040519081016040528093929190818152602001838360200280828437600081840152601f19601f82011690508083019250505050505050600a54836131cd565b612070576040517f08c379a000000000000000000000000000000000000000000000000000000000815260040161206790614129565b60405180910390fd5b6001600b600061207e61251f565b73ffffffffffffffffffffffffffffffffffffffff1673ffffffffffffffffffffffffffffffffffffffff16815260200190815260200160002060006101000a81548160ff0219169083151502179055506120e06120da61251f565b87612ded565b505050505050565b60105481565b600b6020528060005260406000206000915054906101000a900460ff1681565b61211661251f565b73ffffffffffffffffffffffffffffffffffffffff166121346116b8565b73ffffffffffffffffffffffffffffffffffffffff161461218a576040517f08c379a000000000000000000000000000000000000000000000000000000000815260040161218190614189565b60405180910390fd5b80601260026101000a81548160ff02191690831515021790555050565b6000600760008473ffffffffffffffffffffffffffffffffffffffff1673ffffffffffffffffffffffffffffffffffffffff16815260200190815260200160002060008373ffffffffffffffffffffffffffffffffffffffff1673ffffffffffffffffffffffffffffffffffffffff16815260200190815260200160002060009054906101000a900460ff16905092915050565b8160008111801561224e57506011548111155b61228d576040517f08c379a000000000000000000000000000000000000000000000000000000000815260040161228490614169565b60405180910390fd5b60105481612299610dbe565b6122a391906143c7565b11156122e4576040517f08c379a00000000000000000000000000000000000000000000000000000000081526004016122db90614209565b60405180910390fd5b6122ec61251f565b73ffffffffffffffffffffffffffffffffffffffff1661230a6116b8565b73ffffffffffffffffffffffffffffffffffffffff1614612360576040517f08c379a000000000000000000000000000000000000000000000000000000000815260040161235790614189565b60405180910390fd5b61236a8284612ded565b505050565b61237761251f565b73ffffffffffffffffffffffffffffffffffffffff166123956116b8565b73ffffffffffffffffffffffffffffffffffffffff16146123eb576040517f08c379a00000000000000000000000000000000000000000000000000000000081526004016123e290614189565b60405180910390fd5b600073ffffffffffffffffffffffffffffffffffffffff168173ffffffffffffffffffffffffffffffffffffffff16141561245b576040517f08c379a000000000000000000000000000000000000000000000000000000000815260040161245290614149565b60405180910390fd5b61246481612d27565b50565b60007f01ffc9a7000000000000000000000000000000000000000000000000000000007bffffffffffffffffffffffffffffffffffffffffffffffffffffffff1916827bffffffffffffffffffffffffffffffffffffffffffffffffffffffff1916149050919050565b6000816124dc6125d9565b111580156124eb575060005482105b8015612518575060046000838152602001908152602001600020600001601c9054906101000a900460ff16155b9050919050565b600033905090565b826006600084815260200190815260200160002060006101000a81548173ffffffffffffffffffffffffffffffffffffffff021916908373ffffffffffffffffffffffffffffffffffffffff160217905550818373ffffffffffffffffffffffffffffffffffffffff168273ffffffffffffffffffffffffffffffffffffffff167f8c5be1e5ebec7d5bd14f71427d1e84f3dd0314c0f7b2291e5b200ac8c7c3b92560405160405180910390a4505050565b60006001905090565b60006125ed82612a98565b90508373ffffffffffffffffffffffffffffffffffffffff16816000015173ffffffffffffffffffffffffffffffffffffffff1614612658576040517fa114810000000000000000000000000000000000000000000000000000000000815260040160405180910390fd5b60008473ffffffffffffffffffffffffffffffffffffffff1661267961251f565b73ffffffffffffffffffffffffffffffffffffffff1614806126a857506126a7856126a261251f565b6121a7565b5b806126ed57506126b661251f565b73ffffffffffffffffffffffffffffffffffffffff166126d584610b02565b73ffffffffffffffffffffffffffffffffffffffff16145b905080612726576040517f59c896be00000000000000000000000000000000000000000000000000000000815260040160405180910390fd5b600073ffffffffffffffffffffffffffffffffffffffff168473ffffffffffffffffffffffffffffffffffffffff16141561278d576040517fea553b3400000000000000000000000000000000000000000000000000000000815260040160405180910390fd5b61279a85858560016131e4565b6127a660008487612527565b6001600560008773ffffffffffffffffffffffffffffffffffffffff1673ffffffffffffffffffffffffffffffffffffffff16815260200190815260200160002060000160008282829054906101000a900467ffffffffffffffff160392506101000a81548167ffffffffffffffff021916908367ffffffffffffffff1602179055506001600560008673ffffffffffffffffffffffffffffffffffffffff1673ffffffffffffffffffffffffffffffffffffffff16815260200190815260200160002060000160008282829054906101000a900467ffffffffffffffff160192506101000a81548167ffffffffffffffff021916908367ffffffffffffffff1602179055506000600460008581526020019081526020016000209050848160000160006101000a81548173ffffffffffffffffffffffffffffffffffffffff021916908373ffffffffffffffffffffffffffffffffffffffff160217905550428160000160146101000a81548167ffffffffffffffff021916908367ffffffffffffffff16021790555060006001850190506000600460008381526020019081526020016000209050600073ffffffffffffffffffffffffffffffffffffffff168160000160009054906101000a900473ffffffffffffffffffffffffffffffffffffffff1673ffffffffffffffffffffffffffffffffffffffff161415612a26576000548214612a2557878160000160006101000a81548173ffffffffffffffffffffffffffffffffffffffff021916908373ffffffffffffffffffffffffffffffffffffffff16021790555084602001518160000160146101000a81548167ffffffffffffffff021916908367ffffffffffffffff1602179055505b5b505050828473ffffffffffffffffffffffffffffffffffffffff168673ffffffffffffffffffffffffffffffffffffffff167fddf252ad1be2c89b69c2b068fc378daa952ba7f163c4a11628f55a4df523b3ef60405160405180910390a4612a9185858560016131ea565b5050505050565b612aa0613708565b600082905080612aae6125d9565b11158015612abd575060005481105b15612cf0576000600460008381526020019081526020016000206040518060600160405290816000820160009054906101000a900473ffffffffffffffffffffffffffffffffffffffff1673ffffffffffffffffffffffffffffffffffffffff1673ffffffffffffffffffffffffffffffffffffffff1681526020016000820160149054906101000a900467ffffffffffffffff1667ffffffffffffffff1667ffffffffffffffff16815260200160008201601c9054906101000a900460ff16151515158152505090508060400151612cee57600073ffffffffffffffffffffffffffffffffffffffff16816000015173ffffffffffffffffffffffffffffffffffffffff1614612bd2578092505050612d22565b5b600115612ced57818060019003925050600460008381526020019081526020016000206040518060600160405290816000820160009054906101000a900473ffffffffffffffffffffffffffffffffffffffff1673ffffffffffffffffffffffffffffffffffffffff1673ffffffffffffffffffffffffffffffffffffffff1681526020016000820160149054906101000a900467ffffffffffffffff1667ffffffffffffffff1667ffffffffffffffff16815260200160008201601c9054906101000a900460ff1615151515815250509050600073ffffffffffffffffffffffffffffffffffffffff16816000015173ffffffffffffffffffffffffffffffffffffffff1614612ce8578092505050612d22565b612bd3565b5b505b6040517fdf2d9b4200000000000000000000000000000000000000000000000000000000815260040160405180910390fd5b919050565b6000600860009054906101000a900473ffffffffffffffffffffffffffffffffffffffff16905081600860006101000a81548173ffffffffffffffffffffffffffffffffffffffff021916908373ffffffffffffffffffffffffffffffffffffffff1602179055508173ffffffffffffffffffffffffffffffffffffffff168173ffffffffffffffffffffffffffffffffffffffff167f8be0079c531659141344cd1fd0a4f28419497f9722a3daafe3b4186f6b6457e060405160405180910390a35050565b612e078282604051806020016040528060008152506131f0565b5050565b6000808273ffffffffffffffffffffffffffffffffffffffff163b119050919050565b60008373ffffffffffffffffffffffffffffffffffffffff1663150b7a02612e5461251f565b8786866040518563ffffffff1660e01b8152600401612e769493929190614063565b602060405180830381600087803b158015612e9057600080fd5b505af1925050508015612ec157506040513d601f19601f82011682018060405250810190612ebe9190613b22565b60015b612f3b573d8060008114612ef1576040519150601f19603f3d011682016040523d82523d6000602084013e612ef6565b606091505b50600081511415612f33576040517fd1a57ed600000000000000000000000000000000000000000000000000000000815260040160405180910390fd5b805181602001fd5b63150b7a0260e01b7bffffffffffffffffffffffffffffffffffffffffffffffffffffffff1916817bffffffffffffffffffffffffffffffffffffffffffffffffffffffff191614915050949350505050565b6060600c8054612f9d9061459c565b80601f0160208091040260200160405190810160405280929190818152602001828054612fc99061459c565b80156130165780601f10612feb57610100808354040283529160200191613016565b820191906000526020600020905b815481529060010190602001808311612ff957829003601f168201915b5050505050905090565b60606000821415613068576040518060400160405280600181526020017f300000000000000000000000000000000000000000000000000000000000000081525090506131c8565b600082905060005b6000821461309a578080613083906145ff565b915050600a82613093919061441d565b9150613070565b60008167ffffffffffffffff8111156130dc577f4e487b7100000000000000000000000000000000000000000000000000000000600052604160045260246000fd5b6040519080825280601f01601f19166020018201604052801561310e5781602001600182028036833780820191505090505b5090505b600085146131c15760018261312791906144a8565b9150600a85613136919061466c565b603061314291906143c7565b60f81b81838151811061317e577f4e487b7100000000000000000000000000000000000000000000000000000000600052603260045260246000fd5b60200101907effffffffffffffffffffffffffffffffffffffffffffffffffffffffffffff1916908160001a905350600a856131ba919061441d565b9450613112565b8093505050505b919050565b6000826131da8584613202565b1490509392505050565b50505050565b50505050565b6131fd838383600161329d565b505050565b60008082905060005b845181101561329257600085828151811061324f577f4e487b7100000000000000000000000000000000000000000000000000000000600052603260045260246000fd5b602002602001015190508083116132715761326a838261366b565b925061327e565b61327b818461366b565b92505b50808061328a906145ff565b91505061320b565b508091505092915050565b600080549050600073ffffffffffffffffffffffffffffffffffffffff168573ffffffffffffffffffffffffffffffffffffffff16141561330a576040517f2e07630000000000000000000000000000000000000000000000000000000000815260040160405180910390fd5b6000841415613345576040517fb562e8dd00000000000000000000000000000000000000000000000000000000815260040160405180910390fd5b61335260008683876131e4565b83600560008773ffffffffffffffffffffffffffffffffffffffff1673ffffffffffffffffffffffffffffffffffffffff16815260200190815260200160002060000160008282829054906101000a900467ffffffffffffffff160192506101000a81548167ffffffffffffffff021916908367ffffffffffffffff16021790555083600560008773ffffffffffffffffffffffffffffffffffffffff1673ffffffffffffffffffffffffffffffffffffffff16815260200190815260200160002060000160088282829054906101000a900467ffffffffffffffff160192506101000a81548167ffffffffffffffff021916908367ffffffffffffffff160217905550846004600083815260200190815260200160002060000160006101000a81548173ffffffffffffffffffffffffffffffffffffffff021916908373ffffffffffffffffffffffffffffffffffffffff160217905550426004600083815260200190815260200160002060000160146101000a81548167ffffffffffffffff021916908367ffffffffffffffff16021790555060008190506000858201905083801561351c575061351b8773ffffffffffffffffffffffffffffffffffffffff16612e0b565b5b156135e2575b818773ffffffffffffffffffffffffffffffffffffffff16600073ffffffffffffffffffffffffffffffffffffffff167fddf252ad1be2c89b69c2b068fc378daa952ba7f163c4a11628f55a4df523b3ef60405160405180910390a46135916000888480600101955088612e2e565b6135c7576040517fd1a57ed600000000000000000000000000000000000000000000000000000000815260040160405180910390fd5b808214156135225782600054146135dd57600080fd5b61364e565b5b818060010192508773ffffffffffffffffffffffffffffffffffffffff16600073ffffffffffffffffffffffffffffffffffffffff167fddf252ad1be2c89b69c2b068fc378daa952ba7f163c4a11628f55a4df523b3ef60405160405180910390a4808214156135e3575b81600081905550505061366460008683876131ea565b5050505050565b600082600052816020526040600020905092915050565b82805461368e9061459c565b90600052602060002090601f0160209004810192826136b057600085556136f7565b82601f106136c957805160ff19168380011785556136f7565b828001600101855582156136f7579182015b828111156136f65782518255916020019190600101906136db565b5b509050613704919061374b565b5090565b6040518060600160405280600073ffffffffffffffffffffffffffffffffffffffff168152602001600067ffffffffffffffff1681526020016000151581525090565b5b8082111561376457600081600090555060010161374c565b5090565b600061377b613776846142c9565b6142a4565b90508281526020810184848401111561379357600080fd5b61379e84828561455a565b509392505050565b60006137b96137b4846142fa565b6142a4565b9050828152602081018484840111156137d157600080fd5b6137dc84828561455a565b509392505050565b6000813590506137f3816149af565b92915050565b60008083601f84011261380b57600080fd5b8235905067ffffffffffffffff81111561382457600080fd5b60208301915083602082028301111561383c57600080fd5b9250929050565b600081359050613852816149c6565b92915050565b600081359050613867816149dd565b92915050565b60008135905061387c816149f4565b92915050565b600081519050613891816149f4565b92915050565b600082601f8301126138a857600080fd5b81356138b8848260208601613768565b91505092915050565b600082601f8301126138d257600080fd5b81356138e28482602086016137a6565b91505092915050565b6000813590506138fa81614a0b565b92915050565b60006020828403121561391257600080fd5b6000613920848285016137e4565b91505092915050565b6000806040838503121561393c57600080fd5b600061394a858286016137e4565b925050602061395b858286016137e4565b9150509250929050565b60008060006060848603121561397a57600080fd5b6000613988868287016137e4565b9350506020613999868287016137e4565b92505060406139aa868287016138eb565b9150509250925092565b600080600080608085870312156139ca57600080fd5b60006139d8878288016137e4565b94505060206139e9878288016137e4565b93505060406139fa878288016138eb565b925050606085013567ffffffffffffffff811115613a1757600080fd5b613a2387828801613897565b91505092959194509250565b60008060408385031215613a4257600080fd5b6000613a50858286016137e4565b9250506020613a6185828601613843565b9150509250929050565b60008060408385031215613a7e57600080fd5b6000613a8c858286016137e4565b9250506020613a9d858286016138eb565b9150509250929050565b600060208284031215613ab957600080fd5b6000613ac784828501613843565b91505092915050565b600060208284031215613ae257600080fd5b6000613af084828501613858565b91505092915050565b600060208284031215613b0b57600080fd5b6000613b198482850161386d565b91505092915050565b600060208284031215613b3457600080fd5b6000613b4284828501613882565b91505092915050565b600060208284031215613b5d57600080fd5b600082013567ffffffffffffffff811115613b7757600080fd5b613b83848285016138c1565b91505092915050565b600060208284031215613b9e57600080fd5b6000613bac848285016138eb565b91505092915050565b60008060408385031215613bc857600080fd5b6000613bd6858286016138eb565b9250506020613be7858286016137e4565b9150509250929050565b600080600060408486031215613c0657600080fd5b6000613c14868287016138eb565b935050602084013567ffffffffffffffff811115613c3157600080fd5b613c3d868287016137f9565b92509250509250925092565b6000613c558383613fc9565b60208301905092915050565b613c6a816144dc565b82525050565b613c81613c7c826144dc565b614648565b82525050565b6000613c9282614350565b613c9c818561437e565b9350613ca78361432b565b8060005b83811015613cd8578151613cbf8882613c49565b9750613cca83614371565b925050600181019050613cab565b5085935050505092915050565b613cee816144ee565b82525050565b613cfd816144fa565b82525050565b6000613d0e8261435b565b613d18818561438f565b9350613d28818560208601614569565b613d3181614759565b840191505092915050565b6000613d4782614366565b613d5181856143ab565b9350613d61818560208601614569565b613d6a81614759565b840191505092915050565b6000613d8082614366565b613d8a81856143bc565b9350613d9a818560208601614569565b80840191505092915050565b60008154613db38161459c565b613dbd81866143bc565b94506001821660008114613dd85760018114613de957613e1c565b60ff19831686528186019350613e1c565b613df28561433b565b60005b83811015613e1457815481890152600182019150602081019050613df5565b838801955050505b50505092915050565b6000613e32600e836143ab565b9150613e3d82614777565b602082019050919050565b6000613e556026836143ab565b9150613e60826147a0565b604082019050919050565b6000613e786014836143ab565b9150613e83826147ef565b602082019050919050565b6000613e9b6020836143ab565b9150613ea682614818565b602082019050919050565b6000613ebe6017836143ab565b9150613ec982614841565b602082019050919050565b6000613ee16018836143ab565b9150613eec8261486a565b602082019050919050565b6000613f04602f836143ab565b9150613f0f82614893565b604082019050919050565b6000613f276000836143a0565b9150613f32826148e2565b600082019050919050565b6000613f4a6014836143ab565b9150613f55826148e5565b602082019050919050565b6000613f6d6022836143ab565b9150613f788261490e565b604082019050919050565b6000613f90601f836143ab565b9150613f9b8261495d565b602082019050919050565b6000613fb36013836143ab565b9150613fbe82614986565b602082019050919050565b613fd281614550565b82525050565b613fe181614550565b82525050565b6000613ff38284613c70565b60148201915081905092915050565b600061400e8286613d75565b915061401a8285613d75565b91506140268284613da6565b9150819050949350505050565b600061403e82613f1a565b9150819050919050565b600060208201905061405d6000830184613c61565b92915050565b60006080820190506140786000830187613c61565b6140856020830186613c61565b6140926040830185613fd8565b81810360608301526140a48184613d03565b905095945050505050565b600060208201905081810360008301526140c98184613c87565b905092915050565b60006020820190506140e66000830184613ce5565b92915050565b60006020820190506141016000830184613cf4565b92915050565b600060208201905081810360008301526141218184613d3c565b905092915050565b6000602082019050818103600083015261414281613e25565b9050919050565b6000602082019050818103600083015261416281613e48565b9050919050565b6000602082019050818103600083015261418281613e6b565b9050919050565b600060208201905081810360008301526141a281613e8e565b9050919050565b600060208201905081810360008301526141c281613eb1565b9050919050565b600060208201905081810360008301526141e281613ed4565b9050919050565b6000602082019050818103600083015261420281613ef7565b9050919050565b6000602082019050818103600083015261422281613f3d565b9050919050565b6000602082019050818103600083015261424281613f60565b9050919050565b6000602082019050818103600083015261426281613f83565b9050919050565b6000602082019050818103600083015261428281613fa6565b9050919050565b600060208201905061429e6000830184613fd8565b92915050565b60006142ae6142bf565b90506142ba82826145ce565b919050565b6000604051905090565b600067ffffffffffffffff8211156142e4576142e361472a565b5b6142ed82614759565b9050602081019050919050565b600067ffffffffffffffff8211156143155761431461472a565b5b61431e82614759565b9050602081019050919050565b6000819050602082019050919050565b60008190508160005260206000209050919050565b600081519050919050565b600081519050919050565b600081519050919050565b6000602082019050919050565b600082825260208201905092915050565b600082825260208201905092915050565b600081905092915050565b600082825260208201905092915050565b600081905092915050565b60006143d282614550565b91506143dd83614550565b9250827fffffffffffffffffffffffffffffffffffffffffffffffffffffffffffffffff038211156144125761441161469d565b5b828201905092915050565b600061442882614550565b915061443383614550565b925082614443576144426146cc565b5b828204905092915050565b600061445982614550565b915061446483614550565b9250817fffffffffffffffffffffffffffffffffffffffffffffffffffffffffffffffff048311821515161561449d5761449c61469d565b5b828202905092915050565b60006144b382614550565b91506144be83614550565b9250828210156144d1576144d061469d565b5b828203905092915050565b60006144e782614530565b9050919050565b60008115159050919050565b6000819050919050565b60007fffffffff0000000000000000000000000000000000000000000000000000000082169050919050565b600073ffffffffffffffffffffffffffffffffffffffff82169050919050565b6000819050919050565b82818337600083830152505050565b60005b8381101561458757808201518184015260208101905061456c565b83811115614596576000848401525b50505050565b600060028204905060018216806145b457607f821691505b602082108114156145c8576145c76146fb565b5b50919050565b6145d782614759565b810181811067ffffffffffffffff821117156145f6576145f561472a565b5b80604052505050565b600061460a82614550565b91507fffffffffffffffffffffffffffffffffffffffffffffffffffffffffffffffff82141561463d5761463c61469d565b5b600182019050919050565b60006146538261465a565b9050919050565b60006146658261476a565b9050919050565b600061467782614550565b915061468283614550565b925082614692576146916146cc565b5b828206905092915050565b7f4e487b7100000000000000000000000000000000000000000000000000000000600052601160045260246000fd5b7f4e487b7100000000000000000000000000000000000000000000000000000000600052601260045260246000fd5b7f4e487b7100000000000000000000000000000000000000000000000000000000600052602260045260246000fd5b7f4e487b7100000000000000000000000000000000000000000000000000000000600052604160045260246000fd5b6000601f19601f8301169050919050565b60008160601b9050919050565b7f496e76616c69642070726f6f6621000000000000000000000000000000000000600082015250565b7f4f776e61626c653a206e6577206f776e657220697320746865207a65726f206160008201527f6464726573730000000000000000000000000000000000000000000000000000602082015250565b7f496e76616c6964206d696e7420616d6f756e7421000000000000000000000000600082015250565b7f4f776e61626c653a2063616c6c6572206973206e6f7420746865206f776e6572600082015250565b7f54686520636f6e74726163742069732070617573656421000000000000000000600082015250565b7f4164647265737320616c726561647920636c61696d6564210000000000000000600082015250565b7f4552433732314d657461646174613a2055524920717565727920666f72206e6f60008201527f6e6578697374656e7420746f6b656e0000000000000000000000000000000000602082015250565b50565b7f4d617820737570706c7920657863656564656421000000000000000000000000600082015250565b7f5468652077686974656c6973742073616c65206973206e6f7420656e61626c6560008201527f6421000000000000000000000000000000000000000000000000000000000000602082015250565b7f5265656e7472616e637947756172643a207265656e7472616e742063616c6c00600082015250565b7f496e73756666696369656e742066756e64732100000000000000000000000000600082015250565b6149b8816144dc565b81146149c357600080fd5b50565b6149cf816144ee565b81146149da57600080fd5b50565b6149e6816144fa565b81146149f157600080fd5b50565b6149fd81614504565b8114614a0857600080fd5b50565b614a1481614550565b8114614a1f57600080fd5b5056fea26469706673582212205734d8c97d6e67c2fedc64e45d46810d3dde37a58707a6eaff569205e8d2f5b264736f6c63430008040033",
  "linkReferences": {},
  "deployedLinkReferences": {}
}