{
  "_format": "hh-sol-artifact-1",
  "contractName": "Planets",
  "sourceName": "contracts/Planets.sol",
  "abi": [
    {
      "inputs": [],
      "stateMutability": "nonpayable",
      "type": "constructor"
    },
    {
      "anonymous": false,
      "inputs": [
        {
          "indexed": true,
          "internalType": "address",
          "name": "owner",
          "type": "address"
        },
        {
          "indexed": true,
          "internalType": "address",
          "name": "approved",
          "type": "address"
        },
        {
          "indexed": true,
          "internalType": "uint256",
          "name": "tokenId",
          "type": "uint256"
        }
      ],
      "name": "Approval",
      "type": "event"
    },
    {
      "anonymous": false,
      "inputs": [
        {
          "indexed": true,
          "internalType": "address",
          "name": "owner",
          "type": "address"
        },
        {
          "indexed": true,
          "internalType": "address",
          "name": "operator",
          "type": "address"
        },
        {
          "indexed": false,
          "internalType": "bool",
          "name": "approved",
          "type": "bool"
        }
      ],
      "name": "ApprovalForAll",
      "type": "event"
    },
    {
      "anonymous": false,
      "inputs": [
        {
          "indexed": true,
          "internalType": "address",
          "name": "delegator",
          "type": "address"
        },
        {
          "indexed": true,
          "internalType": "address",
          "name": "fromDelegate",
          "type": "address"
        },
        {
          "indexed": true,
          "internalType": "address",
          "name": "toDelegate",
          "type": "address"
        }
      ],
      "name": "DelegateChanged",
      "type": "event"
    },
    {
      "anonymous": false,
      "inputs": [
        {
          "indexed": true,
          "internalType": "address",
          "name": "delegate",
          "type": "address"
        },
        {
          "indexed": false,
          "internalType": "uint256",
          "name": "previousBalance",
          "type": "uint256"
        },
        {
          "indexed": false,
          "internalType": "uint256",
          "name": "newBalance",
          "type": "uint256"
        }
      ],
      "name": "DelegateVotesChanged",
      "type": "event"
    },
    {
      "anonymous": false,
      "inputs": [
        {
          "indexed": true,
          "internalType": "address",
          "name": "previousOwner",
          "type": "address"
        },
        {
          "indexed": true,
          "internalType": "address",
          "name": "newOwner",
          "type": "address"
        }
      ],
      "name": "OwnershipTransferred",
      "type": "event"
    },
    {
      "anonymous": false,
      "inputs": [
        {
          "indexed": false,
          "internalType": "address",
          "name": "account",
          "type": "address"
        }
      ],
      "name": "Paused",
      "type": "event"
    },
    {
      "anonymous": false,
      "inputs": [
        {
          "indexed": true,
          "internalType": "address",
          "name": "from",
          "type": "address"
        },
        {
          "indexed": true,
          "internalType": "address",
          "name": "to",
          "type": "address"
        },
        {
          "indexed": true,
          "internalType": "uint256",
          "name": "tokenId",
          "type": "uint256"
        }
      ],
      "name": "Transfer",
      "type": "event"
    },
    {
      "anonymous": false,
      "inputs": [
        {
          "indexed": false,
          "internalType": "address",
          "name": "account",
          "type": "address"
        }
      ],
      "name": "Unpaused",
      "type": "event"
    },
    {
      "inputs": [],
      "name": "DOMAIN_SEPARATOR",
      "outputs": [
        {
          "internalType": "bytes32",
          "name": "",
          "type": "bytes32"
        }
      ],
      "stateMutability": "view",
      "type": "function"
    },
    {
      "inputs": [
        {
          "internalType": "address",
          "name": "to",
          "type": "address"
        },
        {
          "internalType": "uint256",
          "name": "tokenId",
          "type": "uint256"
        }
      ],
      "name": "approve",
      "outputs": [],
      "stateMutability": "nonpayable",
      "type": "function"
    },
    {
      "inputs": [
        {
          "internalType": "address",
          "name": "owner",
          "type": "address"
        }
      ],
      "name": "balanceOf",
      "outputs": [
        {
          "internalType": "uint256",
          "name": "",
          "type": "uint256"
        }
      ],
      "stateMutability": "view",
      "type": "function"
    },
    {
      "inputs": [
        {
          "internalType": "uint256",
          "name": "tokenId",
          "type": "uint256"
        }
      ],
      "name": "burn",
      "outputs": [],
      "stateMutability": "nonpayable",
      "type": "function"
    },
    {
      "inputs": [
        {
          "internalType": "address",
          "name": "delegatee",
          "type": "address"
        }
      ],
      "name": "delegate",
      "outputs": [],
      "stateMutability": "nonpayable",
      "type": "function"
    },
    {
      "inputs": [
        {
          "internalType": "address",
          "name": "delegatee",
          "type": "address"
        },
        {
          "internalType": "uint256",
          "name": "nonce",
          "type": "uint256"
        },
        {
          "internalType": "uint256",
          "name": "expiry",
          "type": "uint256"
        },
        {
          "internalType": "uint8",
          "name": "v",
          "type": "uint8"
        },
        {
          "internalType": "bytes32",
          "name": "r",
          "type": "bytes32"
        },
        {
          "internalType": "bytes32",
          "name": "s",
          "type": "bytes32"
        }
      ],
      "name": "delegateBySig",
      "outputs": [],
      "stateMutability": "nonpayable",
      "type": "function"
    },
    {
      "inputs": [
        {
          "internalType": "address",
          "name": "account",
          "type": "address"
        }
      ],
      "name": "delegates",
      "outputs": [
        {
          "internalType": "address",
          "name": "",
          "type": "address"
        }
      ],
      "stateMutability": "view",
      "type": "function"
    },
    {
      "inputs": [
        {
          "internalType": "uint256",
          "name": "tokenId",
          "type": "uint256"
        }
      ],
      "name": "getApproved",
      "outputs": [
        {
          "internalType": "address",
          "name": "",
          "type": "address"
        }
      ],
      "stateMutability": "view",
      "type": "function"
    },
    {
      "inputs": [
        {
          "internalType": "uint256",
          "name": "blockNumber",
          "type": "uint256"
        }
      ],
      "name": "getPastTotalSupply",
      "outputs": [
        {
          "internalType": "uint256",
          "name": "",
          "type": "uint256"
        }
      ],
      "stateMutability": "view",
      "type": "function"
    },
    {
      "inputs": [
        {
          "internalType": "address",
          "name": "account",
          "type": "address"
        },
        {
          "internalType": "uint256",
          "name": "blockNumber",
          "type": "uint256"
        }
      ],
      "name": "getPastVotes",
      "outputs": [
        {
          "internalType": "uint256",
          "name": "",
          "type": "uint256"
        }
      ],
      "stateMutability": "view",
      "type": "function"
    },
    {
      "inputs": [
        {
          "internalType": "address",
          "name": "account",
          "type": "address"
        }
      ],
      "name": "getVotes",
      "outputs": [
        {
          "internalType": "uint256",
          "name": "",
          "type": "uint256"
        }
      ],
      "stateMutability": "view",
      "type": "function"
    },
    {
      "inputs": [
        {
          "internalType": "address",
          "name": "owner",
          "type": "address"
        },
        {
          "internalType": "address",
          "name": "operator",
          "type": "address"
        }
      ],
      "name": "isApprovedForAll",
      "outputs": [
        {
          "internalType": "bool",
          "name": "",
          "type": "bool"
        }
      ],
      "stateMutability": "view",
      "type": "function"
    },
    {
      "inputs": [],
      "name": "name",
      "outputs": [
        {
          "internalType": "string",
          "name": "",
          "type": "string"
        }
      ],
      "stateMutability": "view",
      "type": "function"
    },
    {
      "inputs": [
        {
          "internalType": "address",
          "name": "owner",
          "type": "address"
        }
      ],
      "name": "nonces",
      "outputs": [
        {
          "internalType": "uint256",
          "name": "",
          "type": "uint256"
        }
      ],
      "stateMutability": "view",
      "type": "function"
    },
    {
      "inputs": [],
      "name": "owner",
      "outputs": [
        {
          "internalType": "address",
          "name": "",
          "type": "address"
        }
      ],
      "stateMutability": "view",
      "type": "function"
    },
    {
      "inputs": [
        {
          "internalType": "uint256",
          "name": "tokenId",
          "type": "uint256"
        }
      ],
      "name": "ownerOf",
      "outputs": [
        {
          "internalType": "address",
          "name": "",
          "type": "address"
        }
      ],
      "stateMutability": "view",
      "type": "function"
    },
    {
      "inputs": [],
      "name": "pause",
      "outputs": [],
      "stateMutability": "nonpayable",
      "type": "function"
    },
    {
      "inputs": [],
      "name": "paused",
      "outputs": [
        {
          "internalType": "bool",
          "name": "",
          "type": "bool"
        }
      ],
      "stateMutability": "view",
      "type": "function"
    },
    {
      "inputs": [],
      "name": "renounceOwnership",
      "outputs": [],
      "stateMutability": "nonpayable",
      "type": "function"
    },
    {
      "inputs": [
        {
          "internalType": "string",
          "name": "uri",
          "type": "string"
        }
      ],
      "name": "safeMint",
      "outputs": [],
      "stateMutability": "nonpayable",
      "type": "function"
    },
    {
      "inputs": [
        {
          "internalType": "address",
          "name": "from",
          "type": "address"
        },
        {
          "internalType": "address",
          "name": "to",
          "type": "address"
        },
        {
          "internalType": "uint256",
          "name": "tokenId",
          "type": "uint256"
        }
      ],
      "name": "safeTransferFrom",
      "outputs": [],
      "stateMutability": "nonpayable",
      "type": "function"
    },
    {
      "inputs": [
        {
          "internalType": "address",
          "name": "from",
          "type": "address"
        },
        {
          "internalType": "address",
          "name": "to",
          "type": "address"
        },
        {
          "internalType": "uint256",
          "name": "tokenId",
          "type": "uint256"
        },
        {
          "internalType": "bytes",
          "name": "_data",
          "type": "bytes"
        }
      ],
      "name": "safeTransferFrom",
      "outputs": [],
      "stateMutability": "nonpayable",
      "type": "function"
    },
    {
      "inputs": [
        {
          "internalType": "address",
          "name": "operator",
          "type": "address"
        },
        {
          "internalType": "bool",
          "name": "approved",
          "type": "bool"
        }
      ],
      "name": "setApprovalForAll",
      "outputs": [],
      "stateMutability": "nonpayable",
      "type": "function"
    },
    {
      "inputs": [
        {
          "internalType": "bytes4",
          "name": "interfaceId",
          "type": "bytes4"
        }
      ],
      "name": "supportsInterface",
      "outputs": [
        {
          "internalType": "bool",
          "name": "",
          "type": "bool"
        }
      ],
      "stateMutability": "view",
      "type": "function"
    },
    {
      "inputs": [],
      "name": "symbol",
      "outputs": [
        {
          "internalType": "string",
          "name": "",
          "type": "string"
        }
      ],
      "stateMutability": "view",
      "type": "function"
    },
    {
      "inputs": [
        {
          "internalType": "uint256",
          "name": "index",
          "type": "uint256"
        }
      ],
      "name": "tokenByIndex",
      "outputs": [
        {
          "internalType": "uint256",
          "name": "",
          "type": "uint256"
        }
      ],
      "stateMutability": "view",
      "type": "function"
    },
    {
      "inputs": [
        {
          "internalType": "address",
          "name": "owner",
          "type": "address"
        },
        {
          "internalType": "uint256",
          "name": "index",
          "type": "uint256"
        }
      ],
      "name": "tokenOfOwnerByIndex",
      "outputs": [
        {
          "internalType": "uint256",
          "name": "",
          "type": "uint256"
        }
      ],
      "stateMutability": "view",
      "type": "function"
    },
    {
      "inputs": [
        {
          "internalType": "uint256",
          "name": "tokenId",
          "type": "uint256"
        }
      ],
      "name": "tokenURI",
      "outputs": [
        {
          "internalType": "string",
          "name": "",
          "type": "string"
        }
      ],
      "stateMutability": "view",
      "type": "function"
    },
    {
      "inputs": [],
      "name": "totalSupply",
      "outputs": [
        {
          "internalType": "uint256",
          "name": "",
          "type": "uint256"
        }
      ],
      "stateMutability": "view",
      "type": "function"
    },
    {
      "inputs": [
        {
          "internalType": "address",
          "name": "from",
          "type": "address"
        },
        {
          "internalType": "address",
          "name": "to",
          "type": "address"
        },
        {
          "internalType": "uint256",
          "name": "tokenId",
          "type": "uint256"
        }
      ],
      "name": "transferFrom",
      "outputs": [],
      "stateMutability": "nonpayable",
      "type": "function"
    },
    {
      "inputs": [
        {
          "internalType": "address",
          "name": "newOwner",
          "type": "address"
        }
      ],
      "name": "transferOwnership",
      "outputs": [],
      "stateMutability": "nonpayable",
      "type": "function"
    },
    {
      "inputs": [],
      "name": "unpause",
      "outputs": [],
      "stateMutability": "nonpayable",
      "type": "function"
    }
  ],
  "bytecode": "0x6101406040523480156200001257600080fd5b506040518060400160405280600781526020017f506c616e657473000000000000000000000000000000000000000000000000008152506040518060400160405280600181526020017f31000000000000000000000000000000000000000000000000000000000000008152506040518060400160405280600781526020017f506c616e657473000000000000000000000000000000000000000000000000008152506040518060400160405280600381526020017f506c6e00000000000000000000000000000000000000000000000000000000008152508160009080519060200190620001039291906200031f565b5080600190805190602001906200011c9291906200031f565b5050506000600b60006101000a81548160ff0219169083151502179055506200015a6200014e6200021560201b60201c565b6200021d60201b60201c565b60008280519060200120905060008280519060200120905060007f8b73c3c69bb8fe3d512ecc4cf759cc79239f7b179b0ffacaa9a75d522b39400f90508260e081815250508161010081815250504660a08181525050620001c3818484620002e360201b60201c565b608081815250503073ffffffffffffffffffffffffffffffffffffffff1660c08173ffffffffffffffffffffffffffffffffffffffff1660601b8152505080610120818152505050505050506200050c565b600033905090565b6000600b60019054906101000a900473ffffffffffffffffffffffffffffffffffffffff16905081600b60016101000a81548173ffffffffffffffffffffffffffffffffffffffff021916908373ffffffffffffffffffffffffffffffffffffffff1602179055508173ffffffffffffffffffffffffffffffffffffffff168173ffffffffffffffffffffffffffffffffffffffff167f8be0079c531659141344cd1fd0a4f28419497f9722a3daafe3b4186f6b6457e060405160405180910390a35050565b600083838346306040516020016200030095949392919062000402565b6040516020818303038152906040528051906020012090509392505050565b8280546200032d90620004a7565b90600052602060002090601f0160209004810192826200035157600085556200039d565b82601f106200036c57805160ff19168380011785556200039d565b828001600101855582156200039d579182015b828111156200039c5782518255916020019190600101906200037f565b5b509050620003ac9190620003b0565b5090565b5b80821115620003cb576000816000905550600101620003b1565b5090565b620003da816200045f565b82525050565b620003eb8162000473565b82525050565b620003fc816200049d565b82525050565b600060a082019050620004196000830188620003e0565b620004286020830187620003e0565b620004376040830186620003e0565b620004466060830185620003f1565b620004556080830184620003cf565b9695505050505050565b60006200046c826200047d565b9050919050565b6000819050919050565b600073ffffffffffffffffffffffffffffffffffffffff82169050919050565b6000819050919050565b60006002820490506001821680620004c057607f821691505b60208210811415620004d757620004d6620004dd565b5b50919050565b7f4e487b7100000000000000000000000000000000000000000000000000000000600052602260045260246000fd5b60805160a05160c05160601c60e0516101005161012051615c366200055f60003960006119d201526000611a14015260006119f3015260006119280152600061197e015260006119a70152615c366000f3fe608060405234801561001057600080fd5b50600436106101f05760003560e01c80636352211e1161010f57806395d89b41116100a2578063c3cda52011610071578063c3cda520146105b7578063c87b56dd146105d3578063e985e9c514610603578063f2fde38b14610633576101f0565b806395d89b41146105315780639ab24eb01461054f578063a22cb4651461057f578063b88d4fde1461059b576101f0565b80637ecebe00116100de5780637ecebe00146104a95780638456cb59146104d95780638da5cb5b146104e35780638e539e8c14610501576101f0565b80636352211e14610423578063695850fb1461045357806370a082311461046f578063715018a61461049f576101f0565b80633a46b1a8116101875780634f6ccce7116101565780634f6ccce714610389578063587cde1e146103b95780635c19a95c146103e95780635c975abb14610405576101f0565b80633a46b1a8146103175780633f4ba83a1461034757806342842e0e1461035157806342966c681461036d576101f0565b806318160ddd116101c357806318160ddd1461028f57806323b872dd146102ad5780632f745c59146102c95780633644e515146102f9576101f0565b806301ffc9a7146101f557806306fdde0314610225578063081812fc14610243578063095ea7b314610273575b600080fd5b61020f600480360381019061020a919061421e565b61064f565b60405161021c9190614947565b60405180910390f35b61022d610661565b60405161023a9190614a5a565b60405180910390f35b61025d600480360381019061025891906142b1565b6106f3565b60405161026a91906148e0565b60405180910390f35b61028d60048036038101906102889190614159565b610778565b005b610297610890565b6040516102a49190614e9c565b60405180910390f35b6102c760048036038101906102c29190614053565b61089d565b005b6102e360048036038101906102de9190614159565b6108fd565b6040516102f09190614e9c565b60405180910390f35b6103016109a2565b60405161030e9190614962565b60405180910390f35b610331600480360381019061032c9190614159565b6109b1565b60405161033e9190614e9c565b60405180910390f35b61034f610a0c565b005b61036b60048036038101906103669190614053565b610a92565b005b610387600480360381019061038291906142b1565b610ab2565b005b6103a3600480360381019061039e91906142b1565b610b0e565b6040516103b09190614e9c565b60405180910390f35b6103d360048036038101906103ce9190613fee565b610ba5565b6040516103e091906148e0565b60405180910390f35b61040360048036038101906103fe9190613fee565b610c0e565b005b61040d610c28565b60405161041a9190614947565b60405180910390f35b61043d600480360381019061043891906142b1565b610c3f565b60405161044a91906148e0565b60405180910390f35b61046d60048036038101906104689190614270565b610cf1565b005b61048960048036038101906104849190613fee565b610d9d565b6040516104969190614e9c565b60405180910390f35b6104a7610e55565b005b6104c360048036038101906104be9190613fee565b610edd565b6040516104d09190614e9c565b60405180910390f35b6104e1610f2d565b005b6104eb610fb3565b6040516104f891906148e0565b60405180910390f35b61051b600480360381019061051691906142b1565b610fdd565b6040516105289190614e9c565b60405180910390f35b61053961103c565b6040516105469190614a5a565b60405180910390f35b61056960048036038101906105649190613fee565b6110ce565b6040516105769190614e9c565b60405180910390f35b6105996004803603810190610594919061411d565b61111e565b005b6105b560048036038101906105b091906140a2565b611134565b005b6105d160048036038101906105cc9190614195565b611196565b005b6105ed60048036038101906105e891906142b1565b61129a565b6040516105fa9190614a5a565b60405180910390f35b61061d60048036038101906106189190614017565b6112ac565b60405161062a9190614947565b60405180910390f35b61064d60048036038101906106489190613fee565b611340565b005b600061065a82611438565b9050919050565b60606000805461067090615132565b80601f016020809104026020016040519081016040528092919081815260200182805461069c90615132565b80156106e95780601f106106be576101008083540402835291602001916106e9565b820191906000526020600020905b8154815290600101906020018083116106cc57829003601f168201915b5050505050905090565b60006106fe826114b2565b61073d576040517f08c379a000000000000000000000000000000000000000000000000000000000815260040161073490614d7c565b60405180910390fd5b6004600083815260200190815260200160002060009054906101000a900473ffffffffffffffffffffffffffffffffffffffff169050919050565b600061078382610c3f565b90508073ffffffffffffffffffffffffffffffffffffffff168373ffffffffffffffffffffffffffffffffffffffff1614156107f4576040517f08c379a00000000000000000000000000000000000000000000000000000000081526004016107eb90614dfc565b60405180910390fd5b8073ffffffffffffffffffffffffffffffffffffffff1661081361151e565b73ffffffffffffffffffffffffffffffffffffffff16148061084257506108418161083c61151e565b6112ac565b5b610881576040517f08c379a000000000000000000000000000000000000000000000000000000000815260040161087890614c7c565b60405180910390fd5b61088b8383611526565b505050565b6000600880549050905090565b6108ae6108a861151e565b826115df565b6108ed576040517f08c379a00000000000000000000000000000000000000000000000000000000081526004016108e490614e1c565b60405180910390fd5b6108f88383836116bd565b505050565b600061090883610d9d565b8210610949576040517f08c379a000000000000000000000000000000000000000000000000000000000815260040161094090614afc565b60405180910390fd5b600660008473ffffffffffffffffffffffffffffffffffffffff1673ffffffffffffffffffffffffffffffffffffffff168152602001908152602001600020600083815260200190815260200160002054905092915050565b60006109ac611924565b905090565b6000610a0482600d60008673ffffffffffffffffffffffffffffffffffffffff1673ffffffffffffffffffffffffffffffffffffffff168152602001908152602001600020611a3e90919063ffffffff16565b905092915050565b610a1461151e565b73ffffffffffffffffffffffffffffffffffffffff16610a32610fb3565b73ffffffffffffffffffffffffffffffffffffffff1614610a88576040517f08c379a0000000000000000000000000000000000000000000000000000000008152600401610a7f90614d9c565b60405180910390fd5b610a90611be2565b565b610aad83838360405180602001604052806000815250611134565b505050565b610ac3610abd61151e565b826115df565b610b02576040517f08c379a0000000000000000000000000000000000000000000000000000000008152600401610af990614e7c565b60405180910390fd5b610b0b81611c84565b50565b6000610b18610890565b8210610b59576040517f08c379a0000000000000000000000000000000000000000000000000000000008152600401610b5090614e5c565b60405180910390fd5b60088281548110610b93577f4e487b7100000000000000000000000000000000000000000000000000000000600052603260045260246000fd5b90600052602060002001549050919050565b6000600c60008373ffffffffffffffffffffffffffffffffffffffff1673ffffffffffffffffffffffffffffffffffffffff16815260200190815260200160002060009054906101000a900473ffffffffffffffffffffffffffffffffffffffff169050919050565b6000610c1861151e565b9050610c248183611c90565b5050565b6000600b60009054906101000a900460ff16905090565b6000806002600084815260200190815260200160002060009054906101000a900473ffffffffffffffffffffffffffffffffffffffff169050600073ffffffffffffffffffffffffffffffffffffffff168173ffffffffffffffffffffffffffffffffffffffff161415610ce8576040517f08c379a0000000000000000000000000000000000000000000000000000000008152600401610cdf90614cbc565b60405180910390fd5b80915050919050565b610cf961151e565b73ffffffffffffffffffffffffffffffffffffffff16610d17610fb3565b73ffffffffffffffffffffffffffffffffffffffff1614610d6d576040517f08c379a0000000000000000000000000000000000000000000000000000000008152600401610d6490614d9c565b60405180910390fd5b6000610d796010611da4565b9050610d856010611db2565b610d8f3382611dc8565b610d998183611de6565b5050565b60008073ffffffffffffffffffffffffffffffffffffffff168273ffffffffffffffffffffffffffffffffffffffff161415610e0e576040517f08c379a0000000000000000000000000000000000000000000000000000000008152600401610e0590614c9c565b60405180910390fd5b600360008373ffffffffffffffffffffffffffffffffffffffff1673ffffffffffffffffffffffffffffffffffffffff168152602001908152602001600020549050919050565b610e5d61151e565b73ffffffffffffffffffffffffffffffffffffffff16610e7b610fb3565b73ffffffffffffffffffffffffffffffffffffffff1614610ed1576040517f08c379a0000000000000000000000000000000000000000000000000000000008152600401610ec890614d9c565b60405180910390fd5b610edb6000611e5a565b565b6000610f26600f60008473ffffffffffffffffffffffffffffffffffffffff1673ffffffffffffffffffffffffffffffffffffffff168152602001908152602001600020611da4565b9050919050565b610f3561151e565b73ffffffffffffffffffffffffffffffffffffffff16610f53610fb3565b73ffffffffffffffffffffffffffffffffffffffff1614610fa9576040517f08c379a0000000000000000000000000000000000000000000000000000000008152600401610fa090614d9c565b60405180910390fd5b610fb1611f20565b565b6000600b60019054906101000a900473ffffffffffffffffffffffffffffffffffffffff16905090565b6000438210611021576040517f08c379a000000000000000000000000000000000000000000000000000000000815260040161101890614cfc565b60405180910390fd5b61103582600e611a3e90919063ffffffff16565b9050919050565b60606001805461104b90615132565b80601f016020809104026020016040519081016040528092919081815260200182805461107790615132565b80156110c45780601f10611099576101008083540402835291602001916110c4565b820191906000526020600020905b8154815290600101906020018083116110a757829003601f168201915b5050505050905090565b6000611117600d60008473ffffffffffffffffffffffffffffffffffffffff1673ffffffffffffffffffffffffffffffffffffffff168152602001908152602001600020611fc3565b9050919050565b61113061112961151e565b8383612084565b5050565b61114561113f61151e565b836115df565b611184576040517f08c379a000000000000000000000000000000000000000000000000000000000815260040161117b90614e1c565b60405180910390fd5b611190848484846121f1565b50505050565b834211156111d9576040517f08c379a00000000000000000000000000000000000000000000000000000000081526004016111d090614c5c565b60405180910390fd5b600061123b6112337fe48329057bfd03d55e49b547132e39cffd9c1820ad7b9d4c5307691425d15adf898989604051602001611218949392919061497d565b6040516020818303038152906040528051906020012061224d565b858585612267565b905061124681612292565b8614611287576040517f08c379a000000000000000000000000000000000000000000000000000000000815260040161127e90614abc565b60405180910390fd5b6112918188611c90565b50505050505050565b60606112a5826122f0565b9050919050565b6000600560008473ffffffffffffffffffffffffffffffffffffffff1673ffffffffffffffffffffffffffffffffffffffff16815260200190815260200160002060008373ffffffffffffffffffffffffffffffffffffffff1673ffffffffffffffffffffffffffffffffffffffff16815260200190815260200160002060009054906101000a900460ff16905092915050565b61134861151e565b73ffffffffffffffffffffffffffffffffffffffff16611366610fb3565b73ffffffffffffffffffffffffffffffffffffffff16146113bc576040517f08c379a00000000000000000000000000000000000000000000000000000000081526004016113b390614d9c565b60405180910390fd5b600073ffffffffffffffffffffffffffffffffffffffff168173ffffffffffffffffffffffffffffffffffffffff16141561142c576040517f08c379a000000000000000000000000000000000000000000000000000000000815260040161142390614b3c565b60405180910390fd5b61143581611e5a565b50565b60007f780e9d63000000000000000000000000000000000000000000000000000000007bffffffffffffffffffffffffffffffffffffffffffffffffffffffff1916827bffffffffffffffffffffffffffffffffffffffffffffffffffffffff191614806114ab57506114aa82612442565b5b9050919050565b60008073ffffffffffffffffffffffffffffffffffffffff166002600084815260200190815260200160002060009054906101000a900473ffffffffffffffffffffffffffffffffffffffff1673ffffffffffffffffffffffffffffffffffffffff1614159050919050565b600033905090565b816004600083815260200190815260200160002060006101000a81548173ffffffffffffffffffffffffffffffffffffffff021916908373ffffffffffffffffffffffffffffffffffffffff160217905550808273ffffffffffffffffffffffffffffffffffffffff1661159983610c3f565b73ffffffffffffffffffffffffffffffffffffffff167f8c5be1e5ebec7d5bd14f71427d1e84f3dd0314c0f7b2291e5b200ac8c7c3b92560405160405180910390a45050565b60006115ea826114b2565b611629576040517f08c379a000000000000000000000000000000000000000000000000000000000815260040161162090614bfc565b60405180910390fd5b600061163483610c3f565b90508073ffffffffffffffffffffffffffffffffffffffff168473ffffffffffffffffffffffffffffffffffffffff1614806116a357508373ffffffffffffffffffffffffffffffffffffffff1661168b846106f3565b73ffffffffffffffffffffffffffffffffffffffff16145b806116b457506116b381856112ac565b5b91505092915050565b8273ffffffffffffffffffffffffffffffffffffffff166116dd82610c3f565b73ffffffffffffffffffffffffffffffffffffffff1614611733576040517f08c379a000000000000000000000000000000000000000000000000000000000815260040161172a90614b5c565b60405180910390fd5b600073ffffffffffffffffffffffffffffffffffffffff168273ffffffffffffffffffffffffffffffffffffffff1614156117a3576040517f08c379a000000000000000000000000000000000000000000000000000000000815260040161179a90614b9c565b60405180910390fd5b6117ae838383612524565b6117b9600082611526565b6001600360008573ffffffffffffffffffffffffffffffffffffffff1673ffffffffffffffffffffffffffffffffffffffff16815260200190815260200160002060008282546118099190615031565b925050819055506001600360008473ffffffffffffffffffffffffffffffffffffffff1673ffffffffffffffffffffffffffffffffffffffff16815260200190815260200160002060008282546118609190614faa565b92505081905550816002600083815260200190815260200160002060006101000a81548173ffffffffffffffffffffffffffffffffffffffff021916908373ffffffffffffffffffffffffffffffffffffffff160217905550808273ffffffffffffffffffffffffffffffffffffffff168473ffffffffffffffffffffffffffffffffffffffff167fddf252ad1be2c89b69c2b068fc378daa952ba7f163c4a11628f55a4df523b3ef60405160405180910390a461191f83838361257c565b505050565b60007f000000000000000000000000000000000000000000000000000000000000000073ffffffffffffffffffffffffffffffffffffffff163073ffffffffffffffffffffffffffffffffffffffff161480156119a057507f000000000000000000000000000000000000000000000000000000000000000046145b156119cd577f00000000000000000000000000000000000000000000000000000000000000009050611a3b565b611a387f00000000000000000000000000000000000000000000000000000000000000007f00000000000000000000000000000000000000000000000000000000000000007f000000000000000000000000000000000000000000000000000000000000000061258c565b90505b90565b6000438210611a82576040517f08c379a0000000000000000000000000000000000000000000000000000000008152600401611a7990614c1c565b60405180910390fd5b60008360000180549050905060005b81811015611b2c576000611aa582846125c6565b905084866000018281548110611ae4577f4e487b7100000000000000000000000000000000000000000000000000000000600052603260045260246000fd5b9060005260206000200160000160009054906101000a900463ffffffff1663ffffffff161115611b1657809250611b26565b600181611b239190614faa565b91505b50611a91565b60008214611bb75784600001600183611b459190615031565b81548110611b7c577f4e487b7100000000000000000000000000000000000000000000000000000000600052603260045260246000fd5b9060005260206000200160000160049054906101000a90047bffffffffffffffffffffffffffffffffffffffffffffffffffffffff16611bba565b60005b7bffffffffffffffffffffffffffffffffffffffffffffffffffffffff169250505092915050565b611bea610c28565b611c29576040517f08c379a0000000000000000000000000000000000000000000000000000000008152600401611c2090614a9c565b60405180910390fd5b6000600b60006101000a81548160ff0219169083151502179055507f5db9ee0a495bf2e6ff9c91a7834c1ba4fdd244a5e8aa4e537bd38aeae4b073aa611c6d61151e565b604051611c7a91906148e0565b60405180910390a1565b611c8d816125ec565b50565b6000611c9b83610ba5565b905081600c60008573ffffffffffffffffffffffffffffffffffffffff1673ffffffffffffffffffffffffffffffffffffffff16815260200190815260200160002060006101000a81548173ffffffffffffffffffffffffffffffffffffffff021916908373ffffffffffffffffffffffffffffffffffffffff1602179055508173ffffffffffffffffffffffffffffffffffffffff168173ffffffffffffffffffffffffffffffffffffffff168473ffffffffffffffffffffffffffffffffffffffff167f3134e8a2e6d97e929a7e54011ea5485d7d196dd5f0ba4d4ef95803e8e3fc257f60405160405180910390a4611d9f8183611d9a8661263f565b612651565b505050565b600081600001549050919050565b6001816000016000828254019250508190555050565b611de282826040518060200160405280600081525061285e565b5050565b611def826114b2565b611e2e576040517f08c379a0000000000000000000000000000000000000000000000000000000008152600401611e2590614cdc565b60405180910390fd5b80600a60008481526020019081526020016000209080519060200190611e55929190613da8565b505050565b6000600b60019054906101000a900473ffffffffffffffffffffffffffffffffffffffff16905081600b60016101000a81548173ffffffffffffffffffffffffffffffffffffffff021916908373ffffffffffffffffffffffffffffffffffffffff1602179055508173ffffffffffffffffffffffffffffffffffffffff168173ffffffffffffffffffffffffffffffffffffffff167f8be0079c531659141344cd1fd0a4f28419497f9722a3daafe3b4186f6b6457e060405160405180910390a35050565b611f28610c28565b15611f68576040517f08c379a0000000000000000000000000000000000000000000000000000000008152600401611f5f90614c3c565b60405180910390fd5b6001600b60006101000a81548160ff0219169083151502179055507f62e78cea01bee320cd4e420270b5ea74000d11b0c9f74754ebdbfc544b05a258611fac61151e565b604051611fb991906148e0565b60405180910390a1565b600080826000018054905090506000811461205b5782600001600182611fe99190615031565b81548110612020577f4e487b7100000000000000000000000000000000000000000000000000000000600052603260045260246000fd5b9060005260206000200160000160049054906101000a90047bffffffffffffffffffffffffffffffffffffffffffffffffffffffff1661205e565b60005b7bffffffffffffffffffffffffffffffffffffffffffffffffffffffff16915050919050565b8173ffffffffffffffffffffffffffffffffffffffff168373ffffffffffffffffffffffffffffffffffffffff1614156120f3576040517f08c379a00000000000000000000000000000000000000000000000000000000081526004016120ea90614bbc565b60405180910390fd5b80600560008573ffffffffffffffffffffffffffffffffffffffff1673ffffffffffffffffffffffffffffffffffffffff16815260200190815260200160002060008473ffffffffffffffffffffffffffffffffffffffff1673ffffffffffffffffffffffffffffffffffffffff16815260200190815260200160002060006101000a81548160ff0219169083151502179055508173ffffffffffffffffffffffffffffffffffffffff168373ffffffffffffffffffffffffffffffffffffffff167f17307eab39ab6107e8899845ad3d59bd9653f200f220920489ca2b5937696c31836040516121e49190614947565b60405180910390a3505050565b6121fc8484846116bd565b612208848484846128b9565b612247576040517f08c379a000000000000000000000000000000000000000000000000000000000815260040161223e90614b1c565b60405180910390fd5b50505050565b600061226061225a611924565b83612a50565b9050919050565b600080600061227887878787612a83565b9150915061228581612b90565b8192505050949350505050565b600080600f60008473ffffffffffffffffffffffffffffffffffffffff1673ffffffffffffffffffffffffffffffffffffffff16815260200190815260200160002090506122df81611da4565b91506122ea81611db2565b50919050565b60606122fb826114b2565b61233a576040517f08c379a000000000000000000000000000000000000000000000000000000000815260040161233190614d5c565b60405180910390fd5b6000600a6000848152602001908152602001600020805461235a90615132565b80601f016020809104026020016040519081016040528092919081815260200182805461238690615132565b80156123d35780601f106123a8576101008083540402835291602001916123d3565b820191906000526020600020905b8154815290600101906020018083116123b657829003601f168201915b5050505050905060006123e4612ee1565b90506000815114156123fa57819250505061243d565b60008251111561242f578082604051602001612417929190614885565b6040516020818303038152906040529250505061243d565b61243884612ef8565b925050505b919050565b60007f80ac58cd000000000000000000000000000000000000000000000000000000007bffffffffffffffffffffffffffffffffffffffffffffffffffffffff1916827bffffffffffffffffffffffffffffffffffffffffffffffffffffffff1916148061250d57507f5b5e139f000000000000000000000000000000000000000000000000000000007bffffffffffffffffffffffffffffffffffffffffffffffffffffffff1916827bffffffffffffffffffffffffffffffffffffffffffffffffffffffff1916145b8061251d575061251c82612f9f565b5b9050919050565b61252c610c28565b1561256c576040517f08c379a000000000000000000000000000000000000000000000000000000000815260040161256390614c3c565b60405180910390fd5b612577838383613009565b505050565b61258783838361311d565b505050565b600083838346306040516020016125a79594939291906149c2565b6040516020818303038152906040528051906020012090509392505050565b600060028284186125d79190615000565b8284166125e49190614faa565b905092915050565b6125f581613139565b6000600a6000838152602001908152602001600020805461261590615132565b90501461263c57600a6000828152602001908152602001600020600061263b9190613e2e565b5b50565b600061264a82610d9d565b9050919050565b8173ffffffffffffffffffffffffffffffffffffffff168373ffffffffffffffffffffffffffffffffffffffff161415801561268d5750600081115b1561285957600073ffffffffffffffffffffffffffffffffffffffff168373ffffffffffffffffffffffffffffffffffffffff16146127755760008061271e61325684600d60008973ffffffffffffffffffffffffffffffffffffffff1673ffffffffffffffffffffffffffffffffffffffff16815260200190815260200160002061326c9092919063ffffffff16565b915091508473ffffffffffffffffffffffffffffffffffffffff167fdec2bacdd2f05b59de34da9b523dff8be42e5e38e818c82fdb0bae774387a724838360405161276a929190614eb7565b60405180910390a250505b600073ffffffffffffffffffffffffffffffffffffffff168273ffffffffffffffffffffffffffffffffffffffff16146128585760008061280161329a84600d60008873ffffffffffffffffffffffffffffffffffffffff1673ffffffffffffffffffffffffffffffffffffffff16815260200190815260200160002061326c9092919063ffffffff16565b915091508373ffffffffffffffffffffffffffffffffffffffff167fdec2bacdd2f05b59de34da9b523dff8be42e5e38e818c82fdb0bae774387a724838360405161284d929190614eb7565b60405180910390a250505b5b505050565b61286883836132b0565b61287560008484846128b9565b6128b4576040517f08c379a00000000000000000000000000000000000000000000000000000000081526004016128ab90614b1c565b60405180910390fd5b505050565b60006128da8473ffffffffffffffffffffffffffffffffffffffff1661348a565b15612a43578373ffffffffffffffffffffffffffffffffffffffff1663150b7a0261290361151e565b8786866040518563ffffffff1660e01b815260040161292594939291906148fb565b602060405180830381600087803b15801561293f57600080fd5b505af192505050801561297057506040513d601f19601f8201168201806040525081019061296d9190614247565b60015b6129f3573d80600081146129a0576040519150601f19603f3d011682016040523d82523d6000602084013e6129a5565b606091505b506000815114156129eb576040517f08c379a00000000000000000000000000000000000000000000000000000000081526004016129e290614b1c565b60405180910390fd5b805181602001fd5b63150b7a0260e01b7bffffffffffffffffffffffffffffffffffffffffffffffffffffffff1916817bffffffffffffffffffffffffffffffffffffffffffffffffffffffff191614915050612a48565b600190505b949350505050565b60008282604051602001612a659291906148a9565b60405160208183030381529060405280519060200120905092915050565b6000807f7fffffffffffffffffffffffffffffff5d576e7357a4501ddfe92f46681b20a08360001c1115612abe576000600391509150612b87565b601b8560ff1614158015612ad65750601c8560ff1614155b15612ae8576000600491509150612b87565b600060018787878760405160008152602001604052604051612b0d9493929190614a15565b6020604051602081039080840390855afa158015612b2f573d6000803e3d6000fd5b505050602060405103519050600073ffffffffffffffffffffffffffffffffffffffff168173ffffffffffffffffffffffffffffffffffffffff161415612b7e57600060019250925050612b87565b80600092509250505b94509492505050565b60006004811115612bca577f4e487b7100000000000000000000000000000000000000000000000000000000600052602160045260246000fd5b816004811115612c03577f4e487b7100000000000000000000000000000000000000000000000000000000600052602160045260246000fd5b1415612c0e57612ede565b60016004811115612c48577f4e487b7100000000000000000000000000000000000000000000000000000000600052602160045260246000fd5b816004811115612c81577f4e487b7100000000000000000000000000000000000000000000000000000000600052602160045260246000fd5b1415612cc2576040517f08c379a0000000000000000000000000000000000000000000000000000000008152600401612cb990614a7c565b60405180910390fd5b60026004811115612cfc577f4e487b7100000000000000000000000000000000000000000000000000000000600052602160045260246000fd5b816004811115612d35577f4e487b7100000000000000000000000000000000000000000000000000000000600052602160045260246000fd5b1415612d76576040517f08c379a0000000000000000000000000000000000000000000000000000000008152600401612d6d90614adc565b60405180910390fd5b60036004811115612db0577f4e487b7100000000000000000000000000000000000000000000000000000000600052602160045260246000fd5b816004811115612de9577f4e487b7100000000000000000000000000000000000000000000000000000000600052602160045260246000fd5b1415612e2a576040517f08c379a0000000000000000000000000000000000000000000000000000000008152600401612e2190614bdc565b60405180910390fd5b600480811115612e63577f4e487b7100000000000000000000000000000000000000000000000000000000600052602160045260246000fd5b816004811115612e9c577f4e487b7100000000000000000000000000000000000000000000000000000000600052602160045260246000fd5b1415612edd576040517f08c379a0000000000000000000000000000000000000000000000000000000008152600401612ed490614d1c565b60405180910390fd5b5b50565b606060405180602001604052806000815250905090565b6060612f03826114b2565b612f42576040517f08c379a0000000000000000000000000000000000000000000000000000000008152600401612f3990614ddc565b60405180910390fd5b6000612f4c612ee1565b90506000815111612f6c5760405180602001604052806000815250612f97565b80612f76846134ad565b604051602001612f87929190614885565b6040516020818303038152906040525b915050919050565b60007f01ffc9a7000000000000000000000000000000000000000000000000000000007bffffffffffffffffffffffffffffffffffffffffffffffffffffffff1916827bffffffffffffffffffffffffffffffffffffffffffffffffffffffff1916149050919050565b61301483838361365a565b600073ffffffffffffffffffffffffffffffffffffffff168373ffffffffffffffffffffffffffffffffffffffff161415613057576130528161365f565b613096565b8173ffffffffffffffffffffffffffffffffffffffff168373ffffffffffffffffffffffffffffffffffffffff16146130955761309483826136a8565b5b5b600073ffffffffffffffffffffffffffffffffffffffff168273ffffffffffffffffffffffffffffffffffffffff1614156130d9576130d481613815565b613118565b8273ffffffffffffffffffffffffffffffffffffffff168273ffffffffffffffffffffffffffffffffffffffff1614613117576131168282613958565b5b5b505050565b613129838360016139d7565b613134838383613a97565b505050565b600061314482610c3f565b905061315281600084612524565b61315d600083611526565b6001600360008373ffffffffffffffffffffffffffffffffffffffff1673ffffffffffffffffffffffffffffffffffffffff16815260200190815260200160002060008282546131ad9190615031565b925050819055506002600083815260200190815260200160002060006101000a81549073ffffffffffffffffffffffffffffffffffffffff021916905581600073ffffffffffffffffffffffffffffffffffffffff168273ffffffffffffffffffffffffffffffffffffffff167fddf252ad1be2c89b69c2b068fc378daa952ba7f163c4a11628f55a4df523b3ef60405160405180910390a46132528160008461257c565b5050565b600081836132649190615031565b905092915050565b60008061328e8561328961327f88611fc3565b868863ffffffff16565b613a9c565b91509150935093915050565b600081836132a89190614faa565b905092915050565b600073ffffffffffffffffffffffffffffffffffffffff168273ffffffffffffffffffffffffffffffffffffffff161415613320576040517f08c379a000000000000000000000000000000000000000000000000000000000815260040161331790614d3c565b60405180910390fd5b613329816114b2565b15613369576040517f08c379a000000000000000000000000000000000000000000000000000000000815260040161336090614b7c565b60405180910390fd5b61337560008383612524565b6001600360008473ffffffffffffffffffffffffffffffffffffffff1673ffffffffffffffffffffffffffffffffffffffff16815260200190815260200160002060008282546133c59190614faa565b92505081905550816002600083815260200190815260200160002060006101000a81548173ffffffffffffffffffffffffffffffffffffffff021916908373ffffffffffffffffffffffffffffffffffffffff160217905550808273ffffffffffffffffffffffffffffffffffffffff16600073ffffffffffffffffffffffffffffffffffffffff167fddf252ad1be2c89b69c2b068fc378daa952ba7f163c4a11628f55a4df523b3ef60405160405180910390a46134866000838361257c565b5050565b6000808273ffffffffffffffffffffffffffffffffffffffff163b119050919050565b606060008214156134f5576040518060400160405280600181526020017f30000000000000000000000000000000000000000000000000000000000000008152509050613655565b600082905060005b6000821461352757808061351090615195565b915050600a826135209190615000565b91506134fd565b60008167ffffffffffffffff811115613569577f4e487b7100000000000000000000000000000000000000000000000000000000600052604160045260246000fd5b6040519080825280601f01601f19166020018201604052801561359b5781602001600182028036833780820191505090505b5090505b6000851461364e576001826135b49190615031565b9150600a856135c391906151e8565b60306135cf9190614faa565b60f81b81838151811061360b577f4e487b7100000000000000000000000000000000000000000000000000000000600052603260045260246000fd5b60200101907effffffffffffffffffffffffffffffffffffffffffffffffffffffffffffff1916908160001a905350600a856136479190615000565b945061359f565b8093505050505b919050565b505050565b6008805490506009600083815260200190815260200160002081905550600881908060018154018082558091505060019003906000526020600020016000909190919091505550565b600060016136b584610d9d565b6136bf9190615031565b90506000600760008481526020019081526020016000205490508181146137a4576000600660008673ffffffffffffffffffffffffffffffffffffffff1673ffffffffffffffffffffffffffffffffffffffff168152602001908152602001600020600084815260200190815260200160002054905080600660008773ffffffffffffffffffffffffffffffffffffffff1673ffffffffffffffffffffffffffffffffffffffff168152602001908152602001600020600084815260200190815260200160002081905550816007600083815260200190815260200160002081905550505b6007600084815260200190815260200160002060009055600660008573ffffffffffffffffffffffffffffffffffffffff1673ffffffffffffffffffffffffffffffffffffffff16815260200190815260200160002060008381526020019081526020016000206000905550505050565b600060016008805490506138299190615031565b905060006009600084815260200190815260200160002054905060006008838154811061387f577f4e487b7100000000000000000000000000000000000000000000000000000000600052603260045260246000fd5b9060005260206000200154905080600883815481106138c7577f4e487b7100000000000000000000000000000000000000000000000000000000600052603260045260246000fd5b90600052602060002001819055508160096000838152602001908152602001600020819055506009600085815260200190815260200160002060009055600880548061393c577f4e487b7100000000000000000000000000000000000000000000000000000000600052603160045260246000fd5b6001900381819060005260206000200160009055905550505050565b600061396383610d9d565b905081600660008573ffffffffffffffffffffffffffffffffffffffff1673ffffffffffffffffffffffffffffffffffffffff168152602001908152602001600020600083815260200190815260200160002081905550806007600084815260200190815260200160002081905550505050565b600073ffffffffffffffffffffffffffffffffffffffff168373ffffffffffffffffffffffffffffffffffffffff161415613a2757613a2461329a82600e61326c9092919063ffffffff16565b50505b600073ffffffffffffffffffffffffffffffffffffffff168273ffffffffffffffffffffffffffffffffffffffff161415613a7757613a7461325682600e61326c9092919063ffffffff16565b50505b613a92613a8384610ba5565b613a8c84610ba5565b83612651565b505050565b505050565b6000806000846000018054905090506000613ab686611fc3565b9050600082118015613b3257504386600001600184613ad59190615031565b81548110613b0c577f4e487b7100000000000000000000000000000000000000000000000000000000600052603260045260246000fd5b9060005260206000200160000160009054906101000a900463ffffffff1663ffffffff16145b15613be857613b4085613cea565b86600001600184613b519190615031565b81548110613b88577f4e487b7100000000000000000000000000000000000000000000000000000000600052603260045260246000fd5b9060005260206000200160000160046101000a8154817bffffffffffffffffffffffffffffffffffffffffffffffffffffffff02191690837bffffffffffffffffffffffffffffffffffffffffffffffffffffffff160217905550613cdb565b856000016040518060400160405280613c0043613d55565b63ffffffff168152602001613c1488613cea565b7bffffffffffffffffffffffffffffffffffffffffffffffffffffffff168152509080600181540180825580915050600190039060005260206000200160009091909190915060008201518160000160006101000a81548163ffffffff021916908363ffffffff16021790555060208201518160000160046101000a8154817bffffffffffffffffffffffffffffffffffffffffffffffffffffffff02191690837bffffffffffffffffffffffffffffffffffffffffffffffffffffffff16021790555050505b80859350935050509250929050565b60007bffffffffffffffffffffffffffffffffffffffffffffffffffffffff8016821115613d4d576040517f08c379a0000000000000000000000000000000000000000000000000000000008152600401613d4490614dbc565b60405180910390fd5b819050919050565b600063ffffffff8016821115613da0576040517f08c379a0000000000000000000000000000000000000000000000000000000008152600401613d9790614e3c565b60405180910390fd5b819050919050565b828054613db490615132565b90600052602060002090601f016020900481019282613dd65760008555613e1d565b82601f10613def57805160ff1916838001178555613e1d565b82800160010185558215613e1d579182015b82811115613e1c578251825591602001919060010190613e01565b5b509050613e2a9190613e6e565b5090565b508054613e3a90615132565b6000825580601f10613e4c5750613e6b565b601f016020900490600052602060002090810190613e6a9190613e6e565b5b50565b5b80821115613e87576000816000905550600101613e6f565b5090565b6000613e9e613e9984614f05565b614ee0565b905082815260208101848484011115613eb657600080fd5b613ec18482856150f0565b509392505050565b6000613edc613ed784614f36565b614ee0565b905082815260208101848484011115613ef457600080fd5b613eff8482856150f0565b509392505050565b600081359050613f1681615b76565b92915050565b600081359050613f2b81615b8d565b92915050565b600081359050613f4081615ba4565b92915050565b600081359050613f5581615bbb565b92915050565b600081519050613f6a81615bbb565b92915050565b600082601f830112613f8157600080fd5b8135613f91848260208601613e8b565b91505092915050565b600082601f830112613fab57600080fd5b8135613fbb848260208601613ec9565b91505092915050565b600081359050613fd381615bd2565b92915050565b600081359050613fe881615be9565b92915050565b60006020828403121561400057600080fd5b600061400e84828501613f07565b91505092915050565b6000806040838503121561402a57600080fd5b600061403885828601613f07565b925050602061404985828601613f07565b9150509250929050565b60008060006060848603121561406857600080fd5b600061407686828701613f07565b935050602061408786828701613f07565b925050604061409886828701613fc4565b9150509250925092565b600080600080608085870312156140b857600080fd5b60006140c687828801613f07565b94505060206140d787828801613f07565b93505060406140e887828801613fc4565b925050606085013567ffffffffffffffff81111561410557600080fd5b61411187828801613f70565b91505092959194509250565b6000806040838503121561413057600080fd5b600061413e85828601613f07565b925050602061414f85828601613f1c565b9150509250929050565b6000806040838503121561416c57600080fd5b600061417a85828601613f07565b925050602061418b85828601613fc4565b9150509250929050565b60008060008060008060c087890312156141ae57600080fd5b60006141bc89828a01613f07565b96505060206141cd89828a01613fc4565b95505060406141de89828a01613fc4565b94505060606141ef89828a01613fd9565b935050608061420089828a01613f31565b92505060a061421189828a01613f31565b9150509295509295509295565b60006020828403121561423057600080fd5b600061423e84828501613f46565b91505092915050565b60006020828403121561425957600080fd5b600061426784828501613f5b565b91505092915050565b60006020828403121561428257600080fd5b600082013567ffffffffffffffff81111561429c57600080fd5b6142a884828501613f9a565b91505092915050565b6000602082840312156142c357600080fd5b60006142d184828501613fc4565b91505092915050565b6142e381615065565b82525050565b6142f281615077565b82525050565b61430181615083565b82525050565b61431861431382615083565b6151de565b82525050565b600061432982614f67565b6143338185614f7d565b93506143438185602086016150ff565b61434c816152d5565b840191505092915050565b600061436282614f72565b61436c8185614f8e565b935061437c8185602086016150ff565b614385816152d5565b840191505092915050565b600061439b82614f72565b6143a58185614f9f565b93506143b58185602086016150ff565b80840191505092915050565b60006143ce601883614f8e565b91506143d9826152e6565b602082019050919050565b60006143f1601483614f8e565b91506143fc8261530f565b602082019050919050565b6000614414601483614f8e565b915061441f82615338565b602082019050919050565b6000614437601f83614f8e565b915061444282615361565b602082019050919050565b600061445a602b83614f8e565b91506144658261538a565b604082019050919050565b600061447d603283614f8e565b9150614488826153d9565b604082019050919050565b60006144a0602683614f8e565b91506144ab82615428565b604082019050919050565b60006144c3602583614f8e565b91506144ce82615477565b604082019050919050565b60006144e6601c83614f8e565b91506144f1826154c6565b602082019050919050565b6000614509600283614f9f565b9150614514826154ef565b600282019050919050565b600061452c602483614f8e565b915061453782615518565b604082019050919050565b600061454f601983614f8e565b915061455a82615567565b602082019050919050565b6000614572602283614f8e565b915061457d82615590565b604082019050919050565b6000614595602c83614f8e565b91506145a0826155df565b604082019050919050565b60006145b8602083614f8e565b91506145c38261562e565b602082019050919050565b60006145db601083614f8e565b91506145e682615657565b602082019050919050565b60006145fe601883614f8e565b915061460982615680565b602082019050919050565b6000614621603883614f8e565b915061462c826156a9565b604082019050919050565b6000614644602a83614f8e565b915061464f826156f8565b604082019050919050565b6000614667602983614f8e565b915061467282615747565b604082019050919050565b600061468a602e83614f8e565b915061469582615796565b604082019050919050565b60006146ad601a83614f8e565b91506146b8826157e5565b602082019050919050565b60006146d0602283614f8e565b91506146db8261580e565b604082019050919050565b60006146f3602083614f8e565b91506146fe8261585d565b602082019050919050565b6000614716603183614f8e565b915061472182615886565b604082019050919050565b6000614739602c83614f8e565b9150614744826158d5565b604082019050919050565b600061475c602083614f8e565b915061476782615924565b602082019050919050565b600061477f602783614f8e565b915061478a8261594d565b604082019050919050565b60006147a2602f83614f8e565b91506147ad8261599c565b604082019050919050565b60006147c5602183614f8e565b91506147d0826159eb565b604082019050919050565b60006147e8603183614f8e565b91506147f382615a3a565b604082019050919050565b600061480b602683614f8e565b915061481682615a89565b604082019050919050565b600061482e602c83614f8e565b915061483982615ad8565b604082019050919050565b6000614851603083614f8e565b915061485c82615b27565b604082019050919050565b614870816150d9565b82525050565b61487f816150e3565b82525050565b60006148918285614390565b915061489d8284614390565b91508190509392505050565b60006148b4826144fc565b91506148c08285614307565b6020820191506148d08284614307565b6020820191508190509392505050565b60006020820190506148f560008301846142da565b92915050565b600060808201905061491060008301876142da565b61491d60208301866142da565b61492a6040830185614867565b818103606083015261493c818461431e565b905095945050505050565b600060208201905061495c60008301846142e9565b92915050565b600060208201905061497760008301846142f8565b92915050565b600060808201905061499260008301876142f8565b61499f60208301866142da565b6149ac6040830185614867565b6149b96060830184614867565b95945050505050565b600060a0820190506149d760008301886142f8565b6149e460208301876142f8565b6149f160408301866142f8565b6149fe6060830185614867565b614a0b60808301846142da565b9695505050505050565b6000608082019050614a2a60008301876142f8565b614a376020830186614876565b614a4460408301856142f8565b614a5160608301846142f8565b95945050505050565b60006020820190508181036000830152614a748184614357565b905092915050565b60006020820190508181036000830152614a95816143c1565b9050919050565b60006020820190508181036000830152614ab5816143e4565b9050919050565b60006020820190508181036000830152614ad581614407565b9050919050565b60006020820190508181036000830152614af58161442a565b9050919050565b60006020820190508181036000830152614b158161444d565b9050919050565b60006020820190508181036000830152614b3581614470565b9050919050565b60006020820190508181036000830152614b5581614493565b9050919050565b60006020820190508181036000830152614b75816144b6565b9050919050565b60006020820190508181036000830152614b95816144d9565b9050919050565b60006020820190508181036000830152614bb58161451f565b9050919050565b60006020820190508181036000830152614bd581614542565b9050919050565b60006020820190508181036000830152614bf581614565565b9050919050565b60006020820190508181036000830152614c1581614588565b9050919050565b60006020820190508181036000830152614c35816145ab565b9050919050565b60006020820190508181036000830152614c55816145ce565b9050919050565b60006020820190508181036000830152614c75816145f1565b9050919050565b60006020820190508181036000830152614c9581614614565b9050919050565b60006020820190508181036000830152614cb581614637565b9050919050565b60006020820190508181036000830152614cd58161465a565b9050919050565b60006020820190508181036000830152614cf58161467d565b9050919050565b60006020820190508181036000830152614d15816146a0565b9050919050565b60006020820190508181036000830152614d35816146c3565b9050919050565b60006020820190508181036000830152614d55816146e6565b9050919050565b60006020820190508181036000830152614d7581614709565b9050919050565b60006020820190508181036000830152614d958161472c565b9050919050565b60006020820190508181036000830152614db58161474f565b9050919050565b60006020820190508181036000830152614dd581614772565b9050919050565b60006020820190508181036000830152614df581614795565b9050919050565b60006020820190508181036000830152614e15816147b8565b9050919050565b60006020820190508181036000830152614e35816147db565b9050919050565b60006020820190508181036000830152614e55816147fe565b9050919050565b60006020820190508181036000830152614e7581614821565b9050919050565b60006020820190508181036000830152614e9581614844565b9050919050565b6000602082019050614eb16000830184614867565b92915050565b6000604082019050614ecc6000830185614867565b614ed96020830184614867565b9392505050565b6000614eea614efb565b9050614ef68282615164565b919050565b6000604051905090565b600067ffffffffffffffff821115614f2057614f1f6152a6565b5b614f29826152d5565b9050602081019050919050565b600067ffffffffffffffff821115614f5157614f506152a6565b5b614f5a826152d5565b9050602081019050919050565b600081519050919050565b600081519050919050565b600082825260208201905092915050565b600082825260208201905092915050565b600081905092915050565b6000614fb5826150d9565b9150614fc0836150d9565b9250827fffffffffffffffffffffffffffffffffffffffffffffffffffffffffffffffff03821115614ff557614ff4615219565b5b828201905092915050565b600061500b826150d9565b9150615016836150d9565b92508261502657615025615248565b5b828204905092915050565b600061503c826150d9565b9150615047836150d9565b92508282101561505a57615059615219565b5b828203905092915050565b6000615070826150b9565b9050919050565b60008115159050919050565b6000819050919050565b60007fffffffff0000000000000000000000000000000000000000000000000000000082169050919050565b600073ffffffffffffffffffffffffffffffffffffffff82169050919050565b6000819050919050565b600060ff82169050919050565b82818337600083830152505050565b60005b8381101561511d578082015181840152602081019050615102565b8381111561512c576000848401525b50505050565b6000600282049050600182168061514a57607f821691505b6020821081141561515e5761515d615277565b5b50919050565b61516d826152d5565b810181811067ffffffffffffffff8211171561518c5761518b6152a6565b5b80604052505050565b60006151a0826150d9565b91507fffffffffffffffffffffffffffffffffffffffffffffffffffffffffffffffff8214156151d3576151d2615219565b5b600182019050919050565b6000819050919050565b60006151f3826150d9565b91506151fe836150d9565b92508261520e5761520d615248565b5b828206905092915050565b7f4e487b7100000000000000000000000000000000000000000000000000000000600052601160045260246000fd5b7f4e487b7100000000000000000000000000000000000000000000000000000000600052601260045260246000fd5b7f4e487b7100000000000000000000000000000000000000000000000000000000600052602260045260246000fd5b7f4e487b7100000000000000000000000000000000000000000000000000000000600052604160045260246000fd5b6000601f19601f8301169050919050565b7f45434453413a20696e76616c6964207369676e61747572650000000000000000600082015250565b7f5061757361626c653a206e6f7420706175736564000000000000000000000000600082015250565b7f566f7465733a20696e76616c6964206e6f6e6365000000000000000000000000600082015250565b7f45434453413a20696e76616c6964207369676e6174757265206c656e67746800600082015250565b7f455243373231456e756d657261626c653a206f776e657220696e646578206f7560008201527f74206f6620626f756e6473000000000000000000000000000000000000000000602082015250565b7f4552433732313a207472616e7366657220746f206e6f6e20455243373231526560008201527f63656976657220696d706c656d656e7465720000000000000000000000000000602082015250565b7f4f776e61626c653a206e6577206f776e657220697320746865207a65726f206160008201527f6464726573730000000000000000000000000000000000000000000000000000602082015250565b7f4552433732313a207472616e736665722066726f6d20696e636f72726563742060008201527f6f776e6572000000000000000000000000000000000000000000000000000000602082015250565b7f4552433732313a20746f6b656e20616c7265616479206d696e74656400000000600082015250565b7f1901000000000000000000000000000000000000000000000000000000000000600082015250565b7f4552433732313a207472616e7366657220746f20746865207a65726f2061646460008201527f7265737300000000000000000000000000000000000000000000000000000000602082015250565b7f4552433732313a20617070726f766520746f2063616c6c657200000000000000600082015250565b7f45434453413a20696e76616c6964207369676e6174757265202773272076616c60008201527f7565000000000000000000000000000000000000000000000000000000000000602082015250565b7f4552433732313a206f70657261746f7220717565727920666f72206e6f6e657860008201527f697374656e7420746f6b656e0000000000000000000000000000000000000000602082015250565b7f436865636b706f696e74733a20626c6f636b206e6f7420796574206d696e6564600082015250565b7f5061757361626c653a2070617573656400000000000000000000000000000000600082015250565b7f566f7465733a207369676e617475726520657870697265640000000000000000600082015250565b7f4552433732313a20617070726f76652063616c6c6572206973206e6f74206f7760008201527f6e6572206e6f7220617070726f76656420666f7220616c6c0000000000000000602082015250565b7f4552433732313a2062616c616e636520717565727920666f7220746865207a6560008201527f726f206164647265737300000000000000000000000000000000000000000000602082015250565b7f4552433732313a206f776e657220717565727920666f72206e6f6e657869737460008201527f656e7420746f6b656e0000000000000000000000000000000000000000000000602082015250565b7f45524337323155524953746f726167653a2055524920736574206f66206e6f6e60008201527f6578697374656e7420746f6b656e000000000000000000000000000000000000602082015250565b7f566f7465733a20626c6f636b206e6f7420796574206d696e6564000000000000600082015250565b7f45434453413a20696e76616c6964207369676e6174757265202776272076616c60008201527f7565000000000000000000000000000000000000000000000000000000000000602082015250565b7f4552433732313a206d696e7420746f20746865207a65726f2061646472657373600082015250565b7f45524337323155524953746f726167653a2055524920717565727920666f722060008201527f6e6f6e6578697374656e7420746f6b656e000000000000000000000000000000602082015250565b7f4552433732313a20617070726f76656420717565727920666f72206e6f6e657860008201527f697374656e7420746f6b656e0000000000000000000000000000000000000000602082015250565b7f4f776e61626c653a2063616c6c6572206973206e6f7420746865206f776e6572600082015250565b7f53616665436173743a2076616c756520646f65736e27742066697420696e203260008201527f3234206269747300000000000000000000000000000000000000000000000000602082015250565b7f4552433732314d657461646174613a2055524920717565727920666f72206e6f60008201527f6e6578697374656e7420746f6b656e0000000000000000000000000000000000602082015250565b7f4552433732313a20617070726f76616c20746f2063757272656e74206f776e6560008201527f7200000000000000000000000000000000000000000000000000000000000000602082015250565b7f4552433732313a207472616e736665722063616c6c6572206973206e6f74206f60008201527f776e6572206e6f7220617070726f766564000000000000000000000000000000602082015250565b7f53616665436173743a2076616c756520646f65736e27742066697420696e203360008201527f3220626974730000000000000000000000000000000000000000000000000000602082015250565b7f455243373231456e756d657261626c653a20676c6f62616c20696e646578206f60008201527f7574206f6620626f756e64730000000000000000000000000000000000000000602082015250565b7f4552433732314275726e61626c653a2063616c6c6572206973206e6f74206f7760008201527f6e6572206e6f7220617070726f76656400000000000000000000000000000000602082015250565b615b7f81615065565b8114615b8a57600080fd5b50565b615b9681615077565b8114615ba157600080fd5b50565b615bad81615083565b8114615bb857600080fd5b50565b615bc48161508d565b8114615bcf57600080fd5b50565b615bdb816150d9565b8114615be657600080fd5b50565b615bf2816150e3565b8114615bfd57600080fd5b5056fea2646970667358221220e3bce4697a3ba8ae81c1d1725bd5a5f5986f5e5590ccab4abe655d3866e8a98c64736f6c63430008040033",
  "linkReferences": {},
  "deployedLinkReferences": {}
}